{
	"contracts/MyToken.sol": {
		"RutraToken": {
			"abi": [
				{
					"inputs": [],
					"stateMutability": "nonpayable",
					"type": "constructor"
				},
				{
					"inputs": [],
					"name": "ECDSAInvalidSignature",
					"type": "error"
				},
				{
					"inputs": [
						{
							"internalType": "uint256",
							"name": "length",
							"type": "uint256"
						}
					],
					"name": "ECDSAInvalidSignatureLength",
					"type": "error"
				},
				{
					"inputs": [
						{
							"internalType": "bytes32",
							"name": "s",
							"type": "bytes32"
						}
					],
					"name": "ECDSAInvalidSignatureS",
					"type": "error"
				},
				{
					"inputs": [
						{
							"internalType": "address",
							"name": "spender",
							"type": "address"
						},
						{
							"internalType": "uint256",
							"name": "allowance",
							"type": "uint256"
						},
						{
							"internalType": "uint256",
							"name": "needed",
							"type": "uint256"
						}
					],
					"name": "ERC20InsufficientAllowance",
					"type": "error"
				},
				{
					"inputs": [
						{
							"internalType": "address",
							"name": "sender",
							"type": "address"
						},
						{
							"internalType": "uint256",
							"name": "balance",
							"type": "uint256"
						},
						{
							"internalType": "uint256",
							"name": "needed",
							"type": "uint256"
						}
					],
					"name": "ERC20InsufficientBalance",
					"type": "error"
				},
				{
					"inputs": [
						{
							"internalType": "address",
							"name": "approver",
							"type": "address"
						}
					],
					"name": "ERC20InvalidApprover",
					"type": "error"
				},
				{
					"inputs": [
						{
							"internalType": "address",
							"name": "receiver",
							"type": "address"
						}
					],
					"name": "ERC20InvalidReceiver",
					"type": "error"
				},
				{
					"inputs": [
						{
							"internalType": "address",
							"name": "sender",
							"type": "address"
						}
					],
					"name": "ERC20InvalidSender",
					"type": "error"
				},
				{
					"inputs": [
						{
							"internalType": "address",
							"name": "spender",
							"type": "address"
						}
					],
					"name": "ERC20InvalidSpender",
					"type": "error"
				},
				{
					"inputs": [
						{
							"internalType": "uint256",
							"name": "deadline",
							"type": "uint256"
						}
					],
					"name": "ERC2612ExpiredSignature",
					"type": "error"
				},
				{
					"inputs": [
						{
							"internalType": "address",
							"name": "signer",
							"type": "address"
						},
						{
							"internalType": "address",
							"name": "owner",
							"type": "address"
						}
					],
					"name": "ERC2612InvalidSigner",
					"type": "error"
				},
				{
					"inputs": [
						{
							"internalType": "address",
							"name": "account",
							"type": "address"
						},
						{
							"internalType": "uint256",
							"name": "currentNonce",
							"type": "uint256"
						}
					],
					"name": "InvalidAccountNonce",
					"type": "error"
				},
				{
					"inputs": [],
					"name": "InvalidShortString",
					"type": "error"
				},
				{
					"inputs": [
						{
							"internalType": "address",
							"name": "owner",
							"type": "address"
						}
					],
					"name": "OwnableInvalidOwner",
					"type": "error"
				},
				{
					"inputs": [
						{
							"internalType": "address",
							"name": "account",
							"type": "address"
						}
					],
					"name": "OwnableUnauthorizedAccount",
					"type": "error"
				},
				{
					"inputs": [
						{
							"internalType": "string",
							"name": "str",
							"type": "string"
						}
					],
					"name": "StringTooLong",
					"type": "error"
				},
				{
					"anonymous": false,
					"inputs": [
						{
							"indexed": true,
							"internalType": "address",
							"name": "owner",
							"type": "address"
						},
						{
							"indexed": true,
							"internalType": "address",
							"name": "spender",
							"type": "address"
						},
						{
							"indexed": false,
							"internalType": "uint256",
							"name": "value",
							"type": "uint256"
						}
					],
					"name": "Approval",
					"type": "event"
				},
				{
					"anonymous": false,
					"inputs": [],
					"name": "EIP712DomainChanged",
					"type": "event"
				},
				{
					"anonymous": false,
					"inputs": [
						{
							"indexed": true,
							"internalType": "address",
							"name": "previousOwner",
							"type": "address"
						},
						{
							"indexed": true,
							"internalType": "address",
							"name": "newOwner",
							"type": "address"
						}
					],
					"name": "OwnershipTransferred",
					"type": "event"
				},
				{
					"anonymous": false,
					"inputs": [
						{
							"indexed": true,
							"internalType": "address",
							"name": "from",
							"type": "address"
						},
						{
							"indexed": true,
							"internalType": "address",
							"name": "to",
							"type": "address"
						},
						{
							"indexed": false,
							"internalType": "uint256",
							"name": "value",
							"type": "uint256"
						}
					],
					"name": "Transfer",
					"type": "event"
				},
				{
					"inputs": [],
					"name": "DOMAIN_SEPARATOR",
					"outputs": [
						{
							"internalType": "bytes32",
							"name": "",
							"type": "bytes32"
						}
					],
					"stateMutability": "view",
					"type": "function"
				},
				{
					"inputs": [
						{
							"internalType": "address",
							"name": "owner",
							"type": "address"
						},
						{
							"internalType": "address",
							"name": "spender",
							"type": "address"
						}
					],
					"name": "allowance",
					"outputs": [
						{
							"internalType": "uint256",
							"name": "",
							"type": "uint256"
						}
					],
					"stateMutability": "view",
					"type": "function"
				},
				{
					"inputs": [
						{
							"internalType": "address",
							"name": "spender",
							"type": "address"
						},
						{
							"internalType": "uint256",
							"name": "value",
							"type": "uint256"
						}
					],
					"name": "approve",
					"outputs": [
						{
							"internalType": "bool",
							"name": "",
							"type": "bool"
						}
					],
					"stateMutability": "nonpayable",
					"type": "function"
				},
				{
					"inputs": [
						{
							"internalType": "address",
							"name": "account",
							"type": "address"
						}
					],
					"name": "balanceOf",
					"outputs": [
						{
							"internalType": "uint256",
							"name": "",
							"type": "uint256"
						}
					],
					"stateMutability": "view",
					"type": "function"
				},
				{
					"inputs": [
						{
							"internalType": "uint256",
							"name": "_amount",
							"type": "uint256"
						}
					],
					"name": "burn",
					"outputs": [],
					"stateMutability": "nonpayable",
					"type": "function"
				},
				{
					"inputs": [],
					"name": "decimals",
					"outputs": [
						{
							"internalType": "uint8",
							"name": "",
							"type": "uint8"
						}
					],
					"stateMutability": "view",
					"type": "function"
				},
				{
					"inputs": [],
					"name": "eip712Domain",
					"outputs": [
						{
							"internalType": "bytes1",
							"name": "fields",
							"type": "bytes1"
						},
						{
							"internalType": "string",
							"name": "name",
							"type": "string"
						},
						{
							"internalType": "string",
							"name": "version",
							"type": "string"
						},
						{
							"internalType": "uint256",
							"name": "chainId",
							"type": "uint256"
						},
						{
							"internalType": "address",
							"name": "verifyingContract",
							"type": "address"
						},
						{
							"internalType": "bytes32",
							"name": "salt",
							"type": "bytes32"
						},
						{
							"internalType": "uint256[]",
							"name": "extensions",
							"type": "uint256[]"
						}
					],
					"stateMutability": "view",
					"type": "function"
				},
				{
					"inputs": [],
					"name": "maxRutra",
					"outputs": [
						{
							"internalType": "uint256",
							"name": "",
							"type": "uint256"
						}
					],
					"stateMutability": "view",
					"type": "function"
				},
				{
					"inputs": [
						{
							"internalType": "address",
							"name": "_to",
							"type": "address"
						},
						{
							"internalType": "uint256",
							"name": "_amount",
							"type": "uint256"
						}
					],
					"name": "mint",
					"outputs": [],
					"stateMutability": "nonpayable",
					"type": "function"
				},
				{
					"inputs": [],
					"name": "name",
					"outputs": [
						{
							"internalType": "string",
							"name": "",
							"type": "string"
						}
					],
					"stateMutability": "view",
					"type": "function"
				},
				{
					"inputs": [
						{
							"internalType": "address",
							"name": "owner",
							"type": "address"
						}
					],
					"name": "nonces",
					"outputs": [
						{
							"internalType": "uint256",
							"name": "",
							"type": "uint256"
						}
					],
					"stateMutability": "view",
					"type": "function"
				},
				{
					"inputs": [],
					"name": "owner",
					"outputs": [
						{
							"internalType": "address",
							"name": "",
							"type": "address"
						}
					],
					"stateMutability": "view",
					"type": "function"
				},
				{
					"inputs": [
						{
							"internalType": "address",
							"name": "owner",
							"type": "address"
						},
						{
							"internalType": "address",
							"name": "spender",
							"type": "address"
						},
						{
							"internalType": "uint256",
							"name": "value",
							"type": "uint256"
						},
						{
							"internalType": "uint256",
							"name": "deadline",
							"type": "uint256"
						},
						{
							"internalType": "uint8",
							"name": "v",
							"type": "uint8"
						},
						{
							"internalType": "bytes32",
							"name": "r",
							"type": "bytes32"
						},
						{
							"internalType": "bytes32",
							"name": "s",
							"type": "bytes32"
						}
					],
					"name": "permit",
					"outputs": [],
					"stateMutability": "nonpayable",
					"type": "function"
				},
				{
					"inputs": [],
					"name": "renounceOwnership",
					"outputs": [],
					"stateMutability": "nonpayable",
					"type": "function"
				},
				{
					"inputs": [],
					"name": "symbol",
					"outputs": [
						{
							"internalType": "string",
							"name": "",
							"type": "string"
						}
					],
					"stateMutability": "view",
					"type": "function"
				},
				{
					"inputs": [],
					"name": "totalSupply",
					"outputs": [
						{
							"internalType": "uint256",
							"name": "",
							"type": "uint256"
						}
					],
					"stateMutability": "view",
					"type": "function"
				},
				{
					"inputs": [
						{
							"internalType": "address",
							"name": "to",
							"type": "address"
						},
						{
							"internalType": "uint256",
							"name": "value",
							"type": "uint256"
						}
					],
					"name": "transfer",
					"outputs": [
						{
							"internalType": "bool",
							"name": "",
							"type": "bool"
						}
					],
					"stateMutability": "nonpayable",
					"type": "function"
				},
				{
					"inputs": [
						{
							"internalType": "address",
							"name": "from",
							"type": "address"
						},
						{
							"internalType": "address",
							"name": "to",
							"type": "address"
						},
						{
							"internalType": "uint256",
							"name": "value",
							"type": "uint256"
						}
					],
					"name": "transferFrom",
					"outputs": [
						{
							"internalType": "bool",
							"name": "",
							"type": "bool"
						}
					],
					"stateMutability": "nonpayable",
					"type": "function"
				},
				{
					"inputs": [
						{
							"internalType": "address",
							"name": "newOwner",
							"type": "address"
						}
					],
					"name": "transferOwnership",
					"outputs": [],
					"stateMutability": "nonpayable",
					"type": "function"
				}
			],
			"devdoc": {
				"errors": {
					"ECDSAInvalidSignature()": [
						{
							"details": "The signature derives the `address(0)`."
						}
					],
					"ECDSAInvalidSignatureLength(uint256)": [
						{
							"details": "The signature has an invalid length."
						}
					],
					"ECDSAInvalidSignatureS(bytes32)": [
						{
							"details": "The signature has an S value that is in the upper half order."
						}
					],
					"ERC20InsufficientAllowance(address,uint256,uint256)": [
						{
							"details": "Indicates a failure with the `spender`’s `allowance`. Used in transfers.",
							"params": {
								"allowance": "Amount of tokens a `spender` is allowed to operate with.",
								"needed": "Minimum amount required to perform a transfer.",
								"spender": "Address that may be allowed to operate on tokens without being their owner."
							}
						}
					],
					"ERC20InsufficientBalance(address,uint256,uint256)": [
						{
							"details": "Indicates an error related to the current `balance` of a `sender`. Used in transfers.",
							"params": {
								"balance": "Current balance for the interacting account.",
								"needed": "Minimum amount required to perform a transfer.",
								"sender": "Address whose tokens are being transferred."
							}
						}
					],
					"ERC20InvalidApprover(address)": [
						{
							"details": "Indicates a failure with the `approver` of a token to be approved. Used in approvals.",
							"params": {
								"approver": "Address initiating an approval operation."
							}
						}
					],
					"ERC20InvalidReceiver(address)": [
						{
							"details": "Indicates a failure with the token `receiver`. Used in transfers.",
							"params": {
								"receiver": "Address to which tokens are being transferred."
							}
						}
					],
					"ERC20InvalidSender(address)": [
						{
							"details": "Indicates a failure with the token `sender`. Used in transfers.",
							"params": {
								"sender": "Address whose tokens are being transferred."
							}
						}
					],
					"ERC20InvalidSpender(address)": [
						{
							"details": "Indicates a failure with the `spender` to be approved. Used in approvals.",
							"params": {
								"spender": "Address that may be allowed to operate on tokens without being their owner."
							}
						}
					],
					"ERC2612ExpiredSignature(uint256)": [
						{
							"details": "Permit deadline has expired."
						}
					],
					"ERC2612InvalidSigner(address,address)": [
						{
							"details": "Mismatched signature."
						}
					],
					"InvalidAccountNonce(address,uint256)": [
						{
							"details": "The nonce used for an `account` is not the expected current nonce."
						}
					],
					"OwnableInvalidOwner(address)": [
						{
							"details": "The owner is not a valid owner account. (eg. `address(0)`)"
						}
					],
					"OwnableUnauthorizedAccount(address)": [
						{
							"details": "The caller account is not authorized to perform an operation."
						}
					]
				},
				"events": {
					"Approval(address,address,uint256)": {
						"details": "Emitted when the allowance of a `spender` for an `owner` is set by a call to {approve}. `value` is the new allowance."
					},
					"EIP712DomainChanged()": {
						"details": "MAY be emitted to signal that the domain could have changed."
					},
					"Transfer(address,address,uint256)": {
						"details": "Emitted when `value` tokens are moved from one account (`from`) to another (`to`). Note that `value` may be zero."
					}
				},
				"kind": "dev",
				"methods": {
					"DOMAIN_SEPARATOR()": {
						"details": "Returns the domain separator used in the encoding of the signature for {permit}, as defined by {EIP712}."
					},
					"allowance(address,address)": {
						"details": "See {IERC20-allowance}."
					},
					"approve(address,uint256)": {
						"details": "See {IERC20-approve}. NOTE: If `value` is the maximum `uint256`, the allowance is not updated on `transferFrom`. This is semantically equivalent to an infinite approval. Requirements: - `spender` cannot be the zero address."
					},
					"balanceOf(address)": {
						"details": "See {IERC20-balanceOf}."
					},
					"decimals()": {
						"details": "Returns the number of decimals used to get its user representation. For example, if `decimals` equals `2`, a balance of `505` tokens should be displayed to a user as `5.05` (`505 / 10 ** 2`). Tokens usually opt for a value of 18, imitating the relationship between Ether and Wei. This is the default value returned by this function, unless it's overridden. NOTE: This information is only used for _display_ purposes: it in no way affects any of the arithmetic of the contract, including {IERC20-balanceOf} and {IERC20-transfer}."
					},
					"eip712Domain()": {
						"details": "See {IERC-5267}."
					},
					"name()": {
						"details": "Returns the name of the token."
					},
					"nonces(address)": {
						"details": "Returns the current nonce for `owner`. This value must be included whenever a signature is generated for {permit}. Every successful call to {permit} increases ``owner``'s nonce by one. This prevents a signature from being used multiple times."
					},
					"owner()": {
						"details": "Returns the address of the current owner."
					},
					"permit(address,address,uint256,uint256,uint8,bytes32,bytes32)": {
						"details": "Sets `value` as the allowance of `spender` over ``owner``'s tokens, given ``owner``'s signed approval. IMPORTANT: The same issues {IERC20-approve} has related to transaction ordering also apply here. Emits an {Approval} event. Requirements: - `spender` cannot be the zero address. - `deadline` must be a timestamp in the future. - `v`, `r` and `s` must be a valid `secp256k1` signature from `owner` over the EIP712-formatted function arguments. - the signature must use ``owner``'s current nonce (see {nonces}). For more information on the signature format, see the https://eips.ethereum.org/EIPS/eip-2612#specification[relevant EIP section]. CAUTION: See Security Considerations above."
					},
					"renounceOwnership()": {
						"details": "Leaves the contract without owner. It will not be possible to call `onlyOwner` functions. Can only be called by the current owner. NOTE: Renouncing ownership will leave the contract without an owner, thereby disabling any functionality that is only available to the owner."
					},
					"symbol()": {
						"details": "Returns the symbol of the token, usually a shorter version of the name."
					},
					"totalSupply()": {
						"details": "See {IERC20-totalSupply}."
					},
					"transfer(address,uint256)": {
						"details": "See {IERC20-transfer}. Requirements: - `to` cannot be the zero address. - the caller must have a balance of at least `value`."
					},
					"transferFrom(address,address,uint256)": {
						"details": "See {IERC20-transferFrom}. Emits an {Approval} event indicating the updated allowance. This is not required by the EIP. See the note at the beginning of {ERC20}. NOTE: Does not update the allowance if the current allowance is the maximum `uint256`. Requirements: - `from` and `to` cannot be the zero address. - `from` must have a balance of at least `value`. - the caller must have allowance for ``from``'s tokens of at least `value`."
					},
					"transferOwnership(address)": {
						"details": "Transfers ownership of the contract to a new account (`newOwner`). Can only be called by the current owner."
					}
				},
				"version": 1
			},
			"evm": {
				"assembly": "    /* \"contracts/MyToken.sol\":241:801  contract RutraToken is ERC20, ERC20Permit, Ownable {... */\n  mstore(0x40, 0x0160)\n    /* \"contracts/MyToken.sol\":338:348  decimals() */\n  tag_1\n    /* \"contracts/MyToken.sol\":338:346  decimals */\n  shl(0x20, tag_2)\n    /* \"contracts/MyToken.sol\":338:348  decimals() */\n  0x20\n  shr\n  jump\t// in\ntag_1:\n    /* \"contracts/MyToken.sol\":332:334  10 */\n  0x0a\n    /* \"contracts/MyToken.sol\":332:348  10 ** decimals() */\n  tag_3\n  swap2\n  swap1\n  tag_4\n  jump\t// in\ntag_3:\n    /* \"contracts/MyToken.sol\":324:329  10000 */\n  0x2710\n    /* \"contracts/MyToken.sol\":324:348  10000 * 10 ** decimals() */\n  tag_5\n  swap2\n  swap1\n  tag_6\n  jump\t// in\ntag_5:\n    /* \"contracts/MyToken.sol\":298:348  uint256 public maxRutra = 10000 * 10 ** decimals() */\n  0x09\n  sstore\n    /* \"contracts/MyToken.sol\":385:532  constructor() ERC20(\"RutraToken\", \"RUTRA\") ERC20Permit(\"RutraToken\") Ownable(msg.sender) {... */\n  callvalue\n  dup1\n  iszero\n  tag_7\n  jumpi\n  0x00\n  dup1\n  revert\ntag_7:\n  pop\n    /* \"contracts/MyToken.sol\":462:472  msg.sender */\n  caller\n    /* \"@openzeppelin/contracts/token/ERC20/extensions/ERC20Permit.sol\":1574:1626  constructor(string memory name) EIP712(name, \"1\") {} */\n  mload(0x40)\n  dup1\n  0x40\n  add\n  0x40\n  mstore\n  dup1\n  0x0a\n  dup2\n  mstore\n  0x20\n  add\n  0x5275747261546f6b656e00000000000000000000000000000000000000000000\n  dup2\n  mstore\n  pop\n    /* \"@openzeppelin/contracts/token/ERC20/extensions/ERC20Permit.sol\":1613:1617  name */\n  dup1\n    /* \"@openzeppelin/contracts/utils/cryptography/EIP712.sol\":3328:3759  constructor(string memory name, string memory version) {... */\n  mload(0x40)\n  dup1\n  0x40\n  add\n  0x40\n  mstore\n  dup1\n  0x01\n  dup2\n  mstore\n  0x20\n  add\n  0x3100000000000000000000000000000000000000000000000000000000000000\n  dup2\n  mstore\n  pop\n    /* \"@openzeppelin/contracts/token/ERC20/ERC20.sol\":1896:2009  constructor(string memory name_, string memory symbol_) {... */\n  mload(0x40)\n  dup1\n  0x40\n  add\n  0x40\n  mstore\n  dup1\n  0x0a\n  dup2\n  mstore\n  0x20\n  add\n  0x5275747261546f6b656e00000000000000000000000000000000000000000000\n  dup2\n  mstore\n  pop\n  mload(0x40)\n  dup1\n  0x40\n  add\n  0x40\n  mstore\n  dup1\n  0x05\n  dup2\n  mstore\n  0x20\n  add\n  0x5255545241000000000000000000000000000000000000000000000000000000\n  dup2\n  mstore\n  pop\n    /* \"@openzeppelin/contracts/token/ERC20/ERC20.sol\":1970:1975  name_ */\n  dup2\n    /* \"@openzeppelin/contracts/token/ERC20/ERC20.sol\":1962:1967  _name */\n  0x03\n    /* \"@openzeppelin/contracts/token/ERC20/ERC20.sol\":1962:1975  _name = name_ */\n  swap1\n  dup2\n  tag_14\n  swap2\n  swap1\n  tag_15\n  jump\t// in\ntag_14:\n  pop\n    /* \"@openzeppelin/contracts/token/ERC20/ERC20.sol\":1995:2002  symbol_ */\n  dup1\n    /* \"@openzeppelin/contracts/token/ERC20/ERC20.sol\":1985:1992  _symbol */\n  0x04\n    /* \"@openzeppelin/contracts/token/ERC20/ERC20.sol\":1985:2002  _symbol = symbol_ */\n  swap1\n  dup2\n  tag_16\n  swap2\n  swap1\n  tag_15\n  jump\t// in\ntag_16:\n  pop\n    /* \"@openzeppelin/contracts/token/ERC20/ERC20.sol\":1896:2009  constructor(string memory name_, string memory symbol_) {... */\n  pop\n  pop\n    /* \"@openzeppelin/contracts/utils/cryptography/EIP712.sol\":3401:3446  name.toShortStringWithFallback(_nameFallback) */\n  tag_18\n    /* \"@openzeppelin/contracts/utils/cryptography/EIP712.sol\":3432:3445  _nameFallback */\n  0x05\n    /* \"@openzeppelin/contracts/utils/cryptography/EIP712.sol\":3401:3405  name */\n  dup4\n    /* \"@openzeppelin/contracts/utils/cryptography/EIP712.sol\":3401:3431  name.toShortStringWithFallback */\n  shl(0x20, tag_19)\n  swap1\n    /* \"@openzeppelin/contracts/utils/cryptography/EIP712.sol\":3401:3446  name.toShortStringWithFallback(_nameFallback) */\n  swap2\n  swap1\n  0x20\n  shr\n  jump\t// in\ntag_18:\n    /* \"@openzeppelin/contracts/utils/cryptography/EIP712.sol\":3393:3446  _name = name.toShortStringWithFallback(_nameFallback) */\n  0x0120\n  dup2\n  dup2\n  mstore\n  pop\n  pop\n    /* \"@openzeppelin/contracts/utils/cryptography/EIP712.sol\":3467:3518  version.toShortStringWithFallback(_versionFallback) */\n  tag_20\n    /* \"@openzeppelin/contracts/utils/cryptography/EIP712.sol\":3501:3517  _versionFallback */\n  0x06\n    /* \"@openzeppelin/contracts/utils/cryptography/EIP712.sol\":3467:3474  version */\n  dup3\n    /* \"@openzeppelin/contracts/utils/cryptography/EIP712.sol\":3467:3500  version.toShortStringWithFallback */\n  shl(0x20, tag_19)\n  swap1\n    /* \"@openzeppelin/contracts/utils/cryptography/EIP712.sol\":3467:3518  version.toShortStringWithFallback(_versionFallback) */\n  swap2\n  swap1\n  0x20\n  shr\n  jump\t// in\ntag_20:\n    /* \"@openzeppelin/contracts/utils/cryptography/EIP712.sol\":3456:3518  _version = version.toShortStringWithFallback(_versionFallback) */\n  0x0140\n  dup2\n  dup2\n  mstore\n  pop\n  pop\n    /* \"@openzeppelin/contracts/utils/cryptography/EIP712.sol\":3558:3562  name */\n  dup2\n    /* \"@openzeppelin/contracts/utils/cryptography/EIP712.sol\":3542:3564  keccak256(bytes(name)) */\n  dup1\n  mload\n  swap1\n  0x20\n  add\n  keccak256\n    /* \"@openzeppelin/contracts/utils/cryptography/EIP712.sol\":3528:3564  _hashedName = keccak256(bytes(name)) */\n  0xe0\n  dup2\n  dup2\n  mstore\n  pop\n  pop\n    /* \"@openzeppelin/contracts/utils/cryptography/EIP712.sol\":3607:3614  version */\n  dup1\n    /* \"@openzeppelin/contracts/utils/cryptography/EIP712.sol\":3591:3616  keccak256(bytes(version)) */\n  dup1\n  mload\n  swap1\n  0x20\n  add\n  keccak256\n    /* \"@openzeppelin/contracts/utils/cryptography/EIP712.sol\":3574:3616  _hashedVersion = keccak256(bytes(version)) */\n  0x0100\n  dup2\n  dup2\n  mstore\n  pop\n  pop\n    /* \"@openzeppelin/contracts/utils/cryptography/EIP712.sol\":3644:3657  block.chainid */\n  chainid\n    /* \"@openzeppelin/contracts/utils/cryptography/EIP712.sol\":3627:3657  _cachedChainId = block.chainid */\n  0xa0\n  dup2\n  dup2\n  mstore\n  pop\n  pop\n    /* \"@openzeppelin/contracts/utils/cryptography/EIP712.sol\":3692:3715  _buildDomainSeparator() */\n  tag_21\n    /* \"@openzeppelin/contracts/utils/cryptography/EIP712.sol\":3692:3713  _buildDomainSeparator */\n  shl(0x20, tag_22)\n    /* \"@openzeppelin/contracts/utils/cryptography/EIP712.sol\":3692:3715  _buildDomainSeparator() */\n  0x20\n  shr\n  jump\t// in\ntag_21:\n    /* \"@openzeppelin/contracts/utils/cryptography/EIP712.sol\":3667:3715  _cachedDomainSeparator = _buildDomainSeparator() */\n  0x80\n  dup2\n  dup2\n  mstore\n  pop\n  pop\n    /* \"@openzeppelin/contracts/utils/cryptography/EIP712.sol\":3747:3751  this */\n  address\n    /* \"@openzeppelin/contracts/utils/cryptography/EIP712.sol\":3725:3752  _cachedThis = address(this) */\n  0xffffffffffffffffffffffffffffffffffffffff\n  and\n  0xc0\n  dup2\n  0xffffffffffffffffffffffffffffffffffffffff\n  and\n  dup2\n  mstore\n  pop\n  pop\n    /* \"@openzeppelin/contracts/utils/cryptography/EIP712.sol\":3328:3759  constructor(string memory name, string memory version) {... */\n  pop\n  pop\n    /* \"@openzeppelin/contracts/token/ERC20/extensions/ERC20Permit.sol\":1574:1626  constructor(string memory name) EIP712(name, \"1\") {} */\n  pop\n    /* \"@openzeppelin/contracts/access/Ownable.sol\":1297:1298  0 */\n  0x00\n    /* \"@openzeppelin/contracts/access/Ownable.sol\":1273:1299  initialOwner == address(0) */\n  0xffffffffffffffffffffffffffffffffffffffff\n  and\n    /* \"@openzeppelin/contracts/access/Ownable.sol\":1273:1285  initialOwner */\n  dup2\n    /* \"@openzeppelin/contracts/access/Ownable.sol\":1273:1299  initialOwner == address(0) */\n  0xffffffffffffffffffffffffffffffffffffffff\n  and\n  sub\n    /* \"@openzeppelin/contracts/access/Ownable.sol\":1269:1364  if (initialOwner == address(0)) {... */\n  tag_25\n  jumpi\n    /* \"@openzeppelin/contracts/access/Ownable.sol\":1350:1351  0 */\n  0x00\n    /* \"@openzeppelin/contracts/access/Ownable.sol\":1322:1353  OwnableInvalidOwner(address(0)) */\n  mload(0x40)\n  0x1e4fbdf700000000000000000000000000000000000000000000000000000000\n  dup2\n  mstore\n  0x04\n  add\n  tag_26\n  swap2\n  swap1\n  tag_27\n  jump\t// in\ntag_26:\n  mload(0x40)\n  dup1\n  swap2\n  sub\n  swap1\n  revert\n    /* \"@openzeppelin/contracts/access/Ownable.sol\":1269:1364  if (initialOwner == address(0)) {... */\ntag_25:\n    /* \"@openzeppelin/contracts/access/Ownable.sol\":1373:1405  _transferOwnership(initialOwner) */\n  tag_28\n    /* \"@openzeppelin/contracts/access/Ownable.sol\":1392:1404  initialOwner */\n  dup2\n    /* \"@openzeppelin/contracts/access/Ownable.sol\":1373:1391  _transferOwnership */\n  shl(0x20, tag_29)\n    /* \"@openzeppelin/contracts/access/Ownable.sol\":1373:1405  _transferOwnership(initialOwner) */\n  0x20\n  shr\n  jump\t// in\ntag_28:\n    /* \"@openzeppelin/contracts/access/Ownable.sol\":1225:1412  constructor(address initialOwner) {... */\n  pop\n    /* \"contracts/MyToken.sol\":484:525  _mint(msg.sender, 100 * 10 ** decimals()) */\n  tag_31\n    /* \"contracts/MyToken.sol\":490:500  msg.sender */\n  caller\n    /* \"contracts/MyToken.sol\":514:524  decimals() */\n  tag_32\n    /* \"contracts/MyToken.sol\":514:522  decimals */\n  shl(0x20, tag_2)\n    /* \"contracts/MyToken.sol\":514:524  decimals() */\n  0x20\n  shr\n  jump\t// in\ntag_32:\n    /* \"contracts/MyToken.sol\":508:510  10 */\n  0x0a\n    /* \"contracts/MyToken.sol\":508:524  10 ** decimals() */\n  tag_33\n  swap2\n  swap1\n  tag_4\n  jump\t// in\ntag_33:\n    /* \"contracts/MyToken.sol\":502:505  100 */\n  0x64\n    /* \"contracts/MyToken.sol\":502:524  100 * 10 ** decimals() */\n  tag_34\n  swap2\n  swap1\n  tag_6\n  jump\t// in\ntag_34:\n    /* \"contracts/MyToken.sol\":484:489  _mint */\n  shl(0x20, tag_35)\n    /* \"contracts/MyToken.sol\":484:525  _mint(msg.sender, 100 * 10 ** decimals()) */\n  0x20\n  shr\n  jump\t// in\ntag_31:\n    /* \"contracts/MyToken.sol\":241:801  contract RutraToken is ERC20, ERC20Permit, Ownable {... */\n  jump(tag_36)\n    /* \"@openzeppelin/contracts/token/ERC20/ERC20.sol\":3002:3084  function decimals() public view virtual returns (uint8) {... */\ntag_2:\n    /* \"@openzeppelin/contracts/token/ERC20/ERC20.sol\":3051:3056  uint8 */\n  0x00\n    /* \"@openzeppelin/contracts/token/ERC20/ERC20.sol\":3075:3077  18 */\n  0x12\n    /* \"@openzeppelin/contracts/token/ERC20/ERC20.sol\":3068:3077  return 18 */\n  swap1\n  pop\n    /* \"@openzeppelin/contracts/token/ERC20/ERC20.sol\":3002:3084  function decimals() public view virtual returns (uint8) {... */\n  swap1\n  jump\t// out\n    /* \"@openzeppelin/contracts/utils/ShortStrings.sol\":2914:3254  function toShortStringWithFallback(string memory value, string storage store) internal returns (ShortString) {... */\ntag_19:\n    /* \"@openzeppelin/contracts/utils/ShortStrings.sol\":3010:3021  ShortString */\n  0x00\n    /* \"@openzeppelin/contracts/utils/ShortStrings.sol\":3059:3061  32 */\n  0x20\n    /* \"@openzeppelin/contracts/utils/ShortStrings.sol\":3043:3048  value */\n  dup4\n    /* \"@openzeppelin/contracts/utils/ShortStrings.sol\":3037:3056  bytes(value).length */\n  mload\n    /* \"@openzeppelin/contracts/utils/ShortStrings.sol\":3037:3061  bytes(value).length < 32 */\n  lt\n    /* \"@openzeppelin/contracts/utils/ShortStrings.sol\":3033:3248  if (bytes(value).length < 32) {... */\n  iszero\n  tag_39\n  jumpi\n    /* \"@openzeppelin/contracts/utils/ShortStrings.sol\":3084:3104  toShortString(value) */\n  tag_40\n    /* \"@openzeppelin/contracts/utils/ShortStrings.sol\":3098:3103  value */\n  dup4\n    /* \"@openzeppelin/contracts/utils/ShortStrings.sol\":3084:3097  toShortString */\n  shl(0x20, tag_41)\n    /* \"@openzeppelin/contracts/utils/ShortStrings.sol\":3084:3104  toShortString(value) */\n  0x20\n  shr\n  jump\t// in\ntag_40:\n    /* \"@openzeppelin/contracts/utils/ShortStrings.sol\":3077:3104  return toShortString(value) */\n  swap1\n  pop\n  jump(tag_38)\n    /* \"@openzeppelin/contracts/utils/ShortStrings.sol\":3033:3248  if (bytes(value).length < 32) {... */\ntag_39:\n    /* \"@openzeppelin/contracts/utils/ShortStrings.sol\":3176:3181  value */\n  dup3\n    /* \"@openzeppelin/contracts/utils/ShortStrings.sol\":3135:3167  StorageSlot.getStringSlot(store) */\n  tag_43\n    /* \"@openzeppelin/contracts/utils/ShortStrings.sol\":3161:3166  store */\n  dup4\n    /* \"@openzeppelin/contracts/utils/ShortStrings.sol\":3135:3160  StorageSlot.getStringSlot */\n  shl(0x20, tag_44)\n    /* \"@openzeppelin/contracts/utils/ShortStrings.sol\":3135:3167  StorageSlot.getStringSlot(store) */\n  0x20\n  shr\n  jump\t// in\ntag_43:\n    /* \"@openzeppelin/contracts/utils/ShortStrings.sol\":3135:3173  StorageSlot.getStringSlot(store).value */\n  0x00\n  add\n    /* \"@openzeppelin/contracts/utils/ShortStrings.sol\":3135:3181  StorageSlot.getStringSlot(store).value = value */\n  swap1\n  dup2\n  tag_45\n  swap2\n  swap1\n  tag_15\n  jump\t// in\ntag_45:\n  pop\n    /* \"@openzeppelin/contracts/utils/ShortStrings.sol\":1390:1456  0x00000000000000000000000000000000000000000000000000000000000000FF */\n  0xff\n    /* \"@openzeppelin/contracts/utils/ShortStrings.sol\":3219:3236  FALLBACK_SENTINEL */\n  0x00\n  shl\n    /* \"@openzeppelin/contracts/utils/ShortStrings.sol\":3195:3237  return ShortString.wrap(FALLBACK_SENTINEL) */\n  swap1\n  pop\n    /* \"@openzeppelin/contracts/utils/ShortStrings.sol\":2914:3254  function toShortStringWithFallback(string memory value, string storage store) internal returns (ShortString) {... */\ntag_38:\n  swap3\n  swap2\n  pop\n  pop\n  jump\t// out\n    /* \"@openzeppelin/contracts/utils/cryptography/EIP712.sol\":4113:4292  function _buildDomainSeparator() private view returns (bytes32) {... */\ntag_22:\n    /* \"@openzeppelin/contracts/utils/cryptography/EIP712.sol\":4168:4175  bytes32 */\n  0x00\n    /* \"@openzeppelin/contracts/utils/cryptography/EIP712.sol\":2079:2174  keccak256(\"EIP712Domain(string name,string version,uint256 chainId,address verifyingContract)\") */\n  0x8b73c3c69bb8fe3d512ecc4cf759cc79239f7b179b0ffacaa9a75d522b39400f\n    /* \"@openzeppelin/contracts/utils/cryptography/EIP712.sol\":4226:4237  _hashedName */\n  mload(0xe0)\n    /* \"@openzeppelin/contracts/utils/cryptography/EIP712.sol\":4239:4253  _hashedVersion */\n  mload(0x0100)\n    /* \"@openzeppelin/contracts/utils/cryptography/EIP712.sol\":4255:4268  block.chainid */\n  chainid\n    /* \"@openzeppelin/contracts/utils/cryptography/EIP712.sol\":4278:4282  this */\n  address\n    /* \"@openzeppelin/contracts/utils/cryptography/EIP712.sol\":4204:4284  abi.encode(TYPE_HASH, _hashedName, _hashedVersion, block.chainid, address(this)) */\n  add(0x20, mload(0x40))\n  tag_47\n  swap6\n  swap5\n  swap4\n  swap3\n  swap2\n  swap1\n  tag_48\n  jump\t// in\ntag_47:\n  mload(0x40)\n  0x20\n  dup2\n  dup4\n  sub\n  sub\n  dup2\n  mstore\n  swap1\n  0x40\n  mstore\n    /* \"@openzeppelin/contracts/utils/cryptography/EIP712.sol\":4194:4285  keccak256(abi.encode(TYPE_HASH, _hashedName, _hashedVersion, block.chainid, address(this))) */\n  dup1\n  mload\n  swap1\n  0x20\n  add\n  keccak256\n    /* \"@openzeppelin/contracts/utils/cryptography/EIP712.sol\":4187:4285  return keccak256(abi.encode(TYPE_HASH, _hashedName, _hashedVersion, block.chainid, address(this))) */\n  swap1\n  pop\n    /* \"@openzeppelin/contracts/utils/cryptography/EIP712.sol\":4113:4292  function _buildDomainSeparator() private view returns (bytes32) {... */\n  swap1\n  jump\t// out\n    /* \"@openzeppelin/contracts/access/Ownable.sol\":2912:3099  function _transferOwnership(address newOwner) internal virtual {... */\ntag_29:\n    /* \"@openzeppelin/contracts/access/Ownable.sol\":2985:3001  address oldOwner */\n  0x00\n    /* \"@openzeppelin/contracts/access/Ownable.sol\":3004:3010  _owner */\n  0x08\n  0x00\n  swap1\n  sload\n  swap1\n  0x0100\n  exp\n  swap1\n  div\n  0xffffffffffffffffffffffffffffffffffffffff\n  and\n    /* \"@openzeppelin/contracts/access/Ownable.sol\":2985:3010  address oldOwner = _owner */\n  swap1\n  pop\n    /* \"@openzeppelin/contracts/access/Ownable.sol\":3029:3037  newOwner */\n  dup2\n    /* \"@openzeppelin/contracts/access/Ownable.sol\":3020:3026  _owner */\n  0x08\n  0x00\n    /* \"@openzeppelin/contracts/access/Ownable.sol\":3020:3037  _owner = newOwner */\n  0x0100\n  exp\n  dup2\n  sload\n  dup2\n  0xffffffffffffffffffffffffffffffffffffffff\n  mul\n  not\n  and\n  swap1\n  dup4\n  0xffffffffffffffffffffffffffffffffffffffff\n  and\n  mul\n  or\n  swap1\n  sstore\n  pop\n    /* \"@openzeppelin/contracts/access/Ownable.sol\":3083:3091  newOwner */\n  dup2\n    /* \"@openzeppelin/contracts/access/Ownable.sol\":3052:3092  OwnershipTransferred(oldOwner, newOwner) */\n  0xffffffffffffffffffffffffffffffffffffffff\n  and\n    /* \"@openzeppelin/contracts/access/Ownable.sol\":3073:3081  oldOwner */\n  dup2\n    /* \"@openzeppelin/contracts/access/Ownable.sol\":3052:3092  OwnershipTransferred(oldOwner, newOwner) */\n  0xffffffffffffffffffffffffffffffffffffffff\n  and\n  0x8be0079c531659141344cd1fd0a4f28419497f9722a3daafe3b4186f6b6457e0\n  mload(0x40)\n  mload(0x40)\n  dup1\n  swap2\n  sub\n  swap1\n  log3\n    /* \"@openzeppelin/contracts/access/Ownable.sol\":2975:3099  {... */\n  pop\n    /* \"@openzeppelin/contracts/access/Ownable.sol\":2912:3099  function _transferOwnership(address newOwner) internal virtual {... */\n  pop\n  jump\t// out\n    /* \"@openzeppelin/contracts/token/ERC20/ERC20.sol\":7721:7929  function _mint(address account, uint256 value) internal {... */\ntag_35:\n    /* \"@openzeppelin/contracts/token/ERC20/ERC20.sol\":7810:7811  0 */\n  0x00\n    /* \"@openzeppelin/contracts/token/ERC20/ERC20.sol\":7791:7812  account == address(0) */\n  0xffffffffffffffffffffffffffffffffffffffff\n  and\n    /* \"@openzeppelin/contracts/token/ERC20/ERC20.sol\":7791:7798  account */\n  dup3\n    /* \"@openzeppelin/contracts/token/ERC20/ERC20.sol\":7791:7812  account == address(0) */\n  0xffffffffffffffffffffffffffffffffffffffff\n  and\n  sub\n    /* \"@openzeppelin/contracts/token/ERC20/ERC20.sol\":7787:7878  if (account == address(0)) {... */\n  tag_51\n  jumpi\n    /* \"@openzeppelin/contracts/token/ERC20/ERC20.sol\":7864:7865  0 */\n  0x00\n    /* \"@openzeppelin/contracts/token/ERC20/ERC20.sol\":7835:7867  ERC20InvalidReceiver(address(0)) */\n  mload(0x40)\n  0xec442f0500000000000000000000000000000000000000000000000000000000\n  dup2\n  mstore\n  0x04\n  add\n  tag_52\n  swap2\n  swap1\n  tag_27\n  jump\t// in\ntag_52:\n  mload(0x40)\n  dup1\n  swap2\n  sub\n  swap1\n  revert\n    /* \"@openzeppelin/contracts/token/ERC20/ERC20.sol\":7787:7878  if (account == address(0)) {... */\ntag_51:\n    /* \"@openzeppelin/contracts/token/ERC20/ERC20.sol\":7887:7922  _update(address(0), account, value) */\n  tag_53\n    /* \"@openzeppelin/contracts/token/ERC20/ERC20.sol\":7903:7904  0 */\n  0x00\n    /* \"@openzeppelin/contracts/token/ERC20/ERC20.sol\":7907:7914  account */\n  dup4\n    /* \"@openzeppelin/contracts/token/ERC20/ERC20.sol\":7916:7921  value */\n  dup4\n    /* \"@openzeppelin/contracts/token/ERC20/ERC20.sol\":7887:7894  _update */\n  shl(0x20, tag_54)\n    /* \"@openzeppelin/contracts/token/ERC20/ERC20.sol\":7887:7922  _update(address(0), account, value) */\n  0x20\n  shr\n  jump\t// in\ntag_53:\n    /* \"@openzeppelin/contracts/token/ERC20/ERC20.sol\":7721:7929  function _mint(address account, uint256 value) internal {... */\n  pop\n  pop\n  jump\t// out\n    /* \"@openzeppelin/contracts/utils/ShortStrings.sol\":1708:1994  function toShortString(string memory str) internal pure returns (ShortString) {... */\ntag_41:\n    /* \"@openzeppelin/contracts/utils/ShortStrings.sol\":1773:1784  ShortString */\n  0x00\n    /* \"@openzeppelin/contracts/utils/ShortStrings.sol\":1796:1813  bytes memory bstr */\n  dup1\n    /* \"@openzeppelin/contracts/utils/ShortStrings.sol\":1822:1825  str */\n  dup3\n    /* \"@openzeppelin/contracts/utils/ShortStrings.sol\":1796:1826  bytes memory bstr = bytes(str) */\n  swap1\n  pop\n    /* \"@openzeppelin/contracts/utils/ShortStrings.sol\":1854:1856  31 */\n  0x1f\n    /* \"@openzeppelin/contracts/utils/ShortStrings.sol\":1840:1844  bstr */\n  dup2\n    /* \"@openzeppelin/contracts/utils/ShortStrings.sol\":1840:1851  bstr.length */\n  mload\n    /* \"@openzeppelin/contracts/utils/ShortStrings.sol\":1840:1856  bstr.length > 31 */\n  gt\n    /* \"@openzeppelin/contracts/utils/ShortStrings.sol\":1836:1908  if (bstr.length > 31) {... */\n  iszero\n  tag_56\n  jumpi\n    /* \"@openzeppelin/contracts/utils/ShortStrings.sol\":1893:1896  str */\n  dup3\n    /* \"@openzeppelin/contracts/utils/ShortStrings.sol\":1879:1897  StringTooLong(str) */\n  mload(0x40)\n  0x305a27a900000000000000000000000000000000000000000000000000000000\n  dup2\n  mstore\n  0x04\n  add\n  tag_57\n  swap2\n  swap1\n  tag_58\n  jump\t// in\ntag_57:\n  mload(0x40)\n  dup1\n  swap2\n  sub\n  swap1\n  revert\n    /* \"@openzeppelin/contracts/utils/ShortStrings.sol\":1836:1908  if (bstr.length > 31) {... */\ntag_56:\n    /* \"@openzeppelin/contracts/utils/ShortStrings.sol\":1974:1978  bstr */\n  dup1\n    /* \"@openzeppelin/contracts/utils/ShortStrings.sol\":1974:1985  bstr.length */\n  mload\n    /* \"@openzeppelin/contracts/utils/ShortStrings.sol\":1965:1969  bstr */\n  dup2\n    /* \"@openzeppelin/contracts/utils/ShortStrings.sol\":1957:1970  bytes32(bstr) */\n  tag_59\n  swap1\n  tag_60\n  jump\t// in\ntag_59:\n    /* \"@openzeppelin/contracts/utils/ShortStrings.sol\":1949:1971  uint256(bytes32(bstr)) */\n  0x00\n  shr\n    /* \"@openzeppelin/contracts/utils/ShortStrings.sol\":1949:1985  uint256(bytes32(bstr)) | bstr.length */\n  or\n    /* \"@openzeppelin/contracts/utils/ShortStrings.sol\":1941:1986  bytes32(uint256(bytes32(bstr)) | bstr.length) */\n  0x00\n  shl\n    /* \"@openzeppelin/contracts/utils/ShortStrings.sol\":1917:1987  return ShortString.wrap(bytes32(uint256(bytes32(bstr)) | bstr.length)) */\n  swap2\n  pop\n  pop\n    /* \"@openzeppelin/contracts/utils/ShortStrings.sol\":1708:1994  function toShortString(string memory str) internal pure returns (ShortString) {... */\n  swap2\n  swap1\n  pop\n  jump\t// out\n    /* \"@openzeppelin/contracts/utils/StorageSlot.sol\":3135:3337  function getStringSlot(string storage store) internal pure returns (StringSlot storage r) {... */\ntag_44:\n    /* \"@openzeppelin/contracts/utils/StorageSlot.sol\":3203:3223  StringSlot storage r */\n  0x00\n    /* \"@openzeppelin/contracts/utils/StorageSlot.sol\":3311:3321  store.slot */\n  dup2\n    /* \"@openzeppelin/contracts/utils/StorageSlot.sol\":3301:3321  r.slot := store.slot */\n  swap1\n  pop\n    /* \"@openzeppelin/contracts/utils/StorageSlot.sol\":3135:3337  function getStringSlot(string storage store) internal pure returns (StringSlot storage r) {... */\n  swap2\n  swap1\n  pop\n  jump\t// out\n    /* \"@openzeppelin/contracts/token/ERC20/ERC20.sol\":6271:7378  function _update(address from, address to, uint256 value) internal virtual {... */\ntag_54:\n    /* \"@openzeppelin/contracts/token/ERC20/ERC20.sol\":6376:6377  0 */\n  0x00\n    /* \"@openzeppelin/contracts/token/ERC20/ERC20.sol\":6360:6378  from == address(0) */\n  0xffffffffffffffffffffffffffffffffffffffff\n  and\n    /* \"@openzeppelin/contracts/token/ERC20/ERC20.sol\":6360:6364  from */\n  dup4\n    /* \"@openzeppelin/contracts/token/ERC20/ERC20.sol\":6360:6378  from == address(0) */\n  0xffffffffffffffffffffffffffffffffffffffff\n  and\n  sub\n    /* \"@openzeppelin/contracts/token/ERC20/ERC20.sol\":6356:6896  if (from == address(0)) {... */\n  tag_63\n  jumpi\n    /* \"@openzeppelin/contracts/token/ERC20/ERC20.sol\":6512:6517  value */\n  dup1\n    /* \"@openzeppelin/contracts/token/ERC20/ERC20.sol\":6496:6508  _totalSupply */\n  0x02\n  0x00\n    /* \"@openzeppelin/contracts/token/ERC20/ERC20.sol\":6496:6517  _totalSupply += value */\n  dup3\n  dup3\n  sload\n  tag_64\n  swap2\n  swap1\n  tag_65\n  jump\t// in\ntag_64:\n  swap3\n  pop\n  pop\n  dup2\n  swap1\n  sstore\n  pop\n    /* \"@openzeppelin/contracts/token/ERC20/ERC20.sol\":6356:6896  if (from == address(0)) {... */\n  jump(tag_66)\ntag_63:\n    /* \"@openzeppelin/contracts/token/ERC20/ERC20.sol\":6548:6567  uint256 fromBalance */\n  0x00\n    /* \"@openzeppelin/contracts/token/ERC20/ERC20.sol\":6570:6579  _balances */\n  dup1\n    /* \"@openzeppelin/contracts/token/ERC20/ERC20.sol\":6570:6585  _balances[from] */\n  0x00\n    /* \"@openzeppelin/contracts/token/ERC20/ERC20.sol\":6580:6584  from */\n  dup6\n    /* \"@openzeppelin/contracts/token/ERC20/ERC20.sol\":6570:6585  _balances[from] */\n  0xffffffffffffffffffffffffffffffffffffffff\n  and\n  0xffffffffffffffffffffffffffffffffffffffff\n  and\n  dup2\n  mstore\n  0x20\n  add\n  swap1\n  dup2\n  mstore\n  0x20\n  add\n  0x00\n  keccak256\n  sload\n    /* \"@openzeppelin/contracts/token/ERC20/ERC20.sol\":6548:6585  uint256 fromBalance = _balances[from] */\n  swap1\n  pop\n    /* \"@openzeppelin/contracts/token/ERC20/ERC20.sol\":6617:6622  value */\n  dup2\n    /* \"@openzeppelin/contracts/token/ERC20/ERC20.sol\":6603:6614  fromBalance */\n  dup2\n    /* \"@openzeppelin/contracts/token/ERC20/ERC20.sol\":6603:6622  fromBalance < value */\n  lt\n    /* \"@openzeppelin/contracts/token/ERC20/ERC20.sol\":6599:6714  if (fromBalance < value) {... */\n  iszero\n  tag_67\n  jumpi\n    /* \"@openzeppelin/contracts/token/ERC20/ERC20.sol\":6674:6678  from */\n  dup4\n    /* \"@openzeppelin/contracts/token/ERC20/ERC20.sol\":6680:6691  fromBalance */\n  dup2\n    /* \"@openzeppelin/contracts/token/ERC20/ERC20.sol\":6693:6698  value */\n  dup4\n    /* \"@openzeppelin/contracts/token/ERC20/ERC20.sol\":6649:6699  ERC20InsufficientBalance(from, fromBalance, value) */\n  mload(0x40)\n  0xe450d38c00000000000000000000000000000000000000000000000000000000\n  dup2\n  mstore\n  0x04\n  add\n  tag_68\n  swap4\n  swap3\n  swap2\n  swap1\n  tag_69\n  jump\t// in\ntag_68:\n  mload(0x40)\n  dup1\n  swap2\n  sub\n  swap1\n  revert\n    /* \"@openzeppelin/contracts/token/ERC20/ERC20.sol\":6599:6714  if (fromBalance < value) {... */\ntag_67:\n    /* \"@openzeppelin/contracts/token/ERC20/ERC20.sol\":6866:6871  value */\n  dup2\n    /* \"@openzeppelin/contracts/token/ERC20/ERC20.sol\":6852:6863  fromBalance */\n  dup2\n    /* \"@openzeppelin/contracts/token/ERC20/ERC20.sol\":6852:6871  fromBalance - value */\n  sub\n    /* \"@openzeppelin/contracts/token/ERC20/ERC20.sol\":6834:6843  _balances */\n  0x00\n    /* \"@openzeppelin/contracts/token/ERC20/ERC20.sol\":6834:6849  _balances[from] */\n  dup1\n    /* \"@openzeppelin/contracts/token/ERC20/ERC20.sol\":6844:6848  from */\n  dup7\n    /* \"@openzeppelin/contracts/token/ERC20/ERC20.sol\":6834:6849  _balances[from] */\n  0xffffffffffffffffffffffffffffffffffffffff\n  and\n  0xffffffffffffffffffffffffffffffffffffffff\n  and\n  dup2\n  mstore\n  0x20\n  add\n  swap1\n  dup2\n  mstore\n  0x20\n  add\n  0x00\n  keccak256\n    /* \"@openzeppelin/contracts/token/ERC20/ERC20.sol\":6834:6871  _balances[from] = fromBalance - value */\n  dup2\n  swap1\n  sstore\n  pop\n    /* \"@openzeppelin/contracts/token/ERC20/ERC20.sol\":6534:6896  {... */\n  pop\n    /* \"@openzeppelin/contracts/token/ERC20/ERC20.sol\":6356:6896  if (from == address(0)) {... */\ntag_66:\n    /* \"@openzeppelin/contracts/token/ERC20/ERC20.sol\":6924:6925  0 */\n  0x00\n    /* \"@openzeppelin/contracts/token/ERC20/ERC20.sol\":6910:6926  to == address(0) */\n  0xffffffffffffffffffffffffffffffffffffffff\n  and\n    /* \"@openzeppelin/contracts/token/ERC20/ERC20.sol\":6910:6912  to */\n  dup3\n    /* \"@openzeppelin/contracts/token/ERC20/ERC20.sol\":6910:6926  to == address(0) */\n  0xffffffffffffffffffffffffffffffffffffffff\n  and\n  sub\n    /* \"@openzeppelin/contracts/token/ERC20/ERC20.sol\":6906:7331  if (to == address(0)) {... */\n  tag_70\n  jumpi\n    /* \"@openzeppelin/contracts/token/ERC20/ERC20.sol\":7089:7094  value */\n  dup1\n    /* \"@openzeppelin/contracts/token/ERC20/ERC20.sol\":7073:7085  _totalSupply */\n  0x02\n  0x00\n    /* \"@openzeppelin/contracts/token/ERC20/ERC20.sol\":7073:7094  _totalSupply -= value */\n  dup3\n  dup3\n  sload\n  sub\n  swap3\n  pop\n  pop\n  dup2\n  swap1\n  sstore\n  pop\n    /* \"@openzeppelin/contracts/token/ERC20/ERC20.sol\":6906:7331  if (to == address(0)) {... */\n  jump(tag_71)\ntag_70:\n    /* \"@openzeppelin/contracts/token/ERC20/ERC20.sol\":7301:7306  value */\n  dup1\n    /* \"@openzeppelin/contracts/token/ERC20/ERC20.sol\":7284:7293  _balances */\n  0x00\n    /* \"@openzeppelin/contracts/token/ERC20/ERC20.sol\":7284:7297  _balances[to] */\n  dup1\n    /* \"@openzeppelin/contracts/token/ERC20/ERC20.sol\":7294:7296  to */\n  dup5\n    /* \"@openzeppelin/contracts/token/ERC20/ERC20.sol\":7284:7297  _balances[to] */\n  0xffffffffffffffffffffffffffffffffffffffff\n  and\n  0xffffffffffffffffffffffffffffffffffffffff\n  and\n  dup2\n  mstore\n  0x20\n  add\n  swap1\n  dup2\n  mstore\n  0x20\n  add\n  0x00\n  keccak256\n  0x00\n    /* \"@openzeppelin/contracts/token/ERC20/ERC20.sol\":7284:7306  _balances[to] += value */\n  dup3\n  dup3\n  sload\n  add\n  swap3\n  pop\n  pop\n  dup2\n  swap1\n  sstore\n  pop\n    /* \"@openzeppelin/contracts/token/ERC20/ERC20.sol\":6906:7331  if (to == address(0)) {... */\ntag_71:\n    /* \"@openzeppelin/contracts/token/ERC20/ERC20.sol\":7361:7363  to */\n  dup2\n    /* \"@openzeppelin/contracts/token/ERC20/ERC20.sol\":7346:7371  Transfer(from, to, value) */\n  0xffffffffffffffffffffffffffffffffffffffff\n  and\n    /* \"@openzeppelin/contracts/token/ERC20/ERC20.sol\":7355:7359  from */\n  dup4\n    /* \"@openzeppelin/contracts/token/ERC20/ERC20.sol\":7346:7371  Transfer(from, to, value) */\n  0xffffffffffffffffffffffffffffffffffffffff\n  and\n  0xddf252ad1be2c89b69c2b068fc378daa952ba7f163c4a11628f55a4df523b3ef\n    /* \"@openzeppelin/contracts/token/ERC20/ERC20.sol\":7365:7370  value */\n  dup4\n    /* \"@openzeppelin/contracts/token/ERC20/ERC20.sol\":7346:7371  Transfer(from, to, value) */\n  mload(0x40)\n  tag_72\n  swap2\n  swap1\n  tag_73\n  jump\t// in\ntag_72:\n  mload(0x40)\n  dup1\n  swap2\n  sub\n  swap1\n  log3\n    /* \"@openzeppelin/contracts/token/ERC20/ERC20.sol\":6271:7378  function _update(address from, address to, uint256 value) internal virtual {... */\n  pop\n  pop\n  pop\n  jump\t// out\n    /* \"#utility.yul\":7:187   */\ntag_74:\n    /* \"#utility.yul\":55:132   */\n  0x4e487b7100000000000000000000000000000000000000000000000000000000\n    /* \"#utility.yul\":52:53   */\n  0x00\n    /* \"#utility.yul\":45:133   */\n  mstore\n    /* \"#utility.yul\":152:156   */\n  0x11\n    /* \"#utility.yul\":149:150   */\n  0x04\n    /* \"#utility.yul\":142:157   */\n  mstore\n    /* \"#utility.yul\":176:180   */\n  0x24\n    /* \"#utility.yul\":173:174   */\n  0x00\n    /* \"#utility.yul\":166:181   */\n  revert\n    /* \"#utility.yul\":193:295   */\ntag_75:\n    /* \"#utility.yul\":235:243   */\n  0x00\n    /* \"#utility.yul\":282:287   */\n  dup2\n    /* \"#utility.yul\":279:280   */\n  0x01\n    /* \"#utility.yul\":275:288   */\n  shr\n    /* \"#utility.yul\":254:288   */\n  swap1\n  pop\n    /* \"#utility.yul\":193:295   */\n  swap2\n  swap1\n  pop\n  jump\t// out\n    /* \"#utility.yul\":301:1149   */\ntag_76:\n    /* \"#utility.yul\":362:367   */\n  0x00\n    /* \"#utility.yul\":369:373   */\n  dup1\n    /* \"#utility.yul\":393:399   */\n  dup3\n    /* \"#utility.yul\":384:399   */\n  swap2\n  pop\n    /* \"#utility.yul\":417:422   */\n  dup4\n    /* \"#utility.yul\":408:422   */\n  swap1\n  pop\n    /* \"#utility.yul\":431:1143   */\ntag_116:\n    /* \"#utility.yul\":452:453   */\n  0x01\n    /* \"#utility.yul\":442:450   */\n  dup6\n    /* \"#utility.yul\":439:454   */\n  gt\n    /* \"#utility.yul\":431:1143   */\n  iszero\n  tag_118\n  jumpi\n    /* \"#utility.yul\":547:551   */\n  dup1\n    /* \"#utility.yul\":542:545   */\n  dup7\n    /* \"#utility.yul\":538:552   */\n  div\n    /* \"#utility.yul\":532:536   */\n  dup2\n    /* \"#utility.yul\":529:553   */\n  gt\n    /* \"#utility.yul\":526:576   */\n  iszero\n  tag_119\n  jumpi\n    /* \"#utility.yul\":556:574   */\n  tag_120\n  tag_74\n  jump\t// in\ntag_120:\n    /* \"#utility.yul\":526:576   */\ntag_119:\n    /* \"#utility.yul\":606:607   */\n  0x01\n    /* \"#utility.yul\":596:604   */\n  dup6\n    /* \"#utility.yul\":592:608   */\n  and\n    /* \"#utility.yul\":589:1040   */\n  iszero\n  tag_121\n  jumpi\n    /* \"#utility.yul\":1021:1025   */\n  dup1\n    /* \"#utility.yul\":1014:1019   */\n  dup3\n    /* \"#utility.yul\":1010:1026   */\n  mul\n    /* \"#utility.yul\":1001:1026   */\n  swap2\n  pop\n    /* \"#utility.yul\":589:1040   */\ntag_121:\n    /* \"#utility.yul\":1071:1075   */\n  dup1\n    /* \"#utility.yul\":1065:1069   */\n  dup2\n    /* \"#utility.yul\":1061:1076   */\n  mul\n    /* \"#utility.yul\":1053:1076   */\n  swap1\n  pop\n    /* \"#utility.yul\":1101:1133   */\n  tag_122\n    /* \"#utility.yul\":1124:1132   */\n  dup6\n    /* \"#utility.yul\":1101:1133   */\n  tag_75\n  jump\t// in\ntag_122:\n    /* \"#utility.yul\":1089:1133   */\n  swap5\n  pop\n    /* \"#utility.yul\":431:1143   */\n  jump(tag_116)\ntag_118:\n    /* \"#utility.yul\":301:1149   */\n  swap5\n  pop\n  swap5\n  swap3\n  pop\n  pop\n  pop\n  jump\t// out\n    /* \"#utility.yul\":1155:2228   */\ntag_77:\n    /* \"#utility.yul\":1209:1214   */\n  0x00\n    /* \"#utility.yul\":1400:1408   */\n  dup3\n    /* \"#utility.yul\":1390:1430   */\n  tag_124\n  jumpi\n    /* \"#utility.yul\":1421:1422   */\n  0x01\n    /* \"#utility.yul\":1412:1422   */\n  swap1\n  pop\n    /* \"#utility.yul\":1423:1428   */\n  jump(tag_123)\n    /* \"#utility.yul\":1390:1430   */\ntag_124:\n    /* \"#utility.yul\":1449:1453   */\n  dup2\n    /* \"#utility.yul\":1439:1475   */\n  tag_125\n  jumpi\n    /* \"#utility.yul\":1466:1467   */\n  0x00\n    /* \"#utility.yul\":1457:1467   */\n  swap1\n  pop\n    /* \"#utility.yul\":1468:1473   */\n  jump(tag_123)\n    /* \"#utility.yul\":1439:1475   */\ntag_125:\n    /* \"#utility.yul\":1535:1539   */\n  dup2\n    /* \"#utility.yul\":1583:1584   */\n  0x01\n    /* \"#utility.yul\":1578:1605   */\n  dup2\n  eq\n  tag_127\n  jumpi\n    /* \"#utility.yul\":1619:1620   */\n  0x02\n    /* \"#utility.yul\":1614:1805   */\n  dup2\n  eq\n  tag_128\n  jumpi\n    /* \"#utility.yul\":1528:1805   */\n  jump(tag_126)\n    /* \"#utility.yul\":1578:1605   */\ntag_127:\n    /* \"#utility.yul\":1596:1597   */\n  0x01\n    /* \"#utility.yul\":1587:1597   */\n  swap2\n  pop\n    /* \"#utility.yul\":1598:1603   */\n  pop\n  jump(tag_123)\n    /* \"#utility.yul\":1614:1805   */\ntag_128:\n    /* \"#utility.yul\":1659:1662   */\n  0xff\n    /* \"#utility.yul\":1649:1657   */\n  dup5\n    /* \"#utility.yul\":1646:1663   */\n  gt\n    /* \"#utility.yul\":1643:1686   */\n  iszero\n  tag_129\n  jumpi\n    /* \"#utility.yul\":1666:1684   */\n  tag_130\n  tag_74\n  jump\t// in\ntag_130:\n    /* \"#utility.yul\":1643:1686   */\ntag_129:\n    /* \"#utility.yul\":1715:1723   */\n  dup4\n    /* \"#utility.yul\":1712:1713   */\n  0x02\n    /* \"#utility.yul\":1708:1724   */\n  exp\n    /* \"#utility.yul\":1699:1724   */\n  swap2\n  pop\n    /* \"#utility.yul\":1750:1753   */\n  dup5\n    /* \"#utility.yul\":1743:1748   */\n  dup3\n    /* \"#utility.yul\":1740:1754   */\n  gt\n    /* \"#utility.yul\":1737:1777   */\n  iszero\n  tag_131\n  jumpi\n    /* \"#utility.yul\":1757:1775   */\n  tag_132\n  tag_74\n  jump\t// in\ntag_132:\n    /* \"#utility.yul\":1737:1777   */\ntag_131:\n    /* \"#utility.yul\":1790:1795   */\n  pop\n  jump(tag_123)\n    /* \"#utility.yul\":1528:1805   */\ntag_126:\n  pop\n    /* \"#utility.yul\":1914:1916   */\n  0x20\n    /* \"#utility.yul\":1904:1912   */\n  dup4\n    /* \"#utility.yul\":1901:1917   */\n  lt\n    /* \"#utility.yul\":1895:1898   */\n  0x0133\n    /* \"#utility.yul\":1889:1893   */\n  dup4\n    /* \"#utility.yul\":1886:1899   */\n  lt\n    /* \"#utility.yul\":1882:1918   */\n  and\n    /* \"#utility.yul\":1864:1866   */\n  0x4e\n    /* \"#utility.yul\":1854:1862   */\n  dup5\n    /* \"#utility.yul\":1851:1867   */\n  lt\n    /* \"#utility.yul\":1846:1848   */\n  0x0b\n    /* \"#utility.yul\":1840:1844   */\n  dup5\n    /* \"#utility.yul\":1837:1849   */\n  lt\n    /* \"#utility.yul\":1833:1868   */\n  and\n    /* \"#utility.yul\":1817:1928   */\n  or\n    /* \"#utility.yul\":1814:2060   */\n  iszero\n  tag_133\n  jumpi\n    /* \"#utility.yul\":1970:1978   */\n  dup3\n    /* \"#utility.yul\":1964:1968   */\n  dup3\n    /* \"#utility.yul\":1960:1979   */\n  exp\n    /* \"#utility.yul\":1951:1979   */\n  swap1\n  pop\n    /* \"#utility.yul\":2005:2008   */\n  dup4\n    /* \"#utility.yul\":1998:2003   */\n  dup2\n    /* \"#utility.yul\":1995:2009   */\n  gt\n    /* \"#utility.yul\":1992:2032   */\n  iszero\n  tag_134\n  jumpi\n    /* \"#utility.yul\":2012:2030   */\n  tag_135\n  tag_74\n  jump\t// in\ntag_135:\n    /* \"#utility.yul\":1992:2032   */\ntag_134:\n    /* \"#utility.yul\":2045:2050   */\n  jump(tag_123)\n    /* \"#utility.yul\":1814:2060   */\ntag_133:\n    /* \"#utility.yul\":2085:2127   */\n  tag_136\n    /* \"#utility.yul\":2123:2126   */\n  dup5\n    /* \"#utility.yul\":2113:2121   */\n  dup5\n    /* \"#utility.yul\":2107:2111   */\n  dup5\n    /* \"#utility.yul\":2104:2105   */\n  0x01\n    /* \"#utility.yul\":2085:2127   */\n  tag_76\n  jump\t// in\ntag_136:\n    /* \"#utility.yul\":2070:2127   */\n  swap3\n  pop\n  swap1\n  pop\n    /* \"#utility.yul\":2159:2163   */\n  dup2\n    /* \"#utility.yul\":2154:2157   */\n  dup5\n    /* \"#utility.yul\":2150:2164   */\n  div\n    /* \"#utility.yul\":2143:2148   */\n  dup2\n    /* \"#utility.yul\":2140:2165   */\n  gt\n    /* \"#utility.yul\":2137:2188   */\n  iszero\n  tag_137\n  jumpi\n    /* \"#utility.yul\":2168:2186   */\n  tag_138\n  tag_74\n  jump\t// in\ntag_138:\n    /* \"#utility.yul\":2137:2188   */\ntag_137:\n    /* \"#utility.yul\":2217:2221   */\n  dup2\n    /* \"#utility.yul\":2210:2215   */\n  dup2\n    /* \"#utility.yul\":2206:2222   */\n  mul\n    /* \"#utility.yul\":2197:2222   */\n  swap1\n  pop\n    /* \"#utility.yul\":1155:2228   */\ntag_123:\n  swap4\n  swap3\n  pop\n  pop\n  pop\n  jump\t// out\n    /* \"#utility.yul\":2234:2311   */\ntag_78:\n    /* \"#utility.yul\":2271:2278   */\n  0x00\n    /* \"#utility.yul\":2300:2305   */\n  dup2\n    /* \"#utility.yul\":2289:2305   */\n  swap1\n  pop\n    /* \"#utility.yul\":2234:2311   */\n  swap2\n  swap1\n  pop\n  jump\t// out\n    /* \"#utility.yul\":2317:2403   */\ntag_79:\n    /* \"#utility.yul\":2352:2359   */\n  0x00\n    /* \"#utility.yul\":2392:2396   */\n  0xff\n    /* \"#utility.yul\":2385:2390   */\n  dup3\n    /* \"#utility.yul\":2381:2397   */\n  and\n    /* \"#utility.yul\":2370:2397   */\n  swap1\n  pop\n    /* \"#utility.yul\":2317:2403   */\n  swap2\n  swap1\n  pop\n  jump\t// out\n    /* \"#utility.yul\":2409:2690   */\ntag_4:\n    /* \"#utility.yul\":2467:2472   */\n  0x00\n    /* \"#utility.yul\":2491:2514   */\n  tag_142\n    /* \"#utility.yul\":2509:2513   */\n  dup3\n    /* \"#utility.yul\":2491:2514   */\n  tag_78\n  jump\t// in\ntag_142:\n    /* \"#utility.yul\":2483:2514   */\n  swap2\n  pop\n    /* \"#utility.yul\":2535:2560   */\n  tag_143\n    /* \"#utility.yul\":2551:2559   */\n  dup4\n    /* \"#utility.yul\":2535:2560   */\n  tag_79\n  jump\t// in\ntag_143:\n    /* \"#utility.yul\":2523:2560   */\n  swap3\n  pop\n    /* \"#utility.yul\":2579:2683   */\n  tag_144\n    /* \"#utility.yul\":2616:2682   */\n  0xffffffffffffffffffffffffffffffffffffffffffffffffffffffffffffffff\n    /* \"#utility.yul\":2606:2614   */\n  dup5\n    /* \"#utility.yul\":2600:2604   */\n  dup5\n    /* \"#utility.yul\":2579:2683   */\n  tag_77\n  jump\t// in\ntag_144:\n    /* \"#utility.yul\":2570:2683   */\n  swap1\n  pop\n    /* \"#utility.yul\":2409:2690   */\n  swap3\n  swap2\n  pop\n  pop\n  jump\t// out\n    /* \"#utility.yul\":2696:3106   */\ntag_6:\n    /* \"#utility.yul\":2736:2743   */\n  0x00\n    /* \"#utility.yul\":2759:2779   */\n  tag_146\n    /* \"#utility.yul\":2777:2778   */\n  dup3\n    /* \"#utility.yul\":2759:2779   */\n  tag_78\n  jump\t// in\ntag_146:\n    /* \"#utility.yul\":2754:2779   */\n  swap2\n  pop\n    /* \"#utility.yul\":2793:2813   */\n  tag_147\n    /* \"#utility.yul\":2811:2812   */\n  dup4\n    /* \"#utility.yul\":2793:2813   */\n  tag_78\n  jump\t// in\ntag_147:\n    /* \"#utility.yul\":2788:2813   */\n  swap3\n  pop\n    /* \"#utility.yul\":2848:2849   */\n  dup3\n    /* \"#utility.yul\":2845:2846   */\n  dup3\n    /* \"#utility.yul\":2841:2850   */\n  mul\n    /* \"#utility.yul\":2870:2900   */\n  tag_148\n    /* \"#utility.yul\":2888:2899   */\n  dup2\n    /* \"#utility.yul\":2870:2900   */\n  tag_78\n  jump\t// in\ntag_148:\n    /* \"#utility.yul\":2859:2900   */\n  swap2\n  pop\n    /* \"#utility.yul\":3049:3050   */\n  dup3\n    /* \"#utility.yul\":3040:3047   */\n  dup3\n    /* \"#utility.yul\":3036:3051   */\n  div\n    /* \"#utility.yul\":3033:3034   */\n  dup5\n    /* \"#utility.yul\":3030:3052   */\n  eq\n    /* \"#utility.yul\":3010:3011   */\n  dup4\n    /* \"#utility.yul\":3003:3012   */\n  iszero\n    /* \"#utility.yul\":2983:3066   */\n  or\n    /* \"#utility.yul\":2960:3099   */\n  tag_149\n  jumpi\n    /* \"#utility.yul\":3079:3097   */\n  tag_150\n  tag_74\n  jump\t// in\ntag_150:\n    /* \"#utility.yul\":2960:3099   */\ntag_149:\n    /* \"#utility.yul\":2744:3106   */\n  pop\n    /* \"#utility.yul\":2696:3106   */\n  swap3\n  swap2\n  pop\n  pop\n  jump\t// out\n    /* \"#utility.yul\":3112:3211   */\ntag_80:\n    /* \"#utility.yul\":3164:3170   */\n  0x00\n    /* \"#utility.yul\":3198:3203   */\n  dup2\n    /* \"#utility.yul\":3192:3204   */\n  mload\n    /* \"#utility.yul\":3182:3204   */\n  swap1\n  pop\n    /* \"#utility.yul\":3112:3211   */\n  swap2\n  swap1\n  pop\n  jump\t// out\n    /* \"#utility.yul\":3217:3397   */\ntag_81:\n    /* \"#utility.yul\":3265:3342   */\n  0x4e487b7100000000000000000000000000000000000000000000000000000000\n    /* \"#utility.yul\":3262:3263   */\n  0x00\n    /* \"#utility.yul\":3255:3343   */\n  mstore\n    /* \"#utility.yul\":3362:3366   */\n  0x41\n    /* \"#utility.yul\":3359:3360   */\n  0x04\n    /* \"#utility.yul\":3352:3367   */\n  mstore\n    /* \"#utility.yul\":3386:3390   */\n  0x24\n    /* \"#utility.yul\":3383:3384   */\n  0x00\n    /* \"#utility.yul\":3376:3391   */\n  revert\n    /* \"#utility.yul\":3403:3583   */\ntag_82:\n    /* \"#utility.yul\":3451:3528   */\n  0x4e487b7100000000000000000000000000000000000000000000000000000000\n    /* \"#utility.yul\":3448:3449   */\n  0x00\n    /* \"#utility.yul\":3441:3529   */\n  mstore\n    /* \"#utility.yul\":3548:3552   */\n  0x22\n    /* \"#utility.yul\":3545:3546   */\n  0x04\n    /* \"#utility.yul\":3538:3553   */\n  mstore\n    /* \"#utility.yul\":3572:3576   */\n  0x24\n    /* \"#utility.yul\":3569:3570   */\n  0x00\n    /* \"#utility.yul\":3562:3577   */\n  revert\n    /* \"#utility.yul\":3589:3909   */\ntag_83:\n    /* \"#utility.yul\":3633:3639   */\n  0x00\n    /* \"#utility.yul\":3670:3671   */\n  0x02\n    /* \"#utility.yul\":3664:3668   */\n  dup3\n    /* \"#utility.yul\":3660:3672   */\n  div\n    /* \"#utility.yul\":3650:3672   */\n  swap1\n  pop\n    /* \"#utility.yul\":3717:3718   */\n  0x01\n    /* \"#utility.yul\":3711:3715   */\n  dup3\n    /* \"#utility.yul\":3707:3719   */\n  and\n    /* \"#utility.yul\":3738:3756   */\n  dup1\n    /* \"#utility.yul\":3728:3809   */\n  tag_155\n  jumpi\n    /* \"#utility.yul\":3794:3798   */\n  0x7f\n    /* \"#utility.yul\":3786:3792   */\n  dup3\n    /* \"#utility.yul\":3782:3799   */\n  and\n    /* \"#utility.yul\":3772:3799   */\n  swap2\n  pop\n    /* \"#utility.yul\":3728:3809   */\ntag_155:\n    /* \"#utility.yul\":3856:3858   */\n  0x20\n    /* \"#utility.yul\":3848:3854   */\n  dup3\n    /* \"#utility.yul\":3845:3859   */\n  lt\n    /* \"#utility.yul\":3825:3843   */\n  dup2\n    /* \"#utility.yul\":3822:3860   */\n  sub\n    /* \"#utility.yul\":3819:3903   */\n  tag_156\n  jumpi\n    /* \"#utility.yul\":3875:3893   */\n  tag_157\n  tag_82\n  jump\t// in\ntag_157:\n    /* \"#utility.yul\":3819:3903   */\ntag_156:\n    /* \"#utility.yul\":3640:3909   */\n  pop\n    /* \"#utility.yul\":3589:3909   */\n  swap2\n  swap1\n  pop\n  jump\t// out\n    /* \"#utility.yul\":3915:4056   */\ntag_84:\n    /* \"#utility.yul\":3964:3968   */\n  0x00\n    /* \"#utility.yul\":3987:3990   */\n  dup2\n    /* \"#utility.yul\":3979:3990   */\n  swap1\n  pop\n    /* \"#utility.yul\":4010:4013   */\n  dup2\n    /* \"#utility.yul\":4007:4008   */\n  0x00\n    /* \"#utility.yul\":4000:4014   */\n  mstore\n    /* \"#utility.yul\":4044:4048   */\n  0x20\n    /* \"#utility.yul\":4041:4042   */\n  0x00\n    /* \"#utility.yul\":4031:4049   */\n  keccak256\n    /* \"#utility.yul\":4023:4049   */\n  swap1\n  pop\n    /* \"#utility.yul\":3915:4056   */\n  swap2\n  swap1\n  pop\n  jump\t// out\n    /* \"#utility.yul\":4062:4155   */\ntag_85:\n    /* \"#utility.yul\":4099:4105   */\n  0x00\n    /* \"#utility.yul\":4146:4148   */\n  0x20\n    /* \"#utility.yul\":4141:4143   */\n  0x1f\n    /* \"#utility.yul\":4134:4139   */\n  dup4\n    /* \"#utility.yul\":4130:4144   */\n  add\n    /* \"#utility.yul\":4126:4149   */\n  div\n    /* \"#utility.yul\":4116:4149   */\n  swap1\n  pop\n    /* \"#utility.yul\":4062:4155   */\n  swap2\n  swap1\n  pop\n  jump\t// out\n    /* \"#utility.yul\":4161:4268   */\ntag_86:\n    /* \"#utility.yul\":4205:4213   */\n  0x00\n    /* \"#utility.yul\":4255:4260   */\n  dup3\n    /* \"#utility.yul\":4249:4253   */\n  dup3\n    /* \"#utility.yul\":4245:4261   */\n  shl\n    /* \"#utility.yul\":4224:4261   */\n  swap1\n  pop\n    /* \"#utility.yul\":4161:4268   */\n  swap3\n  swap2\n  pop\n  pop\n  jump\t// out\n    /* \"#utility.yul\":4274:4667   */\ntag_87:\n    /* \"#utility.yul\":4343:4349   */\n  0x00\n    /* \"#utility.yul\":4393:4394   */\n  0x08\n    /* \"#utility.yul\":4381:4391   */\n  dup4\n    /* \"#utility.yul\":4377:4395   */\n  mul\n    /* \"#utility.yul\":4416:4513   */\n  tag_162\n    /* \"#utility.yul\":4446:4512   */\n  0xffffffffffffffffffffffffffffffffffffffffffffffffffffffffffffffff\n    /* \"#utility.yul\":4435:4444   */\n  dup3\n    /* \"#utility.yul\":4416:4513   */\n  tag_86\n  jump\t// in\ntag_162:\n    /* \"#utility.yul\":4534:4573   */\n  tag_163\n    /* \"#utility.yul\":4564:4572   */\n  dup7\n    /* \"#utility.yul\":4553:4562   */\n  dup4\n    /* \"#utility.yul\":4534:4573   */\n  tag_86\n  jump\t// in\ntag_163:\n    /* \"#utility.yul\":4522:4573   */\n  swap6\n  pop\n    /* \"#utility.yul\":4606:4610   */\n  dup1\n    /* \"#utility.yul\":4602:4611   */\n  not\n    /* \"#utility.yul\":4595:4600   */\n  dup5\n    /* \"#utility.yul\":4591:4612   */\n  and\n    /* \"#utility.yul\":4582:4612   */\n  swap4\n  pop\n    /* \"#utility.yul\":4655:4659   */\n  dup1\n    /* \"#utility.yul\":4645:4653   */\n  dup7\n    /* \"#utility.yul\":4641:4660   */\n  and\n    /* \"#utility.yul\":4634:4639   */\n  dup5\n    /* \"#utility.yul\":4631:4661   */\n  or\n    /* \"#utility.yul\":4621:4661   */\n  swap3\n  pop\n    /* \"#utility.yul\":4350:4667   */\n  pop\n  pop\n    /* \"#utility.yul\":4274:4667   */\n  swap4\n  swap3\n  pop\n  pop\n  pop\n  jump\t// out\n    /* \"#utility.yul\":4673:4733   */\ntag_88:\n    /* \"#utility.yul\":4701:4704   */\n  0x00\n    /* \"#utility.yul\":4722:4727   */\n  dup2\n    /* \"#utility.yul\":4715:4727   */\n  swap1\n  pop\n    /* \"#utility.yul\":4673:4733   */\n  swap2\n  swap1\n  pop\n  jump\t// out\n    /* \"#utility.yul\":4739:4881   */\ntag_89:\n    /* \"#utility.yul\":4789:4798   */\n  0x00\n    /* \"#utility.yul\":4822:4875   */\n  tag_166\n    /* \"#utility.yul\":4840:4874   */\n  tag_167\n    /* \"#utility.yul\":4849:4873   */\n  tag_168\n    /* \"#utility.yul\":4867:4872   */\n  dup5\n    /* \"#utility.yul\":4849:4873   */\n  tag_78\n  jump\t// in\ntag_168:\n    /* \"#utility.yul\":4840:4874   */\n  tag_88\n  jump\t// in\ntag_167:\n    /* \"#utility.yul\":4822:4875   */\n  tag_78\n  jump\t// in\ntag_166:\n    /* \"#utility.yul\":4809:4875   */\n  swap1\n  pop\n    /* \"#utility.yul\":4739:4881   */\n  swap2\n  swap1\n  pop\n  jump\t// out\n    /* \"#utility.yul\":4887:4962   */\ntag_90:\n    /* \"#utility.yul\":4930:4933   */\n  0x00\n    /* \"#utility.yul\":4951:4956   */\n  dup2\n    /* \"#utility.yul\":4944:4956   */\n  swap1\n  pop\n    /* \"#utility.yul\":4887:4962   */\n  swap2\n  swap1\n  pop\n  jump\t// out\n    /* \"#utility.yul\":4968:5237   */\ntag_91:\n    /* \"#utility.yul\":5078:5117   */\n  tag_171\n    /* \"#utility.yul\":5109:5116   */\n  dup4\n    /* \"#utility.yul\":5078:5117   */\n  tag_89\n  jump\t// in\ntag_171:\n    /* \"#utility.yul\":5139:5230   */\n  tag_172\n    /* \"#utility.yul\":5188:5229   */\n  tag_173\n    /* \"#utility.yul\":5212:5228   */\n  dup3\n    /* \"#utility.yul\":5188:5229   */\n  tag_90\n  jump\t// in\ntag_173:\n    /* \"#utility.yul\":5180:5186   */\n  dup5\n    /* \"#utility.yul\":5173:5177   */\n  dup5\n    /* \"#utility.yul\":5167:5178   */\n  sload\n    /* \"#utility.yul\":5139:5230   */\n  tag_87\n  jump\t// in\ntag_172:\n    /* \"#utility.yul\":5133:5137   */\n  dup3\n    /* \"#utility.yul\":5126:5231   */\n  sstore\n    /* \"#utility.yul\":5044:5237   */\n  pop\n    /* \"#utility.yul\":4968:5237   */\n  pop\n  pop\n  pop\n  jump\t// out\n    /* \"#utility.yul\":5243:5316   */\ntag_92:\n    /* \"#utility.yul\":5288:5291   */\n  0x00\n    /* \"#utility.yul\":5243:5316   */\n  swap1\n  jump\t// out\n    /* \"#utility.yul\":5322:5511   */\ntag_93:\n    /* \"#utility.yul\":5399:5431   */\n  tag_176\n  tag_92\n  jump\t// in\ntag_176:\n    /* \"#utility.yul\":5440:5505   */\n  tag_177\n    /* \"#utility.yul\":5498:5504   */\n  dup2\n    /* \"#utility.yul\":5490:5496   */\n  dup5\n    /* \"#utility.yul\":5484:5488   */\n  dup5\n    /* \"#utility.yul\":5440:5505   */\n  tag_91\n  jump\t// in\ntag_177:\n    /* \"#utility.yul\":5375:5511   */\n  pop\n    /* \"#utility.yul\":5322:5511   */\n  pop\n  pop\n  jump\t// out\n    /* \"#utility.yul\":5517:5703   */\ntag_94:\n    /* \"#utility.yul\":5577:5697   */\ntag_179:\n    /* \"#utility.yul\":5594:5597   */\n  dup2\n    /* \"#utility.yul\":5587:5592   */\n  dup2\n    /* \"#utility.yul\":5584:5598   */\n  lt\n    /* \"#utility.yul\":5577:5697   */\n  iszero\n  tag_181\n  jumpi\n    /* \"#utility.yul\":5648:5687   */\n  tag_182\n    /* \"#utility.yul\":5685:5686   */\n  0x00\n    /* \"#utility.yul\":5678:5683   */\n  dup3\n    /* \"#utility.yul\":5648:5687   */\n  tag_93\n  jump\t// in\ntag_182:\n    /* \"#utility.yul\":5621:5622   */\n  0x01\n    /* \"#utility.yul\":5614:5619   */\n  dup2\n    /* \"#utility.yul\":5610:5623   */\n  add\n    /* \"#utility.yul\":5601:5623   */\n  swap1\n  pop\n    /* \"#utility.yul\":5577:5697   */\n  jump(tag_179)\ntag_181:\n    /* \"#utility.yul\":5517:5703   */\n  pop\n  pop\n  jump\t// out\n    /* \"#utility.yul\":5709:6252   */\ntag_95:\n    /* \"#utility.yul\":5810:5812   */\n  0x1f\n    /* \"#utility.yul\":5805:5808   */\n  dup3\n    /* \"#utility.yul\":5802:5813   */\n  gt\n    /* \"#utility.yul\":5799:6245   */\n  iszero\n  tag_184\n  jumpi\n    /* \"#utility.yul\":5844:5882   */\n  tag_185\n    /* \"#utility.yul\":5876:5881   */\n  dup2\n    /* \"#utility.yul\":5844:5882   */\n  tag_84\n  jump\t// in\ntag_185:\n    /* \"#utility.yul\":5928:5957   */\n  tag_186\n    /* \"#utility.yul\":5946:5956   */\n  dup5\n    /* \"#utility.yul\":5928:5957   */\n  tag_85\n  jump\t// in\ntag_186:\n    /* \"#utility.yul\":5918:5926   */\n  dup2\n    /* \"#utility.yul\":5914:5958   */\n  add\n    /* \"#utility.yul\":6111:6113   */\n  0x20\n    /* \"#utility.yul\":6099:6109   */\n  dup6\n    /* \"#utility.yul\":6096:6114   */\n  lt\n    /* \"#utility.yul\":6093:6142   */\n  iszero\n  tag_187\n  jumpi\n    /* \"#utility.yul\":6132:6140   */\n  dup2\n    /* \"#utility.yul\":6117:6140   */\n  swap1\n  pop\n    /* \"#utility.yul\":6093:6142   */\ntag_187:\n    /* \"#utility.yul\":6155:6235   */\n  tag_188\n    /* \"#utility.yul\":6211:6233   */\n  tag_189\n    /* \"#utility.yul\":6229:6232   */\n  dup6\n    /* \"#utility.yul\":6211:6233   */\n  tag_85\n  jump\t// in\ntag_189:\n    /* \"#utility.yul\":6201:6209   */\n  dup4\n    /* \"#utility.yul\":6197:6234   */\n  add\n    /* \"#utility.yul\":6184:6195   */\n  dup3\n    /* \"#utility.yul\":6155:6235   */\n  tag_94\n  jump\t// in\ntag_188:\n    /* \"#utility.yul\":5814:6245   */\n  pop\n  pop\n    /* \"#utility.yul\":5799:6245   */\ntag_184:\n    /* \"#utility.yul\":5709:6252   */\n  pop\n  pop\n  pop\n  jump\t// out\n    /* \"#utility.yul\":6258:6375   */\ntag_96:\n    /* \"#utility.yul\":6312:6320   */\n  0x00\n    /* \"#utility.yul\":6362:6367   */\n  dup3\n    /* \"#utility.yul\":6356:6360   */\n  dup3\n    /* \"#utility.yul\":6352:6368   */\n  shr\n    /* \"#utility.yul\":6331:6368   */\n  swap1\n  pop\n    /* \"#utility.yul\":6258:6375   */\n  swap3\n  swap2\n  pop\n  pop\n  jump\t// out\n    /* \"#utility.yul\":6381:6550   */\ntag_97:\n    /* \"#utility.yul\":6425:6431   */\n  0x00\n    /* \"#utility.yul\":6458:6509   */\n  tag_192\n    /* \"#utility.yul\":6506:6507   */\n  0x00\n    /* \"#utility.yul\":6502:6508   */\n  not\n    /* \"#utility.yul\":6494:6499   */\n  dup5\n    /* \"#utility.yul\":6491:6492   */\n  0x08\n    /* \"#utility.yul\":6487:6500   */\n  mul\n    /* \"#utility.yul\":6458:6509   */\n  tag_96\n  jump\t// in\ntag_192:\n    /* \"#utility.yul\":6454:6510   */\n  not\n    /* \"#utility.yul\":6539:6543   */\n  dup1\n    /* \"#utility.yul\":6533:6537   */\n  dup4\n    /* \"#utility.yul\":6529:6544   */\n  and\n    /* \"#utility.yul\":6519:6544   */\n  swap2\n  pop\n    /* \"#utility.yul\":6432:6550   */\n  pop\n    /* \"#utility.yul\":6381:6550   */\n  swap3\n  swap2\n  pop\n  pop\n  jump\t// out\n    /* \"#utility.yul\":6555:6850   */\ntag_98:\n    /* \"#utility.yul\":6631:6635   */\n  0x00\n    /* \"#utility.yul\":6777:6806   */\n  tag_194\n    /* \"#utility.yul\":6802:6805   */\n  dup4\n    /* \"#utility.yul\":6796:6800   */\n  dup4\n    /* \"#utility.yul\":6777:6806   */\n  tag_97\n  jump\t// in\ntag_194:\n    /* \"#utility.yul\":6769:6806   */\n  swap2\n  pop\n    /* \"#utility.yul\":6839:6842   */\n  dup3\n    /* \"#utility.yul\":6836:6837   */\n  0x02\n    /* \"#utility.yul\":6832:6843   */\n  mul\n    /* \"#utility.yul\":6826:6830   */\n  dup3\n    /* \"#utility.yul\":6823:6844   */\n  or\n    /* \"#utility.yul\":6815:6844   */\n  swap1\n  pop\n    /* \"#utility.yul\":6555:6850   */\n  swap3\n  swap2\n  pop\n  pop\n  jump\t// out\n    /* \"#utility.yul\":6855:8250   */\ntag_15:\n    /* \"#utility.yul\":6972:7009   */\n  tag_196\n    /* \"#utility.yul\":7005:7008   */\n  dup3\n    /* \"#utility.yul\":6972:7009   */\n  tag_80\n  jump\t// in\ntag_196:\n    /* \"#utility.yul\":7074:7092   */\n  0xffffffffffffffff\n    /* \"#utility.yul\":7066:7072   */\n  dup2\n    /* \"#utility.yul\":7063:7093   */\n  gt\n    /* \"#utility.yul\":7060:7116   */\n  iszero\n  tag_197\n  jumpi\n    /* \"#utility.yul\":7096:7114   */\n  tag_198\n  tag_81\n  jump\t// in\ntag_198:\n    /* \"#utility.yul\":7060:7116   */\ntag_197:\n    /* \"#utility.yul\":7140:7178   */\n  tag_199\n    /* \"#utility.yul\":7172:7176   */\n  dup3\n    /* \"#utility.yul\":7166:7177   */\n  sload\n    /* \"#utility.yul\":7140:7178   */\n  tag_83\n  jump\t// in\ntag_199:\n    /* \"#utility.yul\":7225:7292   */\n  tag_200\n    /* \"#utility.yul\":7285:7291   */\n  dup3\n    /* \"#utility.yul\":7277:7283   */\n  dup3\n    /* \"#utility.yul\":7271:7275   */\n  dup6\n    /* \"#utility.yul\":7225:7292   */\n  tag_95\n  jump\t// in\ntag_200:\n    /* \"#utility.yul\":7319:7320   */\n  0x00\n    /* \"#utility.yul\":7343:7347   */\n  0x20\n    /* \"#utility.yul\":7330:7347   */\n  swap1\n  pop\n    /* \"#utility.yul\":7375:7377   */\n  0x1f\n    /* \"#utility.yul\":7367:7373   */\n  dup4\n    /* \"#utility.yul\":7364:7378   */\n  gt\n    /* \"#utility.yul\":7392:7393   */\n  0x01\n    /* \"#utility.yul\":7387:8005   */\n  dup2\n  eq\n  tag_202\n  jumpi\n    /* \"#utility.yul\":8049:8050   */\n  0x00\n    /* \"#utility.yul\":8066:8072   */\n  dup5\n    /* \"#utility.yul\":8063:8140   */\n  iszero\n  tag_203\n  jumpi\n    /* \"#utility.yul\":8115:8124   */\n  dup3\n    /* \"#utility.yul\":8110:8113   */\n  dup8\n    /* \"#utility.yul\":8106:8125   */\n  add\n    /* \"#utility.yul\":8100:8126   */\n  mload\n    /* \"#utility.yul\":8091:8126   */\n  swap1\n  pop\n    /* \"#utility.yul\":8063:8140   */\ntag_203:\n    /* \"#utility.yul\":8166:8233   */\n  tag_204\n    /* \"#utility.yul\":8226:8232   */\n  dup6\n    /* \"#utility.yul\":8219:8224   */\n  dup3\n    /* \"#utility.yul\":8166:8233   */\n  tag_98\n  jump\t// in\ntag_204:\n    /* \"#utility.yul\":8160:8164   */\n  dup7\n    /* \"#utility.yul\":8153:8234   */\n  sstore\n    /* \"#utility.yul\":8022:8244   */\n  pop\n    /* \"#utility.yul\":7357:8244   */\n  jump(tag_201)\n    /* \"#utility.yul\":7387:8005   */\ntag_202:\n    /* \"#utility.yul\":7439:7443   */\n  0x1f\n    /* \"#utility.yul\":7435:7444   */\n  not\n    /* \"#utility.yul\":7427:7433   */\n  dup5\n    /* \"#utility.yul\":7423:7445   */\n  and\n    /* \"#utility.yul\":7473:7510   */\n  tag_205\n    /* \"#utility.yul\":7505:7509   */\n  dup7\n    /* \"#utility.yul\":7473:7510   */\n  tag_84\n  jump\t// in\ntag_205:\n    /* \"#utility.yul\":7532:7533   */\n  0x00\n    /* \"#utility.yul\":7546:7754   */\ntag_206:\n    /* \"#utility.yul\":7560:7567   */\n  dup3\n    /* \"#utility.yul\":7557:7558   */\n  dup2\n    /* \"#utility.yul\":7554:7568   */\n  lt\n    /* \"#utility.yul\":7546:7754   */\n  iszero\n  tag_208\n  jumpi\n    /* \"#utility.yul\":7639:7648   */\n  dup5\n    /* \"#utility.yul\":7634:7637   */\n  dup10\n    /* \"#utility.yul\":7630:7649   */\n  add\n    /* \"#utility.yul\":7624:7650   */\n  mload\n    /* \"#utility.yul\":7616:7622   */\n  dup3\n    /* \"#utility.yul\":7609:7651   */\n  sstore\n    /* \"#utility.yul\":7690:7691   */\n  0x01\n    /* \"#utility.yul\":7682:7688   */\n  dup3\n    /* \"#utility.yul\":7678:7692   */\n  add\n    /* \"#utility.yul\":7668:7692   */\n  swap2\n  pop\n    /* \"#utility.yul\":7737:7739   */\n  0x20\n    /* \"#utility.yul\":7726:7735   */\n  dup6\n    /* \"#utility.yul\":7722:7740   */\n  add\n    /* \"#utility.yul\":7709:7740   */\n  swap5\n  pop\n    /* \"#utility.yul\":7583:7587   */\n  0x20\n    /* \"#utility.yul\":7580:7581   */\n  dup2\n    /* \"#utility.yul\":7576:7588   */\n  add\n    /* \"#utility.yul\":7571:7588   */\n  swap1\n  pop\n    /* \"#utility.yul\":7546:7754   */\n  jump(tag_206)\ntag_208:\n    /* \"#utility.yul\":7782:7788   */\n  dup7\n    /* \"#utility.yul\":7773:7780   */\n  dup4\n    /* \"#utility.yul\":7770:7789   */\n  lt\n    /* \"#utility.yul\":7767:7946   */\n  iszero\n  tag_209\n  jumpi\n    /* \"#utility.yul\":7840:7849   */\n  dup5\n    /* \"#utility.yul\":7835:7838   */\n  dup10\n    /* \"#utility.yul\":7831:7850   */\n  add\n    /* \"#utility.yul\":7825:7851   */\n  mload\n    /* \"#utility.yul\":7883:7931   */\n  tag_210\n    /* \"#utility.yul\":7925:7929   */\n  0x1f\n    /* \"#utility.yul\":7917:7923   */\n  dup10\n    /* \"#utility.yul\":7913:7930   */\n  and\n    /* \"#utility.yul\":7902:7911   */\n  dup3\n    /* \"#utility.yul\":7883:7931   */\n  tag_97\n  jump\t// in\ntag_210:\n    /* \"#utility.yul\":7875:7881   */\n  dup4\n    /* \"#utility.yul\":7868:7932   */\n  sstore\n    /* \"#utility.yul\":7790:7946   */\n  pop\n    /* \"#utility.yul\":7767:7946   */\ntag_209:\n    /* \"#utility.yul\":7992:7993   */\n  0x01\n    /* \"#utility.yul\":7988:7989   */\n  0x02\n    /* \"#utility.yul\":7980:7986   */\n  dup9\n    /* \"#utility.yul\":7976:7990   */\n  mul\n    /* \"#utility.yul\":7972:7994   */\n  add\n    /* \"#utility.yul\":7966:7970   */\n  dup9\n    /* \"#utility.yul\":7959:7995   */\n  sstore\n    /* \"#utility.yul\":7394:8005   */\n  pop\n  pop\n  pop\n    /* \"#utility.yul\":7357:8244   */\ntag_201:\n  pop\n    /* \"#utility.yul\":6947:8250   */\n  pop\n  pop\n  pop\n    /* \"#utility.yul\":6855:8250   */\n  pop\n  pop\n  jump\t// out\n    /* \"#utility.yul\":8256:8382   */\ntag_99:\n    /* \"#utility.yul\":8293:8300   */\n  0x00\n    /* \"#utility.yul\":8333:8375   */\n  0xffffffffffffffffffffffffffffffffffffffff\n    /* \"#utility.yul\":8326:8331   */\n  dup3\n    /* \"#utility.yul\":8322:8376   */\n  and\n    /* \"#utility.yul\":8311:8376   */\n  swap1\n  pop\n    /* \"#utility.yul\":8256:8382   */\n  swap2\n  swap1\n  pop\n  jump\t// out\n    /* \"#utility.yul\":8388:8484   */\ntag_100:\n    /* \"#utility.yul\":8425:8432   */\n  0x00\n    /* \"#utility.yul\":8454:8478   */\n  tag_213\n    /* \"#utility.yul\":8472:8477   */\n  dup3\n    /* \"#utility.yul\":8454:8478   */\n  tag_99\n  jump\t// in\ntag_213:\n    /* \"#utility.yul\":8443:8478   */\n  swap1\n  pop\n    /* \"#utility.yul\":8388:8484   */\n  swap2\n  swap1\n  pop\n  jump\t// out\n    /* \"#utility.yul\":8490:8608   */\ntag_101:\n    /* \"#utility.yul\":8577:8601   */\n  tag_215\n    /* \"#utility.yul\":8595:8600   */\n  dup2\n    /* \"#utility.yul\":8577:8601   */\n  tag_100\n  jump\t// in\ntag_215:\n    /* \"#utility.yul\":8572:8575   */\n  dup3\n    /* \"#utility.yul\":8565:8602   */\n  mstore\n    /* \"#utility.yul\":8490:8608   */\n  pop\n  pop\n  jump\t// out\n    /* \"#utility.yul\":8614:8836   */\ntag_27:\n    /* \"#utility.yul\":8707:8711   */\n  0x00\n    /* \"#utility.yul\":8745:8747   */\n  0x20\n    /* \"#utility.yul\":8734:8743   */\n  dup3\n    /* \"#utility.yul\":8730:8748   */\n  add\n    /* \"#utility.yul\":8722:8748   */\n  swap1\n  pop\n    /* \"#utility.yul\":8758:8829   */\n  tag_217\n    /* \"#utility.yul\":8826:8827   */\n  0x00\n    /* \"#utility.yul\":8815:8824   */\n  dup4\n    /* \"#utility.yul\":8811:8828   */\n  add\n    /* \"#utility.yul\":8802:8808   */\n  dup5\n    /* \"#utility.yul\":8758:8829   */\n  tag_101\n  jump\t// in\ntag_217:\n    /* \"#utility.yul\":8614:8836   */\n  swap3\n  swap2\n  pop\n  pop\n  jump\t// out\n    /* \"#utility.yul\":8842:8919   */\ntag_102:\n    /* \"#utility.yul\":8879:8886   */\n  0x00\n    /* \"#utility.yul\":8908:8913   */\n  dup2\n    /* \"#utility.yul\":8897:8913   */\n  swap1\n  pop\n    /* \"#utility.yul\":8842:8919   */\n  swap2\n  swap1\n  pop\n  jump\t// out\n    /* \"#utility.yul\":8925:9043   */\ntag_103:\n    /* \"#utility.yul\":9012:9036   */\n  tag_220\n    /* \"#utility.yul\":9030:9035   */\n  dup2\n    /* \"#utility.yul\":9012:9036   */\n  tag_102\n  jump\t// in\ntag_220:\n    /* \"#utility.yul\":9007:9010   */\n  dup3\n    /* \"#utility.yul\":9000:9037   */\n  mstore\n    /* \"#utility.yul\":8925:9043   */\n  pop\n  pop\n  jump\t// out\n    /* \"#utility.yul\":9049:9167   */\ntag_104:\n    /* \"#utility.yul\":9136:9160   */\n  tag_222\n    /* \"#utility.yul\":9154:9159   */\n  dup2\n    /* \"#utility.yul\":9136:9160   */\n  tag_78\n  jump\t// in\ntag_222:\n    /* \"#utility.yul\":9131:9134   */\n  dup3\n    /* \"#utility.yul\":9124:9161   */\n  mstore\n    /* \"#utility.yul\":9049:9167   */\n  pop\n  pop\n  jump\t// out\n    /* \"#utility.yul\":9173:9837   */\ntag_48:\n    /* \"#utility.yul\":9378:9382   */\n  0x00\n    /* \"#utility.yul\":9416:9419   */\n  0xa0\n    /* \"#utility.yul\":9405:9414   */\n  dup3\n    /* \"#utility.yul\":9401:9420   */\n  add\n    /* \"#utility.yul\":9393:9420   */\n  swap1\n  pop\n    /* \"#utility.yul\":9430:9501   */\n  tag_224\n    /* \"#utility.yul\":9498:9499   */\n  0x00\n    /* \"#utility.yul\":9487:9496   */\n  dup4\n    /* \"#utility.yul\":9483:9500   */\n  add\n    /* \"#utility.yul\":9474:9480   */\n  dup9\n    /* \"#utility.yul\":9430:9501   */\n  tag_103\n  jump\t// in\ntag_224:\n    /* \"#utility.yul\":9511:9583   */\n  tag_225\n    /* \"#utility.yul\":9579:9581   */\n  0x20\n    /* \"#utility.yul\":9568:9577   */\n  dup4\n    /* \"#utility.yul\":9564:9582   */\n  add\n    /* \"#utility.yul\":9555:9561   */\n  dup8\n    /* \"#utility.yul\":9511:9583   */\n  tag_103\n  jump\t// in\ntag_225:\n    /* \"#utility.yul\":9593:9665   */\n  tag_226\n    /* \"#utility.yul\":9661:9663   */\n  0x40\n    /* \"#utility.yul\":9650:9659   */\n  dup4\n    /* \"#utility.yul\":9646:9664   */\n  add\n    /* \"#utility.yul\":9637:9643   */\n  dup7\n    /* \"#utility.yul\":9593:9665   */\n  tag_103\n  jump\t// in\ntag_226:\n    /* \"#utility.yul\":9675:9747   */\n  tag_227\n    /* \"#utility.yul\":9743:9745   */\n  0x60\n    /* \"#utility.yul\":9732:9741   */\n  dup4\n    /* \"#utility.yul\":9728:9746   */\n  add\n    /* \"#utility.yul\":9719:9725   */\n  dup6\n    /* \"#utility.yul\":9675:9747   */\n  tag_104\n  jump\t// in\ntag_227:\n    /* \"#utility.yul\":9757:9830   */\n  tag_228\n    /* \"#utility.yul\":9825:9828   */\n  0x80\n    /* \"#utility.yul\":9814:9823   */\n  dup4\n    /* \"#utility.yul\":9810:9829   */\n  add\n    /* \"#utility.yul\":9801:9807   */\n  dup5\n    /* \"#utility.yul\":9757:9830   */\n  tag_101\n  jump\t// in\ntag_228:\n    /* \"#utility.yul\":9173:9837   */\n  swap7\n  swap6\n  pop\n  pop\n  pop\n  pop\n  pop\n  pop\n  jump\t// out\n    /* \"#utility.yul\":9843:10012   */\ntag_105:\n    /* \"#utility.yul\":9927:9938   */\n  0x00\n    /* \"#utility.yul\":9961:9967   */\n  dup3\n    /* \"#utility.yul\":9956:9959   */\n  dup3\n    /* \"#utility.yul\":9949:9968   */\n  mstore\n    /* \"#utility.yul\":10001:10005   */\n  0x20\n    /* \"#utility.yul\":9996:9999   */\n  dup3\n    /* \"#utility.yul\":9992:10006   */\n  add\n    /* \"#utility.yul\":9977:10006   */\n  swap1\n  pop\n    /* \"#utility.yul\":9843:10012   */\n  swap3\n  swap2\n  pop\n  pop\n  jump\t// out\n    /* \"#utility.yul\":10018:10157   */\ntag_106:\n    /* \"#utility.yul\":10107:10113   */\n  dup3\n    /* \"#utility.yul\":10102:10105   */\n  dup2\n    /* \"#utility.yul\":10097:10100   */\n  dup4\n    /* \"#utility.yul\":10091:10114   */\n  mcopy\n    /* \"#utility.yul\":10148:10149   */\n  0x00\n    /* \"#utility.yul\":10139:10145   */\n  dup4\n    /* \"#utility.yul\":10134:10137   */\n  dup4\n    /* \"#utility.yul\":10130:10146   */\n  add\n    /* \"#utility.yul\":10123:10150   */\n  mstore\n    /* \"#utility.yul\":10018:10157   */\n  pop\n  pop\n  pop\n  jump\t// out\n    /* \"#utility.yul\":10163:10265   */\ntag_107:\n    /* \"#utility.yul\":10204:10210   */\n  0x00\n    /* \"#utility.yul\":10255:10257   */\n  0x1f\n    /* \"#utility.yul\":10251:10258   */\n  not\n    /* \"#utility.yul\":10246:10248   */\n  0x1f\n    /* \"#utility.yul\":10239:10244   */\n  dup4\n    /* \"#utility.yul\":10235:10249   */\n  add\n    /* \"#utility.yul\":10231:10259   */\n  and\n    /* \"#utility.yul\":10221:10259   */\n  swap1\n  pop\n    /* \"#utility.yul\":10163:10265   */\n  swap2\n  swap1\n  pop\n  jump\t// out\n    /* \"#utility.yul\":10271:10648   */\ntag_108:\n    /* \"#utility.yul\":10359:10362   */\n  0x00\n    /* \"#utility.yul\":10387:10426   */\n  tag_233\n    /* \"#utility.yul\":10420:10425   */\n  dup3\n    /* \"#utility.yul\":10387:10426   */\n  tag_80\n  jump\t// in\ntag_233:\n    /* \"#utility.yul\":10442:10513   */\n  tag_234\n    /* \"#utility.yul\":10506:10512   */\n  dup2\n    /* \"#utility.yul\":10501:10504   */\n  dup6\n    /* \"#utility.yul\":10442:10513   */\n  tag_105\n  jump\t// in\ntag_234:\n    /* \"#utility.yul\":10435:10513   */\n  swap4\n  pop\n    /* \"#utility.yul\":10522:10587   */\n  tag_235\n    /* \"#utility.yul\":10580:10586   */\n  dup2\n    /* \"#utility.yul\":10575:10578   */\n  dup6\n    /* \"#utility.yul\":10568:10572   */\n  0x20\n    /* \"#utility.yul\":10561:10566   */\n  dup7\n    /* \"#utility.yul\":10557:10573   */\n  add\n    /* \"#utility.yul\":10522:10587   */\n  tag_106\n  jump\t// in\ntag_235:\n    /* \"#utility.yul\":10612:10641   */\n  tag_236\n    /* \"#utility.yul\":10634:10640   */\n  dup2\n    /* \"#utility.yul\":10612:10641   */\n  tag_107\n  jump\t// in\ntag_236:\n    /* \"#utility.yul\":10607:10610   */\n  dup5\n    /* \"#utility.yul\":10603:10642   */\n  add\n    /* \"#utility.yul\":10596:10642   */\n  swap2\n  pop\n    /* \"#utility.yul\":10363:10648   */\n  pop\n    /* \"#utility.yul\":10271:10648   */\n  swap3\n  swap2\n  pop\n  pop\n  jump\t// out\n    /* \"#utility.yul\":10654:10967   */\ntag_58:\n    /* \"#utility.yul\":10767:10771   */\n  0x00\n    /* \"#utility.yul\":10805:10807   */\n  0x20\n    /* \"#utility.yul\":10794:10803   */\n  dup3\n    /* \"#utility.yul\":10790:10808   */\n  add\n    /* \"#utility.yul\":10782:10808   */\n  swap1\n  pop\n    /* \"#utility.yul\":10854:10863   */\n  dup2\n    /* \"#utility.yul\":10848:10852   */\n  dup2\n    /* \"#utility.yul\":10844:10864   */\n  sub\n    /* \"#utility.yul\":10840:10841   */\n  0x00\n    /* \"#utility.yul\":10829:10838   */\n  dup4\n    /* \"#utility.yul\":10825:10842   */\n  add\n    /* \"#utility.yul\":10818:10865   */\n  mstore\n    /* \"#utility.yul\":10882:10960   */\n  tag_238\n    /* \"#utility.yul\":10955:10959   */\n  dup2\n    /* \"#utility.yul\":10946:10952   */\n  dup5\n    /* \"#utility.yul\":10882:10960   */\n  tag_108\n  jump\t// in\ntag_238:\n    /* \"#utility.yul\":10874:10960   */\n  swap1\n  pop\n    /* \"#utility.yul\":10654:10967   */\n  swap3\n  swap2\n  pop\n  pop\n  jump\t// out\n    /* \"#utility.yul\":10973:11071   */\ntag_109:\n    /* \"#utility.yul\":11024:11030   */\n  0x00\n    /* \"#utility.yul\":11058:11063   */\n  dup2\n    /* \"#utility.yul\":11052:11064   */\n  mload\n    /* \"#utility.yul\":11042:11064   */\n  swap1\n  pop\n    /* \"#utility.yul\":10973:11071   */\n  swap2\n  swap1\n  pop\n  jump\t// out\n    /* \"#utility.yul\":11077:11193   */\ntag_110:\n    /* \"#utility.yul\":11128:11132   */\n  0x00\n    /* \"#utility.yul\":11151:11154   */\n  dup2\n    /* \"#utility.yul\":11143:11154   */\n  swap1\n  pop\n    /* \"#utility.yul\":11181:11185   */\n  0x20\n    /* \"#utility.yul\":11176:11179   */\n  dup3\n    /* \"#utility.yul\":11172:11186   */\n  add\n    /* \"#utility.yul\":11164:11186   */\n  swap1\n  pop\n    /* \"#utility.yul\":11077:11193   */\n  swap2\n  swap1\n  pop\n  jump\t// out\n    /* \"#utility.yul\":11199:11353   */\ntag_111:\n    /* \"#utility.yul\":11242:11253   */\n  0x00\n    /* \"#utility.yul\":11278:11307   */\n  tag_242\n    /* \"#utility.yul\":11302:11305   */\n  dup3\n    /* \"#utility.yul\":11296:11306   */\n  mload\n    /* \"#utility.yul\":11278:11307   */\n  tag_102\n  jump\t// in\ntag_242:\n    /* \"#utility.yul\":11341:11346   */\n  dup1\n    /* \"#utility.yul\":11317:11346   */\n  swap2\n  pop\n    /* \"#utility.yul\":11254:11353   */\n  pop\n    /* \"#utility.yul\":11199:11353   */\n  swap2\n  swap1\n  pop\n  jump\t// out\n    /* \"#utility.yul\":11359:11953   */\ntag_60:\n    /* \"#utility.yul\":11443:11448   */\n  0x00\n    /* \"#utility.yul\":11474:11512   */\n  tag_244\n    /* \"#utility.yul\":11506:11511   */\n  dup3\n    /* \"#utility.yul\":11474:11512   */\n  tag_109\n  jump\t// in\ntag_244:\n    /* \"#utility.yul\":11537:11542   */\n  dup3\n    /* \"#utility.yul\":11564:11604   */\n  tag_245\n    /* \"#utility.yul\":11598:11603   */\n  dup5\n    /* \"#utility.yul\":11564:11604   */\n  tag_110\n  jump\t// in\ntag_245:\n    /* \"#utility.yul\":11552:11604   */\n  swap1\n  pop\n    /* \"#utility.yul\":11623:11658   */\n  tag_246\n    /* \"#utility.yul\":11649:11657   */\n  dup2\n    /* \"#utility.yul\":11623:11658   */\n  tag_111\n  jump\t// in\ntag_246:\n    /* \"#utility.yul\":11614:11658   */\n  swap3\n  pop\n    /* \"#utility.yul\":11682:11684   */\n  0x20\n    /* \"#utility.yul\":11674:11680   */\n  dup3\n    /* \"#utility.yul\":11671:11685   */\n  lt\n    /* \"#utility.yul\":11668:11946   */\n  iszero\n  tag_247\n  jumpi\n    /* \"#utility.yul\":11753:11922   */\n  tag_248\n    /* \"#utility.yul\":11838:11904   */\n  0xffffffffffffffffffffffffffffffffffffffffffffffffffffffffffffffff\n    /* \"#utility.yul\":11808:11814   */\n  dup4\n    /* \"#utility.yul\":11804:11806   */\n  0x20\n    /* \"#utility.yul\":11800:11815   */\n  sub\n    /* \"#utility.yul\":11797:11798   */\n  0x08\n    /* \"#utility.yul\":11793:11816   */\n  mul\n    /* \"#utility.yul\":11753:11922   */\n  tag_86\n  jump\t// in\ntag_248:\n    /* \"#utility.yul\":11730:11735   */\n  dup4\n    /* \"#utility.yul\":11709:11936   */\n  and\n    /* \"#utility.yul\":11700:11936   */\n  swap3\n  pop\n    /* \"#utility.yul\":11668:11946   */\ntag_247:\n    /* \"#utility.yul\":11449:11953   */\n  pop\n  pop\n    /* \"#utility.yul\":11359:11953   */\n  swap2\n  swap1\n  pop\n  jump\t// out\n    /* \"#utility.yul\":11959:12150   */\ntag_65:\n    /* \"#utility.yul\":11999:12002   */\n  0x00\n    /* \"#utility.yul\":12018:12038   */\n  tag_250\n    /* \"#utility.yul\":12036:12037   */\n  dup3\n    /* \"#utility.yul\":12018:12038   */\n  tag_78\n  jump\t// in\ntag_250:\n    /* \"#utility.yul\":12013:12038   */\n  swap2\n  pop\n    /* \"#utility.yul\":12052:12072   */\n  tag_251\n    /* \"#utility.yul\":12070:12071   */\n  dup4\n    /* \"#utility.yul\":12052:12072   */\n  tag_78\n  jump\t// in\ntag_251:\n    /* \"#utility.yul\":12047:12072   */\n  swap3\n  pop\n    /* \"#utility.yul\":12095:12096   */\n  dup3\n    /* \"#utility.yul\":12092:12093   */\n  dup3\n    /* \"#utility.yul\":12088:12097   */\n  add\n    /* \"#utility.yul\":12081:12097   */\n  swap1\n  pop\n    /* \"#utility.yul\":12116:12119   */\n  dup1\n    /* \"#utility.yul\":12113:12114   */\n  dup3\n    /* \"#utility.yul\":12110:12120   */\n  gt\n    /* \"#utility.yul\":12107:12143   */\n  iszero\n  tag_252\n  jumpi\n    /* \"#utility.yul\":12123:12141   */\n  tag_253\n  tag_74\n  jump\t// in\ntag_253:\n    /* \"#utility.yul\":12107:12143   */\ntag_252:\n    /* \"#utility.yul\":11959:12150   */\n  swap3\n  swap2\n  pop\n  pop\n  jump\t// out\n    /* \"#utility.yul\":12156:12598   */\ntag_69:\n    /* \"#utility.yul\":12305:12309   */\n  0x00\n    /* \"#utility.yul\":12343:12345   */\n  0x60\n    /* \"#utility.yul\":12332:12341   */\n  dup3\n    /* \"#utility.yul\":12328:12346   */\n  add\n    /* \"#utility.yul\":12320:12346   */\n  swap1\n  pop\n    /* \"#utility.yul\":12356:12427   */\n  tag_255\n    /* \"#utility.yul\":12424:12425   */\n  0x00\n    /* \"#utility.yul\":12413:12422   */\n  dup4\n    /* \"#utility.yul\":12409:12426   */\n  add\n    /* \"#utility.yul\":12400:12406   */\n  dup7\n    /* \"#utility.yul\":12356:12427   */\n  tag_101\n  jump\t// in\ntag_255:\n    /* \"#utility.yul\":12437:12509   */\n  tag_256\n    /* \"#utility.yul\":12505:12507   */\n  0x20\n    /* \"#utility.yul\":12494:12503   */\n  dup4\n    /* \"#utility.yul\":12490:12508   */\n  add\n    /* \"#utility.yul\":12481:12487   */\n  dup6\n    /* \"#utility.yul\":12437:12509   */\n  tag_104\n  jump\t// in\ntag_256:\n    /* \"#utility.yul\":12519:12591   */\n  tag_257\n    /* \"#utility.yul\":12587:12589   */\n  0x40\n    /* \"#utility.yul\":12576:12585   */\n  dup4\n    /* \"#utility.yul\":12572:12590   */\n  add\n    /* \"#utility.yul\":12563:12569   */\n  dup5\n    /* \"#utility.yul\":12519:12591   */\n  tag_104\n  jump\t// in\ntag_257:\n    /* \"#utility.yul\":12156:12598   */\n  swap5\n  swap4\n  pop\n  pop\n  pop\n  pop\n  jump\t// out\n    /* \"#utility.yul\":12604:12826   */\ntag_73:\n    /* \"#utility.yul\":12697:12701   */\n  0x00\n    /* \"#utility.yul\":12735:12737   */\n  0x20\n    /* \"#utility.yul\":12724:12733   */\n  dup3\n    /* \"#utility.yul\":12720:12738   */\n  add\n    /* \"#utility.yul\":12712:12738   */\n  swap1\n  pop\n    /* \"#utility.yul\":12748:12819   */\n  tag_259\n    /* \"#utility.yul\":12816:12817   */\n  0x00\n    /* \"#utility.yul\":12805:12814   */\n  dup4\n    /* \"#utility.yul\":12801:12818   */\n  add\n    /* \"#utility.yul\":12792:12798   */\n  dup5\n    /* \"#utility.yul\":12748:12819   */\n  tag_104\n  jump\t// in\ntag_259:\n    /* \"#utility.yul\":12604:12826   */\n  swap3\n  swap2\n  pop\n  pop\n  jump\t// out\n    /* \"contracts/MyToken.sol\":241:801  contract RutraToken is ERC20, ERC20Permit, Ownable {... */\ntag_36:\n  mload(0x80)\n  mload(0xa0)\n  mload(0xc0)\n  mload(0xe0)\n  mload(0x0100)\n  mload(0x0120)\n  mload(0x0140)\n  codecopy(0x00, dataOffset(sub_0), dataSize(sub_0))\n  0x00\n  assignImmutable(\"0x8e9b7bbc33b685619ed5689e557e91302ac2ee6645fe42592ecee8f114bb3e14\")\n  0x00\n  assignImmutable(\"0xbb918c587be468bd0c7a09b1610bfa1db8d5840ec578636482aa025af3056430\")\n  0x00\n  assignImmutable(\"0xcbf74af01cbe1015e9ac85ea14fe824611550c769e9107467f16a4ac714457df\")\n  0x00\n  assignImmutable(\"0xcab6b469e411f2f1a1a63b7a352484b6446ac4f04b2cdfa437beb9293c27ba98\")\n  0x00\n  assignImmutable(\"0x0cac94dd8fa8b46dcb473f6a9efd44c79437a341d155face60953ba7292fa128\")\n  0x00\n  assignImmutable(\"0x1ed118b890fb17bfde2171d286512a9ec35519f5671f36b3347d34c44d7a13d4\")\n  0x00\n  assignImmutable(\"0xff86023f246b2cd604439ec36dd08070fda9a84bfebf677a354fd041e3509e75\")\n  return(0x00, dataSize(sub_0))\nstop\n\nsub_0: assembly {\n        /* \"contracts/MyToken.sol\":241:801  contract RutraToken is ERC20, ERC20Permit, Ownable {... */\n      mstore(0x40, 0x80)\n      callvalue\n      dup1\n      iszero\n      tag_1\n      jumpi\n      0x00\n      dup1\n      revert\n    tag_1:\n      pop\n      jumpi(tag_2, lt(calldatasize, 0x04))\n      shr(0xe0, calldataload(0x00))\n      dup1\n      0x715018a6\n      gt\n      tag_22\n      jumpi\n      dup1\n      0x95d89b41\n      gt\n      tag_23\n      jumpi\n      dup1\n      0x95d89b41\n      eq\n      tag_17\n      jumpi\n      dup1\n      0xa9059cbb\n      eq\n      tag_18\n      jumpi\n      dup1\n      0xd505accf\n      eq\n      tag_19\n      jumpi\n      dup1\n      0xdd62ed3e\n      eq\n      tag_20\n      jumpi\n      dup1\n      0xf2fde38b\n      eq\n      tag_21\n      jumpi\n      jump(tag_2)\n    tag_23:\n      dup1\n      0x715018a6\n      eq\n      tag_12\n      jumpi\n      dup1\n      0x7e1921f5\n      eq\n      tag_13\n      jumpi\n      dup1\n      0x7ecebe00\n      eq\n      tag_14\n      jumpi\n      dup1\n      0x84b0196e\n      eq\n      tag_15\n      jumpi\n      dup1\n      0x8da5cb5b\n      eq\n      tag_16\n      jumpi\n      jump(tag_2)\n    tag_22:\n      dup1\n      0x313ce567\n      gt\n      tag_24\n      jumpi\n      dup1\n      0x313ce567\n      eq\n      tag_7\n      jumpi\n      dup1\n      0x3644e515\n      eq\n      tag_8\n      jumpi\n      dup1\n      0x40c10f19\n      eq\n      tag_9\n      jumpi\n      dup1\n      0x42966c68\n      eq\n      tag_10\n      jumpi\n      dup1\n      0x70a08231\n      eq\n      tag_11\n      jumpi\n      jump(tag_2)\n    tag_24:\n      dup1\n      0x06fdde03\n      eq\n      tag_3\n      jumpi\n      dup1\n      0x095ea7b3\n      eq\n      tag_4\n      jumpi\n      dup1\n      0x18160ddd\n      eq\n      tag_5\n      jumpi\n      dup1\n      0x23b872dd\n      eq\n      tag_6\n      jumpi\n    tag_2:\n      0x00\n      dup1\n      revert\n        /* \"@openzeppelin/contracts/token/ERC20/ERC20.sol\":2074:2163  function name() public view virtual returns (string memory) {... */\n    tag_3:\n      tag_25\n      tag_26\n      jump\t// in\n    tag_25:\n      mload(0x40)\n      tag_27\n      swap2\n      swap1\n      tag_28\n      jump\t// in\n    tag_27:\n      mload(0x40)\n      dup1\n      swap2\n      sub\n      swap1\n      return\n        /* \"@openzeppelin/contracts/token/ERC20/ERC20.sol\":4293:4479  function approve(address spender, uint256 value) public virtual returns (bool) {... */\n    tag_4:\n      tag_29\n      0x04\n      dup1\n      calldatasize\n      sub\n      dup2\n      add\n      swap1\n      tag_30\n      swap2\n      swap1\n      tag_31\n      jump\t// in\n    tag_30:\n      tag_32\n      jump\t// in\n    tag_29:\n      mload(0x40)\n      tag_33\n      swap2\n      swap1\n      tag_34\n      jump\t// in\n    tag_33:\n      mload(0x40)\n      dup1\n      swap2\n      sub\n      swap1\n      return\n        /* \"@openzeppelin/contracts/token/ERC20/ERC20.sol\":3144:3241  function totalSupply() public view virtual returns (uint256) {... */\n    tag_5:\n      tag_35\n      tag_36\n      jump\t// in\n    tag_35:\n      mload(0x40)\n      tag_37\n      swap2\n      swap1\n      tag_38\n      jump\t// in\n    tag_37:\n      mload(0x40)\n      dup1\n      swap2\n      sub\n      swap1\n      return\n        /* \"@openzeppelin/contracts/token/ERC20/ERC20.sol\":5039:5283  function transferFrom(address from, address to, uint256 value) public virtual returns (bool) {... */\n    tag_6:\n      tag_39\n      0x04\n      dup1\n      calldatasize\n      sub\n      dup2\n      add\n      swap1\n      tag_40\n      swap2\n      swap1\n      tag_41\n      jump\t// in\n    tag_40:\n      tag_42\n      jump\t// in\n    tag_39:\n      mload(0x40)\n      tag_43\n      swap2\n      swap1\n      tag_34\n      jump\t// in\n    tag_43:\n      mload(0x40)\n      dup1\n      swap2\n      sub\n      swap1\n      return\n        /* \"@openzeppelin/contracts/token/ERC20/ERC20.sol\":3002:3084  function decimals() public view virtual returns (uint8) {... */\n    tag_7:\n      tag_44\n      tag_45\n      jump\t// in\n    tag_44:\n      mload(0x40)\n      tag_46\n      swap2\n      swap1\n      tag_47\n      jump\t// in\n    tag_46:\n      mload(0x40)\n      dup1\n      swap2\n      sub\n      swap1\n      return\n        /* \"@openzeppelin/contracts/token/ERC20/extensions/ERC20Permit.sol\":2656:2768  function DOMAIN_SEPARATOR() external view virtual returns (bytes32) {... */\n    tag_8:\n      tag_48\n      tag_49\n      jump\t// in\n    tag_48:\n      mload(0x40)\n      tag_50\n      swap2\n      swap1\n      tag_51\n      jump\t// in\n    tag_50:\n      mload(0x40)\n      dup1\n      swap2\n      sub\n      swap1\n      return\n        /* \"contracts/MyToken.sol\":538:705  function mint(address _to, uint256 _amount) public onlyOwner {... */\n    tag_9:\n      tag_52\n      0x04\n      dup1\n      calldatasize\n      sub\n      dup2\n      add\n      swap1\n      tag_53\n      swap2\n      swap1\n      tag_31\n      jump\t// in\n    tag_53:\n      tag_54\n      jump\t// in\n    tag_52:\n      stop\n        /* \"contracts/MyToken.sol\":711:798  function burn(uint256 _amount) public onlyOwner {... */\n    tag_10:\n      tag_55\n      0x04\n      dup1\n      calldatasize\n      sub\n      dup2\n      add\n      swap1\n      tag_56\n      swap2\n      swap1\n      tag_57\n      jump\t// in\n    tag_56:\n      tag_58\n      jump\t// in\n    tag_55:\n      stop\n        /* \"@openzeppelin/contracts/token/ERC20/ERC20.sol\":3299:3415  function balanceOf(address account) public view virtual returns (uint256) {... */\n    tag_11:\n      tag_59\n      0x04\n      dup1\n      calldatasize\n      sub\n      dup2\n      add\n      swap1\n      tag_60\n      swap2\n      swap1\n      tag_61\n      jump\t// in\n    tag_60:\n      tag_62\n      jump\t// in\n    tag_59:\n      mload(0x40)\n      tag_63\n      swap2\n      swap1\n      tag_38\n      jump\t// in\n    tag_63:\n      mload(0x40)\n      dup1\n      swap2\n      sub\n      swap1\n      return\n        /* \"@openzeppelin/contracts/access/Ownable.sol\":2293:2394  function renounceOwnership() public virtual onlyOwner {... */\n    tag_12:\n      tag_64\n      tag_65\n      jump\t// in\n    tag_64:\n      stop\n        /* \"contracts/MyToken.sol\":298:348  uint256 public maxRutra = 10000 * 10 ** decimals() */\n    tag_13:\n      tag_66\n      tag_67\n      jump\t// in\n    tag_66:\n      mload(0x40)\n      tag_68\n      swap2\n      swap1\n      tag_38\n      jump\t// in\n    tag_68:\n      mload(0x40)\n      dup1\n      swap2\n      sub\n      swap1\n      return\n        /* \"@openzeppelin/contracts/token/ERC20/extensions/ERC20Permit.sol\":2406:2549  function nonces(address owner) public view virtual override(IERC20Permit, Nonces) returns (uint256) {... */\n    tag_14:\n      tag_69\n      0x04\n      dup1\n      calldatasize\n      sub\n      dup2\n      add\n      swap1\n      tag_70\n      swap2\n      swap1\n      tag_61\n      jump\t// in\n    tag_70:\n      tag_71\n      jump\t// in\n    tag_69:\n      mload(0x40)\n      tag_72\n      swap2\n      swap1\n      tag_38\n      jump\t// in\n    tag_72:\n      mload(0x40)\n      dup1\n      swap2\n      sub\n      swap1\n      return\n        /* \"@openzeppelin/contracts/utils/cryptography/EIP712.sol\":5144:5701  function eip712Domain()... */\n    tag_15:\n      tag_73\n      tag_74\n      jump\t// in\n    tag_73:\n      mload(0x40)\n      tag_75\n      swap8\n      swap7\n      swap6\n      swap5\n      swap4\n      swap3\n      swap2\n      swap1\n      tag_76\n      jump\t// in\n    tag_75:\n      mload(0x40)\n      dup1\n      swap2\n      sub\n      swap1\n      return\n        /* \"@openzeppelin/contracts/access/Ownable.sol\":1638:1723  function owner() public view virtual returns (address) {... */\n    tag_16:\n      tag_77\n      tag_78\n      jump\t// in\n    tag_77:\n      mload(0x40)\n      tag_79\n      swap2\n      swap1\n      tag_80\n      jump\t// in\n    tag_79:\n      mload(0x40)\n      dup1\n      swap2\n      sub\n      swap1\n      return\n        /* \"@openzeppelin/contracts/token/ERC20/ERC20.sol\":2276:2369  function symbol() public view virtual returns (string memory) {... */\n    tag_17:\n      tag_81\n      tag_82\n      jump\t// in\n    tag_81:\n      mload(0x40)\n      tag_83\n      swap2\n      swap1\n      tag_28\n      jump\t// in\n    tag_83:\n      mload(0x40)\n      dup1\n      swap2\n      sub\n      swap1\n      return\n        /* \"@openzeppelin/contracts/token/ERC20/ERC20.sol\":3610:3788  function transfer(address to, uint256 value) public virtual returns (bool) {... */\n    tag_18:\n      tag_84\n      0x04\n      dup1\n      calldatasize\n      sub\n      dup2\n      add\n      swap1\n      tag_85\n      swap2\n      swap1\n      tag_31\n      jump\t// in\n    tag_85:\n      tag_86\n      jump\t// in\n    tag_84:\n      mload(0x40)\n      tag_87\n      swap2\n      swap1\n      tag_34\n      jump\t// in\n    tag_87:\n      mload(0x40)\n      dup1\n      swap2\n      sub\n      swap1\n      return\n        /* \"@openzeppelin/contracts/token/ERC20/extensions/ERC20Permit.sol\":1680:2352  function permit(... */\n    tag_19:\n      tag_88\n      0x04\n      dup1\n      calldatasize\n      sub\n      dup2\n      add\n      swap1\n      tag_89\n      swap2\n      swap1\n      tag_90\n      jump\t// in\n    tag_89:\n      tag_91\n      jump\t// in\n    tag_88:\n      stop\n        /* \"@openzeppelin/contracts/token/ERC20/ERC20.sol\":3846:3986  function allowance(address owner, address spender) public view virtual returns (uint256) {... */\n    tag_20:\n      tag_92\n      0x04\n      dup1\n      calldatasize\n      sub\n      dup2\n      add\n      swap1\n      tag_93\n      swap2\n      swap1\n      tag_94\n      jump\t// in\n    tag_93:\n      tag_95\n      jump\t// in\n    tag_92:\n      mload(0x40)\n      tag_96\n      swap2\n      swap1\n      tag_38\n      jump\t// in\n    tag_96:\n      mload(0x40)\n      dup1\n      swap2\n      sub\n      swap1\n      return\n        /* \"@openzeppelin/contracts/access/Ownable.sol\":2543:2758  function transferOwnership(address newOwner) public virtual onlyOwner {... */\n    tag_21:\n      tag_97\n      0x04\n      dup1\n      calldatasize\n      sub\n      dup2\n      add\n      swap1\n      tag_98\n      swap2\n      swap1\n      tag_61\n      jump\t// in\n    tag_98:\n      tag_99\n      jump\t// in\n    tag_97:\n      stop\n        /* \"@openzeppelin/contracts/token/ERC20/ERC20.sol\":2074:2163  function name() public view virtual returns (string memory) {... */\n    tag_26:\n        /* \"@openzeppelin/contracts/token/ERC20/ERC20.sol\":2119:2132  string memory */\n      0x60\n        /* \"@openzeppelin/contracts/token/ERC20/ERC20.sol\":2151:2156  _name */\n      0x03\n        /* \"@openzeppelin/contracts/token/ERC20/ERC20.sol\":2144:2156  return _name */\n      dup1\n      sload\n      tag_101\n      swap1\n      tag_102\n      jump\t// in\n    tag_101:\n      dup1\n      0x1f\n      add\n      0x20\n      dup1\n      swap2\n      div\n      mul\n      0x20\n      add\n      mload(0x40)\n      swap1\n      dup2\n      add\n      0x40\n      mstore\n      dup1\n      swap3\n      swap2\n      swap1\n      dup2\n      dup2\n      mstore\n      0x20\n      add\n      dup3\n      dup1\n      sload\n      tag_103\n      swap1\n      tag_102\n      jump\t// in\n    tag_103:\n      dup1\n      iszero\n      tag_104\n      jumpi\n      dup1\n      0x1f\n      lt\n      tag_105\n      jumpi\n      0x0100\n      dup1\n      dup4\n      sload\n      div\n      mul\n      dup4\n      mstore\n      swap2\n      0x20\n      add\n      swap2\n      jump(tag_104)\n    tag_105:\n      dup3\n      add\n      swap2\n      swap1\n      0x00\n      mstore\n      keccak256(0x00, 0x20)\n      swap1\n    tag_106:\n      dup2\n      sload\n      dup2\n      mstore\n      swap1\n      0x01\n      add\n      swap1\n      0x20\n      add\n      dup1\n      dup4\n      gt\n      tag_106\n      jumpi\n      dup3\n      swap1\n      sub\n      0x1f\n      and\n      dup3\n      add\n      swap2\n    tag_104:\n      pop\n      pop\n      pop\n      pop\n      pop\n      swap1\n      pop\n        /* \"@openzeppelin/contracts/token/ERC20/ERC20.sol\":2074:2163  function name() public view virtual returns (string memory) {... */\n      swap1\n      jump\t// out\n        /* \"@openzeppelin/contracts/token/ERC20/ERC20.sol\":4293:4479  function approve(address spender, uint256 value) public virtual returns (bool) {... */\n    tag_32:\n        /* \"@openzeppelin/contracts/token/ERC20/ERC20.sol\":4366:4370  bool */\n      0x00\n        /* \"@openzeppelin/contracts/token/ERC20/ERC20.sol\":4382:4395  address owner */\n      dup1\n        /* \"@openzeppelin/contracts/token/ERC20/ERC20.sol\":4398:4410  _msgSender() */\n      tag_108\n        /* \"@openzeppelin/contracts/token/ERC20/ERC20.sol\":4398:4408  _msgSender */\n      tag_109\n        /* \"@openzeppelin/contracts/token/ERC20/ERC20.sol\":4398:4410  _msgSender() */\n      jump\t// in\n    tag_108:\n        /* \"@openzeppelin/contracts/token/ERC20/ERC20.sol\":4382:4410  address owner = _msgSender() */\n      swap1\n      pop\n        /* \"@openzeppelin/contracts/token/ERC20/ERC20.sol\":4420:4451  _approve(owner, spender, value) */\n      tag_110\n        /* \"@openzeppelin/contracts/token/ERC20/ERC20.sol\":4429:4434  owner */\n      dup2\n        /* \"@openzeppelin/contracts/token/ERC20/ERC20.sol\":4436:4443  spender */\n      dup6\n        /* \"@openzeppelin/contracts/token/ERC20/ERC20.sol\":4445:4450  value */\n      dup6\n        /* \"@openzeppelin/contracts/token/ERC20/ERC20.sol\":4420:4428  _approve */\n      tag_111\n        /* \"@openzeppelin/contracts/token/ERC20/ERC20.sol\":4420:4451  _approve(owner, spender, value) */\n      jump\t// in\n    tag_110:\n        /* \"@openzeppelin/contracts/token/ERC20/ERC20.sol\":4468:4472  true */\n      0x01\n        /* \"@openzeppelin/contracts/token/ERC20/ERC20.sol\":4461:4472  return true */\n      swap2\n      pop\n      pop\n        /* \"@openzeppelin/contracts/token/ERC20/ERC20.sol\":4293:4479  function approve(address spender, uint256 value) public virtual returns (bool) {... */\n      swap3\n      swap2\n      pop\n      pop\n      jump\t// out\n        /* \"@openzeppelin/contracts/token/ERC20/ERC20.sol\":3144:3241  function totalSupply() public view virtual returns (uint256) {... */\n    tag_36:\n        /* \"@openzeppelin/contracts/token/ERC20/ERC20.sol\":3196:3203  uint256 */\n      0x00\n        /* \"@openzeppelin/contracts/token/ERC20/ERC20.sol\":3222:3234  _totalSupply */\n      sload(0x02)\n        /* \"@openzeppelin/contracts/token/ERC20/ERC20.sol\":3215:3234  return _totalSupply */\n      swap1\n      pop\n        /* \"@openzeppelin/contracts/token/ERC20/ERC20.sol\":3144:3241  function totalSupply() public view virtual returns (uint256) {... */\n      swap1\n      jump\t// out\n        /* \"@openzeppelin/contracts/token/ERC20/ERC20.sol\":5039:5283  function transferFrom(address from, address to, uint256 value) public virtual returns (bool) {... */\n    tag_42:\n        /* \"@openzeppelin/contracts/token/ERC20/ERC20.sol\":5126:5130  bool */\n      0x00\n        /* \"@openzeppelin/contracts/token/ERC20/ERC20.sol\":5142:5157  address spender */\n      dup1\n        /* \"@openzeppelin/contracts/token/ERC20/ERC20.sol\":5160:5172  _msgSender() */\n      tag_114\n        /* \"@openzeppelin/contracts/token/ERC20/ERC20.sol\":5160:5170  _msgSender */\n      tag_109\n        /* \"@openzeppelin/contracts/token/ERC20/ERC20.sol\":5160:5172  _msgSender() */\n      jump\t// in\n    tag_114:\n        /* \"@openzeppelin/contracts/token/ERC20/ERC20.sol\":5142:5172  address spender = _msgSender() */\n      swap1\n      pop\n        /* \"@openzeppelin/contracts/token/ERC20/ERC20.sol\":5182:5219  _spendAllowance(from, spender, value) */\n      tag_115\n        /* \"@openzeppelin/contracts/token/ERC20/ERC20.sol\":5198:5202  from */\n      dup6\n        /* \"@openzeppelin/contracts/token/ERC20/ERC20.sol\":5204:5211  spender */\n      dup3\n        /* \"@openzeppelin/contracts/token/ERC20/ERC20.sol\":5213:5218  value */\n      dup6\n        /* \"@openzeppelin/contracts/token/ERC20/ERC20.sol\":5182:5197  _spendAllowance */\n      tag_116\n        /* \"@openzeppelin/contracts/token/ERC20/ERC20.sol\":5182:5219  _spendAllowance(from, spender, value) */\n      jump\t// in\n    tag_115:\n        /* \"@openzeppelin/contracts/token/ERC20/ERC20.sol\":5229:5255  _transfer(from, to, value) */\n      tag_117\n        /* \"@openzeppelin/contracts/token/ERC20/ERC20.sol\":5239:5243  from */\n      dup6\n        /* \"@openzeppelin/contracts/token/ERC20/ERC20.sol\":5245:5247  to */\n      dup6\n        /* \"@openzeppelin/contracts/token/ERC20/ERC20.sol\":5249:5254  value */\n      dup6\n        /* \"@openzeppelin/contracts/token/ERC20/ERC20.sol\":5229:5238  _transfer */\n      tag_118\n        /* \"@openzeppelin/contracts/token/ERC20/ERC20.sol\":5229:5255  _transfer(from, to, value) */\n      jump\t// in\n    tag_117:\n        /* \"@openzeppelin/contracts/token/ERC20/ERC20.sol\":5272:5276  true */\n      0x01\n        /* \"@openzeppelin/contracts/token/ERC20/ERC20.sol\":5265:5276  return true */\n      swap2\n      pop\n      pop\n        /* \"@openzeppelin/contracts/token/ERC20/ERC20.sol\":5039:5283  function transferFrom(address from, address to, uint256 value) public virtual returns (bool) {... */\n      swap4\n      swap3\n      pop\n      pop\n      pop\n      jump\t// out\n        /* \"@openzeppelin/contracts/token/ERC20/ERC20.sol\":3002:3084  function decimals() public view virtual returns (uint8) {... */\n    tag_45:\n        /* \"@openzeppelin/contracts/token/ERC20/ERC20.sol\":3051:3056  uint8 */\n      0x00\n        /* \"@openzeppelin/contracts/token/ERC20/ERC20.sol\":3075:3077  18 */\n      0x12\n        /* \"@openzeppelin/contracts/token/ERC20/ERC20.sol\":3068:3077  return 18 */\n      swap1\n      pop\n        /* \"@openzeppelin/contracts/token/ERC20/ERC20.sol\":3002:3084  function decimals() public view virtual returns (uint8) {... */\n      swap1\n      jump\t// out\n        /* \"@openzeppelin/contracts/token/ERC20/extensions/ERC20Permit.sol\":2656:2768  function DOMAIN_SEPARATOR() external view virtual returns (bytes32) {... */\n    tag_49:\n        /* \"@openzeppelin/contracts/token/ERC20/extensions/ERC20Permit.sol\":2715:2722  bytes32 */\n      0x00\n        /* \"@openzeppelin/contracts/token/ERC20/extensions/ERC20Permit.sol\":2741:2761  _domainSeparatorV4() */\n      tag_121\n        /* \"@openzeppelin/contracts/token/ERC20/extensions/ERC20Permit.sol\":2741:2759  _domainSeparatorV4 */\n      tag_122\n        /* \"@openzeppelin/contracts/token/ERC20/extensions/ERC20Permit.sol\":2741:2761  _domainSeparatorV4() */\n      jump\t// in\n    tag_121:\n        /* \"@openzeppelin/contracts/token/ERC20/extensions/ERC20Permit.sol\":2734:2761  return _domainSeparatorV4() */\n      swap1\n      pop\n        /* \"@openzeppelin/contracts/token/ERC20/extensions/ERC20Permit.sol\":2656:2768  function DOMAIN_SEPARATOR() external view virtual returns (bytes32) {... */\n      swap1\n      jump\t// out\n        /* \"contracts/MyToken.sol\":538:705  function mint(address _to, uint256 _amount) public onlyOwner {... */\n    tag_54:\n        /* \"@openzeppelin/contracts/access/Ownable.sol\":1531:1544  _checkOwner() */\n      tag_124\n        /* \"@openzeppelin/contracts/access/Ownable.sol\":1531:1542  _checkOwner */\n      tag_125\n        /* \"@openzeppelin/contracts/access/Ownable.sol\":1531:1544  _checkOwner() */\n      jump\t// in\n    tag_124:\n        /* \"contracts/MyToken.sol\":640:648  maxRutra */\n      sload(0x09)\n        /* \"contracts/MyToken.sol\":629:636  _amount */\n      dup2\n        /* \"contracts/MyToken.sol\":613:626  totalSupply() */\n      tag_127\n        /* \"contracts/MyToken.sol\":613:624  totalSupply */\n      tag_36\n        /* \"contracts/MyToken.sol\":613:626  totalSupply() */\n      jump\t// in\n    tag_127:\n        /* \"contracts/MyToken.sol\":613:636  totalSupply() + _amount */\n      tag_128\n      swap2\n      swap1\n      tag_129\n      jump\t// in\n    tag_128:\n        /* \"contracts/MyToken.sol\":613:648  totalSupply() + _amount <= maxRutra */\n      gt\n      iszero\n        /* \"contracts/MyToken.sol\":605:677  require(totalSupply() + _amount <= maxRutra, \"total supply 100% minted\") */\n      tag_130\n      jumpi\n      mload(0x40)\n      0x08c379a000000000000000000000000000000000000000000000000000000000\n      dup2\n      mstore\n      0x04\n      add\n      tag_131\n      swap1\n      tag_132\n      jump\t// in\n    tag_131:\n      mload(0x40)\n      dup1\n      swap2\n      sub\n      swap1\n      revert\n    tag_130:\n        /* \"contracts/MyToken.sol\":683:702  _mint(_to, _amount) */\n      tag_133\n        /* \"contracts/MyToken.sol\":689:692  _to */\n      dup3\n        /* \"contracts/MyToken.sol\":694:701  _amount */\n      dup3\n        /* \"contracts/MyToken.sol\":683:688  _mint */\n      tag_134\n        /* \"contracts/MyToken.sol\":683:702  _mint(_to, _amount) */\n      jump\t// in\n    tag_133:\n        /* \"contracts/MyToken.sol\":538:705  function mint(address _to, uint256 _amount) public onlyOwner {... */\n      pop\n      pop\n      jump\t// out\n        /* \"contracts/MyToken.sol\":711:798  function burn(uint256 _amount) public onlyOwner {... */\n    tag_58:\n        /* \"@openzeppelin/contracts/access/Ownable.sol\":1531:1544  _checkOwner() */\n      tag_136\n        /* \"@openzeppelin/contracts/access/Ownable.sol\":1531:1542  _checkOwner */\n      tag_125\n        /* \"@openzeppelin/contracts/access/Ownable.sol\":1531:1544  _checkOwner() */\n      jump\t// in\n    tag_136:\n        /* \"contracts/MyToken.sol\":765:791  _burn(msg.sender, _amount) */\n      tag_138\n        /* \"contracts/MyToken.sol\":771:781  msg.sender */\n      caller\n        /* \"contracts/MyToken.sol\":783:790  _amount */\n      dup3\n        /* \"contracts/MyToken.sol\":765:770  _burn */\n      tag_139\n        /* \"contracts/MyToken.sol\":765:791  _burn(msg.sender, _amount) */\n      jump\t// in\n    tag_138:\n        /* \"contracts/MyToken.sol\":711:798  function burn(uint256 _amount) public onlyOwner {... */\n      pop\n      jump\t// out\n        /* \"@openzeppelin/contracts/token/ERC20/ERC20.sol\":3299:3415  function balanceOf(address account) public view virtual returns (uint256) {... */\n    tag_62:\n        /* \"@openzeppelin/contracts/token/ERC20/ERC20.sol\":3364:3371  uint256 */\n      0x00\n        /* \"@openzeppelin/contracts/token/ERC20/ERC20.sol\":3390:3399  _balances */\n      dup1\n        /* \"@openzeppelin/contracts/token/ERC20/ERC20.sol\":3390:3408  _balances[account] */\n      0x00\n        /* \"@openzeppelin/contracts/token/ERC20/ERC20.sol\":3400:3407  account */\n      dup4\n        /* \"@openzeppelin/contracts/token/ERC20/ERC20.sol\":3390:3408  _balances[account] */\n      0xffffffffffffffffffffffffffffffffffffffff\n      and\n      0xffffffffffffffffffffffffffffffffffffffff\n      and\n      dup2\n      mstore\n      0x20\n      add\n      swap1\n      dup2\n      mstore\n      0x20\n      add\n      0x00\n      keccak256\n      sload\n        /* \"@openzeppelin/contracts/token/ERC20/ERC20.sol\":3383:3408  return _balances[account] */\n      swap1\n      pop\n        /* \"@openzeppelin/contracts/token/ERC20/ERC20.sol\":3299:3415  function balanceOf(address account) public view virtual returns (uint256) {... */\n      swap2\n      swap1\n      pop\n      jump\t// out\n        /* \"@openzeppelin/contracts/access/Ownable.sol\":2293:2394  function renounceOwnership() public virtual onlyOwner {... */\n    tag_65:\n        /* \"@openzeppelin/contracts/access/Ownable.sol\":1531:1544  _checkOwner() */\n      tag_142\n        /* \"@openzeppelin/contracts/access/Ownable.sol\":1531:1542  _checkOwner */\n      tag_125\n        /* \"@openzeppelin/contracts/access/Ownable.sol\":1531:1544  _checkOwner() */\n      jump\t// in\n    tag_142:\n        /* \"@openzeppelin/contracts/access/Ownable.sol\":2357:2387  _transferOwnership(address(0)) */\n      tag_144\n        /* \"@openzeppelin/contracts/access/Ownable.sol\":2384:2385  0 */\n      0x00\n        /* \"@openzeppelin/contracts/access/Ownable.sol\":2357:2375  _transferOwnership */\n      tag_145\n        /* \"@openzeppelin/contracts/access/Ownable.sol\":2357:2387  _transferOwnership(address(0)) */\n      jump\t// in\n    tag_144:\n        /* \"@openzeppelin/contracts/access/Ownable.sol\":2293:2394  function renounceOwnership() public virtual onlyOwner {... */\n      jump\t// out\n        /* \"contracts/MyToken.sol\":298:348  uint256 public maxRutra = 10000 * 10 ** decimals() */\n    tag_67:\n      sload(0x09)\n      dup2\n      jump\t// out\n        /* \"@openzeppelin/contracts/token/ERC20/extensions/ERC20Permit.sol\":2406:2549  function nonces(address owner) public view virtual override(IERC20Permit, Nonces) returns (uint256) {... */\n    tag_71:\n        /* \"@openzeppelin/contracts/token/ERC20/extensions/ERC20Permit.sol\":2497:2504  uint256 */\n      0x00\n        /* \"@openzeppelin/contracts/token/ERC20/extensions/ERC20Permit.sol\":2523:2542  super.nonces(owner) */\n      tag_147\n        /* \"@openzeppelin/contracts/token/ERC20/extensions/ERC20Permit.sol\":2536:2541  owner */\n      dup3\n        /* \"@openzeppelin/contracts/token/ERC20/extensions/ERC20Permit.sol\":2523:2535  super.nonces */\n      tag_148\n        /* \"@openzeppelin/contracts/token/ERC20/extensions/ERC20Permit.sol\":2523:2542  super.nonces(owner) */\n      jump\t// in\n    tag_147:\n        /* \"@openzeppelin/contracts/token/ERC20/extensions/ERC20Permit.sol\":2516:2542  return super.nonces(owner) */\n      swap1\n      pop\n        /* \"@openzeppelin/contracts/token/ERC20/extensions/ERC20Permit.sol\":2406:2549  function nonces(address owner) public view virtual override(IERC20Permit, Nonces) returns (uint256) {... */\n      swap2\n      swap1\n      pop\n      jump\t// out\n        /* \"@openzeppelin/contracts/utils/cryptography/EIP712.sol\":5144:5701  function eip712Domain()... */\n    tag_74:\n        /* \"@openzeppelin/contracts/utils/cryptography/EIP712.sol\":5242:5255  bytes1 fields */\n      0x00\n        /* \"@openzeppelin/contracts/utils/cryptography/EIP712.sol\":5269:5287  string memory name */\n      0x60\n        /* \"@openzeppelin/contracts/utils/cryptography/EIP712.sol\":5301:5322  string memory version */\n      dup1\n        /* \"@openzeppelin/contracts/utils/cryptography/EIP712.sol\":5336:5351  uint256 chainId */\n      0x00\n        /* \"@openzeppelin/contracts/utils/cryptography/EIP712.sol\":5365:5390  address verifyingContract */\n      dup1\n        /* \"@openzeppelin/contracts/utils/cryptography/EIP712.sol\":5404:5416  bytes32 salt */\n      0x00\n        /* \"@openzeppelin/contracts/utils/cryptography/EIP712.sol\":5430:5457  uint256[] memory extensions */\n      0x60\n        /* \"@openzeppelin/contracts/utils/cryptography/EIP712.sol\":5533:5546  _EIP712Name() */\n      tag_150\n        /* \"@openzeppelin/contracts/utils/cryptography/EIP712.sol\":5533:5544  _EIP712Name */\n      tag_151\n        /* \"@openzeppelin/contracts/utils/cryptography/EIP712.sol\":5533:5546  _EIP712Name() */\n      jump\t// in\n    tag_150:\n        /* \"@openzeppelin/contracts/utils/cryptography/EIP712.sol\":5560:5576  _EIP712Version() */\n      tag_152\n        /* \"@openzeppelin/contracts/utils/cryptography/EIP712.sol\":5560:5574  _EIP712Version */\n      tag_153\n        /* \"@openzeppelin/contracts/utils/cryptography/EIP712.sol\":5560:5576  _EIP712Version() */\n      jump\t// in\n    tag_152:\n        /* \"@openzeppelin/contracts/utils/cryptography/EIP712.sol\":5590:5603  block.chainid */\n      chainid\n        /* \"@openzeppelin/contracts/utils/cryptography/EIP712.sol\":5625:5629  this */\n      address\n        /* \"@openzeppelin/contracts/utils/cryptography/EIP712.sol\":5652:5653  0 */\n      0x00\n        /* \"@openzeppelin/contracts/utils/cryptography/EIP712.sol\":5644:5654  bytes32(0) */\n      dup1\n      shl\n        /* \"@openzeppelin/contracts/utils/cryptography/EIP712.sol\":5682:5683  0 */\n      0x00\n        /* \"@openzeppelin/contracts/utils/cryptography/EIP712.sol\":5668:5684  new uint256[](0) */\n      0xffffffffffffffff\n      dup2\n      gt\n      iszero\n      tag_154\n      jumpi\n      tag_155\n      tag_156\n      jump\t// in\n    tag_155:\n    tag_154:\n      mload(0x40)\n      swap1\n      dup1\n      dup3\n      mstore\n      dup1\n      0x20\n      mul\n      0x20\n      add\n      dup3\n      add\n      0x40\n      mstore\n      dup1\n      iszero\n      tag_157\n      jumpi\n      dup2\n      0x20\n      add\n      0x20\n      dup3\n      mul\n      dup1\n      calldatasize\n      dup4\n      calldatacopy\n      dup1\n      dup3\n      add\n      swap2\n      pop\n      pop\n      swap1\n      pop\n    tag_157:\n      pop\n        /* \"@openzeppelin/contracts/utils/cryptography/EIP712.sol\":5482:5694  return (... */\n      0x0f00000000000000000000000000000000000000000000000000000000000000\n      swap6\n      swap5\n      swap4\n      swap3\n      swap2\n      swap1\n      swap7\n      pop\n      swap7\n      pop\n      swap7\n      pop\n      swap7\n      pop\n      swap7\n      pop\n      swap7\n      pop\n      swap7\n      pop\n        /* \"@openzeppelin/contracts/utils/cryptography/EIP712.sol\":5144:5701  function eip712Domain()... */\n      swap1\n      swap2\n      swap3\n      swap4\n      swap5\n      swap6\n      swap7\n      jump\t// out\n        /* \"@openzeppelin/contracts/access/Ownable.sol\":1638:1723  function owner() public view virtual returns (address) {... */\n    tag_78:\n        /* \"@openzeppelin/contracts/access/Ownable.sol\":1684:1691  address */\n      0x00\n        /* \"@openzeppelin/contracts/access/Ownable.sol\":1710:1716  _owner */\n      0x08\n      0x00\n      swap1\n      sload\n      swap1\n      0x0100\n      exp\n      swap1\n      div\n      0xffffffffffffffffffffffffffffffffffffffff\n      and\n        /* \"@openzeppelin/contracts/access/Ownable.sol\":1703:1716  return _owner */\n      swap1\n      pop\n        /* \"@openzeppelin/contracts/access/Ownable.sol\":1638:1723  function owner() public view virtual returns (address) {... */\n      swap1\n      jump\t// out\n        /* \"@openzeppelin/contracts/token/ERC20/ERC20.sol\":2276:2369  function symbol() public view virtual returns (string memory) {... */\n    tag_82:\n        /* \"@openzeppelin/contracts/token/ERC20/ERC20.sol\":2323:2336  string memory */\n      0x60\n        /* \"@openzeppelin/contracts/token/ERC20/ERC20.sol\":2355:2362  _symbol */\n      0x04\n        /* \"@openzeppelin/contracts/token/ERC20/ERC20.sol\":2348:2362  return _symbol */\n      dup1\n      sload\n      tag_160\n      swap1\n      tag_102\n      jump\t// in\n    tag_160:\n      dup1\n      0x1f\n      add\n      0x20\n      dup1\n      swap2\n      div\n      mul\n      0x20\n      add\n      mload(0x40)\n      swap1\n      dup2\n      add\n      0x40\n      mstore\n      dup1\n      swap3\n      swap2\n      swap1\n      dup2\n      dup2\n      mstore\n      0x20\n      add\n      dup3\n      dup1\n      sload\n      tag_161\n      swap1\n      tag_102\n      jump\t// in\n    tag_161:\n      dup1\n      iszero\n      tag_162\n      jumpi\n      dup1\n      0x1f\n      lt\n      tag_163\n      jumpi\n      0x0100\n      dup1\n      dup4\n      sload\n      div\n      mul\n      dup4\n      mstore\n      swap2\n      0x20\n      add\n      swap2\n      jump(tag_162)\n    tag_163:\n      dup3\n      add\n      swap2\n      swap1\n      0x00\n      mstore\n      keccak256(0x00, 0x20)\n      swap1\n    tag_164:\n      dup2\n      sload\n      dup2\n      mstore\n      swap1\n      0x01\n      add\n      swap1\n      0x20\n      add\n      dup1\n      dup4\n      gt\n      tag_164\n      jumpi\n      dup3\n      swap1\n      sub\n      0x1f\n      and\n      dup3\n      add\n      swap2\n    tag_162:\n      pop\n      pop\n      pop\n      pop\n      pop\n      swap1\n      pop\n        /* \"@openzeppelin/contracts/token/ERC20/ERC20.sol\":2276:2369  function symbol() public view virtual returns (string memory) {... */\n      swap1\n      jump\t// out\n        /* \"@openzeppelin/contracts/token/ERC20/ERC20.sol\":3610:3788  function transfer(address to, uint256 value) public virtual returns (bool) {... */\n    tag_86:\n        /* \"@openzeppelin/contracts/token/ERC20/ERC20.sol\":3679:3683  bool */\n      0x00\n        /* \"@openzeppelin/contracts/token/ERC20/ERC20.sol\":3695:3708  address owner */\n      dup1\n        /* \"@openzeppelin/contracts/token/ERC20/ERC20.sol\":3711:3723  _msgSender() */\n      tag_166\n        /* \"@openzeppelin/contracts/token/ERC20/ERC20.sol\":3711:3721  _msgSender */\n      tag_109\n        /* \"@openzeppelin/contracts/token/ERC20/ERC20.sol\":3711:3723  _msgSender() */\n      jump\t// in\n    tag_166:\n        /* \"@openzeppelin/contracts/token/ERC20/ERC20.sol\":3695:3723  address owner = _msgSender() */\n      swap1\n      pop\n        /* \"@openzeppelin/contracts/token/ERC20/ERC20.sol\":3733:3760  _transfer(owner, to, value) */\n      tag_167\n        /* \"@openzeppelin/contracts/token/ERC20/ERC20.sol\":3743:3748  owner */\n      dup2\n        /* \"@openzeppelin/contracts/token/ERC20/ERC20.sol\":3750:3752  to */\n      dup6\n        /* \"@openzeppelin/contracts/token/ERC20/ERC20.sol\":3754:3759  value */\n      dup6\n        /* \"@openzeppelin/contracts/token/ERC20/ERC20.sol\":3733:3742  _transfer */\n      tag_118\n        /* \"@openzeppelin/contracts/token/ERC20/ERC20.sol\":3733:3760  _transfer(owner, to, value) */\n      jump\t// in\n    tag_167:\n        /* \"@openzeppelin/contracts/token/ERC20/ERC20.sol\":3777:3781  true */\n      0x01\n        /* \"@openzeppelin/contracts/token/ERC20/ERC20.sol\":3770:3781  return true */\n      swap2\n      pop\n      pop\n        /* \"@openzeppelin/contracts/token/ERC20/ERC20.sol\":3610:3788  function transfer(address to, uint256 value) public virtual returns (bool) {... */\n      swap3\n      swap2\n      pop\n      pop\n      jump\t// out\n        /* \"@openzeppelin/contracts/token/ERC20/extensions/ERC20Permit.sol\":1680:2352  function permit(... */\n    tag_91:\n        /* \"@openzeppelin/contracts/token/ERC20/extensions/ERC20Permit.sol\":1901:1909  deadline */\n      dup4\n        /* \"@openzeppelin/contracts/token/ERC20/extensions/ERC20Permit.sol\":1883:1898  block.timestamp */\n      timestamp\n        /* \"@openzeppelin/contracts/token/ERC20/extensions/ERC20Permit.sol\":1883:1909  block.timestamp > deadline */\n      gt\n        /* \"@openzeppelin/contracts/token/ERC20/extensions/ERC20Permit.sol\":1879:1976  if (block.timestamp > deadline) {... */\n      iszero\n      tag_169\n      jumpi\n        /* \"@openzeppelin/contracts/token/ERC20/extensions/ERC20Permit.sol\":1956:1964  deadline */\n      dup4\n        /* \"@openzeppelin/contracts/token/ERC20/extensions/ERC20Permit.sol\":1932:1965  ERC2612ExpiredSignature(deadline) */\n      mload(0x40)\n      0x6279130200000000000000000000000000000000000000000000000000000000\n      dup2\n      mstore\n      0x04\n      add\n      tag_170\n      swap2\n      swap1\n      tag_38\n      jump\t// in\n    tag_170:\n      mload(0x40)\n      dup1\n      swap2\n      sub\n      swap1\n      revert\n        /* \"@openzeppelin/contracts/token/ERC20/extensions/ERC20Permit.sol\":1879:1976  if (block.timestamp > deadline) {... */\n    tag_169:\n        /* \"@openzeppelin/contracts/token/ERC20/extensions/ERC20Permit.sol\":1986:2004  bytes32 structHash */\n      0x00\n        /* \"@openzeppelin/contracts/token/ERC20/extensions/ERC20Permit.sol\":1022:1117  keccak256(\"Permit(address owner,address spender,uint256 value,uint256 nonce,uint256 deadline)\") */\n      0x6e71edae12b1b97f4d1f60370fef10105fa2faae0126114a169c64845d6126c9\n        /* \"@openzeppelin/contracts/token/ERC20/extensions/ERC20Permit.sol\":2045:2050  owner */\n      dup9\n        /* \"@openzeppelin/contracts/token/ERC20/extensions/ERC20Permit.sol\":2052:2059  spender */\n      dup9\n        /* \"@openzeppelin/contracts/token/ERC20/extensions/ERC20Permit.sol\":2061:2066  value */\n      dup9\n        /* \"@openzeppelin/contracts/token/ERC20/extensions/ERC20Permit.sol\":2068:2084  _useNonce(owner) */\n      tag_171\n        /* \"@openzeppelin/contracts/token/ERC20/extensions/ERC20Permit.sol\":2078:2083  owner */\n      dup13\n        /* \"@openzeppelin/contracts/token/ERC20/extensions/ERC20Permit.sol\":2068:2077  _useNonce */\n      tag_172\n        /* \"@openzeppelin/contracts/token/ERC20/extensions/ERC20Permit.sol\":2068:2084  _useNonce(owner) */\n      jump\t// in\n    tag_171:\n        /* \"@openzeppelin/contracts/token/ERC20/extensions/ERC20Permit.sol\":2086:2094  deadline */\n      dup10\n        /* \"@openzeppelin/contracts/token/ERC20/extensions/ERC20Permit.sol\":2017:2095  abi.encode(PERMIT_TYPEHASH, owner, spender, value, _useNonce(owner), deadline) */\n      add(0x20, mload(0x40))\n      tag_173\n      swap7\n      swap6\n      swap5\n      swap4\n      swap3\n      swap2\n      swap1\n      tag_174\n      jump\t// in\n    tag_173:\n      mload(0x40)\n      0x20\n      dup2\n      dup4\n      sub\n      sub\n      dup2\n      mstore\n      swap1\n      0x40\n      mstore\n        /* \"@openzeppelin/contracts/token/ERC20/extensions/ERC20Permit.sol\":2007:2096  keccak256(abi.encode(PERMIT_TYPEHASH, owner, spender, value, _useNonce(owner), deadline)) */\n      dup1\n      mload\n      swap1\n      0x20\n      add\n      keccak256\n        /* \"@openzeppelin/contracts/token/ERC20/extensions/ERC20Permit.sol\":1986:2096  bytes32 structHash = keccak256(abi.encode(PERMIT_TYPEHASH, owner, spender, value, _useNonce(owner), deadline)) */\n      swap1\n      pop\n        /* \"@openzeppelin/contracts/token/ERC20/extensions/ERC20Permit.sol\":2107:2119  bytes32 hash */\n      0x00\n        /* \"@openzeppelin/contracts/token/ERC20/extensions/ERC20Permit.sol\":2122:2150  _hashTypedDataV4(structHash) */\n      tag_175\n        /* \"@openzeppelin/contracts/token/ERC20/extensions/ERC20Permit.sol\":2139:2149  structHash */\n      dup3\n        /* \"@openzeppelin/contracts/token/ERC20/extensions/ERC20Permit.sol\":2122:2138  _hashTypedDataV4 */\n      tag_176\n        /* \"@openzeppelin/contracts/token/ERC20/extensions/ERC20Permit.sol\":2122:2150  _hashTypedDataV4(structHash) */\n      jump\t// in\n    tag_175:\n        /* \"@openzeppelin/contracts/token/ERC20/extensions/ERC20Permit.sol\":2107:2150  bytes32 hash = _hashTypedDataV4(structHash) */\n      swap1\n      pop\n        /* \"@openzeppelin/contracts/token/ERC20/extensions/ERC20Permit.sol\":2161:2175  address signer */\n      0x00\n        /* \"@openzeppelin/contracts/token/ERC20/extensions/ERC20Permit.sol\":2178:2206  ECDSA.recover(hash, v, r, s) */\n      tag_177\n        /* \"@openzeppelin/contracts/token/ERC20/extensions/ERC20Permit.sol\":2192:2196  hash */\n      dup3\n        /* \"@openzeppelin/contracts/token/ERC20/extensions/ERC20Permit.sol\":2198:2199  v */\n      dup8\n        /* \"@openzeppelin/contracts/token/ERC20/extensions/ERC20Permit.sol\":2201:2202  r */\n      dup8\n        /* \"@openzeppelin/contracts/token/ERC20/extensions/ERC20Permit.sol\":2204:2205  s */\n      dup8\n        /* \"@openzeppelin/contracts/token/ERC20/extensions/ERC20Permit.sol\":2178:2191  ECDSA.recover */\n      tag_178\n        /* \"@openzeppelin/contracts/token/ERC20/extensions/ERC20Permit.sol\":2178:2206  ECDSA.recover(hash, v, r, s) */\n      jump\t// in\n    tag_177:\n        /* \"@openzeppelin/contracts/token/ERC20/extensions/ERC20Permit.sol\":2161:2206  address signer = ECDSA.recover(hash, v, r, s) */\n      swap1\n      pop\n        /* \"@openzeppelin/contracts/token/ERC20/extensions/ERC20Permit.sol\":2230:2235  owner */\n      dup10\n        /* \"@openzeppelin/contracts/token/ERC20/extensions/ERC20Permit.sol\":2220:2235  signer != owner */\n      0xffffffffffffffffffffffffffffffffffffffff\n      and\n        /* \"@openzeppelin/contracts/token/ERC20/extensions/ERC20Permit.sol\":2220:2226  signer */\n      dup2\n        /* \"@openzeppelin/contracts/token/ERC20/extensions/ERC20Permit.sol\":2220:2235  signer != owner */\n      0xffffffffffffffffffffffffffffffffffffffff\n      and\n      eq\n        /* \"@openzeppelin/contracts/token/ERC20/extensions/ERC20Permit.sol\":2216:2304  if (signer != owner) {... */\n      tag_179\n      jumpi\n        /* \"@openzeppelin/contracts/token/ERC20/extensions/ERC20Permit.sol\":2279:2285  signer */\n      dup1\n        /* \"@openzeppelin/contracts/token/ERC20/extensions/ERC20Permit.sol\":2287:2292  owner */\n      dup11\n        /* \"@openzeppelin/contracts/token/ERC20/extensions/ERC20Permit.sol\":2258:2293  ERC2612InvalidSigner(signer, owner) */\n      mload(0x40)\n      0x4b800e4600000000000000000000000000000000000000000000000000000000\n      dup2\n      mstore\n      0x04\n      add\n      tag_180\n      swap3\n      swap2\n      swap1\n      tag_181\n      jump\t// in\n    tag_180:\n      mload(0x40)\n      dup1\n      swap2\n      sub\n      swap1\n      revert\n        /* \"@openzeppelin/contracts/token/ERC20/extensions/ERC20Permit.sol\":2216:2304  if (signer != owner) {... */\n    tag_179:\n        /* \"@openzeppelin/contracts/token/ERC20/extensions/ERC20Permit.sol\":2314:2345  _approve(owner, spender, value) */\n      tag_182\n        /* \"@openzeppelin/contracts/token/ERC20/extensions/ERC20Permit.sol\":2323:2328  owner */\n      dup11\n        /* \"@openzeppelin/contracts/token/ERC20/extensions/ERC20Permit.sol\":2330:2337  spender */\n      dup11\n        /* \"@openzeppelin/contracts/token/ERC20/extensions/ERC20Permit.sol\":2339:2344  value */\n      dup11\n        /* \"@openzeppelin/contracts/token/ERC20/extensions/ERC20Permit.sol\":2314:2322  _approve */\n      tag_111\n        /* \"@openzeppelin/contracts/token/ERC20/extensions/ERC20Permit.sol\":2314:2345  _approve(owner, spender, value) */\n      jump\t// in\n    tag_182:\n        /* \"@openzeppelin/contracts/token/ERC20/extensions/ERC20Permit.sol\":1869:2352  {... */\n      pop\n      pop\n      pop\n        /* \"@openzeppelin/contracts/token/ERC20/extensions/ERC20Permit.sol\":1680:2352  function permit(... */\n      pop\n      pop\n      pop\n      pop\n      pop\n      pop\n      pop\n      jump\t// out\n        /* \"@openzeppelin/contracts/token/ERC20/ERC20.sol\":3846:3986  function allowance(address owner, address spender) public view virtual returns (uint256) {... */\n    tag_95:\n        /* \"@openzeppelin/contracts/token/ERC20/ERC20.sol\":3926:3933  uint256 */\n      0x00\n        /* \"@openzeppelin/contracts/token/ERC20/ERC20.sol\":3952:3963  _allowances */\n      0x01\n        /* \"@openzeppelin/contracts/token/ERC20/ERC20.sol\":3952:3970  _allowances[owner] */\n      0x00\n        /* \"@openzeppelin/contracts/token/ERC20/ERC20.sol\":3964:3969  owner */\n      dup5\n        /* \"@openzeppelin/contracts/token/ERC20/ERC20.sol\":3952:3970  _allowances[owner] */\n      0xffffffffffffffffffffffffffffffffffffffff\n      and\n      0xffffffffffffffffffffffffffffffffffffffff\n      and\n      dup2\n      mstore\n      0x20\n      add\n      swap1\n      dup2\n      mstore\n      0x20\n      add\n      0x00\n      keccak256\n        /* \"@openzeppelin/contracts/token/ERC20/ERC20.sol\":3952:3979  _allowances[owner][spender] */\n      0x00\n        /* \"@openzeppelin/contracts/token/ERC20/ERC20.sol\":3971:3978  spender */\n      dup4\n        /* \"@openzeppelin/contracts/token/ERC20/ERC20.sol\":3952:3979  _allowances[owner][spender] */\n      0xffffffffffffffffffffffffffffffffffffffff\n      and\n      0xffffffffffffffffffffffffffffffffffffffff\n      and\n      dup2\n      mstore\n      0x20\n      add\n      swap1\n      dup2\n      mstore\n      0x20\n      add\n      0x00\n      keccak256\n      sload\n        /* \"@openzeppelin/contracts/token/ERC20/ERC20.sol\":3945:3979  return _allowances[owner][spender] */\n      swap1\n      pop\n        /* \"@openzeppelin/contracts/token/ERC20/ERC20.sol\":3846:3986  function allowance(address owner, address spender) public view virtual returns (uint256) {... */\n      swap3\n      swap2\n      pop\n      pop\n      jump\t// out\n        /* \"@openzeppelin/contracts/access/Ownable.sol\":2543:2758  function transferOwnership(address newOwner) public virtual onlyOwner {... */\n    tag_99:\n        /* \"@openzeppelin/contracts/access/Ownable.sol\":1531:1544  _checkOwner() */\n      tag_185\n        /* \"@openzeppelin/contracts/access/Ownable.sol\":1531:1542  _checkOwner */\n      tag_125\n        /* \"@openzeppelin/contracts/access/Ownable.sol\":1531:1544  _checkOwner() */\n      jump\t// in\n    tag_185:\n        /* \"@openzeppelin/contracts/access/Ownable.sol\":2647:2648  0 */\n      0x00\n        /* \"@openzeppelin/contracts/access/Ownable.sol\":2627:2649  newOwner == address(0) */\n      0xffffffffffffffffffffffffffffffffffffffff\n      and\n        /* \"@openzeppelin/contracts/access/Ownable.sol\":2627:2635  newOwner */\n      dup2\n        /* \"@openzeppelin/contracts/access/Ownable.sol\":2627:2649  newOwner == address(0) */\n      0xffffffffffffffffffffffffffffffffffffffff\n      and\n      sub\n        /* \"@openzeppelin/contracts/access/Ownable.sol\":2623:2714  if (newOwner == address(0)) {... */\n      tag_187\n      jumpi\n        /* \"@openzeppelin/contracts/access/Ownable.sol\":2700:2701  0 */\n      0x00\n        /* \"@openzeppelin/contracts/access/Ownable.sol\":2672:2703  OwnableInvalidOwner(address(0)) */\n      mload(0x40)\n      0x1e4fbdf700000000000000000000000000000000000000000000000000000000\n      dup2\n      mstore\n      0x04\n      add\n      tag_188\n      swap2\n      swap1\n      tag_80\n      jump\t// in\n    tag_188:\n      mload(0x40)\n      dup1\n      swap2\n      sub\n      swap1\n      revert\n        /* \"@openzeppelin/contracts/access/Ownable.sol\":2623:2714  if (newOwner == address(0)) {... */\n    tag_187:\n        /* \"@openzeppelin/contracts/access/Ownable.sol\":2723:2751  _transferOwnership(newOwner) */\n      tag_189\n        /* \"@openzeppelin/contracts/access/Ownable.sol\":2742:2750  newOwner */\n      dup2\n        /* \"@openzeppelin/contracts/access/Ownable.sol\":2723:2741  _transferOwnership */\n      tag_145\n        /* \"@openzeppelin/contracts/access/Ownable.sol\":2723:2751  _transferOwnership(newOwner) */\n      jump\t// in\n    tag_189:\n        /* \"@openzeppelin/contracts/access/Ownable.sol\":2543:2758  function transferOwnership(address newOwner) public virtual onlyOwner {... */\n      pop\n      jump\t// out\n        /* \"@openzeppelin/contracts/utils/Context.sol\":656:752  function _msgSender() internal view virtual returns (address) {... */\n    tag_109:\n        /* \"@openzeppelin/contracts/utils/Context.sol\":709:716  address */\n      0x00\n        /* \"@openzeppelin/contracts/utils/Context.sol\":735:745  msg.sender */\n      caller\n        /* \"@openzeppelin/contracts/utils/Context.sol\":728:745  return msg.sender */\n      swap1\n      pop\n        /* \"@openzeppelin/contracts/utils/Context.sol\":656:752  function _msgSender() internal view virtual returns (address) {... */\n      swap1\n      jump\t// out\n        /* \"@openzeppelin/contracts/token/ERC20/ERC20.sol\":8989:9117  function _approve(address owner, address spender, uint256 value) internal {... */\n    tag_111:\n        /* \"@openzeppelin/contracts/token/ERC20/ERC20.sol\":9073:9110  _approve(owner, spender, value, true) */\n      tag_192\n        /* \"@openzeppelin/contracts/token/ERC20/ERC20.sol\":9082:9087  owner */\n      dup4\n        /* \"@openzeppelin/contracts/token/ERC20/ERC20.sol\":9089:9096  spender */\n      dup4\n        /* \"@openzeppelin/contracts/token/ERC20/ERC20.sol\":9098:9103  value */\n      dup4\n        /* \"@openzeppelin/contracts/token/ERC20/ERC20.sol\":9105:9109  true */\n      0x01\n        /* \"@openzeppelin/contracts/token/ERC20/ERC20.sol\":9073:9081  _approve */\n      tag_193\n        /* \"@openzeppelin/contracts/token/ERC20/ERC20.sol\":9073:9110  _approve(owner, spender, value, true) */\n      jump\t// in\n    tag_192:\n        /* \"@openzeppelin/contracts/token/ERC20/ERC20.sol\":8989:9117  function _approve(address owner, address spender, uint256 value) internal {... */\n      pop\n      pop\n      pop\n      jump\t// out\n        /* \"@openzeppelin/contracts/token/ERC20/ERC20.sol\":10663:11140  function _spendAllowance(address owner, address spender, uint256 value) internal virtual {... */\n    tag_116:\n        /* \"@openzeppelin/contracts/token/ERC20/ERC20.sol\":10762:10786  uint256 currentAllowance */\n      0x00\n        /* \"@openzeppelin/contracts/token/ERC20/ERC20.sol\":10789:10814  allowance(owner, spender) */\n      tag_195\n        /* \"@openzeppelin/contracts/token/ERC20/ERC20.sol\":10799:10804  owner */\n      dup5\n        /* \"@openzeppelin/contracts/token/ERC20/ERC20.sol\":10806:10813  spender */\n      dup5\n        /* \"@openzeppelin/contracts/token/ERC20/ERC20.sol\":10789:10798  allowance */\n      tag_95\n        /* \"@openzeppelin/contracts/token/ERC20/ERC20.sol\":10789:10814  allowance(owner, spender) */\n      jump\t// in\n    tag_195:\n        /* \"@openzeppelin/contracts/token/ERC20/ERC20.sol\":10762:10814  uint256 currentAllowance = allowance(owner, spender) */\n      swap1\n      pop\n        /* \"@openzeppelin/contracts/token/ERC20/ERC20.sol\":10848:10865  type(uint256).max */\n      0xffffffffffffffffffffffffffffffffffffffffffffffffffffffffffffffff\n        /* \"@openzeppelin/contracts/token/ERC20/ERC20.sol\":10828:10844  currentAllowance */\n      dup2\n        /* \"@openzeppelin/contracts/token/ERC20/ERC20.sol\":10828:10865  currentAllowance != type(uint256).max */\n      eq\n        /* \"@openzeppelin/contracts/token/ERC20/ERC20.sol\":10824:11134  if (currentAllowance != type(uint256).max) {... */\n      tag_196\n      jumpi\n        /* \"@openzeppelin/contracts/token/ERC20/ERC20.sol\":10904:10909  value */\n      dup2\n        /* \"@openzeppelin/contracts/token/ERC20/ERC20.sol\":10885:10901  currentAllowance */\n      dup2\n        /* \"@openzeppelin/contracts/token/ERC20/ERC20.sol\":10885:10909  currentAllowance < value */\n      lt\n        /* \"@openzeppelin/contracts/token/ERC20/ERC20.sol\":10881:11011  if (currentAllowance < value) {... */\n      iszero\n      tag_197\n      jumpi\n        /* \"@openzeppelin/contracts/token/ERC20/ERC20.sol\":10963:10970  spender */\n      dup3\n        /* \"@openzeppelin/contracts/token/ERC20/ERC20.sol\":10972:10988  currentAllowance */\n      dup2\n        /* \"@openzeppelin/contracts/token/ERC20/ERC20.sol\":10990:10995  value */\n      dup4\n        /* \"@openzeppelin/contracts/token/ERC20/ERC20.sol\":10936:10996  ERC20InsufficientAllowance(spender, currentAllowance, value) */\n      mload(0x40)\n      0xfb8f41b200000000000000000000000000000000000000000000000000000000\n      dup2\n      mstore\n      0x04\n      add\n      tag_198\n      swap4\n      swap3\n      swap2\n      swap1\n      tag_199\n      jump\t// in\n    tag_198:\n      mload(0x40)\n      dup1\n      swap2\n      sub\n      swap1\n      revert\n        /* \"@openzeppelin/contracts/token/ERC20/ERC20.sol\":10881:11011  if (currentAllowance < value) {... */\n    tag_197:\n        /* \"@openzeppelin/contracts/token/ERC20/ERC20.sol\":11052:11109  _approve(owner, spender, currentAllowance - value, false) */\n      tag_200\n        /* \"@openzeppelin/contracts/token/ERC20/ERC20.sol\":11061:11066  owner */\n      dup5\n        /* \"@openzeppelin/contracts/token/ERC20/ERC20.sol\":11068:11075  spender */\n      dup5\n        /* \"@openzeppelin/contracts/token/ERC20/ERC20.sol\":11096:11101  value */\n      dup5\n        /* \"@openzeppelin/contracts/token/ERC20/ERC20.sol\":11077:11093  currentAllowance */\n      dup5\n        /* \"@openzeppelin/contracts/token/ERC20/ERC20.sol\":11077:11101  currentAllowance - value */\n      sub\n        /* \"@openzeppelin/contracts/token/ERC20/ERC20.sol\":11103:11108  false */\n      0x00\n        /* \"@openzeppelin/contracts/token/ERC20/ERC20.sol\":11052:11060  _approve */\n      tag_193\n        /* \"@openzeppelin/contracts/token/ERC20/ERC20.sol\":11052:11109  _approve(owner, spender, currentAllowance - value, false) */\n      jump\t// in\n    tag_200:\n        /* \"@openzeppelin/contracts/token/ERC20/ERC20.sol\":10824:11134  if (currentAllowance != type(uint256).max) {... */\n    tag_196:\n        /* \"@openzeppelin/contracts/token/ERC20/ERC20.sol\":10752:11140  {... */\n      pop\n        /* \"@openzeppelin/contracts/token/ERC20/ERC20.sol\":10663:11140  function _spendAllowance(address owner, address spender, uint256 value) internal virtual {... */\n      pop\n      pop\n      pop\n      jump\t// out\n        /* \"@openzeppelin/contracts/token/ERC20/ERC20.sol\":5656:5956  function _transfer(address from, address to, uint256 value) internal {... */\n    tag_118:\n        /* \"@openzeppelin/contracts/token/ERC20/ERC20.sol\":5755:5756  0 */\n      0x00\n        /* \"@openzeppelin/contracts/token/ERC20/ERC20.sol\":5739:5757  from == address(0) */\n      0xffffffffffffffffffffffffffffffffffffffff\n      and\n        /* \"@openzeppelin/contracts/token/ERC20/ERC20.sol\":5739:5743  from */\n      dup4\n        /* \"@openzeppelin/contracts/token/ERC20/ERC20.sol\":5739:5757  from == address(0) */\n      0xffffffffffffffffffffffffffffffffffffffff\n      and\n      sub\n        /* \"@openzeppelin/contracts/token/ERC20/ERC20.sol\":5735:5821  if (from == address(0)) {... */\n      tag_202\n      jumpi\n        /* \"@openzeppelin/contracts/token/ERC20/ERC20.sol\":5807:5808  0 */\n      0x00\n        /* \"@openzeppelin/contracts/token/ERC20/ERC20.sol\":5780:5810  ERC20InvalidSender(address(0)) */\n      mload(0x40)\n      0x96c6fd1e00000000000000000000000000000000000000000000000000000000\n      dup2\n      mstore\n      0x04\n      add\n      tag_203\n      swap2\n      swap1\n      tag_80\n      jump\t// in\n    tag_203:\n      mload(0x40)\n      dup1\n      swap2\n      sub\n      swap1\n      revert\n        /* \"@openzeppelin/contracts/token/ERC20/ERC20.sol\":5735:5821  if (from == address(0)) {... */\n    tag_202:\n        /* \"@openzeppelin/contracts/token/ERC20/ERC20.sol\":5848:5849  0 */\n      0x00\n        /* \"@openzeppelin/contracts/token/ERC20/ERC20.sol\":5834:5850  to == address(0) */\n      0xffffffffffffffffffffffffffffffffffffffff\n      and\n        /* \"@openzeppelin/contracts/token/ERC20/ERC20.sol\":5834:5836  to */\n      dup3\n        /* \"@openzeppelin/contracts/token/ERC20/ERC20.sol\":5834:5850  to == address(0) */\n      0xffffffffffffffffffffffffffffffffffffffff\n      and\n      sub\n        /* \"@openzeppelin/contracts/token/ERC20/ERC20.sol\":5830:5916  if (to == address(0)) {... */\n      tag_204\n      jumpi\n        /* \"@openzeppelin/contracts/token/ERC20/ERC20.sol\":5902:5903  0 */\n      0x00\n        /* \"@openzeppelin/contracts/token/ERC20/ERC20.sol\":5873:5905  ERC20InvalidReceiver(address(0)) */\n      mload(0x40)\n      0xec442f0500000000000000000000000000000000000000000000000000000000\n      dup2\n      mstore\n      0x04\n      add\n      tag_205\n      swap2\n      swap1\n      tag_80\n      jump\t// in\n    tag_205:\n      mload(0x40)\n      dup1\n      swap2\n      sub\n      swap1\n      revert\n        /* \"@openzeppelin/contracts/token/ERC20/ERC20.sol\":5830:5916  if (to == address(0)) {... */\n    tag_204:\n        /* \"@openzeppelin/contracts/token/ERC20/ERC20.sol\":5925:5949  _update(from, to, value) */\n      tag_206\n        /* \"@openzeppelin/contracts/token/ERC20/ERC20.sol\":5933:5937  from */\n      dup4\n        /* \"@openzeppelin/contracts/token/ERC20/ERC20.sol\":5939:5941  to */\n      dup4\n        /* \"@openzeppelin/contracts/token/ERC20/ERC20.sol\":5943:5948  value */\n      dup4\n        /* \"@openzeppelin/contracts/token/ERC20/ERC20.sol\":5925:5932  _update */\n      tag_207\n        /* \"@openzeppelin/contracts/token/ERC20/ERC20.sol\":5925:5949  _update(from, to, value) */\n      jump\t// in\n    tag_206:\n        /* \"@openzeppelin/contracts/token/ERC20/ERC20.sol\":5656:5956  function _transfer(address from, address to, uint256 value) internal {... */\n      pop\n      pop\n      pop\n      jump\t// out\n        /* \"@openzeppelin/contracts/utils/cryptography/EIP712.sol\":3845:4107  function _domainSeparatorV4() internal view returns (bytes32) {... */\n    tag_122:\n        /* \"@openzeppelin/contracts/utils/cryptography/EIP712.sol\":3898:3905  bytes32 */\n      0x00\n        /* \"@openzeppelin/contracts/utils/cryptography/EIP712.sol\":3938:3949  _cachedThis */\n      immutable(\"0x0cac94dd8fa8b46dcb473f6a9efd44c79437a341d155face60953ba7292fa128\")\n        /* \"@openzeppelin/contracts/utils/cryptography/EIP712.sol\":3921:3949  address(this) == _cachedThis */\n      0xffffffffffffffffffffffffffffffffffffffff\n      and\n        /* \"@openzeppelin/contracts/utils/cryptography/EIP712.sol\":3929:3933  this */\n      address\n        /* \"@openzeppelin/contracts/utils/cryptography/EIP712.sol\":3921:3949  address(this) == _cachedThis */\n      0xffffffffffffffffffffffffffffffffffffffff\n      and\n      eq\n        /* \"@openzeppelin/contracts/utils/cryptography/EIP712.sol\":3921:3984  address(this) == _cachedThis && block.chainid == _cachedChainId */\n      dup1\n      iszero\n      tag_209\n      jumpi\n      pop\n        /* \"@openzeppelin/contracts/utils/cryptography/EIP712.sol\":3970:3984  _cachedChainId */\n      immutable(\"0x1ed118b890fb17bfde2171d286512a9ec35519f5671f36b3347d34c44d7a13d4\")\n        /* \"@openzeppelin/contracts/utils/cryptography/EIP712.sol\":3953:3966  block.chainid */\n      chainid\n        /* \"@openzeppelin/contracts/utils/cryptography/EIP712.sol\":3953:3984  block.chainid == _cachedChainId */\n      eq\n        /* \"@openzeppelin/contracts/utils/cryptography/EIP712.sol\":3921:3984  address(this) == _cachedThis && block.chainid == _cachedChainId */\n    tag_209:\n        /* \"@openzeppelin/contracts/utils/cryptography/EIP712.sol\":3917:4101  if (address(this) == _cachedThis && block.chainid == _cachedChainId) {... */\n      iszero\n      tag_210\n      jumpi\n        /* \"@openzeppelin/contracts/utils/cryptography/EIP712.sol\":4007:4029  _cachedDomainSeparator */\n      immutable(\"0xff86023f246b2cd604439ec36dd08070fda9a84bfebf677a354fd041e3509e75\")\n        /* \"@openzeppelin/contracts/utils/cryptography/EIP712.sol\":4000:4029  return _cachedDomainSeparator */\n      swap1\n      pop\n      jump(tag_208)\n        /* \"@openzeppelin/contracts/utils/cryptography/EIP712.sol\":3917:4101  if (address(this) == _cachedThis && block.chainid == _cachedChainId) {... */\n    tag_210:\n        /* \"@openzeppelin/contracts/utils/cryptography/EIP712.sol\":4067:4090  _buildDomainSeparator() */\n      tag_212\n        /* \"@openzeppelin/contracts/utils/cryptography/EIP712.sol\":4067:4088  _buildDomainSeparator */\n      tag_213\n        /* \"@openzeppelin/contracts/utils/cryptography/EIP712.sol\":4067:4090  _buildDomainSeparator() */\n      jump\t// in\n    tag_212:\n        /* \"@openzeppelin/contracts/utils/cryptography/EIP712.sol\":4060:4090  return _buildDomainSeparator() */\n      swap1\n      pop\n        /* \"@openzeppelin/contracts/utils/cryptography/EIP712.sol\":3845:4107  function _domainSeparatorV4() internal view returns (bytes32) {... */\n    tag_208:\n      swap1\n      jump\t// out\n        /* \"@openzeppelin/contracts/access/Ownable.sol\":1796:1958  function _checkOwner() internal view virtual {... */\n    tag_125:\n        /* \"@openzeppelin/contracts/access/Ownable.sol\":1866:1878  _msgSender() */\n      tag_215\n        /* \"@openzeppelin/contracts/access/Ownable.sol\":1866:1876  _msgSender */\n      tag_109\n        /* \"@openzeppelin/contracts/access/Ownable.sol\":1866:1878  _msgSender() */\n      jump\t// in\n    tag_215:\n        /* \"@openzeppelin/contracts/access/Ownable.sol\":1855:1878  owner() != _msgSender() */\n      0xffffffffffffffffffffffffffffffffffffffff\n      and\n        /* \"@openzeppelin/contracts/access/Ownable.sol\":1855:1862  owner() */\n      tag_216\n        /* \"@openzeppelin/contracts/access/Ownable.sol\":1855:1860  owner */\n      tag_78\n        /* \"@openzeppelin/contracts/access/Ownable.sol\":1855:1862  owner() */\n      jump\t// in\n    tag_216:\n        /* \"@openzeppelin/contracts/access/Ownable.sol\":1855:1878  owner() != _msgSender() */\n      0xffffffffffffffffffffffffffffffffffffffff\n      and\n      eq\n        /* \"@openzeppelin/contracts/access/Ownable.sol\":1851:1952  if (owner() != _msgSender()) {... */\n      tag_217\n      jumpi\n        /* \"@openzeppelin/contracts/access/Ownable.sol\":1928:1940  _msgSender() */\n      tag_218\n        /* \"@openzeppelin/contracts/access/Ownable.sol\":1928:1938  _msgSender */\n      tag_109\n        /* \"@openzeppelin/contracts/access/Ownable.sol\":1928:1940  _msgSender() */\n      jump\t// in\n    tag_218:\n        /* \"@openzeppelin/contracts/access/Ownable.sol\":1901:1941  OwnableUnauthorizedAccount(_msgSender()) */\n      mload(0x40)\n      0x118cdaa700000000000000000000000000000000000000000000000000000000\n      dup2\n      mstore\n      0x04\n      add\n      tag_219\n      swap2\n      swap1\n      tag_80\n      jump\t// in\n    tag_219:\n      mload(0x40)\n      dup1\n      swap2\n      sub\n      swap1\n      revert\n        /* \"@openzeppelin/contracts/access/Ownable.sol\":1851:1952  if (owner() != _msgSender()) {... */\n    tag_217:\n        /* \"@openzeppelin/contracts/access/Ownable.sol\":1796:1958  function _checkOwner() internal view virtual {... */\n      jump\t// out\n        /* \"@openzeppelin/contracts/token/ERC20/ERC20.sol\":7721:7929  function _mint(address account, uint256 value) internal {... */\n    tag_134:\n        /* \"@openzeppelin/contracts/token/ERC20/ERC20.sol\":7810:7811  0 */\n      0x00\n        /* \"@openzeppelin/contracts/token/ERC20/ERC20.sol\":7791:7812  account == address(0) */\n      0xffffffffffffffffffffffffffffffffffffffff\n      and\n        /* \"@openzeppelin/contracts/token/ERC20/ERC20.sol\":7791:7798  account */\n      dup3\n        /* \"@openzeppelin/contracts/token/ERC20/ERC20.sol\":7791:7812  account == address(0) */\n      0xffffffffffffffffffffffffffffffffffffffff\n      and\n      sub\n        /* \"@openzeppelin/contracts/token/ERC20/ERC20.sol\":7787:7878  if (account == address(0)) {... */\n      tag_221\n      jumpi\n        /* \"@openzeppelin/contracts/token/ERC20/ERC20.sol\":7864:7865  0 */\n      0x00\n        /* \"@openzeppelin/contracts/token/ERC20/ERC20.sol\":7835:7867  ERC20InvalidReceiver(address(0)) */\n      mload(0x40)\n      0xec442f0500000000000000000000000000000000000000000000000000000000\n      dup2\n      mstore\n      0x04\n      add\n      tag_222\n      swap2\n      swap1\n      tag_80\n      jump\t// in\n    tag_222:\n      mload(0x40)\n      dup1\n      swap2\n      sub\n      swap1\n      revert\n        /* \"@openzeppelin/contracts/token/ERC20/ERC20.sol\":7787:7878  if (account == address(0)) {... */\n    tag_221:\n        /* \"@openzeppelin/contracts/token/ERC20/ERC20.sol\":7887:7922  _update(address(0), account, value) */\n      tag_223\n        /* \"@openzeppelin/contracts/token/ERC20/ERC20.sol\":7903:7904  0 */\n      0x00\n        /* \"@openzeppelin/contracts/token/ERC20/ERC20.sol\":7907:7914  account */\n      dup4\n        /* \"@openzeppelin/contracts/token/ERC20/ERC20.sol\":7916:7921  value */\n      dup4\n        /* \"@openzeppelin/contracts/token/ERC20/ERC20.sol\":7887:7894  _update */\n      tag_207\n        /* \"@openzeppelin/contracts/token/ERC20/ERC20.sol\":7887:7922  _update(address(0), account, value) */\n      jump\t// in\n    tag_223:\n        /* \"@openzeppelin/contracts/token/ERC20/ERC20.sol\":7721:7929  function _mint(address account, uint256 value) internal {... */\n      pop\n      pop\n      jump\t// out\n        /* \"@openzeppelin/contracts/token/ERC20/ERC20.sol\":8247:8453  function _burn(address account, uint256 value) internal {... */\n    tag_139:\n        /* \"@openzeppelin/contracts/token/ERC20/ERC20.sol\":8336:8337  0 */\n      0x00\n        /* \"@openzeppelin/contracts/token/ERC20/ERC20.sol\":8317:8338  account == address(0) */\n      0xffffffffffffffffffffffffffffffffffffffff\n      and\n        /* \"@openzeppelin/contracts/token/ERC20/ERC20.sol\":8317:8324  account */\n      dup3\n        /* \"@openzeppelin/contracts/token/ERC20/ERC20.sol\":8317:8338  account == address(0) */\n      0xffffffffffffffffffffffffffffffffffffffff\n      and\n      sub\n        /* \"@openzeppelin/contracts/token/ERC20/ERC20.sol\":8313:8402  if (account == address(0)) {... */\n      tag_225\n      jumpi\n        /* \"@openzeppelin/contracts/token/ERC20/ERC20.sol\":8388:8389  0 */\n      0x00\n        /* \"@openzeppelin/contracts/token/ERC20/ERC20.sol\":8361:8391  ERC20InvalidSender(address(0)) */\n      mload(0x40)\n      0x96c6fd1e00000000000000000000000000000000000000000000000000000000\n      dup2\n      mstore\n      0x04\n      add\n      tag_226\n      swap2\n      swap1\n      tag_80\n      jump\t// in\n    tag_226:\n      mload(0x40)\n      dup1\n      swap2\n      sub\n      swap1\n      revert\n        /* \"@openzeppelin/contracts/token/ERC20/ERC20.sol\":8313:8402  if (account == address(0)) {... */\n    tag_225:\n        /* \"@openzeppelin/contracts/token/ERC20/ERC20.sol\":8411:8446  _update(account, address(0), value) */\n      tag_227\n        /* \"@openzeppelin/contracts/token/ERC20/ERC20.sol\":8419:8426  account */\n      dup3\n        /* \"@openzeppelin/contracts/token/ERC20/ERC20.sol\":8436:8437  0 */\n      0x00\n        /* \"@openzeppelin/contracts/token/ERC20/ERC20.sol\":8440:8445  value */\n      dup4\n        /* \"@openzeppelin/contracts/token/ERC20/ERC20.sol\":8411:8418  _update */\n      tag_207\n        /* \"@openzeppelin/contracts/token/ERC20/ERC20.sol\":8411:8446  _update(account, address(0), value) */\n      jump\t// in\n    tag_227:\n        /* \"@openzeppelin/contracts/token/ERC20/ERC20.sol\":8247:8453  function _burn(address account, uint256 value) internal {... */\n      pop\n      pop\n      jump\t// out\n        /* \"@openzeppelin/contracts/access/Ownable.sol\":2912:3099  function _transferOwnership(address newOwner) internal virtual {... */\n    tag_145:\n        /* \"@openzeppelin/contracts/access/Ownable.sol\":2985:3001  address oldOwner */\n      0x00\n        /* \"@openzeppelin/contracts/access/Ownable.sol\":3004:3010  _owner */\n      0x08\n      0x00\n      swap1\n      sload\n      swap1\n      0x0100\n      exp\n      swap1\n      div\n      0xffffffffffffffffffffffffffffffffffffffff\n      and\n        /* \"@openzeppelin/contracts/access/Ownable.sol\":2985:3010  address oldOwner = _owner */\n      swap1\n      pop\n        /* \"@openzeppelin/contracts/access/Ownable.sol\":3029:3037  newOwner */\n      dup2\n        /* \"@openzeppelin/contracts/access/Ownable.sol\":3020:3026  _owner */\n      0x08\n      0x00\n        /* \"@openzeppelin/contracts/access/Ownable.sol\":3020:3037  _owner = newOwner */\n      0x0100\n      exp\n      dup2\n      sload\n      dup2\n      0xffffffffffffffffffffffffffffffffffffffff\n      mul\n      not\n      and\n      swap1\n      dup4\n      0xffffffffffffffffffffffffffffffffffffffff\n      and\n      mul\n      or\n      swap1\n      sstore\n      pop\n        /* \"@openzeppelin/contracts/access/Ownable.sol\":3083:3091  newOwner */\n      dup2\n        /* \"@openzeppelin/contracts/access/Ownable.sol\":3052:3092  OwnershipTransferred(oldOwner, newOwner) */\n      0xffffffffffffffffffffffffffffffffffffffff\n      and\n        /* \"@openzeppelin/contracts/access/Ownable.sol\":3073:3081  oldOwner */\n      dup2\n        /* \"@openzeppelin/contracts/access/Ownable.sol\":3052:3092  OwnershipTransferred(oldOwner, newOwner) */\n      0xffffffffffffffffffffffffffffffffffffffff\n      and\n      0x8be0079c531659141344cd1fd0a4f28419497f9722a3daafe3b4186f6b6457e0\n      mload(0x40)\n      mload(0x40)\n      dup1\n      swap2\n      sub\n      swap1\n      log3\n        /* \"@openzeppelin/contracts/access/Ownable.sol\":2975:3099  {... */\n      pop\n        /* \"@openzeppelin/contracts/access/Ownable.sol\":2912:3099  function _transferOwnership(address newOwner) internal virtual {... */\n      pop\n      jump\t// out\n        /* \"@openzeppelin/contracts/utils/Nonces.sol\":538:645  function nonces(address owner) public view virtual returns (uint256) {... */\n    tag_148:\n        /* \"@openzeppelin/contracts/utils/Nonces.sol\":598:605  uint256 */\n      0x00\n        /* \"@openzeppelin/contracts/utils/Nonces.sol\":624:631  _nonces */\n      0x07\n        /* \"@openzeppelin/contracts/utils/Nonces.sol\":624:638  _nonces[owner] */\n      0x00\n        /* \"@openzeppelin/contracts/utils/Nonces.sol\":632:637  owner */\n      dup4\n        /* \"@openzeppelin/contracts/utils/Nonces.sol\":624:638  _nonces[owner] */\n      0xffffffffffffffffffffffffffffffffffffffff\n      and\n      0xffffffffffffffffffffffffffffffffffffffff\n      and\n      dup2\n      mstore\n      0x20\n      add\n      swap1\n      dup2\n      mstore\n      0x20\n      add\n      0x00\n      keccak256\n      sload\n        /* \"@openzeppelin/contracts/utils/Nonces.sol\":617:638  return _nonces[owner] */\n      swap1\n      pop\n        /* \"@openzeppelin/contracts/utils/Nonces.sol\":538:645  function nonces(address owner) public view virtual returns (uint256) {... */\n      swap2\n      swap1\n      pop\n      jump\t// out\n        /* \"@openzeppelin/contracts/utils/cryptography/EIP712.sol\":6021:6147  function _EIP712Name() internal view returns (string memory) {... */\n    tag_151:\n        /* \"@openzeppelin/contracts/utils/cryptography/EIP712.sol\":6067:6080  string memory */\n      0x60\n        /* \"@openzeppelin/contracts/utils/cryptography/EIP712.sol\":6099:6140  _name.toStringWithFallback(_nameFallback) */\n      tag_231\n        /* \"@openzeppelin/contracts/utils/cryptography/EIP712.sol\":6126:6139  _nameFallback */\n      0x05\n        /* \"@openzeppelin/contracts/utils/cryptography/EIP712.sol\":6099:6104  _name */\n      immutable(\"0xbb918c587be468bd0c7a09b1610bfa1db8d5840ec578636482aa025af3056430\")\n        /* \"@openzeppelin/contracts/utils/cryptography/EIP712.sol\":6099:6125  _name.toStringWithFallback */\n      tag_232\n      swap1\n        /* \"@openzeppelin/contracts/utils/cryptography/EIP712.sol\":6099:6140  _name.toStringWithFallback(_nameFallback) */\n      swap2\n      swap1\n      0xffffffff\n      and\n      jump\t// in\n    tag_231:\n        /* \"@openzeppelin/contracts/utils/cryptography/EIP712.sol\":6092:6140  return _name.toStringWithFallback(_nameFallback) */\n      swap1\n      pop\n        /* \"@openzeppelin/contracts/utils/cryptography/EIP712.sol\":6021:6147  function _EIP712Name() internal view returns (string memory) {... */\n      swap1\n      jump\t// out\n        /* \"@openzeppelin/contracts/utils/cryptography/EIP712.sol\":6473:6608  function _EIP712Version() internal view returns (string memory) {... */\n    tag_153:\n        /* \"@openzeppelin/contracts/utils/cryptography/EIP712.sol\":6522:6535  string memory */\n      0x60\n        /* \"@openzeppelin/contracts/utils/cryptography/EIP712.sol\":6554:6601  _version.toStringWithFallback(_versionFallback) */\n      tag_234\n        /* \"@openzeppelin/contracts/utils/cryptography/EIP712.sol\":6584:6600  _versionFallback */\n      0x06\n        /* \"@openzeppelin/contracts/utils/cryptography/EIP712.sol\":6554:6562  _version */\n      immutable(\"0x8e9b7bbc33b685619ed5689e557e91302ac2ee6645fe42592ecee8f114bb3e14\")\n        /* \"@openzeppelin/contracts/utils/cryptography/EIP712.sol\":6554:6583  _version.toStringWithFallback */\n      tag_232\n      swap1\n        /* \"@openzeppelin/contracts/utils/cryptography/EIP712.sol\":6554:6601  _version.toStringWithFallback(_versionFallback) */\n      swap2\n      swap1\n      0xffffffff\n      and\n      jump\t// in\n    tag_234:\n        /* \"@openzeppelin/contracts/utils/cryptography/EIP712.sol\":6547:6601  return _version.toStringWithFallback(_versionFallback) */\n      swap1\n      pop\n        /* \"@openzeppelin/contracts/utils/cryptography/EIP712.sol\":6473:6608  function _EIP712Version() internal view returns (string memory) {... */\n      swap1\n      jump\t// out\n        /* \"@openzeppelin/contracts/utils/Nonces.sol\":759:1154  function _useNonce(address owner) internal virtual returns (uint256) {... */\n    tag_172:\n        /* \"@openzeppelin/contracts/utils/Nonces.sol\":819:826  uint256 */\n      0x00\n        /* \"@openzeppelin/contracts/utils/Nonces.sol\":1121:1128  _nonces */\n      0x07\n        /* \"@openzeppelin/contracts/utils/Nonces.sol\":1121:1135  _nonces[owner] */\n      0x00\n        /* \"@openzeppelin/contracts/utils/Nonces.sol\":1129:1134  owner */\n      dup4\n        /* \"@openzeppelin/contracts/utils/Nonces.sol\":1121:1135  _nonces[owner] */\n      0xffffffffffffffffffffffffffffffffffffffff\n      and\n      0xffffffffffffffffffffffffffffffffffffffff\n      and\n      dup2\n      mstore\n      0x20\n      add\n      swap1\n      dup2\n      mstore\n      0x20\n      add\n      0x00\n      keccak256\n      0x00\n        /* \"@openzeppelin/contracts/utils/Nonces.sol\":1121:1137  _nonces[owner]++ */\n      dup2\n      sload\n      dup1\n      swap3\n      swap2\n      swap1\n      0x01\n      add\n      swap2\n      swap1\n      pop\n      sstore\n        /* \"@openzeppelin/contracts/utils/Nonces.sol\":1114:1137  return _nonces[owner]++ */\n      swap1\n      pop\n        /* \"@openzeppelin/contracts/utils/Nonces.sol\":759:1154  function _useNonce(address owner) internal virtual returns (uint256) {... */\n      swap2\n      swap1\n      pop\n      jump\t// out\n        /* \"@openzeppelin/contracts/utils/cryptography/EIP712.sol\":4917:5093  function _hashTypedDataV4(bytes32 structHash) internal view virtual returns (bytes32) {... */\n    tag_176:\n        /* \"@openzeppelin/contracts/utils/cryptography/EIP712.sol\":4994:5001  bytes32 */\n      0x00\n        /* \"@openzeppelin/contracts/utils/cryptography/EIP712.sol\":5020:5086  MessageHashUtils.toTypedDataHash(_domainSeparatorV4(), structHash) */\n      tag_237\n        /* \"@openzeppelin/contracts/utils/cryptography/EIP712.sol\":5053:5073  _domainSeparatorV4() */\n      tag_238\n        /* \"@openzeppelin/contracts/utils/cryptography/EIP712.sol\":5053:5071  _domainSeparatorV4 */\n      tag_122\n        /* \"@openzeppelin/contracts/utils/cryptography/EIP712.sol\":5053:5073  _domainSeparatorV4() */\n      jump\t// in\n    tag_238:\n        /* \"@openzeppelin/contracts/utils/cryptography/EIP712.sol\":5075:5085  structHash */\n      dup4\n        /* \"@openzeppelin/contracts/utils/cryptography/EIP712.sol\":5020:5052  MessageHashUtils.toTypedDataHash */\n      tag_239\n        /* \"@openzeppelin/contracts/utils/cryptography/EIP712.sol\":5020:5086  MessageHashUtils.toTypedDataHash(_domainSeparatorV4(), structHash) */\n      jump\t// in\n    tag_237:\n        /* \"@openzeppelin/contracts/utils/cryptography/EIP712.sol\":5013:5086  return MessageHashUtils.toTypedDataHash(_domainSeparatorV4(), structHash) */\n      swap1\n      pop\n        /* \"@openzeppelin/contracts/utils/cryptography/EIP712.sol\":4917:5093  function _hashTypedDataV4(bytes32 structHash) internal view virtual returns (bytes32) {... */\n      swap2\n      swap1\n      pop\n      jump\t// out\n        /* \"@openzeppelin/contracts/utils/cryptography/ECDSA.sol\":6803:7063  function recover(bytes32 hash, uint8 v, bytes32 r, bytes32 s) internal pure returns (address) {... */\n    tag_178:\n        /* \"@openzeppelin/contracts/utils/cryptography/ECDSA.sol\":6888:6895  address */\n      0x00\n        /* \"@openzeppelin/contracts/utils/cryptography/ECDSA.sol\":6908:6925  address recovered */\n      dup1\n        /* \"@openzeppelin/contracts/utils/cryptography/ECDSA.sol\":6927:6945  RecoverError error */\n      0x00\n        /* \"@openzeppelin/contracts/utils/cryptography/ECDSA.sol\":6947:6963  bytes32 errorArg */\n      dup1\n        /* \"@openzeppelin/contracts/utils/cryptography/ECDSA.sol\":6967:6992  tryRecover(hash, v, r, s) */\n      tag_241\n        /* \"@openzeppelin/contracts/utils/cryptography/ECDSA.sol\":6978:6982  hash */\n      dup9\n        /* \"@openzeppelin/contracts/utils/cryptography/ECDSA.sol\":6984:6985  v */\n      dup9\n        /* \"@openzeppelin/contracts/utils/cryptography/ECDSA.sol\":6987:6988  r */\n      dup9\n        /* \"@openzeppelin/contracts/utils/cryptography/ECDSA.sol\":6990:6991  s */\n      dup9\n        /* \"@openzeppelin/contracts/utils/cryptography/ECDSA.sol\":6967:6977  tryRecover */\n      tag_242\n        /* \"@openzeppelin/contracts/utils/cryptography/ECDSA.sol\":6967:6992  tryRecover(hash, v, r, s) */\n      jump\t// in\n    tag_241:\n        /* \"@openzeppelin/contracts/utils/cryptography/ECDSA.sol\":6907:6992  (address recovered, RecoverError error, bytes32 errorArg) = tryRecover(hash, v, r, s) */\n      swap3\n      pop\n      swap3\n      pop\n      swap3\n      pop\n        /* \"@openzeppelin/contracts/utils/cryptography/ECDSA.sol\":7002:7030  _throwError(error, errorArg) */\n      tag_243\n        /* \"@openzeppelin/contracts/utils/cryptography/ECDSA.sol\":7014:7019  error */\n      dup3\n        /* \"@openzeppelin/contracts/utils/cryptography/ECDSA.sol\":7021:7029  errorArg */\n      dup3\n        /* \"@openzeppelin/contracts/utils/cryptography/ECDSA.sol\":7002:7013  _throwError */\n      tag_244\n        /* \"@openzeppelin/contracts/utils/cryptography/ECDSA.sol\":7002:7030  _throwError(error, errorArg) */\n      jump\t// in\n    tag_243:\n        /* \"@openzeppelin/contracts/utils/cryptography/ECDSA.sol\":7047:7056  recovered */\n      dup3\n        /* \"@openzeppelin/contracts/utils/cryptography/ECDSA.sol\":7040:7056  return recovered */\n      swap4\n      pop\n      pop\n      pop\n      pop\n        /* \"@openzeppelin/contracts/utils/cryptography/ECDSA.sol\":6803:7063  function recover(bytes32 hash, uint8 v, bytes32 r, bytes32 s) internal pure returns (address) {... */\n      swap5\n      swap4\n      pop\n      pop\n      pop\n      pop\n      jump\t// out\n        /* \"@openzeppelin/contracts/token/ERC20/ERC20.sol\":9949:10381  function _approve(address owner, address spender, uint256 value, bool emitEvent) internal virtual {... */\n    tag_193:\n        /* \"@openzeppelin/contracts/token/ERC20/ERC20.sol\":10078:10079  0 */\n      0x00\n        /* \"@openzeppelin/contracts/token/ERC20/ERC20.sol\":10061:10080  owner == address(0) */\n      0xffffffffffffffffffffffffffffffffffffffff\n      and\n        /* \"@openzeppelin/contracts/token/ERC20/ERC20.sol\":10061:10066  owner */\n      dup5\n        /* \"@openzeppelin/contracts/token/ERC20/ERC20.sol\":10061:10080  owner == address(0) */\n      0xffffffffffffffffffffffffffffffffffffffff\n      and\n      sub\n        /* \"@openzeppelin/contracts/token/ERC20/ERC20.sol\":10057:10146  if (owner == address(0)) {... */\n      tag_246\n      jumpi\n        /* \"@openzeppelin/contracts/token/ERC20/ERC20.sol\":10132:10133  0 */\n      0x00\n        /* \"@openzeppelin/contracts/token/ERC20/ERC20.sol\":10103:10135  ERC20InvalidApprover(address(0)) */\n      mload(0x40)\n      0xe602df0500000000000000000000000000000000000000000000000000000000\n      dup2\n      mstore\n      0x04\n      add\n      tag_247\n      swap2\n      swap1\n      tag_80\n      jump\t// in\n    tag_247:\n      mload(0x40)\n      dup1\n      swap2\n      sub\n      swap1\n      revert\n        /* \"@openzeppelin/contracts/token/ERC20/ERC20.sol\":10057:10146  if (owner == address(0)) {... */\n    tag_246:\n        /* \"@openzeppelin/contracts/token/ERC20/ERC20.sol\":10178:10179  0 */\n      0x00\n        /* \"@openzeppelin/contracts/token/ERC20/ERC20.sol\":10159:10180  spender == address(0) */\n      0xffffffffffffffffffffffffffffffffffffffff\n      and\n        /* \"@openzeppelin/contracts/token/ERC20/ERC20.sol\":10159:10166  spender */\n      dup4\n        /* \"@openzeppelin/contracts/token/ERC20/ERC20.sol\":10159:10180  spender == address(0) */\n      0xffffffffffffffffffffffffffffffffffffffff\n      and\n      sub\n        /* \"@openzeppelin/contracts/token/ERC20/ERC20.sol\":10155:10245  if (spender == address(0)) {... */\n      tag_248\n      jumpi\n        /* \"@openzeppelin/contracts/token/ERC20/ERC20.sol\":10231:10232  0 */\n      0x00\n        /* \"@openzeppelin/contracts/token/ERC20/ERC20.sol\":10203:10234  ERC20InvalidSpender(address(0)) */\n      mload(0x40)\n      0x94280d6200000000000000000000000000000000000000000000000000000000\n      dup2\n      mstore\n      0x04\n      add\n      tag_249\n      swap2\n      swap1\n      tag_80\n      jump\t// in\n    tag_249:\n      mload(0x40)\n      dup1\n      swap2\n      sub\n      swap1\n      revert\n        /* \"@openzeppelin/contracts/token/ERC20/ERC20.sol\":10155:10245  if (spender == address(0)) {... */\n    tag_248:\n        /* \"@openzeppelin/contracts/token/ERC20/ERC20.sol\":10284:10289  value */\n      dup2\n        /* \"@openzeppelin/contracts/token/ERC20/ERC20.sol\":10254:10265  _allowances */\n      0x01\n        /* \"@openzeppelin/contracts/token/ERC20/ERC20.sol\":10254:10272  _allowances[owner] */\n      0x00\n        /* \"@openzeppelin/contracts/token/ERC20/ERC20.sol\":10266:10271  owner */\n      dup7\n        /* \"@openzeppelin/contracts/token/ERC20/ERC20.sol\":10254:10272  _allowances[owner] */\n      0xffffffffffffffffffffffffffffffffffffffff\n      and\n      0xffffffffffffffffffffffffffffffffffffffff\n      and\n      dup2\n      mstore\n      0x20\n      add\n      swap1\n      dup2\n      mstore\n      0x20\n      add\n      0x00\n      keccak256\n        /* \"@openzeppelin/contracts/token/ERC20/ERC20.sol\":10254:10281  _allowances[owner][spender] */\n      0x00\n        /* \"@openzeppelin/contracts/token/ERC20/ERC20.sol\":10273:10280  spender */\n      dup6\n        /* \"@openzeppelin/contracts/token/ERC20/ERC20.sol\":10254:10281  _allowances[owner][spender] */\n      0xffffffffffffffffffffffffffffffffffffffff\n      and\n      0xffffffffffffffffffffffffffffffffffffffff\n      and\n      dup2\n      mstore\n      0x20\n      add\n      swap1\n      dup2\n      mstore\n      0x20\n      add\n      0x00\n      keccak256\n        /* \"@openzeppelin/contracts/token/ERC20/ERC20.sol\":10254:10289  _allowances[owner][spender] = value */\n      dup2\n      swap1\n      sstore\n      pop\n        /* \"@openzeppelin/contracts/token/ERC20/ERC20.sol\":10303:10312  emitEvent */\n      dup1\n        /* \"@openzeppelin/contracts/token/ERC20/ERC20.sol\":10299:10375  if (emitEvent) {... */\n      iszero\n      tag_250\n      jumpi\n        /* \"@openzeppelin/contracts/token/ERC20/ERC20.sol\":10349:10356  spender */\n      dup3\n        /* \"@openzeppelin/contracts/token/ERC20/ERC20.sol\":10333:10364  Approval(owner, spender, value) */\n      0xffffffffffffffffffffffffffffffffffffffff\n      and\n        /* \"@openzeppelin/contracts/token/ERC20/ERC20.sol\":10342:10347  owner */\n      dup5\n        /* \"@openzeppelin/contracts/token/ERC20/ERC20.sol\":10333:10364  Approval(owner, spender, value) */\n      0xffffffffffffffffffffffffffffffffffffffff\n      and\n      0x8c5be1e5ebec7d5bd14f71427d1e84f3dd0314c0f7b2291e5b200ac8c7c3b925\n        /* \"@openzeppelin/contracts/token/ERC20/ERC20.sol\":10358:10363  value */\n      dup5\n        /* \"@openzeppelin/contracts/token/ERC20/ERC20.sol\":10333:10364  Approval(owner, spender, value) */\n      mload(0x40)\n      tag_251\n      swap2\n      swap1\n      tag_38\n      jump\t// in\n    tag_251:\n      mload(0x40)\n      dup1\n      swap2\n      sub\n      swap1\n      log3\n        /* \"@openzeppelin/contracts/token/ERC20/ERC20.sol\":10299:10375  if (emitEvent) {... */\n    tag_250:\n        /* \"@openzeppelin/contracts/token/ERC20/ERC20.sol\":9949:10381  function _approve(address owner, address spender, uint256 value, bool emitEvent) internal virtual {... */\n      pop\n      pop\n      pop\n      pop\n      jump\t// out\n        /* \"@openzeppelin/contracts/token/ERC20/ERC20.sol\":6271:7378  function _update(address from, address to, uint256 value) internal virtual {... */\n    tag_207:\n        /* \"@openzeppelin/contracts/token/ERC20/ERC20.sol\":6376:6377  0 */\n      0x00\n        /* \"@openzeppelin/contracts/token/ERC20/ERC20.sol\":6360:6378  from == address(0) */\n      0xffffffffffffffffffffffffffffffffffffffff\n      and\n        /* \"@openzeppelin/contracts/token/ERC20/ERC20.sol\":6360:6364  from */\n      dup4\n        /* \"@openzeppelin/contracts/token/ERC20/ERC20.sol\":6360:6378  from == address(0) */\n      0xffffffffffffffffffffffffffffffffffffffff\n      and\n      sub\n        /* \"@openzeppelin/contracts/token/ERC20/ERC20.sol\":6356:6896  if (from == address(0)) {... */\n      tag_253\n      jumpi\n        /* \"@openzeppelin/contracts/token/ERC20/ERC20.sol\":6512:6517  value */\n      dup1\n        /* \"@openzeppelin/contracts/token/ERC20/ERC20.sol\":6496:6508  _totalSupply */\n      0x02\n      0x00\n        /* \"@openzeppelin/contracts/token/ERC20/ERC20.sol\":6496:6517  _totalSupply += value */\n      dup3\n      dup3\n      sload\n      tag_254\n      swap2\n      swap1\n      tag_129\n      jump\t// in\n    tag_254:\n      swap3\n      pop\n      pop\n      dup2\n      swap1\n      sstore\n      pop\n        /* \"@openzeppelin/contracts/token/ERC20/ERC20.sol\":6356:6896  if (from == address(0)) {... */\n      jump(tag_255)\n    tag_253:\n        /* \"@openzeppelin/contracts/token/ERC20/ERC20.sol\":6548:6567  uint256 fromBalance */\n      0x00\n        /* \"@openzeppelin/contracts/token/ERC20/ERC20.sol\":6570:6579  _balances */\n      dup1\n        /* \"@openzeppelin/contracts/token/ERC20/ERC20.sol\":6570:6585  _balances[from] */\n      0x00\n        /* \"@openzeppelin/contracts/token/ERC20/ERC20.sol\":6580:6584  from */\n      dup6\n        /* \"@openzeppelin/contracts/token/ERC20/ERC20.sol\":6570:6585  _balances[from] */\n      0xffffffffffffffffffffffffffffffffffffffff\n      and\n      0xffffffffffffffffffffffffffffffffffffffff\n      and\n      dup2\n      mstore\n      0x20\n      add\n      swap1\n      dup2\n      mstore\n      0x20\n      add\n      0x00\n      keccak256\n      sload\n        /* \"@openzeppelin/contracts/token/ERC20/ERC20.sol\":6548:6585  uint256 fromBalance = _balances[from] */\n      swap1\n      pop\n        /* \"@openzeppelin/contracts/token/ERC20/ERC20.sol\":6617:6622  value */\n      dup2\n        /* \"@openzeppelin/contracts/token/ERC20/ERC20.sol\":6603:6614  fromBalance */\n      dup2\n        /* \"@openzeppelin/contracts/token/ERC20/ERC20.sol\":6603:6622  fromBalance < value */\n      lt\n        /* \"@openzeppelin/contracts/token/ERC20/ERC20.sol\":6599:6714  if (fromBalance < value) {... */\n      iszero\n      tag_256\n      jumpi\n        /* \"@openzeppelin/contracts/token/ERC20/ERC20.sol\":6674:6678  from */\n      dup4\n        /* \"@openzeppelin/contracts/token/ERC20/ERC20.sol\":6680:6691  fromBalance */\n      dup2\n        /* \"@openzeppelin/contracts/token/ERC20/ERC20.sol\":6693:6698  value */\n      dup4\n        /* \"@openzeppelin/contracts/token/ERC20/ERC20.sol\":6649:6699  ERC20InsufficientBalance(from, fromBalance, value) */\n      mload(0x40)\n      0xe450d38c00000000000000000000000000000000000000000000000000000000\n      dup2\n      mstore\n      0x04\n      add\n      tag_257\n      swap4\n      swap3\n      swap2\n      swap1\n      tag_199\n      jump\t// in\n    tag_257:\n      mload(0x40)\n      dup1\n      swap2\n      sub\n      swap1\n      revert\n        /* \"@openzeppelin/contracts/token/ERC20/ERC20.sol\":6599:6714  if (fromBalance < value) {... */\n    tag_256:\n        /* \"@openzeppelin/contracts/token/ERC20/ERC20.sol\":6866:6871  value */\n      dup2\n        /* \"@openzeppelin/contracts/token/ERC20/ERC20.sol\":6852:6863  fromBalance */\n      dup2\n        /* \"@openzeppelin/contracts/token/ERC20/ERC20.sol\":6852:6871  fromBalance - value */\n      sub\n        /* \"@openzeppelin/contracts/token/ERC20/ERC20.sol\":6834:6843  _balances */\n      0x00\n        /* \"@openzeppelin/contracts/token/ERC20/ERC20.sol\":6834:6849  _balances[from] */\n      dup1\n        /* \"@openzeppelin/contracts/token/ERC20/ERC20.sol\":6844:6848  from */\n      dup7\n        /* \"@openzeppelin/contracts/token/ERC20/ERC20.sol\":6834:6849  _balances[from] */\n      0xffffffffffffffffffffffffffffffffffffffff\n      and\n      0xffffffffffffffffffffffffffffffffffffffff\n      and\n      dup2\n      mstore\n      0x20\n      add\n      swap1\n      dup2\n      mstore\n      0x20\n      add\n      0x00\n      keccak256\n        /* \"@openzeppelin/contracts/token/ERC20/ERC20.sol\":6834:6871  _balances[from] = fromBalance - value */\n      dup2\n      swap1\n      sstore\n      pop\n        /* \"@openzeppelin/contracts/token/ERC20/ERC20.sol\":6534:6896  {... */\n      pop\n        /* \"@openzeppelin/contracts/token/ERC20/ERC20.sol\":6356:6896  if (from == address(0)) {... */\n    tag_255:\n        /* \"@openzeppelin/contracts/token/ERC20/ERC20.sol\":6924:6925  0 */\n      0x00\n        /* \"@openzeppelin/contracts/token/ERC20/ERC20.sol\":6910:6926  to == address(0) */\n      0xffffffffffffffffffffffffffffffffffffffff\n      and\n        /* \"@openzeppelin/contracts/token/ERC20/ERC20.sol\":6910:6912  to */\n      dup3\n        /* \"@openzeppelin/contracts/token/ERC20/ERC20.sol\":6910:6926  to == address(0) */\n      0xffffffffffffffffffffffffffffffffffffffff\n      and\n      sub\n        /* \"@openzeppelin/contracts/token/ERC20/ERC20.sol\":6906:7331  if (to == address(0)) {... */\n      tag_258\n      jumpi\n        /* \"@openzeppelin/contracts/token/ERC20/ERC20.sol\":7089:7094  value */\n      dup1\n        /* \"@openzeppelin/contracts/token/ERC20/ERC20.sol\":7073:7085  _totalSupply */\n      0x02\n      0x00\n        /* \"@openzeppelin/contracts/token/ERC20/ERC20.sol\":7073:7094  _totalSupply -= value */\n      dup3\n      dup3\n      sload\n      sub\n      swap3\n      pop\n      pop\n      dup2\n      swap1\n      sstore\n      pop\n        /* \"@openzeppelin/contracts/token/ERC20/ERC20.sol\":6906:7331  if (to == address(0)) {... */\n      jump(tag_259)\n    tag_258:\n        /* \"@openzeppelin/contracts/token/ERC20/ERC20.sol\":7301:7306  value */\n      dup1\n        /* \"@openzeppelin/contracts/token/ERC20/ERC20.sol\":7284:7293  _balances */\n      0x00\n        /* \"@openzeppelin/contracts/token/ERC20/ERC20.sol\":7284:7297  _balances[to] */\n      dup1\n        /* \"@openzeppelin/contracts/token/ERC20/ERC20.sol\":7294:7296  to */\n      dup5\n        /* \"@openzeppelin/contracts/token/ERC20/ERC20.sol\":7284:7297  _balances[to] */\n      0xffffffffffffffffffffffffffffffffffffffff\n      and\n      0xffffffffffffffffffffffffffffffffffffffff\n      and\n      dup2\n      mstore\n      0x20\n      add\n      swap1\n      dup2\n      mstore\n      0x20\n      add\n      0x00\n      keccak256\n      0x00\n        /* \"@openzeppelin/contracts/token/ERC20/ERC20.sol\":7284:7306  _balances[to] += value */\n      dup3\n      dup3\n      sload\n      add\n      swap3\n      pop\n      pop\n      dup2\n      swap1\n      sstore\n      pop\n        /* \"@openzeppelin/contracts/token/ERC20/ERC20.sol\":6906:7331  if (to == address(0)) {... */\n    tag_259:\n        /* \"@openzeppelin/contracts/token/ERC20/ERC20.sol\":7361:7363  to */\n      dup2\n        /* \"@openzeppelin/contracts/token/ERC20/ERC20.sol\":7346:7371  Transfer(from, to, value) */\n      0xffffffffffffffffffffffffffffffffffffffff\n      and\n        /* \"@openzeppelin/contracts/token/ERC20/ERC20.sol\":7355:7359  from */\n      dup4\n        /* \"@openzeppelin/contracts/token/ERC20/ERC20.sol\":7346:7371  Transfer(from, to, value) */\n      0xffffffffffffffffffffffffffffffffffffffff\n      and\n      0xddf252ad1be2c89b69c2b068fc378daa952ba7f163c4a11628f55a4df523b3ef\n        /* \"@openzeppelin/contracts/token/ERC20/ERC20.sol\":7365:7370  value */\n      dup4\n        /* \"@openzeppelin/contracts/token/ERC20/ERC20.sol\":7346:7371  Transfer(from, to, value) */\n      mload(0x40)\n      tag_260\n      swap2\n      swap1\n      tag_38\n      jump\t// in\n    tag_260:\n      mload(0x40)\n      dup1\n      swap2\n      sub\n      swap1\n      log3\n        /* \"@openzeppelin/contracts/token/ERC20/ERC20.sol\":6271:7378  function _update(address from, address to, uint256 value) internal virtual {... */\n      pop\n      pop\n      pop\n      jump\t// out\n        /* \"@openzeppelin/contracts/utils/cryptography/EIP712.sol\":4113:4292  function _buildDomainSeparator() private view returns (bytes32) {... */\n    tag_213:\n        /* \"@openzeppelin/contracts/utils/cryptography/EIP712.sol\":4168:4175  bytes32 */\n      0x00\n        /* \"@openzeppelin/contracts/utils/cryptography/EIP712.sol\":2079:2174  keccak256(\"EIP712Domain(string name,string version,uint256 chainId,address verifyingContract)\") */\n      0x8b73c3c69bb8fe3d512ecc4cf759cc79239f7b179b0ffacaa9a75d522b39400f\n        /* \"@openzeppelin/contracts/utils/cryptography/EIP712.sol\":4226:4237  _hashedName */\n      immutable(\"0xcab6b469e411f2f1a1a63b7a352484b6446ac4f04b2cdfa437beb9293c27ba98\")\n        /* \"@openzeppelin/contracts/utils/cryptography/EIP712.sol\":4239:4253  _hashedVersion */\n      immutable(\"0xcbf74af01cbe1015e9ac85ea14fe824611550c769e9107467f16a4ac714457df\")\n        /* \"@openzeppelin/contracts/utils/cryptography/EIP712.sol\":4255:4268  block.chainid */\n      chainid\n        /* \"@openzeppelin/contracts/utils/cryptography/EIP712.sol\":4278:4282  this */\n      address\n        /* \"@openzeppelin/contracts/utils/cryptography/EIP712.sol\":4204:4284  abi.encode(TYPE_HASH, _hashedName, _hashedVersion, block.chainid, address(this)) */\n      add(0x20, mload(0x40))\n      tag_262\n      swap6\n      swap5\n      swap4\n      swap3\n      swap2\n      swap1\n      tag_263\n      jump\t// in\n    tag_262:\n      mload(0x40)\n      0x20\n      dup2\n      dup4\n      sub\n      sub\n      dup2\n      mstore\n      swap1\n      0x40\n      mstore\n        /* \"@openzeppelin/contracts/utils/cryptography/EIP712.sol\":4194:4285  keccak256(abi.encode(TYPE_HASH, _hashedName, _hashedVersion, block.chainid, address(this))) */\n      dup1\n      mload\n      swap1\n      0x20\n      add\n      keccak256\n        /* \"@openzeppelin/contracts/utils/cryptography/EIP712.sol\":4187:4285  return keccak256(abi.encode(TYPE_HASH, _hashedName, _hashedVersion, block.chainid, address(this))) */\n      swap1\n      pop\n        /* \"@openzeppelin/contracts/utils/cryptography/EIP712.sol\":4113:4292  function _buildDomainSeparator() private view returns (bytes32) {... */\n      swap1\n      jump\t// out\n        /* \"@openzeppelin/contracts/utils/ShortStrings.sol\":3385:3652  function toStringWithFallback(ShortString value, string storage store) internal pure returns (string memory) {... */\n    tag_232:\n        /* \"@openzeppelin/contracts/utils/ShortStrings.sol\":3479:3492  string memory */\n      0x60\n        /* \"@openzeppelin/contracts/utils/ShortStrings.sol\":1390:1456  0x00000000000000000000000000000000000000000000000000000000000000FF */\n      0xff\n        /* \"@openzeppelin/contracts/utils/ShortStrings.sol\":3537:3554  FALLBACK_SENTINEL */\n      0x00\n      shl\n        /* \"@openzeppelin/contracts/utils/ShortStrings.sol\":3527:3532  value */\n      dup4\n        /* \"@openzeppelin/contracts/utils/ShortStrings.sol\":3508:3554  ShortString.unwrap(value) != FALLBACK_SENTINEL */\n      eq\n        /* \"@openzeppelin/contracts/utils/ShortStrings.sol\":3504:3646  if (ShortString.unwrap(value) != FALLBACK_SENTINEL) {... */\n      tag_265\n      jumpi\n        /* \"@openzeppelin/contracts/utils/ShortStrings.sol\":3577:3592  toString(value) */\n      tag_266\n        /* \"@openzeppelin/contracts/utils/ShortStrings.sol\":3586:3591  value */\n      dup4\n        /* \"@openzeppelin/contracts/utils/ShortStrings.sol\":3577:3585  toString */\n      tag_267\n        /* \"@openzeppelin/contracts/utils/ShortStrings.sol\":3577:3592  toString(value) */\n      jump\t// in\n    tag_266:\n        /* \"@openzeppelin/contracts/utils/ShortStrings.sol\":3570:3592  return toString(value) */\n      swap1\n      pop\n      jump(tag_264)\n        /* \"@openzeppelin/contracts/utils/ShortStrings.sol\":3504:3646  if (ShortString.unwrap(value) != FALLBACK_SENTINEL) {... */\n    tag_265:\n        /* \"@openzeppelin/contracts/utils/ShortStrings.sol\":3630:3635  store */\n      dup2\n        /* \"@openzeppelin/contracts/utils/ShortStrings.sol\":3623:3635  return store */\n      dup1\n      sload\n      tag_269\n      swap1\n      tag_102\n      jump\t// in\n    tag_269:\n      dup1\n      0x1f\n      add\n      0x20\n      dup1\n      swap2\n      div\n      mul\n      0x20\n      add\n      mload(0x40)\n      swap1\n      dup2\n      add\n      0x40\n      mstore\n      dup1\n      swap3\n      swap2\n      swap1\n      dup2\n      dup2\n      mstore\n      0x20\n      add\n      dup3\n      dup1\n      sload\n      tag_270\n      swap1\n      tag_102\n      jump\t// in\n    tag_270:\n      dup1\n      iszero\n      tag_271\n      jumpi\n      dup1\n      0x1f\n      lt\n      tag_272\n      jumpi\n      0x0100\n      dup1\n      dup4\n      sload\n      div\n      mul\n      dup4\n      mstore\n      swap2\n      0x20\n      add\n      swap2\n      jump(tag_271)\n    tag_272:\n      dup3\n      add\n      swap2\n      swap1\n      0x00\n      mstore\n      keccak256(0x00, 0x20)\n      swap1\n    tag_273:\n      dup2\n      sload\n      dup2\n      mstore\n      swap1\n      0x01\n      add\n      swap1\n      0x20\n      add\n      dup1\n      dup4\n      gt\n      tag_273\n      jumpi\n      dup3\n      swap1\n      sub\n      0x1f\n      and\n      dup3\n      add\n      swap2\n    tag_271:\n      pop\n      pop\n      pop\n      pop\n      pop\n      swap1\n      pop\n        /* \"@openzeppelin/contracts/utils/ShortStrings.sol\":3385:3652  function toStringWithFallback(ShortString value, string storage store) internal pure returns (string memory) {... */\n    tag_264:\n      swap3\n      swap2\n      pop\n      pop\n      jump\t// out\n        /* \"@openzeppelin/contracts/utils/cryptography/MessageHashUtils.sol\":3353:3754  function toTypedDataHash(bytes32 domainSeparator, bytes32 structHash) internal pure returns (bytes32 digest) {... */\n    tag_239:\n        /* \"@openzeppelin/contracts/utils/cryptography/MessageHashUtils.sol\":3446:3460  bytes32 digest */\n      0x00\n        /* \"@openzeppelin/contracts/utils/cryptography/MessageHashUtils.sol\":3555:3559  0x40 */\n      0x40\n        /* \"@openzeppelin/contracts/utils/cryptography/MessageHashUtils.sol\":3549:3560  mload(0x40) */\n      mload\n        /* \"@openzeppelin/contracts/utils/cryptography/MessageHashUtils.sol\":3585:3595  hex\"19_01\" */\n      0x1901000000000000000000000000000000000000000000000000000000000000\n        /* \"@openzeppelin/contracts/utils/cryptography/MessageHashUtils.sol\":3580:3583  ptr */\n      dup2\n        /* \"@openzeppelin/contracts/utils/cryptography/MessageHashUtils.sol\":3573:3596  mstore(ptr, hex\"19_01\") */\n      mstore\n        /* \"@openzeppelin/contracts/utils/cryptography/MessageHashUtils.sol\":3632:3647  domainSeparator */\n      dup4\n        /* \"@openzeppelin/contracts/utils/cryptography/MessageHashUtils.sol\":3625:3629  0x02 */\n      0x02\n        /* \"@openzeppelin/contracts/utils/cryptography/MessageHashUtils.sol\":3620:3623  ptr */\n      dup3\n        /* \"@openzeppelin/contracts/utils/cryptography/MessageHashUtils.sol\":3616:3630  add(ptr, 0x02) */\n      add\n        /* \"@openzeppelin/contracts/utils/cryptography/MessageHashUtils.sol\":3609:3648  mstore(add(ptr, 0x02), domainSeparator) */\n      mstore\n        /* \"@openzeppelin/contracts/utils/cryptography/MessageHashUtils.sol\":3684:3694  structHash */\n      dup3\n        /* \"@openzeppelin/contracts/utils/cryptography/MessageHashUtils.sol\":3677:3681  0x22 */\n      0x22\n        /* \"@openzeppelin/contracts/utils/cryptography/MessageHashUtils.sol\":3672:3675  ptr */\n      dup3\n        /* \"@openzeppelin/contracts/utils/cryptography/MessageHashUtils.sol\":3668:3682  add(ptr, 0x22) */\n      add\n        /* \"@openzeppelin/contracts/utils/cryptography/MessageHashUtils.sol\":3661:3695  mstore(add(ptr, 0x22), structHash) */\n      mstore\n        /* \"@openzeppelin/contracts/utils/cryptography/MessageHashUtils.sol\":3733:3737  0x42 */\n      0x42\n        /* \"@openzeppelin/contracts/utils/cryptography/MessageHashUtils.sol\":3728:3731  ptr */\n      dup2\n        /* \"@openzeppelin/contracts/utils/cryptography/MessageHashUtils.sol\":3718:3738  keccak256(ptr, 0x42) */\n      keccak256\n        /* \"@openzeppelin/contracts/utils/cryptography/MessageHashUtils.sol\":3708:3738  digest := keccak256(ptr, 0x42) */\n      swap2\n      pop\n        /* \"@openzeppelin/contracts/utils/cryptography/MessageHashUtils.sol\":3524:3748  {... */\n      pop\n        /* \"@openzeppelin/contracts/utils/cryptography/MessageHashUtils.sol\":3353:3754  function toTypedDataHash(bytes32 domainSeparator, bytes32 structHash) internal pure returns (bytes32 digest) {... */\n      swap3\n      swap2\n      pop\n      pop\n      jump\t// out\n        /* \"@openzeppelin/contracts/utils/cryptography/ECDSA.sol\":5140:6670  function tryRecover(... */\n    tag_242:\n        /* \"@openzeppelin/contracts/utils/cryptography/ECDSA.sol\":5266:5273  address */\n      0x00\n        /* \"@openzeppelin/contracts/utils/cryptography/ECDSA.sol\":5275:5287  RecoverError */\n      dup1\n        /* \"@openzeppelin/contracts/utils/cryptography/ECDSA.sol\":5289:5296  bytes32 */\n      0x00\n        /* \"@openzeppelin/contracts/utils/cryptography/ECDSA.sol\":6199:6265  0x7FFFFFFFFFFFFFFFFFFFFFFFFFFFFFFF5D576E7357A4501DDFE92F46681B20A0 */\n      0x7fffffffffffffffffffffffffffffff5d576e7357a4501ddfe92f46681b20a0\n        /* \"@openzeppelin/contracts/utils/cryptography/ECDSA.sol\":6194:6195  s */\n      dup5\n        /* \"@openzeppelin/contracts/utils/cryptography/ECDSA.sol\":6186:6196  uint256(s) */\n      0x00\n      shr\n        /* \"@openzeppelin/contracts/utils/cryptography/ECDSA.sol\":6186:6265  uint256(s) > 0x7FFFFFFFFFFFFFFFFFFFFFFFFFFFFFFF5D576E7357A4501DDFE92F46681B20A0 */\n      gt\n        /* \"@openzeppelin/contracts/utils/cryptography/ECDSA.sol\":6182:6346  if (uint256(s) > 0x7FFFFFFFFFFFFFFFFFFFFFFFFFFFFFFF5D576E7357A4501DDFE92F46681B20A0) {... */\n      iszero\n      tag_276\n      jumpi\n        /* \"@openzeppelin/contracts/utils/cryptography/ECDSA.sol\":6297:6298  0 */\n      0x00\n        /* \"@openzeppelin/contracts/utils/cryptography/ECDSA.sol\":6301:6331  RecoverError.InvalidSignatureS */\n      0x03\n        /* \"@openzeppelin/contracts/utils/cryptography/ECDSA.sol\":6333:6334  s */\n      dup6\n        /* \"@openzeppelin/contracts/utils/cryptography/ECDSA.sol\":6281:6335  return (address(0), RecoverError.InvalidSignatureS, s) */\n      swap3\n      pop\n      swap3\n      pop\n      swap3\n      pop\n      jump(tag_275)\n        /* \"@openzeppelin/contracts/utils/cryptography/ECDSA.sol\":6182:6346  if (uint256(s) > 0x7FFFFFFFFFFFFFFFFFFFFFFFFFFFFFFF5D576E7357A4501DDFE92F46681B20A0) {... */\n    tag_276:\n        /* \"@openzeppelin/contracts/utils/cryptography/ECDSA.sol\":6440:6454  address signer */\n      0x00\n        /* \"@openzeppelin/contracts/utils/cryptography/ECDSA.sol\":6457:6481  ecrecover(hash, v, r, s) */\n      0x01\n        /* \"@openzeppelin/contracts/utils/cryptography/ECDSA.sol\":6467:6471  hash */\n      dup9\n        /* \"@openzeppelin/contracts/utils/cryptography/ECDSA.sol\":6473:6474  v */\n      dup9\n        /* \"@openzeppelin/contracts/utils/cryptography/ECDSA.sol\":6476:6477  r */\n      dup9\n        /* \"@openzeppelin/contracts/utils/cryptography/ECDSA.sol\":6479:6480  s */\n      dup9\n        /* \"@openzeppelin/contracts/utils/cryptography/ECDSA.sol\":6457:6481  ecrecover(hash, v, r, s) */\n      mload(0x40)\n      0x00\n      dup2\n      mstore\n      0x20\n      add\n      0x40\n      mstore\n      mload(0x40)\n      tag_277\n      swap5\n      swap4\n      swap3\n      swap2\n      swap1\n      tag_278\n      jump\t// in\n    tag_277:\n      0x20\n      mload(0x40)\n      0x20\n      dup2\n      sub\n      swap1\n      dup1\n      dup5\n      sub\n      swap1\n      dup6\n      gas\n      staticcall\n      iszero\n      dup1\n      iszero\n      tag_280\n      jumpi\n      returndatasize\n      0x00\n      dup1\n      returndatacopy\n      revert(0x00, returndatasize)\n    tag_280:\n      pop\n      pop\n      pop\n      mload(sub(mload(0x40), 0x20))\n        /* \"@openzeppelin/contracts/utils/cryptography/ECDSA.sol\":6440:6481  address signer = ecrecover(hash, v, r, s) */\n      swap1\n      pop\n        /* \"@openzeppelin/contracts/utils/cryptography/ECDSA.sol\":6513:6514  0 */\n      0x00\n        /* \"@openzeppelin/contracts/utils/cryptography/ECDSA.sol\":6495:6515  signer == address(0) */\n      0xffffffffffffffffffffffffffffffffffffffff\n      and\n        /* \"@openzeppelin/contracts/utils/cryptography/ECDSA.sol\":6495:6501  signer */\n      dup2\n        /* \"@openzeppelin/contracts/utils/cryptography/ECDSA.sol\":6495:6515  signer == address(0) */\n      0xffffffffffffffffffffffffffffffffffffffff\n      and\n      sub\n        /* \"@openzeppelin/contracts/utils/cryptography/ECDSA.sol\":6491:6604  if (signer == address(0)) {... */\n      tag_281\n      jumpi\n        /* \"@openzeppelin/contracts/utils/cryptography/ECDSA.sol\":6547:6548  0 */\n      0x00\n        /* \"@openzeppelin/contracts/utils/cryptography/ECDSA.sol\":6551:6580  RecoverError.InvalidSignature */\n      0x01\n        /* \"@openzeppelin/contracts/utils/cryptography/ECDSA.sol\":6590:6591  0 */\n      0x00\n        /* \"@openzeppelin/contracts/utils/cryptography/ECDSA.sol\":6582:6592  bytes32(0) */\n      dup1\n      shl\n        /* \"@openzeppelin/contracts/utils/cryptography/ECDSA.sol\":6531:6593  return (address(0), RecoverError.InvalidSignature, bytes32(0)) */\n      swap4\n      pop\n      swap4\n      pop\n      swap4\n      pop\n      pop\n      jump(tag_275)\n        /* \"@openzeppelin/contracts/utils/cryptography/ECDSA.sol\":6491:6604  if (signer == address(0)) {... */\n    tag_281:\n        /* \"@openzeppelin/contracts/utils/cryptography/ECDSA.sol\":6622:6628  signer */\n      dup1\n        /* \"@openzeppelin/contracts/utils/cryptography/ECDSA.sol\":6630:6650  RecoverError.NoError */\n      0x00\n        /* \"@openzeppelin/contracts/utils/cryptography/ECDSA.sol\":6660:6661  0 */\n      dup1\n        /* \"@openzeppelin/contracts/utils/cryptography/ECDSA.sol\":6652:6662  bytes32(0) */\n      0x00\n      shl\n        /* \"@openzeppelin/contracts/utils/cryptography/ECDSA.sol\":6614:6663  return (signer, RecoverError.NoError, bytes32(0)) */\n      swap4\n      pop\n      swap4\n      pop\n      swap4\n      pop\n      pop\n        /* \"@openzeppelin/contracts/utils/cryptography/ECDSA.sol\":5140:6670  function tryRecover(... */\n    tag_275:\n      swap5\n      pop\n      swap5\n      pop\n      swap5\n      swap2\n      pop\n      pop\n      jump\t// out\n        /* \"@openzeppelin/contracts/utils/cryptography/ECDSA.sol\":7196:7728  function _throwError(RecoverError error, bytes32 errorArg) private pure {... */\n    tag_244:\n        /* \"@openzeppelin/contracts/utils/cryptography/ECDSA.sol\":7291:7311  RecoverError.NoError */\n      0x00\n        /* \"@openzeppelin/contracts/utils/cryptography/ECDSA.sol\":7282:7311  error == RecoverError.NoError */\n      0x03\n      dup2\n      gt\n      iszero\n      tag_283\n      jumpi\n      tag_284\n      tag_285\n      jump\t// in\n    tag_284:\n    tag_283:\n        /* \"@openzeppelin/contracts/utils/cryptography/ECDSA.sol\":7282:7287  error */\n      dup3\n        /* \"@openzeppelin/contracts/utils/cryptography/ECDSA.sol\":7282:7311  error == RecoverError.NoError */\n      0x03\n      dup2\n      gt\n      iszero\n      tag_286\n      jumpi\n      tag_287\n      tag_285\n      jump\t// in\n    tag_287:\n    tag_286:\n      sub\n        /* \"@openzeppelin/contracts/utils/cryptography/ECDSA.sol\":7278:7722  if (error == RecoverError.NoError) {... */\n      iszero\n        /* \"@openzeppelin/contracts/utils/cryptography/ECDSA.sol\":7327:7334  return; */\n      tag_282\n        /* \"@openzeppelin/contracts/utils/cryptography/ECDSA.sol\":7278:7722  if (error == RecoverError.NoError) {... */\n      jumpi\n        /* \"@openzeppelin/contracts/utils/cryptography/ECDSA.sol\":7387:7416  RecoverError.InvalidSignature */\n      0x01\n        /* \"@openzeppelin/contracts/utils/cryptography/ECDSA.sol\":7378:7416  error == RecoverError.InvalidSignature */\n      0x03\n      dup2\n      gt\n      iszero\n      tag_290\n      jumpi\n      tag_291\n      tag_285\n      jump\t// in\n    tag_291:\n    tag_290:\n        /* \"@openzeppelin/contracts/utils/cryptography/ECDSA.sol\":7378:7383  error */\n      dup3\n        /* \"@openzeppelin/contracts/utils/cryptography/ECDSA.sol\":7378:7416  error == RecoverError.InvalidSignature */\n      0x03\n      dup2\n      gt\n      iszero\n      tag_292\n      jumpi\n      tag_293\n      tag_285\n      jump\t// in\n    tag_293:\n    tag_292:\n      sub\n        /* \"@openzeppelin/contracts/utils/cryptography/ECDSA.sol\":7374:7722  if (error == RecoverError.InvalidSignature) {... */\n      tag_294\n      jumpi\n        /* \"@openzeppelin/contracts/utils/cryptography/ECDSA.sol\":7439:7462  ECDSAInvalidSignature() */\n      mload(0x40)\n      0xf645eedf00000000000000000000000000000000000000000000000000000000\n      dup2\n      mstore\n      0x04\n      add\n      mload(0x40)\n      dup1\n      swap2\n      sub\n      swap1\n      revert\n        /* \"@openzeppelin/contracts/utils/cryptography/ECDSA.sol\":7374:7722  if (error == RecoverError.InvalidSignature) {... */\n    tag_294:\n        /* \"@openzeppelin/contracts/utils/cryptography/ECDSA.sol\":7492:7527  RecoverError.InvalidSignatureLength */\n      0x02\n        /* \"@openzeppelin/contracts/utils/cryptography/ECDSA.sol\":7483:7527  error == RecoverError.InvalidSignatureLength */\n      0x03\n      dup2\n      gt\n      iszero\n      tag_296\n      jumpi\n      tag_297\n      tag_285\n      jump\t// in\n    tag_297:\n    tag_296:\n        /* \"@openzeppelin/contracts/utils/cryptography/ECDSA.sol\":7483:7488  error */\n      dup3\n        /* \"@openzeppelin/contracts/utils/cryptography/ECDSA.sol\":7483:7527  error == RecoverError.InvalidSignatureLength */\n      0x03\n      dup2\n      gt\n      iszero\n      tag_298\n      jumpi\n      tag_299\n      tag_285\n      jump\t// in\n    tag_299:\n    tag_298:\n      sub\n        /* \"@openzeppelin/contracts/utils/cryptography/ECDSA.sol\":7479:7722  if (error == RecoverError.InvalidSignatureLength) {... */\n      tag_300\n      jumpi\n        /* \"@openzeppelin/contracts/utils/cryptography/ECDSA.sol\":7586:7594  errorArg */\n      dup1\n        /* \"@openzeppelin/contracts/utils/cryptography/ECDSA.sol\":7578:7595  uint256(errorArg) */\n      0x00\n      shr\n        /* \"@openzeppelin/contracts/utils/cryptography/ECDSA.sol\":7550:7596  ECDSAInvalidSignatureLength(uint256(errorArg)) */\n      mload(0x40)\n      0xfce698f700000000000000000000000000000000000000000000000000000000\n      dup2\n      mstore\n      0x04\n      add\n      tag_301\n      swap2\n      swap1\n      tag_38\n      jump\t// in\n    tag_301:\n      mload(0x40)\n      dup1\n      swap2\n      sub\n      swap1\n      revert\n        /* \"@openzeppelin/contracts/utils/cryptography/ECDSA.sol\":7479:7722  if (error == RecoverError.InvalidSignatureLength) {... */\n    tag_300:\n        /* \"@openzeppelin/contracts/utils/cryptography/ECDSA.sol\":7626:7656  RecoverError.InvalidSignatureS */\n      0x03\n        /* \"@openzeppelin/contracts/utils/cryptography/ECDSA.sol\":7617:7656  error == RecoverError.InvalidSignatureS */\n      dup1\n      dup2\n      gt\n      iszero\n      tag_303\n      jumpi\n      tag_304\n      tag_285\n      jump\t// in\n    tag_304:\n    tag_303:\n        /* \"@openzeppelin/contracts/utils/cryptography/ECDSA.sol\":7617:7622  error */\n      dup3\n        /* \"@openzeppelin/contracts/utils/cryptography/ECDSA.sol\":7617:7656  error == RecoverError.InvalidSignatureS */\n      0x03\n      dup2\n      gt\n      iszero\n      tag_305\n      jumpi\n      tag_306\n      tag_285\n      jump\t// in\n    tag_306:\n    tag_305:\n      sub\n        /* \"@openzeppelin/contracts/utils/cryptography/ECDSA.sol\":7613:7722  if (error == RecoverError.InvalidSignatureS) {... */\n      tag_307\n      jumpi\n        /* \"@openzeppelin/contracts/utils/cryptography/ECDSA.sol\":7702:7710  errorArg */\n      dup1\n        /* \"@openzeppelin/contracts/utils/cryptography/ECDSA.sol\":7679:7711  ECDSAInvalidSignatureS(errorArg) */\n      mload(0x40)\n      0xd78bce0c00000000000000000000000000000000000000000000000000000000\n      dup2\n      mstore\n      0x04\n      add\n      tag_308\n      swap2\n      swap1\n      tag_51\n      jump\t// in\n    tag_308:\n      mload(0x40)\n      dup1\n      swap2\n      sub\n      swap1\n      revert\n        /* \"@openzeppelin/contracts/utils/cryptography/ECDSA.sol\":7613:7722  if (error == RecoverError.InvalidSignatureS) {... */\n    tag_307:\n        /* \"@openzeppelin/contracts/utils/cryptography/ECDSA.sol\":7196:7728  function _throwError(RecoverError error, bytes32 errorArg) private pure {... */\n    tag_282:\n      pop\n      pop\n      jump\t// out\n        /* \"@openzeppelin/contracts/utils/ShortStrings.sol\":2078:2483  function toString(ShortString sstr) internal pure returns (string memory) {... */\n    tag_267:\n        /* \"@openzeppelin/contracts/utils/ShortStrings.sol\":2137:2150  string memory */\n      0x60\n        /* \"@openzeppelin/contracts/utils/ShortStrings.sol\":2162:2173  uint256 len */\n      0x00\n        /* \"@openzeppelin/contracts/utils/ShortStrings.sol\":2176:2192  byteLength(sstr) */\n      tag_310\n        /* \"@openzeppelin/contracts/utils/ShortStrings.sol\":2187:2191  sstr */\n      dup4\n        /* \"@openzeppelin/contracts/utils/ShortStrings.sol\":2176:2186  byteLength */\n      tag_311\n        /* \"@openzeppelin/contracts/utils/ShortStrings.sol\":2176:2192  byteLength(sstr) */\n      jump\t// in\n    tag_310:\n        /* \"@openzeppelin/contracts/utils/ShortStrings.sol\":2162:2192  uint256 len = byteLength(sstr) */\n      swap1\n      pop\n        /* \"@openzeppelin/contracts/utils/ShortStrings.sol\":2280:2297  string memory str */\n      0x00\n        /* \"@openzeppelin/contracts/utils/ShortStrings.sol\":2311:2313  32 */\n      0x20\n        /* \"@openzeppelin/contracts/utils/ShortStrings.sol\":2300:2314  new string(32) */\n      0xffffffffffffffff\n      dup2\n      gt\n      iszero\n      tag_312\n      jumpi\n      tag_313\n      tag_156\n      jump\t// in\n    tag_313:\n    tag_312:\n      mload(0x40)\n      swap1\n      dup1\n      dup3\n      mstore\n      dup1\n      0x1f\n      add\n      not(0x1f)\n      and\n      0x20\n      add\n      dup3\n      add\n      0x40\n      mstore\n      dup1\n      iszero\n      tag_314\n      jumpi\n      dup2\n      0x20\n      add\n      0x01\n      dup3\n      mul\n      dup1\n      calldatasize\n      dup4\n      calldatacopy\n      dup1\n      dup3\n      add\n      swap2\n      pop\n      pop\n      swap1\n      pop\n    tag_314:\n      pop\n        /* \"@openzeppelin/contracts/utils/ShortStrings.sol\":2280:2314  string memory str = new string(32) */\n      swap1\n      pop\n        /* \"@openzeppelin/contracts/utils/ShortStrings.sol\":2402:2405  len */\n      dup2\n        /* \"@openzeppelin/contracts/utils/ShortStrings.sol\":2397:2400  str */\n      dup2\n        /* \"@openzeppelin/contracts/utils/ShortStrings.sol\":2390:2406  mstore(str, len) */\n      mstore\n        /* \"@openzeppelin/contracts/utils/ShortStrings.sol\":2442:2446  sstr */\n      dup4\n        /* \"@openzeppelin/contracts/utils/ShortStrings.sol\":2435:2439  0x20 */\n      0x20\n        /* \"@openzeppelin/contracts/utils/ShortStrings.sol\":2430:2433  str */\n      dup3\n        /* \"@openzeppelin/contracts/utils/ShortStrings.sol\":2426:2440  add(str, 0x20) */\n      add\n        /* \"@openzeppelin/contracts/utils/ShortStrings.sol\":2419:2447  mstore(add(str, 0x20), sstr) */\n      mstore\n        /* \"@openzeppelin/contracts/utils/ShortStrings.sol\":2473:2476  str */\n      dup1\n        /* \"@openzeppelin/contracts/utils/ShortStrings.sol\":2466:2476  return str */\n      swap3\n      pop\n      pop\n      pop\n        /* \"@openzeppelin/contracts/utils/ShortStrings.sol\":2078:2483  function toString(ShortString sstr) internal pure returns (string memory) {... */\n      swap2\n      swap1\n      pop\n      jump\t// out\n        /* \"@openzeppelin/contracts/utils/ShortStrings.sol\":2555:2800  function byteLength(ShortString sstr) internal pure returns (uint256) {... */\n    tag_311:\n        /* \"@openzeppelin/contracts/utils/ShortStrings.sol\":2616:2623  uint256 */\n      0x00\n        /* \"@openzeppelin/contracts/utils/ShortStrings.sol\":2635:2649  uint256 result */\n      dup1\n        /* \"@openzeppelin/contracts/utils/ShortStrings.sol\":2688:2692  0xFF */\n      0xff\n        /* \"@openzeppelin/contracts/utils/ShortStrings.sol\":2679:2683  sstr */\n      dup4\n        /* \"@openzeppelin/contracts/utils/ShortStrings.sol\":2652:2685  uint256(ShortString.unwrap(sstr)) */\n      0x00\n      shr\n        /* \"@openzeppelin/contracts/utils/ShortStrings.sol\":2652:2692  uint256(ShortString.unwrap(sstr)) & 0xFF */\n      and\n        /* \"@openzeppelin/contracts/utils/ShortStrings.sol\":2635:2692  uint256 result = uint256(ShortString.unwrap(sstr)) & 0xFF */\n      swap1\n      pop\n        /* \"@openzeppelin/contracts/utils/ShortStrings.sol\":2715:2717  31 */\n      0x1f\n        /* \"@openzeppelin/contracts/utils/ShortStrings.sol\":2706:2712  result */\n      dup2\n        /* \"@openzeppelin/contracts/utils/ShortStrings.sol\":2706:2717  result > 31 */\n      gt\n        /* \"@openzeppelin/contracts/utils/ShortStrings.sol\":2702:2771  if (result > 31) {... */\n      iszero\n      tag_316\n      jumpi\n        /* \"@openzeppelin/contracts/utils/ShortStrings.sol\":2740:2760  InvalidShortString() */\n      mload(0x40)\n      0xb3512b0c00000000000000000000000000000000000000000000000000000000\n      dup2\n      mstore\n      0x04\n      add\n      mload(0x40)\n      dup1\n      swap2\n      sub\n      swap1\n      revert\n        /* \"@openzeppelin/contracts/utils/ShortStrings.sol\":2702:2771  if (result > 31) {... */\n    tag_316:\n        /* \"@openzeppelin/contracts/utils/ShortStrings.sol\":2787:2793  result */\n      dup1\n        /* \"@openzeppelin/contracts/utils/ShortStrings.sol\":2780:2793  return result */\n      swap2\n      pop\n      pop\n        /* \"@openzeppelin/contracts/utils/ShortStrings.sol\":2555:2800  function byteLength(ShortString sstr) internal pure returns (uint256) {... */\n      swap2\n      swap1\n      pop\n      jump\t// out\n        /* \"#utility.yul\":7:106   */\n    tag_317:\n        /* \"#utility.yul\":59:65   */\n      0x00\n        /* \"#utility.yul\":93:98   */\n      dup2\n        /* \"#utility.yul\":87:99   */\n      mload\n        /* \"#utility.yul\":77:99   */\n      swap1\n      pop\n        /* \"#utility.yul\":7:106   */\n      swap2\n      swap1\n      pop\n      jump\t// out\n        /* \"#utility.yul\":112:281   */\n    tag_318:\n        /* \"#utility.yul\":196:207   */\n      0x00\n        /* \"#utility.yul\":230:236   */\n      dup3\n        /* \"#utility.yul\":225:228   */\n      dup3\n        /* \"#utility.yul\":218:237   */\n      mstore\n        /* \"#utility.yul\":270:274   */\n      0x20\n        /* \"#utility.yul\":265:268   */\n      dup3\n        /* \"#utility.yul\":261:275   */\n      add\n        /* \"#utility.yul\":246:275   */\n      swap1\n      pop\n        /* \"#utility.yul\":112:281   */\n      swap3\n      swap2\n      pop\n      pop\n      jump\t// out\n        /* \"#utility.yul\":287:426   */\n    tag_319:\n        /* \"#utility.yul\":376:382   */\n      dup3\n        /* \"#utility.yul\":371:374   */\n      dup2\n        /* \"#utility.yul\":366:369   */\n      dup4\n        /* \"#utility.yul\":360:383   */\n      mcopy\n        /* \"#utility.yul\":417:418   */\n      0x00\n        /* \"#utility.yul\":408:414   */\n      dup4\n        /* \"#utility.yul\":403:406   */\n      dup4\n        /* \"#utility.yul\":399:415   */\n      add\n        /* \"#utility.yul\":392:419   */\n      mstore\n        /* \"#utility.yul\":287:426   */\n      pop\n      pop\n      pop\n      jump\t// out\n        /* \"#utility.yul\":432:534   */\n    tag_320:\n        /* \"#utility.yul\":473:479   */\n      0x00\n        /* \"#utility.yul\":524:526   */\n      0x1f\n        /* \"#utility.yul\":520:527   */\n      not\n        /* \"#utility.yul\":515:517   */\n      0x1f\n        /* \"#utility.yul\":508:513   */\n      dup4\n        /* \"#utility.yul\":504:518   */\n      add\n        /* \"#utility.yul\":500:528   */\n      and\n        /* \"#utility.yul\":490:528   */\n      swap1\n      pop\n        /* \"#utility.yul\":432:534   */\n      swap2\n      swap1\n      pop\n      jump\t// out\n        /* \"#utility.yul\":540:917   */\n    tag_321:\n        /* \"#utility.yul\":628:631   */\n      0x00\n        /* \"#utility.yul\":656:695   */\n      tag_363\n        /* \"#utility.yul\":689:694   */\n      dup3\n        /* \"#utility.yul\":656:695   */\n      tag_317\n      jump\t// in\n    tag_363:\n        /* \"#utility.yul\":711:782   */\n      tag_364\n        /* \"#utility.yul\":775:781   */\n      dup2\n        /* \"#utility.yul\":770:773   */\n      dup6\n        /* \"#utility.yul\":711:782   */\n      tag_318\n      jump\t// in\n    tag_364:\n        /* \"#utility.yul\":704:782   */\n      swap4\n      pop\n        /* \"#utility.yul\":791:856   */\n      tag_365\n        /* \"#utility.yul\":849:855   */\n      dup2\n        /* \"#utility.yul\":844:847   */\n      dup6\n        /* \"#utility.yul\":837:841   */\n      0x20\n        /* \"#utility.yul\":830:835   */\n      dup7\n        /* \"#utility.yul\":826:842   */\n      add\n        /* \"#utility.yul\":791:856   */\n      tag_319\n      jump\t// in\n    tag_365:\n        /* \"#utility.yul\":881:910   */\n      tag_366\n        /* \"#utility.yul\":903:909   */\n      dup2\n        /* \"#utility.yul\":881:910   */\n      tag_320\n      jump\t// in\n    tag_366:\n        /* \"#utility.yul\":876:879   */\n      dup5\n        /* \"#utility.yul\":872:911   */\n      add\n        /* \"#utility.yul\":865:911   */\n      swap2\n      pop\n        /* \"#utility.yul\":632:917   */\n      pop\n        /* \"#utility.yul\":540:917   */\n      swap3\n      swap2\n      pop\n      pop\n      jump\t// out\n        /* \"#utility.yul\":923:1236   */\n    tag_28:\n        /* \"#utility.yul\":1036:1040   */\n      0x00\n        /* \"#utility.yul\":1074:1076   */\n      0x20\n        /* \"#utility.yul\":1063:1072   */\n      dup3\n        /* \"#utility.yul\":1059:1077   */\n      add\n        /* \"#utility.yul\":1051:1077   */\n      swap1\n      pop\n        /* \"#utility.yul\":1123:1132   */\n      dup2\n        /* \"#utility.yul\":1117:1121   */\n      dup2\n        /* \"#utility.yul\":1113:1133   */\n      sub\n        /* \"#utility.yul\":1109:1110   */\n      0x00\n        /* \"#utility.yul\":1098:1107   */\n      dup4\n        /* \"#utility.yul\":1094:1111   */\n      add\n        /* \"#utility.yul\":1087:1134   */\n      mstore\n        /* \"#utility.yul\":1151:1229   */\n      tag_368\n        /* \"#utility.yul\":1224:1228   */\n      dup2\n        /* \"#utility.yul\":1215:1221   */\n      dup5\n        /* \"#utility.yul\":1151:1229   */\n      tag_321\n      jump\t// in\n    tag_368:\n        /* \"#utility.yul\":1143:1229   */\n      swap1\n      pop\n        /* \"#utility.yul\":923:1236   */\n      swap3\n      swap2\n      pop\n      pop\n      jump\t// out\n        /* \"#utility.yul\":1323:1440   */\n    tag_323:\n        /* \"#utility.yul\":1432:1433   */\n      0x00\n        /* \"#utility.yul\":1429:1430   */\n      dup1\n        /* \"#utility.yul\":1422:1434   */\n      revert\n        /* \"#utility.yul\":1569:1695   */\n    tag_325:\n        /* \"#utility.yul\":1606:1613   */\n      0x00\n        /* \"#utility.yul\":1646:1688   */\n      0xffffffffffffffffffffffffffffffffffffffff\n        /* \"#utility.yul\":1639:1644   */\n      dup3\n        /* \"#utility.yul\":1635:1689   */\n      and\n        /* \"#utility.yul\":1624:1689   */\n      swap1\n      pop\n        /* \"#utility.yul\":1569:1695   */\n      swap2\n      swap1\n      pop\n      jump\t// out\n        /* \"#utility.yul\":1701:1797   */\n    tag_326:\n        /* \"#utility.yul\":1738:1745   */\n      0x00\n        /* \"#utility.yul\":1767:1791   */\n      tag_374\n        /* \"#utility.yul\":1785:1790   */\n      dup3\n        /* \"#utility.yul\":1767:1791   */\n      tag_325\n      jump\t// in\n    tag_374:\n        /* \"#utility.yul\":1756:1791   */\n      swap1\n      pop\n        /* \"#utility.yul\":1701:1797   */\n      swap2\n      swap1\n      pop\n      jump\t// out\n        /* \"#utility.yul\":1803:1925   */\n    tag_327:\n        /* \"#utility.yul\":1876:1900   */\n      tag_376\n        /* \"#utility.yul\":1894:1899   */\n      dup2\n        /* \"#utility.yul\":1876:1900   */\n      tag_326\n      jump\t// in\n    tag_376:\n        /* \"#utility.yul\":1869:1874   */\n      dup2\n        /* \"#utility.yul\":1866:1901   */\n      eq\n        /* \"#utility.yul\":1856:1919   */\n      tag_377\n      jumpi\n        /* \"#utility.yul\":1915:1916   */\n      0x00\n        /* \"#utility.yul\":1912:1913   */\n      dup1\n        /* \"#utility.yul\":1905:1917   */\n      revert\n        /* \"#utility.yul\":1856:1919   */\n    tag_377:\n        /* \"#utility.yul\":1803:1925   */\n      pop\n      jump\t// out\n        /* \"#utility.yul\":1931:2070   */\n    tag_328:\n        /* \"#utility.yul\":1977:1982   */\n      0x00\n        /* \"#utility.yul\":2015:2021   */\n      dup2\n        /* \"#utility.yul\":2002:2022   */\n      calldataload\n        /* \"#utility.yul\":1993:2022   */\n      swap1\n      pop\n        /* \"#utility.yul\":2031:2064   */\n      tag_379\n        /* \"#utility.yul\":2058:2063   */\n      dup2\n        /* \"#utility.yul\":2031:2064   */\n      tag_327\n      jump\t// in\n    tag_379:\n        /* \"#utility.yul\":1931:2070   */\n      swap3\n      swap2\n      pop\n      pop\n      jump\t// out\n        /* \"#utility.yul\":2076:2153   */\n    tag_329:\n        /* \"#utility.yul\":2113:2120   */\n      0x00\n        /* \"#utility.yul\":2142:2147   */\n      dup2\n        /* \"#utility.yul\":2131:2147   */\n      swap1\n      pop\n        /* \"#utility.yul\":2076:2153   */\n      swap2\n      swap1\n      pop\n      jump\t// out\n        /* \"#utility.yul\":2159:2281   */\n    tag_330:\n        /* \"#utility.yul\":2232:2256   */\n      tag_382\n        /* \"#utility.yul\":2250:2255   */\n      dup2\n        /* \"#utility.yul\":2232:2256   */\n      tag_329\n      jump\t// in\n    tag_382:\n        /* \"#utility.yul\":2225:2230   */\n      dup2\n        /* \"#utility.yul\":2222:2257   */\n      eq\n        /* \"#utility.yul\":2212:2275   */\n      tag_383\n      jumpi\n        /* \"#utility.yul\":2271:2272   */\n      0x00\n        /* \"#utility.yul\":2268:2269   */\n      dup1\n        /* \"#utility.yul\":2261:2273   */\n      revert\n        /* \"#utility.yul\":2212:2275   */\n    tag_383:\n        /* \"#utility.yul\":2159:2281   */\n      pop\n      jump\t// out\n        /* \"#utility.yul\":2287:2426   */\n    tag_331:\n        /* \"#utility.yul\":2333:2338   */\n      0x00\n        /* \"#utility.yul\":2371:2377   */\n      dup2\n        /* \"#utility.yul\":2358:2378   */\n      calldataload\n        /* \"#utility.yul\":2349:2378   */\n      swap1\n      pop\n        /* \"#utility.yul\":2387:2420   */\n      tag_385\n        /* \"#utility.yul\":2414:2419   */\n      dup2\n        /* \"#utility.yul\":2387:2420   */\n      tag_330\n      jump\t// in\n    tag_385:\n        /* \"#utility.yul\":2287:2426   */\n      swap3\n      swap2\n      pop\n      pop\n      jump\t// out\n        /* \"#utility.yul\":2432:2906   */\n    tag_31:\n        /* \"#utility.yul\":2500:2506   */\n      0x00\n        /* \"#utility.yul\":2508:2514   */\n      dup1\n        /* \"#utility.yul\":2557:2559   */\n      0x40\n        /* \"#utility.yul\":2545:2554   */\n      dup4\n        /* \"#utility.yul\":2536:2543   */\n      dup6\n        /* \"#utility.yul\":2532:2555   */\n      sub\n        /* \"#utility.yul\":2528:2560   */\n      slt\n        /* \"#utility.yul\":2525:2644   */\n      iszero\n      tag_387\n      jumpi\n        /* \"#utility.yul\":2563:2642   */\n      tag_388\n      tag_323\n      jump\t// in\n    tag_388:\n        /* \"#utility.yul\":2525:2644   */\n    tag_387:\n        /* \"#utility.yul\":2683:2684   */\n      0x00\n        /* \"#utility.yul\":2708:2761   */\n      tag_389\n        /* \"#utility.yul\":2753:2760   */\n      dup6\n        /* \"#utility.yul\":2744:2750   */\n      dup3\n        /* \"#utility.yul\":2733:2742   */\n      dup7\n        /* \"#utility.yul\":2729:2751   */\n      add\n        /* \"#utility.yul\":2708:2761   */\n      tag_328\n      jump\t// in\n    tag_389:\n        /* \"#utility.yul\":2698:2761   */\n      swap3\n      pop\n        /* \"#utility.yul\":2654:2771   */\n      pop\n        /* \"#utility.yul\":2810:2812   */\n      0x20\n        /* \"#utility.yul\":2836:2889   */\n      tag_390\n        /* \"#utility.yul\":2881:2888   */\n      dup6\n        /* \"#utility.yul\":2872:2878   */\n      dup3\n        /* \"#utility.yul\":2861:2870   */\n      dup7\n        /* \"#utility.yul\":2857:2879   */\n      add\n        /* \"#utility.yul\":2836:2889   */\n      tag_331\n      jump\t// in\n    tag_390:\n        /* \"#utility.yul\":2826:2889   */\n      swap2\n      pop\n        /* \"#utility.yul\":2781:2899   */\n      pop\n        /* \"#utility.yul\":2432:2906   */\n      swap3\n      pop\n      swap3\n      swap1\n      pop\n      jump\t// out\n        /* \"#utility.yul\":2912:3002   */\n    tag_332:\n        /* \"#utility.yul\":2946:2953   */\n      0x00\n        /* \"#utility.yul\":2989:2994   */\n      dup2\n        /* \"#utility.yul\":2982:2995   */\n      iszero\n        /* \"#utility.yul\":2975:2996   */\n      iszero\n        /* \"#utility.yul\":2964:2996   */\n      swap1\n      pop\n        /* \"#utility.yul\":2912:3002   */\n      swap2\n      swap1\n      pop\n      jump\t// out\n        /* \"#utility.yul\":3008:3117   */\n    tag_333:\n        /* \"#utility.yul\":3089:3110   */\n      tag_393\n        /* \"#utility.yul\":3104:3109   */\n      dup2\n        /* \"#utility.yul\":3089:3110   */\n      tag_332\n      jump\t// in\n    tag_393:\n        /* \"#utility.yul\":3084:3087   */\n      dup3\n        /* \"#utility.yul\":3077:3111   */\n      mstore\n        /* \"#utility.yul\":3008:3117   */\n      pop\n      pop\n      jump\t// out\n        /* \"#utility.yul\":3123:3333   */\n    tag_34:\n        /* \"#utility.yul\":3210:3214   */\n      0x00\n        /* \"#utility.yul\":3248:3250   */\n      0x20\n        /* \"#utility.yul\":3237:3246   */\n      dup3\n        /* \"#utility.yul\":3233:3251   */\n      add\n        /* \"#utility.yul\":3225:3251   */\n      swap1\n      pop\n        /* \"#utility.yul\":3261:3326   */\n      tag_395\n        /* \"#utility.yul\":3323:3324   */\n      0x00\n        /* \"#utility.yul\":3312:3321   */\n      dup4\n        /* \"#utility.yul\":3308:3325   */\n      add\n        /* \"#utility.yul\":3299:3305   */\n      dup5\n        /* \"#utility.yul\":3261:3326   */\n      tag_333\n      jump\t// in\n    tag_395:\n        /* \"#utility.yul\":3123:3333   */\n      swap3\n      swap2\n      pop\n      pop\n      jump\t// out\n        /* \"#utility.yul\":3339:3457   */\n    tag_334:\n        /* \"#utility.yul\":3426:3450   */\n      tag_397\n        /* \"#utility.yul\":3444:3449   */\n      dup2\n        /* \"#utility.yul\":3426:3450   */\n      tag_329\n      jump\t// in\n    tag_397:\n        /* \"#utility.yul\":3421:3424   */\n      dup3\n        /* \"#utility.yul\":3414:3451   */\n      mstore\n        /* \"#utility.yul\":3339:3457   */\n      pop\n      pop\n      jump\t// out\n        /* \"#utility.yul\":3463:3685   */\n    tag_38:\n        /* \"#utility.yul\":3556:3560   */\n      0x00\n        /* \"#utility.yul\":3594:3596   */\n      0x20\n        /* \"#utility.yul\":3583:3592   */\n      dup3\n        /* \"#utility.yul\":3579:3597   */\n      add\n        /* \"#utility.yul\":3571:3597   */\n      swap1\n      pop\n        /* \"#utility.yul\":3607:3678   */\n      tag_399\n        /* \"#utility.yul\":3675:3676   */\n      0x00\n        /* \"#utility.yul\":3664:3673   */\n      dup4\n        /* \"#utility.yul\":3660:3677   */\n      add\n        /* \"#utility.yul\":3651:3657   */\n      dup5\n        /* \"#utility.yul\":3607:3678   */\n      tag_334\n      jump\t// in\n    tag_399:\n        /* \"#utility.yul\":3463:3685   */\n      swap3\n      swap2\n      pop\n      pop\n      jump\t// out\n        /* \"#utility.yul\":3691:4310   */\n    tag_41:\n        /* \"#utility.yul\":3768:3774   */\n      0x00\n        /* \"#utility.yul\":3776:3782   */\n      dup1\n        /* \"#utility.yul\":3784:3790   */\n      0x00\n        /* \"#utility.yul\":3833:3835   */\n      0x60\n        /* \"#utility.yul\":3821:3830   */\n      dup5\n        /* \"#utility.yul\":3812:3819   */\n      dup7\n        /* \"#utility.yul\":3808:3831   */\n      sub\n        /* \"#utility.yul\":3804:3836   */\n      slt\n        /* \"#utility.yul\":3801:3920   */\n      iszero\n      tag_401\n      jumpi\n        /* \"#utility.yul\":3839:3918   */\n      tag_402\n      tag_323\n      jump\t// in\n    tag_402:\n        /* \"#utility.yul\":3801:3920   */\n    tag_401:\n        /* \"#utility.yul\":3959:3960   */\n      0x00\n        /* \"#utility.yul\":3984:4037   */\n      tag_403\n        /* \"#utility.yul\":4029:4036   */\n      dup7\n        /* \"#utility.yul\":4020:4026   */\n      dup3\n        /* \"#utility.yul\":4009:4018   */\n      dup8\n        /* \"#utility.yul\":4005:4027   */\n      add\n        /* \"#utility.yul\":3984:4037   */\n      tag_328\n      jump\t// in\n    tag_403:\n        /* \"#utility.yul\":3974:4037   */\n      swap4\n      pop\n        /* \"#utility.yul\":3930:4047   */\n      pop\n        /* \"#utility.yul\":4086:4088   */\n      0x20\n        /* \"#utility.yul\":4112:4165   */\n      tag_404\n        /* \"#utility.yul\":4157:4164   */\n      dup7\n        /* \"#utility.yul\":4148:4154   */\n      dup3\n        /* \"#utility.yul\":4137:4146   */\n      dup8\n        /* \"#utility.yul\":4133:4155   */\n      add\n        /* \"#utility.yul\":4112:4165   */\n      tag_328\n      jump\t// in\n    tag_404:\n        /* \"#utility.yul\":4102:4165   */\n      swap3\n      pop\n        /* \"#utility.yul\":4057:4175   */\n      pop\n        /* \"#utility.yul\":4214:4216   */\n      0x40\n        /* \"#utility.yul\":4240:4293   */\n      tag_405\n        /* \"#utility.yul\":4285:4292   */\n      dup7\n        /* \"#utility.yul\":4276:4282   */\n      dup3\n        /* \"#utility.yul\":4265:4274   */\n      dup8\n        /* \"#utility.yul\":4261:4283   */\n      add\n        /* \"#utility.yul\":4240:4293   */\n      tag_331\n      jump\t// in\n    tag_405:\n        /* \"#utility.yul\":4230:4293   */\n      swap2\n      pop\n        /* \"#utility.yul\":4185:4303   */\n      pop\n        /* \"#utility.yul\":3691:4310   */\n      swap3\n      pop\n      swap3\n      pop\n      swap3\n      jump\t// out\n        /* \"#utility.yul\":4316:4402   */\n    tag_335:\n        /* \"#utility.yul\":4351:4358   */\n      0x00\n        /* \"#utility.yul\":4391:4395   */\n      0xff\n        /* \"#utility.yul\":4384:4389   */\n      dup3\n        /* \"#utility.yul\":4380:4396   */\n      and\n        /* \"#utility.yul\":4369:4396   */\n      swap1\n      pop\n        /* \"#utility.yul\":4316:4402   */\n      swap2\n      swap1\n      pop\n      jump\t// out\n        /* \"#utility.yul\":4408:4520   */\n    tag_336:\n        /* \"#utility.yul\":4491:4513   */\n      tag_408\n        /* \"#utility.yul\":4507:4512   */\n      dup2\n        /* \"#utility.yul\":4491:4513   */\n      tag_335\n      jump\t// in\n    tag_408:\n        /* \"#utility.yul\":4486:4489   */\n      dup3\n        /* \"#utility.yul\":4479:4514   */\n      mstore\n        /* \"#utility.yul\":4408:4520   */\n      pop\n      pop\n      jump\t// out\n        /* \"#utility.yul\":4526:4740   */\n    tag_47:\n        /* \"#utility.yul\":4615:4619   */\n      0x00\n        /* \"#utility.yul\":4653:4655   */\n      0x20\n        /* \"#utility.yul\":4642:4651   */\n      dup3\n        /* \"#utility.yul\":4638:4656   */\n      add\n        /* \"#utility.yul\":4630:4656   */\n      swap1\n      pop\n        /* \"#utility.yul\":4666:4733   */\n      tag_410\n        /* \"#utility.yul\":4730:4731   */\n      0x00\n        /* \"#utility.yul\":4719:4728   */\n      dup4\n        /* \"#utility.yul\":4715:4732   */\n      add\n        /* \"#utility.yul\":4706:4712   */\n      dup5\n        /* \"#utility.yul\":4666:4733   */\n      tag_336\n      jump\t// in\n    tag_410:\n        /* \"#utility.yul\":4526:4740   */\n      swap3\n      swap2\n      pop\n      pop\n      jump\t// out\n        /* \"#utility.yul\":4746:4823   */\n    tag_337:\n        /* \"#utility.yul\":4783:4790   */\n      0x00\n        /* \"#utility.yul\":4812:4817   */\n      dup2\n        /* \"#utility.yul\":4801:4817   */\n      swap1\n      pop\n        /* \"#utility.yul\":4746:4823   */\n      swap2\n      swap1\n      pop\n      jump\t// out\n        /* \"#utility.yul\":4829:4947   */\n    tag_338:\n        /* \"#utility.yul\":4916:4940   */\n      tag_413\n        /* \"#utility.yul\":4934:4939   */\n      dup2\n        /* \"#utility.yul\":4916:4940   */\n      tag_337\n      jump\t// in\n    tag_413:\n        /* \"#utility.yul\":4911:4914   */\n      dup3\n        /* \"#utility.yul\":4904:4941   */\n      mstore\n        /* \"#utility.yul\":4829:4947   */\n      pop\n      pop\n      jump\t// out\n        /* \"#utility.yul\":4953:5175   */\n    tag_51:\n        /* \"#utility.yul\":5046:5050   */\n      0x00\n        /* \"#utility.yul\":5084:5086   */\n      0x20\n        /* \"#utility.yul\":5073:5082   */\n      dup3\n        /* \"#utility.yul\":5069:5087   */\n      add\n        /* \"#utility.yul\":5061:5087   */\n      swap1\n      pop\n        /* \"#utility.yul\":5097:5168   */\n      tag_415\n        /* \"#utility.yul\":5165:5166   */\n      0x00\n        /* \"#utility.yul\":5154:5163   */\n      dup4\n        /* \"#utility.yul\":5150:5167   */\n      add\n        /* \"#utility.yul\":5141:5147   */\n      dup5\n        /* \"#utility.yul\":5097:5168   */\n      tag_338\n      jump\t// in\n    tag_415:\n        /* \"#utility.yul\":4953:5175   */\n      swap3\n      swap2\n      pop\n      pop\n      jump\t// out\n        /* \"#utility.yul\":5181:5510   */\n    tag_57:\n        /* \"#utility.yul\":5240:5246   */\n      0x00\n        /* \"#utility.yul\":5289:5291   */\n      0x20\n        /* \"#utility.yul\":5277:5286   */\n      dup3\n        /* \"#utility.yul\":5268:5275   */\n      dup5\n        /* \"#utility.yul\":5264:5287   */\n      sub\n        /* \"#utility.yul\":5260:5292   */\n      slt\n        /* \"#utility.yul\":5257:5376   */\n      iszero\n      tag_417\n      jumpi\n        /* \"#utility.yul\":5295:5374   */\n      tag_418\n      tag_323\n      jump\t// in\n    tag_418:\n        /* \"#utility.yul\":5257:5376   */\n    tag_417:\n        /* \"#utility.yul\":5415:5416   */\n      0x00\n        /* \"#utility.yul\":5440:5493   */\n      tag_419\n        /* \"#utility.yul\":5485:5492   */\n      dup5\n        /* \"#utility.yul\":5476:5482   */\n      dup3\n        /* \"#utility.yul\":5465:5474   */\n      dup6\n        /* \"#utility.yul\":5461:5483   */\n      add\n        /* \"#utility.yul\":5440:5493   */\n      tag_331\n      jump\t// in\n    tag_419:\n        /* \"#utility.yul\":5430:5493   */\n      swap2\n      pop\n        /* \"#utility.yul\":5386:5503   */\n      pop\n        /* \"#utility.yul\":5181:5510   */\n      swap3\n      swap2\n      pop\n      pop\n      jump\t// out\n        /* \"#utility.yul\":5516:5845   */\n    tag_61:\n        /* \"#utility.yul\":5575:5581   */\n      0x00\n        /* \"#utility.yul\":5624:5626   */\n      0x20\n        /* \"#utility.yul\":5612:5621   */\n      dup3\n        /* \"#utility.yul\":5603:5610   */\n      dup5\n        /* \"#utility.yul\":5599:5622   */\n      sub\n        /* \"#utility.yul\":5595:5627   */\n      slt\n        /* \"#utility.yul\":5592:5711   */\n      iszero\n      tag_421\n      jumpi\n        /* \"#utility.yul\":5630:5709   */\n      tag_422\n      tag_323\n      jump\t// in\n    tag_422:\n        /* \"#utility.yul\":5592:5711   */\n    tag_421:\n        /* \"#utility.yul\":5750:5751   */\n      0x00\n        /* \"#utility.yul\":5775:5828   */\n      tag_423\n        /* \"#utility.yul\":5820:5827   */\n      dup5\n        /* \"#utility.yul\":5811:5817   */\n      dup3\n        /* \"#utility.yul\":5800:5809   */\n      dup6\n        /* \"#utility.yul\":5796:5818   */\n      add\n        /* \"#utility.yul\":5775:5828   */\n      tag_328\n      jump\t// in\n    tag_423:\n        /* \"#utility.yul\":5765:5828   */\n      swap2\n      pop\n        /* \"#utility.yul\":5721:5838   */\n      pop\n        /* \"#utility.yul\":5516:5845   */\n      swap3\n      swap2\n      pop\n      pop\n      jump\t// out\n        /* \"#utility.yul\":5851:6000   */\n    tag_339:\n        /* \"#utility.yul\":5887:5894   */\n      0x00\n        /* \"#utility.yul\":5927:5993   */\n      0xff00000000000000000000000000000000000000000000000000000000000000\n        /* \"#utility.yul\":5920:5925   */\n      dup3\n        /* \"#utility.yul\":5916:5994   */\n      and\n        /* \"#utility.yul\":5905:5994   */\n      swap1\n      pop\n        /* \"#utility.yul\":5851:6000   */\n      swap2\n      swap1\n      pop\n      jump\t// out\n        /* \"#utility.yul\":6006:6121   */\n    tag_340:\n        /* \"#utility.yul\":6091:6114   */\n      tag_426\n        /* \"#utility.yul\":6108:6113   */\n      dup2\n        /* \"#utility.yul\":6091:6114   */\n      tag_339\n      jump\t// in\n    tag_426:\n        /* \"#utility.yul\":6086:6089   */\n      dup3\n        /* \"#utility.yul\":6079:6115   */\n      mstore\n        /* \"#utility.yul\":6006:6121   */\n      pop\n      pop\n      jump\t// out\n        /* \"#utility.yul\":6127:6245   */\n    tag_341:\n        /* \"#utility.yul\":6214:6238   */\n      tag_428\n        /* \"#utility.yul\":6232:6237   */\n      dup2\n        /* \"#utility.yul\":6214:6238   */\n      tag_326\n      jump\t// in\n    tag_428:\n        /* \"#utility.yul\":6209:6212   */\n      dup3\n        /* \"#utility.yul\":6202:6239   */\n      mstore\n        /* \"#utility.yul\":6127:6245   */\n      pop\n      pop\n      jump\t// out\n        /* \"#utility.yul\":6251:6365   */\n    tag_342:\n        /* \"#utility.yul\":6318:6324   */\n      0x00\n        /* \"#utility.yul\":6352:6357   */\n      dup2\n        /* \"#utility.yul\":6346:6358   */\n      mload\n        /* \"#utility.yul\":6336:6358   */\n      swap1\n      pop\n        /* \"#utility.yul\":6251:6365   */\n      swap2\n      swap1\n      pop\n      jump\t// out\n        /* \"#utility.yul\":6371:6555   */\n    tag_343:\n        /* \"#utility.yul\":6470:6481   */\n      0x00\n        /* \"#utility.yul\":6504:6510   */\n      dup3\n        /* \"#utility.yul\":6499:6502   */\n      dup3\n        /* \"#utility.yul\":6492:6511   */\n      mstore\n        /* \"#utility.yul\":6544:6548   */\n      0x20\n        /* \"#utility.yul\":6539:6542   */\n      dup3\n        /* \"#utility.yul\":6535:6549   */\n      add\n        /* \"#utility.yul\":6520:6549   */\n      swap1\n      pop\n        /* \"#utility.yul\":6371:6555   */\n      swap3\n      swap2\n      pop\n      pop\n      jump\t// out\n        /* \"#utility.yul\":6561:6693   */\n    tag_344:\n        /* \"#utility.yul\":6628:6632   */\n      0x00\n        /* \"#utility.yul\":6651:6654   */\n      dup2\n        /* \"#utility.yul\":6643:6654   */\n      swap1\n      pop\n        /* \"#utility.yul\":6681:6685   */\n      0x20\n        /* \"#utility.yul\":6676:6679   */\n      dup3\n        /* \"#utility.yul\":6672:6686   */\n      add\n        /* \"#utility.yul\":6664:6686   */\n      swap1\n      pop\n        /* \"#utility.yul\":6561:6693   */\n      swap2\n      swap1\n      pop\n      jump\t// out\n        /* \"#utility.yul\":6699:6807   */\n    tag_345:\n        /* \"#utility.yul\":6776:6800   */\n      tag_433\n        /* \"#utility.yul\":6794:6799   */\n      dup2\n        /* \"#utility.yul\":6776:6800   */\n      tag_329\n      jump\t// in\n    tag_433:\n        /* \"#utility.yul\":6771:6774   */\n      dup3\n        /* \"#utility.yul\":6764:6801   */\n      mstore\n        /* \"#utility.yul\":6699:6807   */\n      pop\n      pop\n      jump\t// out\n        /* \"#utility.yul\":6813:6992   */\n    tag_346:\n        /* \"#utility.yul\":6882:6892   */\n      0x00\n        /* \"#utility.yul\":6903:6949   */\n      tag_435\n        /* \"#utility.yul\":6945:6948   */\n      dup4\n        /* \"#utility.yul\":6937:6943   */\n      dup4\n        /* \"#utility.yul\":6903:6949   */\n      tag_345\n      jump\t// in\n    tag_435:\n        /* \"#utility.yul\":6981:6985   */\n      0x20\n        /* \"#utility.yul\":6976:6979   */\n      dup4\n        /* \"#utility.yul\":6972:6986   */\n      add\n        /* \"#utility.yul\":6958:6986   */\n      swap1\n      pop\n        /* \"#utility.yul\":6813:6992   */\n      swap3\n      swap2\n      pop\n      pop\n      jump\t// out\n        /* \"#utility.yul\":6998:7111   */\n    tag_347:\n        /* \"#utility.yul\":7068:7072   */\n      0x00\n        /* \"#utility.yul\":7100:7104   */\n      0x20\n        /* \"#utility.yul\":7095:7098   */\n      dup3\n        /* \"#utility.yul\":7091:7105   */\n      add\n        /* \"#utility.yul\":7083:7105   */\n      swap1\n      pop\n        /* \"#utility.yul\":6998:7111   */\n      swap2\n      swap1\n      pop\n      jump\t// out\n        /* \"#utility.yul\":7147:7879   */\n    tag_348:\n        /* \"#utility.yul\":7266:7269   */\n      0x00\n        /* \"#utility.yul\":7295:7349   */\n      tag_438\n        /* \"#utility.yul\":7343:7348   */\n      dup3\n        /* \"#utility.yul\":7295:7349   */\n      tag_342\n      jump\t// in\n    tag_438:\n        /* \"#utility.yul\":7365:7451   */\n      tag_439\n        /* \"#utility.yul\":7444:7450   */\n      dup2\n        /* \"#utility.yul\":7439:7442   */\n      dup6\n        /* \"#utility.yul\":7365:7451   */\n      tag_343\n      jump\t// in\n    tag_439:\n        /* \"#utility.yul\":7358:7451   */\n      swap4\n      pop\n        /* \"#utility.yul\":7475:7531   */\n      tag_440\n        /* \"#utility.yul\":7525:7530   */\n      dup4\n        /* \"#utility.yul\":7475:7531   */\n      tag_344\n      jump\t// in\n    tag_440:\n        /* \"#utility.yul\":7554:7561   */\n      dup1\n        /* \"#utility.yul\":7585:7586   */\n      0x00\n        /* \"#utility.yul\":7570:7854   */\n    tag_441:\n        /* \"#utility.yul\":7595:7601   */\n      dup4\n        /* \"#utility.yul\":7592:7593   */\n      dup2\n        /* \"#utility.yul\":7589:7602   */\n      lt\n        /* \"#utility.yul\":7570:7854   */\n      iszero\n      tag_443\n      jumpi\n        /* \"#utility.yul\":7671:7677   */\n      dup2\n        /* \"#utility.yul\":7665:7678   */\n      mload\n        /* \"#utility.yul\":7698:7761   */\n      tag_444\n        /* \"#utility.yul\":7757:7760   */\n      dup9\n        /* \"#utility.yul\":7742:7755   */\n      dup3\n        /* \"#utility.yul\":7698:7761   */\n      tag_346\n      jump\t// in\n    tag_444:\n        /* \"#utility.yul\":7691:7761   */\n      swap8\n      pop\n        /* \"#utility.yul\":7784:7844   */\n      tag_445\n        /* \"#utility.yul\":7837:7843   */\n      dup4\n        /* \"#utility.yul\":7784:7844   */\n      tag_347\n      jump\t// in\n    tag_445:\n        /* \"#utility.yul\":7774:7844   */\n      swap3\n      pop\n        /* \"#utility.yul\":7630:7854   */\n      pop\n        /* \"#utility.yul\":7617:7618   */\n      0x01\n        /* \"#utility.yul\":7614:7615   */\n      dup2\n        /* \"#utility.yul\":7610:7619   */\n      add\n        /* \"#utility.yul\":7605:7619   */\n      swap1\n      pop\n        /* \"#utility.yul\":7570:7854   */\n      jump(tag_441)\n    tag_443:\n        /* \"#utility.yul\":7574:7588   */\n      pop\n        /* \"#utility.yul\":7870:7873   */\n      dup6\n        /* \"#utility.yul\":7863:7873   */\n      swap4\n      pop\n        /* \"#utility.yul\":7271:7879   */\n      pop\n      pop\n      pop\n        /* \"#utility.yul\":7147:7879   */\n      swap3\n      swap2\n      pop\n      pop\n      jump\t// out\n        /* \"#utility.yul\":7885:9100   */\n    tag_76:\n        /* \"#utility.yul\":8234:8238   */\n      0x00\n        /* \"#utility.yul\":8272:8275   */\n      0xe0\n        /* \"#utility.yul\":8261:8270   */\n      dup3\n        /* \"#utility.yul\":8257:8276   */\n      add\n        /* \"#utility.yul\":8249:8276   */\n      swap1\n      pop\n        /* \"#utility.yul\":8286:8355   */\n      tag_447\n        /* \"#utility.yul\":8352:8353   */\n      0x00\n        /* \"#utility.yul\":8341:8350   */\n      dup4\n        /* \"#utility.yul\":8337:8354   */\n      add\n        /* \"#utility.yul\":8328:8334   */\n      dup11\n        /* \"#utility.yul\":8286:8355   */\n      tag_340\n      jump\t// in\n    tag_447:\n        /* \"#utility.yul\":8402:8411   */\n      dup2\n        /* \"#utility.yul\":8396:8400   */\n      dup2\n        /* \"#utility.yul\":8392:8412   */\n      sub\n        /* \"#utility.yul\":8387:8389   */\n      0x20\n        /* \"#utility.yul\":8376:8385   */\n      dup4\n        /* \"#utility.yul\":8372:8390   */\n      add\n        /* \"#utility.yul\":8365:8413   */\n      mstore\n        /* \"#utility.yul\":8430:8508   */\n      tag_448\n        /* \"#utility.yul\":8503:8507   */\n      dup2\n        /* \"#utility.yul\":8494:8500   */\n      dup10\n        /* \"#utility.yul\":8430:8508   */\n      tag_321\n      jump\t// in\n    tag_448:\n        /* \"#utility.yul\":8422:8508   */\n      swap1\n      pop\n        /* \"#utility.yul\":8555:8564   */\n      dup2\n        /* \"#utility.yul\":8549:8553   */\n      dup2\n        /* \"#utility.yul\":8545:8565   */\n      sub\n        /* \"#utility.yul\":8540:8542   */\n      0x40\n        /* \"#utility.yul\":8529:8538   */\n      dup4\n        /* \"#utility.yul\":8525:8543   */\n      add\n        /* \"#utility.yul\":8518:8566   */\n      mstore\n        /* \"#utility.yul\":8583:8661   */\n      tag_449\n        /* \"#utility.yul\":8656:8660   */\n      dup2\n        /* \"#utility.yul\":8647:8653   */\n      dup9\n        /* \"#utility.yul\":8583:8661   */\n      tag_321\n      jump\t// in\n    tag_449:\n        /* \"#utility.yul\":8575:8661   */\n      swap1\n      pop\n        /* \"#utility.yul\":8671:8743   */\n      tag_450\n        /* \"#utility.yul\":8739:8741   */\n      0x60\n        /* \"#utility.yul\":8728:8737   */\n      dup4\n        /* \"#utility.yul\":8724:8742   */\n      add\n        /* \"#utility.yul\":8715:8721   */\n      dup8\n        /* \"#utility.yul\":8671:8743   */\n      tag_334\n      jump\t// in\n    tag_450:\n        /* \"#utility.yul\":8753:8826   */\n      tag_451\n        /* \"#utility.yul\":8821:8824   */\n      0x80\n        /* \"#utility.yul\":8810:8819   */\n      dup4\n        /* \"#utility.yul\":8806:8825   */\n      add\n        /* \"#utility.yul\":8797:8803   */\n      dup7\n        /* \"#utility.yul\":8753:8826   */\n      tag_341\n      jump\t// in\n    tag_451:\n        /* \"#utility.yul\":8836:8909   */\n      tag_452\n        /* \"#utility.yul\":8904:8907   */\n      0xa0\n        /* \"#utility.yul\":8893:8902   */\n      dup4\n        /* \"#utility.yul\":8889:8908   */\n      add\n        /* \"#utility.yul\":8880:8886   */\n      dup6\n        /* \"#utility.yul\":8836:8909   */\n      tag_338\n      jump\t// in\n    tag_452:\n        /* \"#utility.yul\":8957:8966   */\n      dup2\n        /* \"#utility.yul\":8951:8955   */\n      dup2\n        /* \"#utility.yul\":8947:8967   */\n      sub\n        /* \"#utility.yul\":8941:8944   */\n      0xc0\n        /* \"#utility.yul\":8930:8939   */\n      dup4\n        /* \"#utility.yul\":8926:8945   */\n      add\n        /* \"#utility.yul\":8919:8968   */\n      mstore\n        /* \"#utility.yul\":8985:9093   */\n      tag_453\n        /* \"#utility.yul\":9088:9092   */\n      dup2\n        /* \"#utility.yul\":9079:9085   */\n      dup5\n        /* \"#utility.yul\":8985:9093   */\n      tag_348\n      jump\t// in\n    tag_453:\n        /* \"#utility.yul\":8977:9093   */\n      swap1\n      pop\n        /* \"#utility.yul\":7885:9100   */\n      swap9\n      swap8\n      pop\n      pop\n      pop\n      pop\n      pop\n      pop\n      pop\n      pop\n      jump\t// out\n        /* \"#utility.yul\":9106:9328   */\n    tag_80:\n        /* \"#utility.yul\":9199:9203   */\n      0x00\n        /* \"#utility.yul\":9237:9239   */\n      0x20\n        /* \"#utility.yul\":9226:9235   */\n      dup3\n        /* \"#utility.yul\":9222:9240   */\n      add\n        /* \"#utility.yul\":9214:9240   */\n      swap1\n      pop\n        /* \"#utility.yul\":9250:9321   */\n      tag_455\n        /* \"#utility.yul\":9318:9319   */\n      0x00\n        /* \"#utility.yul\":9307:9316   */\n      dup4\n        /* \"#utility.yul\":9303:9320   */\n      add\n        /* \"#utility.yul\":9294:9300   */\n      dup5\n        /* \"#utility.yul\":9250:9321   */\n      tag_341\n      jump\t// in\n    tag_455:\n        /* \"#utility.yul\":9106:9328   */\n      swap3\n      swap2\n      pop\n      pop\n      jump\t// out\n        /* \"#utility.yul\":9334:9452   */\n    tag_349:\n        /* \"#utility.yul\":9405:9427   */\n      tag_457\n        /* \"#utility.yul\":9421:9426   */\n      dup2\n        /* \"#utility.yul\":9405:9427   */\n      tag_335\n      jump\t// in\n    tag_457:\n        /* \"#utility.yul\":9398:9403   */\n      dup2\n        /* \"#utility.yul\":9395:9428   */\n      eq\n        /* \"#utility.yul\":9385:9446   */\n      tag_458\n      jumpi\n        /* \"#utility.yul\":9442:9443   */\n      0x00\n        /* \"#utility.yul\":9439:9440   */\n      dup1\n        /* \"#utility.yul\":9432:9444   */\n      revert\n        /* \"#utility.yul\":9385:9446   */\n    tag_458:\n        /* \"#utility.yul\":9334:9452   */\n      pop\n      jump\t// out\n        /* \"#utility.yul\":9458:9593   */\n    tag_350:\n        /* \"#utility.yul\":9502:9507   */\n      0x00\n        /* \"#utility.yul\":9540:9546   */\n      dup2\n        /* \"#utility.yul\":9527:9547   */\n      calldataload\n        /* \"#utility.yul\":9518:9547   */\n      swap1\n      pop\n        /* \"#utility.yul\":9556:9587   */\n      tag_460\n        /* \"#utility.yul\":9581:9586   */\n      dup2\n        /* \"#utility.yul\":9556:9587   */\n      tag_349\n      jump\t// in\n    tag_460:\n        /* \"#utility.yul\":9458:9593   */\n      swap3\n      swap2\n      pop\n      pop\n      jump\t// out\n        /* \"#utility.yul\":9599:9721   */\n    tag_351:\n        /* \"#utility.yul\":9672:9696   */\n      tag_462\n        /* \"#utility.yul\":9690:9695   */\n      dup2\n        /* \"#utility.yul\":9672:9696   */\n      tag_337\n      jump\t// in\n    tag_462:\n        /* \"#utility.yul\":9665:9670   */\n      dup2\n        /* \"#utility.yul\":9662:9697   */\n      eq\n        /* \"#utility.yul\":9652:9715   */\n      tag_463\n      jumpi\n        /* \"#utility.yul\":9711:9712   */\n      0x00\n        /* \"#utility.yul\":9708:9709   */\n      dup1\n        /* \"#utility.yul\":9701:9713   */\n      revert\n        /* \"#utility.yul\":9652:9715   */\n    tag_463:\n        /* \"#utility.yul\":9599:9721   */\n      pop\n      jump\t// out\n        /* \"#utility.yul\":9727:9866   */\n    tag_352:\n        /* \"#utility.yul\":9773:9778   */\n      0x00\n        /* \"#utility.yul\":9811:9817   */\n      dup2\n        /* \"#utility.yul\":9798:9818   */\n      calldataload\n        /* \"#utility.yul\":9789:9818   */\n      swap1\n      pop\n        /* \"#utility.yul\":9827:9860   */\n      tag_465\n        /* \"#utility.yul\":9854:9859   */\n      dup2\n        /* \"#utility.yul\":9827:9860   */\n      tag_351\n      jump\t// in\n    tag_465:\n        /* \"#utility.yul\":9727:9866   */\n      swap3\n      swap2\n      pop\n      pop\n      jump\t// out\n        /* \"#utility.yul\":9872:11071   */\n    tag_90:\n        /* \"#utility.yul\":9983:9989   */\n      0x00\n        /* \"#utility.yul\":9991:9997   */\n      dup1\n        /* \"#utility.yul\":9999:10005   */\n      0x00\n        /* \"#utility.yul\":10007:10013   */\n      dup1\n        /* \"#utility.yul\":10015:10021   */\n      0x00\n        /* \"#utility.yul\":10023:10029   */\n      dup1\n        /* \"#utility.yul\":10031:10037   */\n      0x00\n        /* \"#utility.yul\":10080:10083   */\n      0xe0\n        /* \"#utility.yul\":10068:10077   */\n      dup9\n        /* \"#utility.yul\":10059:10066   */\n      dup11\n        /* \"#utility.yul\":10055:10078   */\n      sub\n        /* \"#utility.yul\":10051:10084   */\n      slt\n        /* \"#utility.yul\":10048:10168   */\n      iszero\n      tag_467\n      jumpi\n        /* \"#utility.yul\":10087:10166   */\n      tag_468\n      tag_323\n      jump\t// in\n    tag_468:\n        /* \"#utility.yul\":10048:10168   */\n    tag_467:\n        /* \"#utility.yul\":10207:10208   */\n      0x00\n        /* \"#utility.yul\":10232:10285   */\n      tag_469\n        /* \"#utility.yul\":10277:10284   */\n      dup11\n        /* \"#utility.yul\":10268:10274   */\n      dup3\n        /* \"#utility.yul\":10257:10266   */\n      dup12\n        /* \"#utility.yul\":10253:10275   */\n      add\n        /* \"#utility.yul\":10232:10285   */\n      tag_328\n      jump\t// in\n    tag_469:\n        /* \"#utility.yul\":10222:10285   */\n      swap8\n      pop\n        /* \"#utility.yul\":10178:10295   */\n      pop\n        /* \"#utility.yul\":10334:10336   */\n      0x20\n        /* \"#utility.yul\":10360:10413   */\n      tag_470\n        /* \"#utility.yul\":10405:10412   */\n      dup11\n        /* \"#utility.yul\":10396:10402   */\n      dup3\n        /* \"#utility.yul\":10385:10394   */\n      dup12\n        /* \"#utility.yul\":10381:10403   */\n      add\n        /* \"#utility.yul\":10360:10413   */\n      tag_328\n      jump\t// in\n    tag_470:\n        /* \"#utility.yul\":10350:10413   */\n      swap7\n      pop\n        /* \"#utility.yul\":10305:10423   */\n      pop\n        /* \"#utility.yul\":10462:10464   */\n      0x40\n        /* \"#utility.yul\":10488:10541   */\n      tag_471\n        /* \"#utility.yul\":10533:10540   */\n      dup11\n        /* \"#utility.yul\":10524:10530   */\n      dup3\n        /* \"#utility.yul\":10513:10522   */\n      dup12\n        /* \"#utility.yul\":10509:10531   */\n      add\n        /* \"#utility.yul\":10488:10541   */\n      tag_331\n      jump\t// in\n    tag_471:\n        /* \"#utility.yul\":10478:10541   */\n      swap6\n      pop\n        /* \"#utility.yul\":10433:10551   */\n      pop\n        /* \"#utility.yul\":10590:10592   */\n      0x60\n        /* \"#utility.yul\":10616:10669   */\n      tag_472\n        /* \"#utility.yul\":10661:10668   */\n      dup11\n        /* \"#utility.yul\":10652:10658   */\n      dup3\n        /* \"#utility.yul\":10641:10650   */\n      dup12\n        /* \"#utility.yul\":10637:10659   */\n      add\n        /* \"#utility.yul\":10616:10669   */\n      tag_331\n      jump\t// in\n    tag_472:\n        /* \"#utility.yul\":10606:10669   */\n      swap5\n      pop\n        /* \"#utility.yul\":10561:10679   */\n      pop\n        /* \"#utility.yul\":10718:10721   */\n      0x80\n        /* \"#utility.yul\":10745:10796   */\n      tag_473\n        /* \"#utility.yul\":10788:10795   */\n      dup11\n        /* \"#utility.yul\":10779:10785   */\n      dup3\n        /* \"#utility.yul\":10768:10777   */\n      dup12\n        /* \"#utility.yul\":10764:10786   */\n      add\n        /* \"#utility.yul\":10745:10796   */\n      tag_350\n      jump\t// in\n    tag_473:\n        /* \"#utility.yul\":10735:10796   */\n      swap4\n      pop\n        /* \"#utility.yul\":10689:10806   */\n      pop\n        /* \"#utility.yul\":10845:10848   */\n      0xa0\n        /* \"#utility.yul\":10872:10925   */\n      tag_474\n        /* \"#utility.yul\":10917:10924   */\n      dup11\n        /* \"#utility.yul\":10908:10914   */\n      dup3\n        /* \"#utility.yul\":10897:10906   */\n      dup12\n        /* \"#utility.yul\":10893:10915   */\n      add\n        /* \"#utility.yul\":10872:10925   */\n      tag_352\n      jump\t// in\n    tag_474:\n        /* \"#utility.yul\":10862:10925   */\n      swap3\n      pop\n        /* \"#utility.yul\":10816:10935   */\n      pop\n        /* \"#utility.yul\":10974:10977   */\n      0xc0\n        /* \"#utility.yul\":11001:11054   */\n      tag_475\n        /* \"#utility.yul\":11046:11053   */\n      dup11\n        /* \"#utility.yul\":11037:11043   */\n      dup3\n        /* \"#utility.yul\":11026:11035   */\n      dup12\n        /* \"#utility.yul\":11022:11044   */\n      add\n        /* \"#utility.yul\":11001:11054   */\n      tag_352\n      jump\t// in\n    tag_475:\n        /* \"#utility.yul\":10991:11054   */\n      swap2\n      pop\n        /* \"#utility.yul\":10945:11064   */\n      pop\n        /* \"#utility.yul\":9872:11071   */\n      swap3\n      swap6\n      swap9\n      swap2\n      swap5\n      swap8\n      pop\n      swap3\n      swap6\n      pop\n      jump\t// out\n        /* \"#utility.yul\":11077:11551   */\n    tag_94:\n        /* \"#utility.yul\":11145:11151   */\n      0x00\n        /* \"#utility.yul\":11153:11159   */\n      dup1\n        /* \"#utility.yul\":11202:11204   */\n      0x40\n        /* \"#utility.yul\":11190:11199   */\n      dup4\n        /* \"#utility.yul\":11181:11188   */\n      dup6\n        /* \"#utility.yul\":11177:11200   */\n      sub\n        /* \"#utility.yul\":11173:11205   */\n      slt\n        /* \"#utility.yul\":11170:11289   */\n      iszero\n      tag_477\n      jumpi\n        /* \"#utility.yul\":11208:11287   */\n      tag_478\n      tag_323\n      jump\t// in\n    tag_478:\n        /* \"#utility.yul\":11170:11289   */\n    tag_477:\n        /* \"#utility.yul\":11328:11329   */\n      0x00\n        /* \"#utility.yul\":11353:11406   */\n      tag_479\n        /* \"#utility.yul\":11398:11405   */\n      dup6\n        /* \"#utility.yul\":11389:11395   */\n      dup3\n        /* \"#utility.yul\":11378:11387   */\n      dup7\n        /* \"#utility.yul\":11374:11396   */\n      add\n        /* \"#utility.yul\":11353:11406   */\n      tag_328\n      jump\t// in\n    tag_479:\n        /* \"#utility.yul\":11343:11406   */\n      swap3\n      pop\n        /* \"#utility.yul\":11299:11416   */\n      pop\n        /* \"#utility.yul\":11455:11457   */\n      0x20\n        /* \"#utility.yul\":11481:11534   */\n      tag_480\n        /* \"#utility.yul\":11526:11533   */\n      dup6\n        /* \"#utility.yul\":11517:11523   */\n      dup3\n        /* \"#utility.yul\":11506:11515   */\n      dup7\n        /* \"#utility.yul\":11502:11524   */\n      add\n        /* \"#utility.yul\":11481:11534   */\n      tag_328\n      jump\t// in\n    tag_480:\n        /* \"#utility.yul\":11471:11534   */\n      swap2\n      pop\n        /* \"#utility.yul\":11426:11544   */\n      pop\n        /* \"#utility.yul\":11077:11551   */\n      swap3\n      pop\n      swap3\n      swap1\n      pop\n      jump\t// out\n        /* \"#utility.yul\":11557:11737   */\n    tag_353:\n        /* \"#utility.yul\":11605:11682   */\n      0x4e487b7100000000000000000000000000000000000000000000000000000000\n        /* \"#utility.yul\":11602:11603   */\n      0x00\n        /* \"#utility.yul\":11595:11683   */\n      mstore\n        /* \"#utility.yul\":11702:11706   */\n      0x22\n        /* \"#utility.yul\":11699:11700   */\n      0x04\n        /* \"#utility.yul\":11692:11707   */\n      mstore\n        /* \"#utility.yul\":11726:11730   */\n      0x24\n        /* \"#utility.yul\":11723:11724   */\n      0x00\n        /* \"#utility.yul\":11716:11731   */\n      revert\n        /* \"#utility.yul\":11743:12063   */\n    tag_102:\n        /* \"#utility.yul\":11787:11793   */\n      0x00\n        /* \"#utility.yul\":11824:11825   */\n      0x02\n        /* \"#utility.yul\":11818:11822   */\n      dup3\n        /* \"#utility.yul\":11814:11826   */\n      div\n        /* \"#utility.yul\":11804:11826   */\n      swap1\n      pop\n        /* \"#utility.yul\":11871:11872   */\n      0x01\n        /* \"#utility.yul\":11865:11869   */\n      dup3\n        /* \"#utility.yul\":11861:11873   */\n      and\n        /* \"#utility.yul\":11892:11910   */\n      dup1\n        /* \"#utility.yul\":11882:11963   */\n      tag_483\n      jumpi\n        /* \"#utility.yul\":11948:11952   */\n      0x7f\n        /* \"#utility.yul\":11940:11946   */\n      dup3\n        /* \"#utility.yul\":11936:11953   */\n      and\n        /* \"#utility.yul\":11926:11953   */\n      swap2\n      pop\n        /* \"#utility.yul\":11882:11963   */\n    tag_483:\n        /* \"#utility.yul\":12010:12012   */\n      0x20\n        /* \"#utility.yul\":12002:12008   */\n      dup3\n        /* \"#utility.yul\":11999:12013   */\n      lt\n        /* \"#utility.yul\":11979:11997   */\n      dup2\n        /* \"#utility.yul\":11976:12014   */\n      sub\n        /* \"#utility.yul\":11973:12057   */\n      tag_484\n      jumpi\n        /* \"#utility.yul\":12029:12047   */\n      tag_485\n      tag_353\n      jump\t// in\n    tag_485:\n        /* \"#utility.yul\":11973:12057   */\n    tag_484:\n        /* \"#utility.yul\":11794:12063   */\n      pop\n        /* \"#utility.yul\":11743:12063   */\n      swap2\n      swap1\n      pop\n      jump\t// out\n        /* \"#utility.yul\":12069:12249   */\n    tag_354:\n        /* \"#utility.yul\":12117:12194   */\n      0x4e487b7100000000000000000000000000000000000000000000000000000000\n        /* \"#utility.yul\":12114:12115   */\n      0x00\n        /* \"#utility.yul\":12107:12195   */\n      mstore\n        /* \"#utility.yul\":12214:12218   */\n      0x11\n        /* \"#utility.yul\":12211:12212   */\n      0x04\n        /* \"#utility.yul\":12204:12219   */\n      mstore\n        /* \"#utility.yul\":12238:12242   */\n      0x24\n        /* \"#utility.yul\":12235:12236   */\n      0x00\n        /* \"#utility.yul\":12228:12243   */\n      revert\n        /* \"#utility.yul\":12255:12446   */\n    tag_129:\n        /* \"#utility.yul\":12295:12298   */\n      0x00\n        /* \"#utility.yul\":12314:12334   */\n      tag_488\n        /* \"#utility.yul\":12332:12333   */\n      dup3\n        /* \"#utility.yul\":12314:12334   */\n      tag_329\n      jump\t// in\n    tag_488:\n        /* \"#utility.yul\":12309:12334   */\n      swap2\n      pop\n        /* \"#utility.yul\":12348:12368   */\n      tag_489\n        /* \"#utility.yul\":12366:12367   */\n      dup4\n        /* \"#utility.yul\":12348:12368   */\n      tag_329\n      jump\t// in\n    tag_489:\n        /* \"#utility.yul\":12343:12368   */\n      swap3\n      pop\n        /* \"#utility.yul\":12391:12392   */\n      dup3\n        /* \"#utility.yul\":12388:12389   */\n      dup3\n        /* \"#utility.yul\":12384:12393   */\n      add\n        /* \"#utility.yul\":12377:12393   */\n      swap1\n      pop\n        /* \"#utility.yul\":12412:12415   */\n      dup1\n        /* \"#utility.yul\":12409:12410   */\n      dup3\n        /* \"#utility.yul\":12406:12416   */\n      gt\n        /* \"#utility.yul\":12403:12439   */\n      iszero\n      tag_490\n      jumpi\n        /* \"#utility.yul\":12419:12437   */\n      tag_491\n      tag_354\n      jump\t// in\n    tag_491:\n        /* \"#utility.yul\":12403:12439   */\n    tag_490:\n        /* \"#utility.yul\":12255:12446   */\n      swap3\n      swap2\n      pop\n      pop\n      jump\t// out\n        /* \"#utility.yul\":12452:12626   */\n    tag_355:\n        /* \"#utility.yul\":12592:12618   */\n      0x746f74616c20737570706c792031303025206d696e7465640000000000000000\n        /* \"#utility.yul\":12588:12589   */\n      0x00\n        /* \"#utility.yul\":12580:12586   */\n      dup3\n        /* \"#utility.yul\":12576:12590   */\n      add\n        /* \"#utility.yul\":12569:12619   */\n      mstore\n        /* \"#utility.yul\":12452:12626   */\n      pop\n      jump\t// out\n        /* \"#utility.yul\":12632:12998   */\n    tag_356:\n        /* \"#utility.yul\":12774:12777   */\n      0x00\n        /* \"#utility.yul\":12795:12862   */\n      tag_494\n        /* \"#utility.yul\":12859:12861   */\n      0x18\n        /* \"#utility.yul\":12854:12857   */\n      dup4\n        /* \"#utility.yul\":12795:12862   */\n      tag_318\n      jump\t// in\n    tag_494:\n        /* \"#utility.yul\":12788:12862   */\n      swap2\n      pop\n        /* \"#utility.yul\":12871:12964   */\n      tag_495\n        /* \"#utility.yul\":12960:12963   */\n      dup3\n        /* \"#utility.yul\":12871:12964   */\n      tag_355\n      jump\t// in\n    tag_495:\n        /* \"#utility.yul\":12989:12991   */\n      0x20\n        /* \"#utility.yul\":12984:12987   */\n      dup3\n        /* \"#utility.yul\":12980:12992   */\n      add\n        /* \"#utility.yul\":12973:12992   */\n      swap1\n      pop\n        /* \"#utility.yul\":12632:12998   */\n      swap2\n      swap1\n      pop\n      jump\t// out\n        /* \"#utility.yul\":13004:13423   */\n    tag_132:\n        /* \"#utility.yul\":13170:13174   */\n      0x00\n        /* \"#utility.yul\":13208:13210   */\n      0x20\n        /* \"#utility.yul\":13197:13206   */\n      dup3\n        /* \"#utility.yul\":13193:13211   */\n      add\n        /* \"#utility.yul\":13185:13211   */\n      swap1\n      pop\n        /* \"#utility.yul\":13257:13266   */\n      dup2\n        /* \"#utility.yul\":13251:13255   */\n      dup2\n        /* \"#utility.yul\":13247:13267   */\n      sub\n        /* \"#utility.yul\":13243:13244   */\n      0x00\n        /* \"#utility.yul\":13232:13241   */\n      dup4\n        /* \"#utility.yul\":13228:13245   */\n      add\n        /* \"#utility.yul\":13221:13268   */\n      mstore\n        /* \"#utility.yul\":13285:13416   */\n      tag_497\n        /* \"#utility.yul\":13411:13415   */\n      dup2\n        /* \"#utility.yul\":13285:13416   */\n      tag_356\n      jump\t// in\n    tag_497:\n        /* \"#utility.yul\":13277:13416   */\n      swap1\n      pop\n        /* \"#utility.yul\":13004:13423   */\n      swap2\n      swap1\n      pop\n      jump\t// out\n        /* \"#utility.yul\":13429:13609   */\n    tag_156:\n        /* \"#utility.yul\":13477:13554   */\n      0x4e487b7100000000000000000000000000000000000000000000000000000000\n        /* \"#utility.yul\":13474:13475   */\n      0x00\n        /* \"#utility.yul\":13467:13555   */\n      mstore\n        /* \"#utility.yul\":13574:13578   */\n      0x41\n        /* \"#utility.yul\":13571:13572   */\n      0x04\n        /* \"#utility.yul\":13564:13579   */\n      mstore\n        /* \"#utility.yul\":13598:13602   */\n      0x24\n        /* \"#utility.yul\":13595:13596   */\n      0x00\n        /* \"#utility.yul\":13588:13603   */\n      revert\n        /* \"#utility.yul\":13615:14390   */\n    tag_174:\n        /* \"#utility.yul\":13848:13852   */\n      0x00\n        /* \"#utility.yul\":13886:13889   */\n      0xc0\n        /* \"#utility.yul\":13875:13884   */\n      dup3\n        /* \"#utility.yul\":13871:13890   */\n      add\n        /* \"#utility.yul\":13863:13890   */\n      swap1\n      pop\n        /* \"#utility.yul\":13900:13971   */\n      tag_500\n        /* \"#utility.yul\":13968:13969   */\n      0x00\n        /* \"#utility.yul\":13957:13966   */\n      dup4\n        /* \"#utility.yul\":13953:13970   */\n      add\n        /* \"#utility.yul\":13944:13950   */\n      dup10\n        /* \"#utility.yul\":13900:13971   */\n      tag_338\n      jump\t// in\n    tag_500:\n        /* \"#utility.yul\":13981:14053   */\n      tag_501\n        /* \"#utility.yul\":14049:14051   */\n      0x20\n        /* \"#utility.yul\":14038:14047   */\n      dup4\n        /* \"#utility.yul\":14034:14052   */\n      add\n        /* \"#utility.yul\":14025:14031   */\n      dup9\n        /* \"#utility.yul\":13981:14053   */\n      tag_341\n      jump\t// in\n    tag_501:\n        /* \"#utility.yul\":14063:14135   */\n      tag_502\n        /* \"#utility.yul\":14131:14133   */\n      0x40\n        /* \"#utility.yul\":14120:14129   */\n      dup4\n        /* \"#utility.yul\":14116:14134   */\n      add\n        /* \"#utility.yul\":14107:14113   */\n      dup8\n        /* \"#utility.yul\":14063:14135   */\n      tag_341\n      jump\t// in\n    tag_502:\n        /* \"#utility.yul\":14145:14217   */\n      tag_503\n        /* \"#utility.yul\":14213:14215   */\n      0x60\n        /* \"#utility.yul\":14202:14211   */\n      dup4\n        /* \"#utility.yul\":14198:14216   */\n      add\n        /* \"#utility.yul\":14189:14195   */\n      dup7\n        /* \"#utility.yul\":14145:14217   */\n      tag_334\n      jump\t// in\n    tag_503:\n        /* \"#utility.yul\":14227:14300   */\n      tag_504\n        /* \"#utility.yul\":14295:14298   */\n      0x80\n        /* \"#utility.yul\":14284:14293   */\n      dup4\n        /* \"#utility.yul\":14280:14299   */\n      add\n        /* \"#utility.yul\":14271:14277   */\n      dup6\n        /* \"#utility.yul\":14227:14300   */\n      tag_334\n      jump\t// in\n    tag_504:\n        /* \"#utility.yul\":14310:14383   */\n      tag_505\n        /* \"#utility.yul\":14378:14381   */\n      0xa0\n        /* \"#utility.yul\":14367:14376   */\n      dup4\n        /* \"#utility.yul\":14363:14382   */\n      add\n        /* \"#utility.yul\":14354:14360   */\n      dup5\n        /* \"#utility.yul\":14310:14383   */\n      tag_334\n      jump\t// in\n    tag_505:\n        /* \"#utility.yul\":13615:14390   */\n      swap8\n      swap7\n      pop\n      pop\n      pop\n      pop\n      pop\n      pop\n      pop\n      jump\t// out\n        /* \"#utility.yul\":14396:14728   */\n    tag_181:\n        /* \"#utility.yul\":14517:14521   */\n      0x00\n        /* \"#utility.yul\":14555:14557   */\n      0x40\n        /* \"#utility.yul\":14544:14553   */\n      dup3\n        /* \"#utility.yul\":14540:14558   */\n      add\n        /* \"#utility.yul\":14532:14558   */\n      swap1\n      pop\n        /* \"#utility.yul\":14568:14639   */\n      tag_507\n        /* \"#utility.yul\":14636:14637   */\n      0x00\n        /* \"#utility.yul\":14625:14634   */\n      dup4\n        /* \"#utility.yul\":14621:14638   */\n      add\n        /* \"#utility.yul\":14612:14618   */\n      dup6\n        /* \"#utility.yul\":14568:14639   */\n      tag_341\n      jump\t// in\n    tag_507:\n        /* \"#utility.yul\":14649:14721   */\n      tag_508\n        /* \"#utility.yul\":14717:14719   */\n      0x20\n        /* \"#utility.yul\":14706:14715   */\n      dup4\n        /* \"#utility.yul\":14702:14720   */\n      add\n        /* \"#utility.yul\":14693:14699   */\n      dup5\n        /* \"#utility.yul\":14649:14721   */\n      tag_341\n      jump\t// in\n    tag_508:\n        /* \"#utility.yul\":14396:14728   */\n      swap4\n      swap3\n      pop\n      pop\n      pop\n      jump\t// out\n        /* \"#utility.yul\":14734:15176   */\n    tag_199:\n        /* \"#utility.yul\":14883:14887   */\n      0x00\n        /* \"#utility.yul\":14921:14923   */\n      0x60\n        /* \"#utility.yul\":14910:14919   */\n      dup3\n        /* \"#utility.yul\":14906:14924   */\n      add\n        /* \"#utility.yul\":14898:14924   */\n      swap1\n      pop\n        /* \"#utility.yul\":14934:15005   */\n      tag_510\n        /* \"#utility.yul\":15002:15003   */\n      0x00\n        /* \"#utility.yul\":14991:15000   */\n      dup4\n        /* \"#utility.yul\":14987:15004   */\n      add\n        /* \"#utility.yul\":14978:14984   */\n      dup7\n        /* \"#utility.yul\":14934:15005   */\n      tag_341\n      jump\t// in\n    tag_510:\n        /* \"#utility.yul\":15015:15087   */\n      tag_511\n        /* \"#utility.yul\":15083:15085   */\n      0x20\n        /* \"#utility.yul\":15072:15081   */\n      dup4\n        /* \"#utility.yul\":15068:15086   */\n      add\n        /* \"#utility.yul\":15059:15065   */\n      dup6\n        /* \"#utility.yul\":15015:15087   */\n      tag_334\n      jump\t// in\n    tag_511:\n        /* \"#utility.yul\":15097:15169   */\n      tag_512\n        /* \"#utility.yul\":15165:15167   */\n      0x40\n        /* \"#utility.yul\":15154:15163   */\n      dup4\n        /* \"#utility.yul\":15150:15168   */\n      add\n        /* \"#utility.yul\":15141:15147   */\n      dup5\n        /* \"#utility.yul\":15097:15169   */\n      tag_334\n      jump\t// in\n    tag_512:\n        /* \"#utility.yul\":14734:15176   */\n      swap5\n      swap4\n      pop\n      pop\n      pop\n      pop\n      jump\t// out\n        /* \"#utility.yul\":15182:15846   */\n    tag_263:\n        /* \"#utility.yul\":15387:15391   */\n      0x00\n        /* \"#utility.yul\":15425:15428   */\n      0xa0\n        /* \"#utility.yul\":15414:15423   */\n      dup3\n        /* \"#utility.yul\":15410:15429   */\n      add\n        /* \"#utility.yul\":15402:15429   */\n      swap1\n      pop\n        /* \"#utility.yul\":15439:15510   */\n      tag_514\n        /* \"#utility.yul\":15507:15508   */\n      0x00\n        /* \"#utility.yul\":15496:15505   */\n      dup4\n        /* \"#utility.yul\":15492:15509   */\n      add\n        /* \"#utility.yul\":15483:15489   */\n      dup9\n        /* \"#utility.yul\":15439:15510   */\n      tag_338\n      jump\t// in\n    tag_514:\n        /* \"#utility.yul\":15520:15592   */\n      tag_515\n        /* \"#utility.yul\":15588:15590   */\n      0x20\n        /* \"#utility.yul\":15577:15586   */\n      dup4\n        /* \"#utility.yul\":15573:15591   */\n      add\n        /* \"#utility.yul\":15564:15570   */\n      dup8\n        /* \"#utility.yul\":15520:15592   */\n      tag_338\n      jump\t// in\n    tag_515:\n        /* \"#utility.yul\":15602:15674   */\n      tag_516\n        /* \"#utility.yul\":15670:15672   */\n      0x40\n        /* \"#utility.yul\":15659:15668   */\n      dup4\n        /* \"#utility.yul\":15655:15673   */\n      add\n        /* \"#utility.yul\":15646:15652   */\n      dup7\n        /* \"#utility.yul\":15602:15674   */\n      tag_338\n      jump\t// in\n    tag_516:\n        /* \"#utility.yul\":15684:15756   */\n      tag_517\n        /* \"#utility.yul\":15752:15754   */\n      0x60\n        /* \"#utility.yul\":15741:15750   */\n      dup4\n        /* \"#utility.yul\":15737:15755   */\n      add\n        /* \"#utility.yul\":15728:15734   */\n      dup6\n        /* \"#utility.yul\":15684:15756   */\n      tag_334\n      jump\t// in\n    tag_517:\n        /* \"#utility.yul\":15766:15839   */\n      tag_518\n        /* \"#utility.yul\":15834:15837   */\n      0x80\n        /* \"#utility.yul\":15823:15832   */\n      dup4\n        /* \"#utility.yul\":15819:15838   */\n      add\n        /* \"#utility.yul\":15810:15816   */\n      dup5\n        /* \"#utility.yul\":15766:15839   */\n      tag_341\n      jump\t// in\n    tag_518:\n        /* \"#utility.yul\":15182:15846   */\n      swap7\n      swap6\n      pop\n      pop\n      pop\n      pop\n      pop\n      pop\n      jump\t// out\n        /* \"#utility.yul\":15852:16397   */\n    tag_278:\n        /* \"#utility.yul\":16025:16029   */\n      0x00\n        /* \"#utility.yul\":16063:16066   */\n      0x80\n        /* \"#utility.yul\":16052:16061   */\n      dup3\n        /* \"#utility.yul\":16048:16067   */\n      add\n        /* \"#utility.yul\":16040:16067   */\n      swap1\n      pop\n        /* \"#utility.yul\":16077:16148   */\n      tag_520\n        /* \"#utility.yul\":16145:16146   */\n      0x00\n        /* \"#utility.yul\":16134:16143   */\n      dup4\n        /* \"#utility.yul\":16130:16147   */\n      add\n        /* \"#utility.yul\":16121:16127   */\n      dup8\n        /* \"#utility.yul\":16077:16148   */\n      tag_338\n      jump\t// in\n    tag_520:\n        /* \"#utility.yul\":16158:16226   */\n      tag_521\n        /* \"#utility.yul\":16222:16224   */\n      0x20\n        /* \"#utility.yul\":16211:16220   */\n      dup4\n        /* \"#utility.yul\":16207:16225   */\n      add\n        /* \"#utility.yul\":16198:16204   */\n      dup7\n        /* \"#utility.yul\":16158:16226   */\n      tag_336\n      jump\t// in\n    tag_521:\n        /* \"#utility.yul\":16236:16308   */\n      tag_522\n        /* \"#utility.yul\":16304:16306   */\n      0x40\n        /* \"#utility.yul\":16293:16302   */\n      dup4\n        /* \"#utility.yul\":16289:16307   */\n      add\n        /* \"#utility.yul\":16280:16286   */\n      dup6\n        /* \"#utility.yul\":16236:16308   */\n      tag_338\n      jump\t// in\n    tag_522:\n        /* \"#utility.yul\":16318:16390   */\n      tag_523\n        /* \"#utility.yul\":16386:16388   */\n      0x60\n        /* \"#utility.yul\":16375:16384   */\n      dup4\n        /* \"#utility.yul\":16371:16389   */\n      add\n        /* \"#utility.yul\":16362:16368   */\n      dup5\n        /* \"#utility.yul\":16318:16390   */\n      tag_338\n      jump\t// in\n    tag_523:\n        /* \"#utility.yul\":15852:16397   */\n      swap6\n      swap5\n      pop\n      pop\n      pop\n      pop\n      pop\n      jump\t// out\n        /* \"#utility.yul\":16403:16583   */\n    tag_285:\n        /* \"#utility.yul\":16451:16528   */\n      0x4e487b7100000000000000000000000000000000000000000000000000000000\n        /* \"#utility.yul\":16448:16449   */\n      0x00\n        /* \"#utility.yul\":16441:16529   */\n      mstore\n        /* \"#utility.yul\":16548:16552   */\n      0x21\n        /* \"#utility.yul\":16545:16546   */\n      0x04\n        /* \"#utility.yul\":16538:16553   */\n      mstore\n        /* \"#utility.yul\":16572:16576   */\n      0x24\n        /* \"#utility.yul\":16569:16570   */\n      0x00\n        /* \"#utility.yul\":16562:16577   */\n      revert\n\n    auxdata: 0xa26469706673582212203de646347c4c1fab28b98ffcd8de5e2f2d509b0f6e35ada8b4946bb8d97972b264736f6c634300081a0033\n}\n",
				"bytecode": {
					"linkReferences": {},
					"object": "61016060405261001361029c60201b60201c565b600a61001f919061088b565b61271061002c91906108d5565b60095534801561003a575f80fd5b50336040518060400160405280600a81526020017f5275747261546f6b656e00000000000000000000000000000000000000000000815250806040518060400160405280600181526020017f31000000000000000000000000000000000000000000000000000000000000008152506040518060400160405280600a81526020017f5275747261546f6b656e000000000000000000000000000000000000000000008152506040518060400160405280600581526020017f525554524100000000000000000000000000000000000000000000000000000081525081600390816101249190610b47565b5080600490816101349190610b47565b50505061014b6005836102a460201b90919060201c565b61012081815250506101676006826102a460201b90919060201c565b6101408181525050818051906020012060e08181525050808051906020012061010081815250504660a081815250506101a46102f160201b60201c565b608081815250503073ffffffffffffffffffffffffffffffffffffffff1660c08173ffffffffffffffffffffffffffffffffffffffff16815250505050505f73ffffffffffffffffffffffffffffffffffffffff168173ffffffffffffffffffffffffffffffffffffffff1603610252575f6040517f1e4fbdf70000000000000000000000000000000000000000000000000000000081526004016102499190610c55565b60405180910390fd5b6102618161034b60201b60201c565b506102973361027461029c60201b60201c565b600a610280919061088b565b606461028c91906108d5565b61040e60201b60201c565b610e80565b5f6012905090565b5f6020835110156102c5576102be8361049360201b60201c565b90506102eb565b826102d5836104f860201b60201c565b5f0190816102e39190610b47565b5060ff5f1b90505b92915050565b5f7f8b73c3c69bb8fe3d512ecc4cf759cc79239f7b179b0ffacaa9a75d522b39400f60e051610100514630604051602001610330959493929190610c95565b60405160208183030381529060405280519060200120905090565b5f60085f9054906101000a900473ffffffffffffffffffffffffffffffffffffffff1690508160085f6101000a81548173ffffffffffffffffffffffffffffffffffffffff021916908373ffffffffffffffffffffffffffffffffffffffff1602179055508173ffffffffffffffffffffffffffffffffffffffff168173ffffffffffffffffffffffffffffffffffffffff167f8be0079c531659141344cd1fd0a4f28419497f9722a3daafe3b4186f6b6457e060405160405180910390a35050565b5f73ffffffffffffffffffffffffffffffffffffffff168273ffffffffffffffffffffffffffffffffffffffff160361047e575f6040517fec442f050000000000000000000000000000000000000000000000000000000081526004016104759190610c55565b60405180910390fd5b61048f5f838361050160201b60201c565b5050565b5f80829050601f815111156104df57826040517f305a27a90000000000000000000000000000000000000000000000000000000081526004016104d69190610d4c565b60405180910390fd5b8051816104eb90610d99565b5f1c175f1b915050919050565b5f819050919050565b5f73ffffffffffffffffffffffffffffffffffffffff168373ffffffffffffffffffffffffffffffffffffffff1603610551578060025f8282546105459190610dff565b9250508190555061061f565b5f805f8573ffffffffffffffffffffffffffffffffffffffff1673ffffffffffffffffffffffffffffffffffffffff1681526020019081526020015f20549050818110156105da578381836040517fe450d38c0000000000000000000000000000000000000000000000000000000081526004016105d193929190610e32565b60405180910390fd5b8181035f808673ffffffffffffffffffffffffffffffffffffffff1673ffffffffffffffffffffffffffffffffffffffff1681526020019081526020015f2081905550505b5f73ffffffffffffffffffffffffffffffffffffffff168273ffffffffffffffffffffffffffffffffffffffff1603610666578060025f82825403925050819055506106b0565b805f808473ffffffffffffffffffffffffffffffffffffffff1673ffffffffffffffffffffffffffffffffffffffff1681526020019081526020015f205f82825401925050819055505b8173ffffffffffffffffffffffffffffffffffffffff168373ffffffffffffffffffffffffffffffffffffffff167fddf252ad1be2c89b69c2b068fc378daa952ba7f163c4a11628f55a4df523b3ef8360405161070d9190610e67565b60405180910390a3505050565b7f4e487b71000000000000000000000000000000000000000000000000000000005f52601160045260245ffd5b5f8160011c9050919050565b5f808291508390505b600185111561079c578086048111156107785761077761071a565b5b60018516156107875780820291505b808102905061079585610747565b945061075c565b94509492505050565b5f826107b4576001905061086f565b816107c1575f905061086f565b81600181146107d757600281146107e157610810565b600191505061086f565b60ff8411156107f3576107f261071a565b5b8360020a91508482111561080a5761080961071a565b5b5061086f565b5060208310610133831016604e8410600b84101617156108455782820a9050838111156108405761083f61071a565b5b61086f565b6108528484846001610753565b925090508184048111156108695761086861071a565b5b81810290505b9392505050565b5f819050919050565b5f60ff82169050919050565b5f61089582610876565b91506108a08361087f565b92506108cd7fffffffffffffffffffffffffffffffffffffffffffffffffffffffffffffffff84846107a5565b905092915050565b5f6108df82610876565b91506108ea83610876565b92508282026108f881610876565b9150828204841483151761090f5761090e61071a565b5b5092915050565b5f81519050919050565b7f4e487b71000000000000000000000000000000000000000000000000000000005f52604160045260245ffd5b7f4e487b71000000000000000000000000000000000000000000000000000000005f52602260045260245ffd5b5f600282049050600182168061099157607f821691505b6020821081036109a4576109a361094d565b5b50919050565b5f819050815f5260205f209050919050565b5f6020601f8301049050919050565b5f82821b905092915050565b5f60088302610a067fffffffffffffffffffffffffffffffffffffffffffffffffffffffffffffffff826109cb565b610a1086836109cb565b95508019841693508086168417925050509392505050565b5f819050919050565b5f610a4b610a46610a4184610876565b610a28565b610876565b9050919050565b5f819050919050565b610a6483610a31565b610a78610a7082610a52565b8484546109d7565b825550505050565b5f90565b610a8c610a80565b610a97818484610a5b565b505050565b5b81811015610aba57610aaf5f82610a84565b600181019050610a9d565b5050565b601f821115610aff57610ad0816109aa565b610ad9846109bc565b81016020851015610ae8578190505b610afc610af4856109bc565b830182610a9c565b50505b505050565b5f82821c905092915050565b5f610b1f5f1984600802610b04565b1980831691505092915050565b5f610b378383610b10565b9150826002028217905092915050565b610b5082610916565b67ffffffffffffffff811115610b6957610b68610920565b5b610b73825461097a565b610b7e828285610abe565b5f60209050601f831160018114610baf575f8415610b9d578287015190505b610ba78582610b2c565b865550610c0e565b601f198416610bbd866109aa565b5f5b82811015610be457848901518255600182019150602085019450602081019050610bbf565b86831015610c015784890151610bfd601f891682610b10565b8355505b6001600288020188555050505b505050505050565b5f73ffffffffffffffffffffffffffffffffffffffff82169050919050565b5f610c3f82610c16565b9050919050565b610c4f81610c35565b82525050565b5f602082019050610c685f830184610c46565b92915050565b5f819050919050565b610c8081610c6e565b82525050565b610c8f81610876565b82525050565b5f60a082019050610ca85f830188610c77565b610cb56020830187610c77565b610cc26040830186610c77565b610ccf6060830185610c86565b610cdc6080830184610c46565b9695505050505050565b5f82825260208201905092915050565b8281835e5f83830152505050565b5f601f19601f8301169050919050565b5f610d1e82610916565b610d288185610ce6565b9350610d38818560208601610cf6565b610d4181610d04565b840191505092915050565b5f6020820190508181035f830152610d648184610d14565b905092915050565b5f81519050919050565b5f819050602082019050919050565b5f610d908251610c6e565b80915050919050565b5f610da382610d6c565b82610dad84610d76565b9050610db881610d85565b92506020821015610df857610df37fffffffffffffffffffffffffffffffffffffffffffffffffffffffffffffffff836020036008026109cb565b831692505b5050919050565b5f610e0982610876565b9150610e1483610876565b9250828201905080821115610e2c57610e2b61071a565b5b92915050565b5f606082019050610e455f830186610c46565b610e526020830185610c86565b610e5f6040830184610c86565b949350505050565b5f602082019050610e7a5f830184610c86565b92915050565b60805160a05160c05160e051610100516101205161014051612062610ed15f395f610e9001525f610e5501525f61138901525f61136801525f610b0b01525f610b6101525f610b8a01526120625ff3fe608060405234801561000f575f80fd5b506004361061011f575f3560e01c8063715018a6116100ab57806395d89b411161006f57806395d89b41146102fd578063a9059cbb1461031b578063d505accf1461034b578063dd62ed3e14610367578063f2fde38b146103975761011f565b8063715018a6146102635780637e1921f51461026d5780637ecebe001461028b57806384b0196e146102bb5780638da5cb5b146102df5761011f565b8063313ce567116100f2578063313ce567146101bf5780633644e515146101dd57806340c10f19146101fb57806342966c681461021757806370a08231146102335761011f565b806306fdde0314610123578063095ea7b31461014157806318160ddd1461017157806323b872dd1461018f575b5f80fd5b61012b6103b3565b604051610138919061183f565b60405180910390f35b61015b600480360381019061015691906118f0565b610443565b6040516101689190611948565b60405180910390f35b610179610465565b6040516101869190611970565b60405180910390f35b6101a960048036038101906101a49190611989565b61046e565b6040516101b69190611948565b60405180910390f35b6101c761049c565b6040516101d491906119f4565b60405180910390f35b6101e56104a4565b6040516101f29190611a25565b60405180910390f35b610215600480360381019061021091906118f0565b6104b2565b005b610231600480360381019061022c9190611a3e565b61051f565b005b61024d60048036038101906102489190611a69565b610534565b60405161025a9190611970565b60405180910390f35b61026b610579565b005b61027561058c565b6040516102829190611970565b60405180910390f35b6102a560048036038101906102a09190611a69565b610592565b6040516102b29190611970565b60405180910390f35b6102c36105a3565b6040516102d69796959493929190611b94565b60405180910390f35b6102e7610648565b6040516102f49190611c16565b60405180910390f35b610305610670565b604051610312919061183f565b60405180910390f35b610335600480360381019061033091906118f0565b610700565b6040516103429190611948565b60405180910390f35b61036560048036038101906103609190611c83565b610722565b005b610381600480360381019061037c9190611d20565b610867565b60405161038e9190611970565b60405180910390f35b6103b160048036038101906103ac9190611a69565b6108e9565b005b6060600380546103c290611d8b565b80601f01602080910402602001604051908101604052809291908181526020018280546103ee90611d8b565b80156104395780601f1061041057610100808354040283529160200191610439565b820191905f5260205f20905b81548152906001019060200180831161041c57829003601f168201915b5050505050905090565b5f8061044d61096d565b905061045a818585610974565b600191505092915050565b5f600254905090565b5f8061047861096d565b9050610485858285610986565b610490858585610a18565b60019150509392505050565b5f6012905090565b5f6104ad610b08565b905090565b6104ba610bbe565b600954816104c6610465565b6104d09190611de8565b1115610511576040517f08c379a000000000000000000000000000000000000000000000000000000000815260040161050890611e65565b60405180910390fd5b61051b8282610c45565b5050565b610527610bbe565b6105313382610cc4565b50565b5f805f8373ffffffffffffffffffffffffffffffffffffffff1673ffffffffffffffffffffffffffffffffffffffff1681526020019081526020015f20549050919050565b610581610bbe565b61058a5f610d43565b565b60095481565b5f61059c82610e06565b9050919050565b5f6060805f805f60606105b4610e4c565b6105bc610e87565b46305f801b5f67ffffffffffffffff8111156105db576105da611e83565b5b6040519080825280602002602001820160405280156106095781602001602082028036833780820191505090505b507f0f00000000000000000000000000000000000000000000000000000000000000959493929190965096509650965096509650965090919293949596565b5f60085f9054906101000a900473ffffffffffffffffffffffffffffffffffffffff16905090565b60606004805461067f90611d8b565b80601f01602080910402602001604051908101604052809291908181526020018280546106ab90611d8b565b80156106f65780601f106106cd576101008083540402835291602001916106f6565b820191905f5260205f20905b8154815290600101906020018083116106d957829003601f168201915b5050505050905090565b5f8061070a61096d565b9050610717818585610a18565b600191505092915050565b8342111561076757836040517f6279130200000000000000000000000000000000000000000000000000000000815260040161075e9190611970565b60405180910390fd5b5f7f6e71edae12b1b97f4d1f60370fef10105fa2faae0126114a169c64845d6126c98888886107958c610ec2565b896040516020016107ab96959493929190611eb0565b6040516020818303038152906040528051906020012090505f6107cd82610f15565b90505f6107dc82878787610f2e565b90508973ffffffffffffffffffffffffffffffffffffffff168173ffffffffffffffffffffffffffffffffffffffff161461085057808a6040517f4b800e46000000000000000000000000000000000000000000000000000000008152600401610847929190611f0f565b60405180910390fd5b61085b8a8a8a610974565b50505050505050505050565b5f60015f8473ffffffffffffffffffffffffffffffffffffffff1673ffffffffffffffffffffffffffffffffffffffff1681526020019081526020015f205f8373ffffffffffffffffffffffffffffffffffffffff1673ffffffffffffffffffffffffffffffffffffffff1681526020019081526020015f2054905092915050565b6108f1610bbe565b5f73ffffffffffffffffffffffffffffffffffffffff168173ffffffffffffffffffffffffffffffffffffffff1603610961575f6040517f1e4fbdf70000000000000000000000000000000000000000000000000000000081526004016109589190611c16565b60405180910390fd5b61096a81610d43565b50565b5f33905090565b6109818383836001610f5c565b505050565b5f6109918484610867565b90507fffffffffffffffffffffffffffffffffffffffffffffffffffffffffffffffff8114610a125781811015610a03578281836040517ffb8f41b20000000000000000000000000000000000000000000000000000000081526004016109fa93929190611f36565b60405180910390fd5b610a1184848484035f610f5c565b5b50505050565b5f73ffffffffffffffffffffffffffffffffffffffff168373ffffffffffffffffffffffffffffffffffffffff1603610a88575f6040517f96c6fd1e000000000000000000000000000000000000000000000000000000008152600401610a7f9190611c16565b60405180910390fd5b5f73ffffffffffffffffffffffffffffffffffffffff168273ffffffffffffffffffffffffffffffffffffffff1603610af8575f6040517fec442f05000000000000000000000000000000000000000000000000000000008152600401610aef9190611c16565b60405180910390fd5b610b0383838361112b565b505050565b5f7f000000000000000000000000000000000000000000000000000000000000000073ffffffffffffffffffffffffffffffffffffffff163073ffffffffffffffffffffffffffffffffffffffff16148015610b8357507f000000000000000000000000000000000000000000000000000000000000000046145b15610bb0577f00000000000000000000000000000000000000000000000000000000000000009050610bbb565b610bb8611344565b90505b90565b610bc661096d565b73ffffffffffffffffffffffffffffffffffffffff16610be4610648565b73ffffffffffffffffffffffffffffffffffffffff1614610c4357610c0761096d565b6040517f118cdaa7000000000000000000000000000000000000000000000000000000008152600401610c3a9190611c16565b60405180910390fd5b565b5f73ffffffffffffffffffffffffffffffffffffffff168273ffffffffffffffffffffffffffffffffffffffff1603610cb5575f6040517fec442f05000000000000000000000000000000000000000000000000000000008152600401610cac9190611c16565b60405180910390fd5b610cc05f838361112b565b5050565b5f73ffffffffffffffffffffffffffffffffffffffff168273ffffffffffffffffffffffffffffffffffffffff1603610d34575f6040517f96c6fd1e000000000000000000000000000000000000000000000000000000008152600401610d2b9190611c16565b60405180910390fd5b610d3f825f8361112b565b5050565b5f60085f9054906101000a900473ffffffffffffffffffffffffffffffffffffffff1690508160085f6101000a81548173ffffffffffffffffffffffffffffffffffffffff021916908373ffffffffffffffffffffffffffffffffffffffff1602179055508173ffffffffffffffffffffffffffffffffffffffff168173ffffffffffffffffffffffffffffffffffffffff167f8be0079c531659141344cd1fd0a4f28419497f9722a3daafe3b4186f6b6457e060405160405180910390a35050565b5f60075f8373ffffffffffffffffffffffffffffffffffffffff1673ffffffffffffffffffffffffffffffffffffffff1681526020019081526020015f20549050919050565b6060610e8260057f00000000000000000000000000000000000000000000000000000000000000006113d990919063ffffffff16565b905090565b6060610ebd60067f00000000000000000000000000000000000000000000000000000000000000006113d990919063ffffffff16565b905090565b5f60075f8373ffffffffffffffffffffffffffffffffffffffff1673ffffffffffffffffffffffffffffffffffffffff1681526020019081526020015f205f815480929190600101919050559050919050565b5f610f27610f21610b08565b83611486565b9050919050565b5f805f80610f3e888888886114c6565b925092509250610f4e82826115ad565b829350505050949350505050565b5f73ffffffffffffffffffffffffffffffffffffffff168473ffffffffffffffffffffffffffffffffffffffff1603610fcc575f6040517fe602df05000000000000000000000000000000000000000000000000000000008152600401610fc39190611c16565b60405180910390fd5b5f73ffffffffffffffffffffffffffffffffffffffff168373ffffffffffffffffffffffffffffffffffffffff160361103c575f6040517f94280d620000000000000000000000000000000000000000000000000000000081526004016110339190611c16565b60405180910390fd5b8160015f8673ffffffffffffffffffffffffffffffffffffffff1673ffffffffffffffffffffffffffffffffffffffff1681526020019081526020015f205f8573ffffffffffffffffffffffffffffffffffffffff1673ffffffffffffffffffffffffffffffffffffffff1681526020019081526020015f20819055508015611125578273ffffffffffffffffffffffffffffffffffffffff168473ffffffffffffffffffffffffffffffffffffffff167f8c5be1e5ebec7d5bd14f71427d1e84f3dd0314c0f7b2291e5b200ac8c7c3b9258460405161111c9190611970565b60405180910390a35b50505050565b5f73ffffffffffffffffffffffffffffffffffffffff168373ffffffffffffffffffffffffffffffffffffffff160361117b578060025f82825461116f9190611de8565b92505081905550611249565b5f805f8573ffffffffffffffffffffffffffffffffffffffff1673ffffffffffffffffffffffffffffffffffffffff1681526020019081526020015f2054905081811015611204578381836040517fe450d38c0000000000000000000000000000000000000000000000000000000081526004016111fb93929190611f36565b60405180910390fd5b8181035f808673ffffffffffffffffffffffffffffffffffffffff1673ffffffffffffffffffffffffffffffffffffffff1681526020019081526020015f2081905550505b5f73ffffffffffffffffffffffffffffffffffffffff168273ffffffffffffffffffffffffffffffffffffffff1603611290578060025f82825403925050819055506112da565b805f808473ffffffffffffffffffffffffffffffffffffffff1673ffffffffffffffffffffffffffffffffffffffff1681526020019081526020015f205f82825401925050819055505b8173ffffffffffffffffffffffffffffffffffffffff168373ffffffffffffffffffffffffffffffffffffffff167fddf252ad1be2c89b69c2b068fc378daa952ba7f163c4a11628f55a4df523b3ef836040516113379190611970565b60405180910390a3505050565b5f7f8b73c3c69bb8fe3d512ecc4cf759cc79239f7b179b0ffacaa9a75d522b39400f7f00000000000000000000000000000000000000000000000000000000000000007f000000000000000000000000000000000000000000000000000000000000000046306040516020016113be959493929190611f6b565b60405160208183030381529060405280519060200120905090565b606060ff5f1b83146113f5576113ee8361170f565b9050611480565b81805461140190611d8b565b80601f016020809104026020016040519081016040528092919081815260200182805461142d90611d8b565b80156114785780601f1061144f57610100808354040283529160200191611478565b820191905f5260205f20905b81548152906001019060200180831161145b57829003601f168201915b505050505090505b92915050565b5f6040517f190100000000000000000000000000000000000000000000000000000000000081528360028201528260228201526042812091505092915050565b5f805f7f7fffffffffffffffffffffffffffffff5d576e7357a4501ddfe92f46681b20a0845f1c1115611502575f6003859250925092506115a3565b5f6001888888886040515f81526020016040526040516115259493929190611fbc565b6020604051602081039080840390855afa158015611545573d5f803e3d5ffd5b5050506020604051035190505f73ffffffffffffffffffffffffffffffffffffffff168173ffffffffffffffffffffffffffffffffffffffff1603611596575f60015f801b935093509350506115a3565b805f805f1b935093509350505b9450945094915050565b5f60038111156115c0576115bf611fff565b5b8260038111156115d3576115d2611fff565b5b031561170b57600160038111156115ed576115ec611fff565b5b826003811115611600576115ff611fff565b5b03611637576040517ff645eedf00000000000000000000000000000000000000000000000000000000815260040160405180910390fd5b6002600381111561164b5761164a611fff565b5b82600381111561165e5761165d611fff565b5b036116a257805f1c6040517ffce698f70000000000000000000000000000000000000000000000000000000081526004016116999190611970565b60405180910390fd5b6003808111156116b5576116b4611fff565b5b8260038111156116c8576116c7611fff565b5b0361170a57806040517fd78bce0c0000000000000000000000000000000000000000000000000000000081526004016117019190611a25565b60405180910390fd5b5b5050565b60605f61171b83611781565b90505f602067ffffffffffffffff81111561173957611738611e83565b5b6040519080825280601f01601f19166020018201604052801561176b5781602001600182028036833780820191505090505b5090508181528360208201528092505050919050565b5f8060ff835f1c169050601f8111156117c6576040517fb3512b0c00000000000000000000000000000000000000000000000000000000815260040160405180910390fd5b80915050919050565b5f81519050919050565b5f82825260208201905092915050565b8281835e5f83830152505050565b5f601f19601f8301169050919050565b5f611811826117cf565b61181b81856117d9565b935061182b8185602086016117e9565b611834816117f7565b840191505092915050565b5f6020820190508181035f8301526118578184611807565b905092915050565b5f80fd5b5f73ffffffffffffffffffffffffffffffffffffffff82169050919050565b5f61188c82611863565b9050919050565b61189c81611882565b81146118a6575f80fd5b50565b5f813590506118b781611893565b92915050565b5f819050919050565b6118cf816118bd565b81146118d9575f80fd5b50565b5f813590506118ea816118c6565b92915050565b5f80604083850312156119065761190561185f565b5b5f611913858286016118a9565b9250506020611924858286016118dc565b9150509250929050565b5f8115159050919050565b6119428161192e565b82525050565b5f60208201905061195b5f830184611939565b92915050565b61196a816118bd565b82525050565b5f6020820190506119835f830184611961565b92915050565b5f805f606084860312156119a05761199f61185f565b5b5f6119ad868287016118a9565b93505060206119be868287016118a9565b92505060406119cf868287016118dc565b9150509250925092565b5f60ff82169050919050565b6119ee816119d9565b82525050565b5f602082019050611a075f8301846119e5565b92915050565b5f819050919050565b611a1f81611a0d565b82525050565b5f602082019050611a385f830184611a16565b92915050565b5f60208284031215611a5357611a5261185f565b5b5f611a60848285016118dc565b91505092915050565b5f60208284031215611a7e57611a7d61185f565b5b5f611a8b848285016118a9565b91505092915050565b5f7fff0000000000000000000000000000000000000000000000000000000000000082169050919050565b611ac881611a94565b82525050565b611ad781611882565b82525050565b5f81519050919050565b5f82825260208201905092915050565b5f819050602082019050919050565b611b0f816118bd565b82525050565b5f611b208383611b06565b60208301905092915050565b5f602082019050919050565b5f611b4282611add565b611b4c8185611ae7565b9350611b5783611af7565b805f5b83811015611b87578151611b6e8882611b15565b9750611b7983611b2c565b925050600181019050611b5a565b5085935050505092915050565b5f60e082019050611ba75f83018a611abf565b8181036020830152611bb98189611807565b90508181036040830152611bcd8188611807565b9050611bdc6060830187611961565b611be96080830186611ace565b611bf660a0830185611a16565b81810360c0830152611c088184611b38565b905098975050505050505050565b5f602082019050611c295f830184611ace565b92915050565b611c38816119d9565b8114611c42575f80fd5b50565b5f81359050611c5381611c2f565b92915050565b611c6281611a0d565b8114611c6c575f80fd5b50565b5f81359050611c7d81611c59565b92915050565b5f805f805f805f60e0888a031215611c9e57611c9d61185f565b5b5f611cab8a828b016118a9565b9750506020611cbc8a828b016118a9565b9650506040611ccd8a828b016118dc565b9550506060611cde8a828b016118dc565b9450506080611cef8a828b01611c45565b93505060a0611d008a828b01611c6f565b92505060c0611d118a828b01611c6f565b91505092959891949750929550565b5f8060408385031215611d3657611d3561185f565b5b5f611d43858286016118a9565b9250506020611d54858286016118a9565b9150509250929050565b7f4e487b71000000000000000000000000000000000000000000000000000000005f52602260045260245ffd5b5f6002820490506001821680611da257607f821691505b602082108103611db557611db4611d5e565b5b50919050565b7f4e487b71000000000000000000000000000000000000000000000000000000005f52601160045260245ffd5b5f611df2826118bd565b9150611dfd836118bd565b9250828201905080821115611e1557611e14611dbb565b5b92915050565b7f746f74616c20737570706c792031303025206d696e74656400000000000000005f82015250565b5f611e4f6018836117d9565b9150611e5a82611e1b565b602082019050919050565b5f6020820190508181035f830152611e7c81611e43565b9050919050565b7f4e487b71000000000000000000000000000000000000000000000000000000005f52604160045260245ffd5b5f60c082019050611ec35f830189611a16565b611ed06020830188611ace565b611edd6040830187611ace565b611eea6060830186611961565b611ef76080830185611961565b611f0460a0830184611961565b979650505050505050565b5f604082019050611f225f830185611ace565b611f2f6020830184611ace565b9392505050565b5f606082019050611f495f830186611ace565b611f566020830185611961565b611f636040830184611961565b949350505050565b5f60a082019050611f7e5f830188611a16565b611f8b6020830187611a16565b611f986040830186611a16565b611fa56060830185611961565b611fb26080830184611ace565b9695505050505050565b5f608082019050611fcf5f830187611a16565b611fdc60208301866119e5565b611fe96040830185611a16565b611ff66060830184611a16565b95945050505050565b7f4e487b71000000000000000000000000000000000000000000000000000000005f52602160045260245ffdfea26469706673582212203de646347c4c1fab28b98ffcd8de5e2f2d509b0f6e35ada8b4946bb8d97972b264736f6c634300081a0033",
					"opcodes": "PUSH2 0x160 PUSH1 0x40 MSTORE PUSH2 0x13 PUSH2 0x29C PUSH1 0x20 SHL PUSH1 0x20 SHR JUMP JUMPDEST PUSH1 0xA PUSH2 0x1F SWAP2 SWAP1 PUSH2 0x88B JUMP JUMPDEST PUSH2 0x2710 PUSH2 0x2C SWAP2 SWAP1 PUSH2 0x8D5 JUMP JUMPDEST PUSH1 0x9 SSTORE CALLVALUE DUP1 ISZERO PUSH2 0x3A JUMPI PUSH0 DUP1 REVERT JUMPDEST POP CALLER PUSH1 0x40 MLOAD DUP1 PUSH1 0x40 ADD PUSH1 0x40 MSTORE DUP1 PUSH1 0xA DUP2 MSTORE PUSH1 0x20 ADD PUSH32 0x5275747261546F6B656E00000000000000000000000000000000000000000000 DUP2 MSTORE POP DUP1 PUSH1 0x40 MLOAD DUP1 PUSH1 0x40 ADD PUSH1 0x40 MSTORE DUP1 PUSH1 0x1 DUP2 MSTORE PUSH1 0x20 ADD PUSH32 0x3100000000000000000000000000000000000000000000000000000000000000 DUP2 MSTORE POP PUSH1 0x40 MLOAD DUP1 PUSH1 0x40 ADD PUSH1 0x40 MSTORE DUP1 PUSH1 0xA DUP2 MSTORE PUSH1 0x20 ADD PUSH32 0x5275747261546F6B656E00000000000000000000000000000000000000000000 DUP2 MSTORE POP PUSH1 0x40 MLOAD DUP1 PUSH1 0x40 ADD PUSH1 0x40 MSTORE DUP1 PUSH1 0x5 DUP2 MSTORE PUSH1 0x20 ADD PUSH32 0x5255545241000000000000000000000000000000000000000000000000000000 DUP2 MSTORE POP DUP2 PUSH1 0x3 SWAP1 DUP2 PUSH2 0x124 SWAP2 SWAP1 PUSH2 0xB47 JUMP JUMPDEST POP DUP1 PUSH1 0x4 SWAP1 DUP2 PUSH2 0x134 SWAP2 SWAP1 PUSH2 0xB47 JUMP JUMPDEST POP POP POP PUSH2 0x14B PUSH1 0x5 DUP4 PUSH2 0x2A4 PUSH1 0x20 SHL SWAP1 SWAP2 SWAP1 PUSH1 0x20 SHR JUMP JUMPDEST PUSH2 0x120 DUP2 DUP2 MSTORE POP POP PUSH2 0x167 PUSH1 0x6 DUP3 PUSH2 0x2A4 PUSH1 0x20 SHL SWAP1 SWAP2 SWAP1 PUSH1 0x20 SHR JUMP JUMPDEST PUSH2 0x140 DUP2 DUP2 MSTORE POP POP DUP2 DUP1 MLOAD SWAP1 PUSH1 0x20 ADD KECCAK256 PUSH1 0xE0 DUP2 DUP2 MSTORE POP POP DUP1 DUP1 MLOAD SWAP1 PUSH1 0x20 ADD KECCAK256 PUSH2 0x100 DUP2 DUP2 MSTORE POP POP CHAINID PUSH1 0xA0 DUP2 DUP2 MSTORE POP POP PUSH2 0x1A4 PUSH2 0x2F1 PUSH1 0x20 SHL PUSH1 0x20 SHR JUMP JUMPDEST PUSH1 0x80 DUP2 DUP2 MSTORE POP POP ADDRESS PUSH20 0xFFFFFFFFFFFFFFFFFFFFFFFFFFFFFFFFFFFFFFFF AND PUSH1 0xC0 DUP2 PUSH20 0xFFFFFFFFFFFFFFFFFFFFFFFFFFFFFFFFFFFFFFFF AND DUP2 MSTORE POP POP POP POP POP PUSH0 PUSH20 0xFFFFFFFFFFFFFFFFFFFFFFFFFFFFFFFFFFFFFFFF AND DUP2 PUSH20 0xFFFFFFFFFFFFFFFFFFFFFFFFFFFFFFFFFFFFFFFF AND SUB PUSH2 0x252 JUMPI PUSH0 PUSH1 0x40 MLOAD PUSH32 0x1E4FBDF700000000000000000000000000000000000000000000000000000000 DUP2 MSTORE PUSH1 0x4 ADD PUSH2 0x249 SWAP2 SWAP1 PUSH2 0xC55 JUMP JUMPDEST PUSH1 0x40 MLOAD DUP1 SWAP2 SUB SWAP1 REVERT JUMPDEST PUSH2 0x261 DUP2 PUSH2 0x34B PUSH1 0x20 SHL PUSH1 0x20 SHR JUMP JUMPDEST POP PUSH2 0x297 CALLER PUSH2 0x274 PUSH2 0x29C PUSH1 0x20 SHL PUSH1 0x20 SHR JUMP JUMPDEST PUSH1 0xA PUSH2 0x280 SWAP2 SWAP1 PUSH2 0x88B JUMP JUMPDEST PUSH1 0x64 PUSH2 0x28C SWAP2 SWAP1 PUSH2 0x8D5 JUMP JUMPDEST PUSH2 0x40E PUSH1 0x20 SHL PUSH1 0x20 SHR JUMP JUMPDEST PUSH2 0xE80 JUMP JUMPDEST PUSH0 PUSH1 0x12 SWAP1 POP SWAP1 JUMP JUMPDEST PUSH0 PUSH1 0x20 DUP4 MLOAD LT ISZERO PUSH2 0x2C5 JUMPI PUSH2 0x2BE DUP4 PUSH2 0x493 PUSH1 0x20 SHL PUSH1 0x20 SHR JUMP JUMPDEST SWAP1 POP PUSH2 0x2EB JUMP JUMPDEST DUP3 PUSH2 0x2D5 DUP4 PUSH2 0x4F8 PUSH1 0x20 SHL PUSH1 0x20 SHR JUMP JUMPDEST PUSH0 ADD SWAP1 DUP2 PUSH2 0x2E3 SWAP2 SWAP1 PUSH2 0xB47 JUMP JUMPDEST POP PUSH1 0xFF PUSH0 SHL SWAP1 POP JUMPDEST SWAP3 SWAP2 POP POP JUMP JUMPDEST PUSH0 PUSH32 0x8B73C3C69BB8FE3D512ECC4CF759CC79239F7B179B0FFACAA9A75D522B39400F PUSH1 0xE0 MLOAD PUSH2 0x100 MLOAD CHAINID ADDRESS PUSH1 0x40 MLOAD PUSH1 0x20 ADD PUSH2 0x330 SWAP6 SWAP5 SWAP4 SWAP3 SWAP2 SWAP1 PUSH2 0xC95 JUMP JUMPDEST PUSH1 0x40 MLOAD PUSH1 0x20 DUP2 DUP4 SUB SUB DUP2 MSTORE SWAP1 PUSH1 0x40 MSTORE DUP1 MLOAD SWAP1 PUSH1 0x20 ADD KECCAK256 SWAP1 POP SWAP1 JUMP JUMPDEST PUSH0 PUSH1 0x8 PUSH0 SWAP1 SLOAD SWAP1 PUSH2 0x100 EXP SWAP1 DIV PUSH20 0xFFFFFFFFFFFFFFFFFFFFFFFFFFFFFFFFFFFFFFFF AND SWAP1 POP DUP2 PUSH1 0x8 PUSH0 PUSH2 0x100 EXP DUP2 SLOAD DUP2 PUSH20 0xFFFFFFFFFFFFFFFFFFFFFFFFFFFFFFFFFFFFFFFF MUL NOT AND SWAP1 DUP4 PUSH20 0xFFFFFFFFFFFFFFFFFFFFFFFFFFFFFFFFFFFFFFFF AND MUL OR SWAP1 SSTORE POP DUP2 PUSH20 0xFFFFFFFFFFFFFFFFFFFFFFFFFFFFFFFFFFFFFFFF AND DUP2 PUSH20 0xFFFFFFFFFFFFFFFFFFFFFFFFFFFFFFFFFFFFFFFF AND PUSH32 0x8BE0079C531659141344CD1FD0A4F28419497F9722A3DAAFE3B4186F6B6457E0 PUSH1 0x40 MLOAD PUSH1 0x40 MLOAD DUP1 SWAP2 SUB SWAP1 LOG3 POP POP JUMP JUMPDEST PUSH0 PUSH20 0xFFFFFFFFFFFFFFFFFFFFFFFFFFFFFFFFFFFFFFFF AND DUP3 PUSH20 0xFFFFFFFFFFFFFFFFFFFFFFFFFFFFFFFFFFFFFFFF AND SUB PUSH2 0x47E JUMPI PUSH0 PUSH1 0x40 MLOAD PUSH32 0xEC442F0500000000000000000000000000000000000000000000000000000000 DUP2 MSTORE PUSH1 0x4 ADD PUSH2 0x475 SWAP2 SWAP1 PUSH2 0xC55 JUMP JUMPDEST PUSH1 0x40 MLOAD DUP1 SWAP2 SUB SWAP1 REVERT JUMPDEST PUSH2 0x48F PUSH0 DUP4 DUP4 PUSH2 0x501 PUSH1 0x20 SHL PUSH1 0x20 SHR JUMP JUMPDEST POP POP JUMP JUMPDEST PUSH0 DUP1 DUP3 SWAP1 POP PUSH1 0x1F DUP2 MLOAD GT ISZERO PUSH2 0x4DF JUMPI DUP3 PUSH1 0x40 MLOAD PUSH32 0x305A27A900000000000000000000000000000000000000000000000000000000 DUP2 MSTORE PUSH1 0x4 ADD PUSH2 0x4D6 SWAP2 SWAP1 PUSH2 0xD4C JUMP JUMPDEST PUSH1 0x40 MLOAD DUP1 SWAP2 SUB SWAP1 REVERT JUMPDEST DUP1 MLOAD DUP2 PUSH2 0x4EB SWAP1 PUSH2 0xD99 JUMP JUMPDEST PUSH0 SHR OR PUSH0 SHL SWAP2 POP POP SWAP2 SWAP1 POP JUMP JUMPDEST PUSH0 DUP2 SWAP1 POP SWAP2 SWAP1 POP JUMP JUMPDEST PUSH0 PUSH20 0xFFFFFFFFFFFFFFFFFFFFFFFFFFFFFFFFFFFFFFFF AND DUP4 PUSH20 0xFFFFFFFFFFFFFFFFFFFFFFFFFFFFFFFFFFFFFFFF AND SUB PUSH2 0x551 JUMPI DUP1 PUSH1 0x2 PUSH0 DUP3 DUP3 SLOAD PUSH2 0x545 SWAP2 SWAP1 PUSH2 0xDFF JUMP JUMPDEST SWAP3 POP POP DUP2 SWAP1 SSTORE POP PUSH2 0x61F JUMP JUMPDEST PUSH0 DUP1 PUSH0 DUP6 PUSH20 0xFFFFFFFFFFFFFFFFFFFFFFFFFFFFFFFFFFFFFFFF AND PUSH20 0xFFFFFFFFFFFFFFFFFFFFFFFFFFFFFFFFFFFFFFFF AND DUP2 MSTORE PUSH1 0x20 ADD SWAP1 DUP2 MSTORE PUSH1 0x20 ADD PUSH0 KECCAK256 SLOAD SWAP1 POP DUP2 DUP2 LT ISZERO PUSH2 0x5DA JUMPI DUP4 DUP2 DUP4 PUSH1 0x40 MLOAD PUSH32 0xE450D38C00000000000000000000000000000000000000000000000000000000 DUP2 MSTORE PUSH1 0x4 ADD PUSH2 0x5D1 SWAP4 SWAP3 SWAP2 SWAP1 PUSH2 0xE32 JUMP JUMPDEST PUSH1 0x40 MLOAD DUP1 SWAP2 SUB SWAP1 REVERT JUMPDEST DUP2 DUP2 SUB PUSH0 DUP1 DUP7 PUSH20 0xFFFFFFFFFFFFFFFFFFFFFFFFFFFFFFFFFFFFFFFF AND PUSH20 0xFFFFFFFFFFFFFFFFFFFFFFFFFFFFFFFFFFFFFFFF AND DUP2 MSTORE PUSH1 0x20 ADD SWAP1 DUP2 MSTORE PUSH1 0x20 ADD PUSH0 KECCAK256 DUP2 SWAP1 SSTORE POP POP JUMPDEST PUSH0 PUSH20 0xFFFFFFFFFFFFFFFFFFFFFFFFFFFFFFFFFFFFFFFF AND DUP3 PUSH20 0xFFFFFFFFFFFFFFFFFFFFFFFFFFFFFFFFFFFFFFFF AND SUB PUSH2 0x666 JUMPI DUP1 PUSH1 0x2 PUSH0 DUP3 DUP3 SLOAD SUB SWAP3 POP POP DUP2 SWAP1 SSTORE POP PUSH2 0x6B0 JUMP JUMPDEST DUP1 PUSH0 DUP1 DUP5 PUSH20 0xFFFFFFFFFFFFFFFFFFFFFFFFFFFFFFFFFFFFFFFF AND PUSH20 0xFFFFFFFFFFFFFFFFFFFFFFFFFFFFFFFFFFFFFFFF AND DUP2 MSTORE PUSH1 0x20 ADD SWAP1 DUP2 MSTORE PUSH1 0x20 ADD PUSH0 KECCAK256 PUSH0 DUP3 DUP3 SLOAD ADD SWAP3 POP POP DUP2 SWAP1 SSTORE POP JUMPDEST DUP2 PUSH20 0xFFFFFFFFFFFFFFFFFFFFFFFFFFFFFFFFFFFFFFFF AND DUP4 PUSH20 0xFFFFFFFFFFFFFFFFFFFFFFFFFFFFFFFFFFFFFFFF AND PUSH32 0xDDF252AD1BE2C89B69C2B068FC378DAA952BA7F163C4A11628F55A4DF523B3EF DUP4 PUSH1 0x40 MLOAD PUSH2 0x70D SWAP2 SWAP1 PUSH2 0xE67 JUMP JUMPDEST PUSH1 0x40 MLOAD DUP1 SWAP2 SUB SWAP1 LOG3 POP POP POP JUMP JUMPDEST PUSH32 0x4E487B7100000000000000000000000000000000000000000000000000000000 PUSH0 MSTORE PUSH1 0x11 PUSH1 0x4 MSTORE PUSH1 0x24 PUSH0 REVERT JUMPDEST PUSH0 DUP2 PUSH1 0x1 SHR SWAP1 POP SWAP2 SWAP1 POP JUMP JUMPDEST PUSH0 DUP1 DUP3 SWAP2 POP DUP4 SWAP1 POP JUMPDEST PUSH1 0x1 DUP6 GT ISZERO PUSH2 0x79C JUMPI DUP1 DUP7 DIV DUP2 GT ISZERO PUSH2 0x778 JUMPI PUSH2 0x777 PUSH2 0x71A JUMP JUMPDEST JUMPDEST PUSH1 0x1 DUP6 AND ISZERO PUSH2 0x787 JUMPI DUP1 DUP3 MUL SWAP2 POP JUMPDEST DUP1 DUP2 MUL SWAP1 POP PUSH2 0x795 DUP6 PUSH2 0x747 JUMP JUMPDEST SWAP5 POP PUSH2 0x75C JUMP JUMPDEST SWAP5 POP SWAP5 SWAP3 POP POP POP JUMP JUMPDEST PUSH0 DUP3 PUSH2 0x7B4 JUMPI PUSH1 0x1 SWAP1 POP PUSH2 0x86F JUMP JUMPDEST DUP2 PUSH2 0x7C1 JUMPI PUSH0 SWAP1 POP PUSH2 0x86F JUMP JUMPDEST DUP2 PUSH1 0x1 DUP2 EQ PUSH2 0x7D7 JUMPI PUSH1 0x2 DUP2 EQ PUSH2 0x7E1 JUMPI PUSH2 0x810 JUMP JUMPDEST PUSH1 0x1 SWAP2 POP POP PUSH2 0x86F JUMP JUMPDEST PUSH1 0xFF DUP5 GT ISZERO PUSH2 0x7F3 JUMPI PUSH2 0x7F2 PUSH2 0x71A JUMP JUMPDEST JUMPDEST DUP4 PUSH1 0x2 EXP SWAP2 POP DUP5 DUP3 GT ISZERO PUSH2 0x80A JUMPI PUSH2 0x809 PUSH2 0x71A JUMP JUMPDEST JUMPDEST POP PUSH2 0x86F JUMP JUMPDEST POP PUSH1 0x20 DUP4 LT PUSH2 0x133 DUP4 LT AND PUSH1 0x4E DUP5 LT PUSH1 0xB DUP5 LT AND OR ISZERO PUSH2 0x845 JUMPI DUP3 DUP3 EXP SWAP1 POP DUP4 DUP2 GT ISZERO PUSH2 0x840 JUMPI PUSH2 0x83F PUSH2 0x71A JUMP JUMPDEST JUMPDEST PUSH2 0x86F JUMP JUMPDEST PUSH2 0x852 DUP5 DUP5 DUP5 PUSH1 0x1 PUSH2 0x753 JUMP JUMPDEST SWAP3 POP SWAP1 POP DUP2 DUP5 DIV DUP2 GT ISZERO PUSH2 0x869 JUMPI PUSH2 0x868 PUSH2 0x71A JUMP JUMPDEST JUMPDEST DUP2 DUP2 MUL SWAP1 POP JUMPDEST SWAP4 SWAP3 POP POP POP JUMP JUMPDEST PUSH0 DUP2 SWAP1 POP SWAP2 SWAP1 POP JUMP JUMPDEST PUSH0 PUSH1 0xFF DUP3 AND SWAP1 POP SWAP2 SWAP1 POP JUMP JUMPDEST PUSH0 PUSH2 0x895 DUP3 PUSH2 0x876 JUMP JUMPDEST SWAP2 POP PUSH2 0x8A0 DUP4 PUSH2 0x87F JUMP JUMPDEST SWAP3 POP PUSH2 0x8CD PUSH32 0xFFFFFFFFFFFFFFFFFFFFFFFFFFFFFFFFFFFFFFFFFFFFFFFFFFFFFFFFFFFFFFFF DUP5 DUP5 PUSH2 0x7A5 JUMP JUMPDEST SWAP1 POP SWAP3 SWAP2 POP POP JUMP JUMPDEST PUSH0 PUSH2 0x8DF DUP3 PUSH2 0x876 JUMP JUMPDEST SWAP2 POP PUSH2 0x8EA DUP4 PUSH2 0x876 JUMP JUMPDEST SWAP3 POP DUP3 DUP3 MUL PUSH2 0x8F8 DUP2 PUSH2 0x876 JUMP JUMPDEST SWAP2 POP DUP3 DUP3 DIV DUP5 EQ DUP4 ISZERO OR PUSH2 0x90F JUMPI PUSH2 0x90E PUSH2 0x71A JUMP JUMPDEST JUMPDEST POP SWAP3 SWAP2 POP POP JUMP JUMPDEST PUSH0 DUP2 MLOAD SWAP1 POP SWAP2 SWAP1 POP JUMP JUMPDEST PUSH32 0x4E487B7100000000000000000000000000000000000000000000000000000000 PUSH0 MSTORE PUSH1 0x41 PUSH1 0x4 MSTORE PUSH1 0x24 PUSH0 REVERT JUMPDEST PUSH32 0x4E487B7100000000000000000000000000000000000000000000000000000000 PUSH0 MSTORE PUSH1 0x22 PUSH1 0x4 MSTORE PUSH1 0x24 PUSH0 REVERT JUMPDEST PUSH0 PUSH1 0x2 DUP3 DIV SWAP1 POP PUSH1 0x1 DUP3 AND DUP1 PUSH2 0x991 JUMPI PUSH1 0x7F DUP3 AND SWAP2 POP JUMPDEST PUSH1 0x20 DUP3 LT DUP2 SUB PUSH2 0x9A4 JUMPI PUSH2 0x9A3 PUSH2 0x94D JUMP JUMPDEST JUMPDEST POP SWAP2 SWAP1 POP JUMP JUMPDEST PUSH0 DUP2 SWAP1 POP DUP2 PUSH0 MSTORE PUSH1 0x20 PUSH0 KECCAK256 SWAP1 POP SWAP2 SWAP1 POP JUMP JUMPDEST PUSH0 PUSH1 0x20 PUSH1 0x1F DUP4 ADD DIV SWAP1 POP SWAP2 SWAP1 POP JUMP JUMPDEST PUSH0 DUP3 DUP3 SHL SWAP1 POP SWAP3 SWAP2 POP POP JUMP JUMPDEST PUSH0 PUSH1 0x8 DUP4 MUL PUSH2 0xA06 PUSH32 0xFFFFFFFFFFFFFFFFFFFFFFFFFFFFFFFFFFFFFFFFFFFFFFFFFFFFFFFFFFFFFFFF DUP3 PUSH2 0x9CB JUMP JUMPDEST PUSH2 0xA10 DUP7 DUP4 PUSH2 0x9CB JUMP JUMPDEST SWAP6 POP DUP1 NOT DUP5 AND SWAP4 POP DUP1 DUP7 AND DUP5 OR SWAP3 POP POP POP SWAP4 SWAP3 POP POP POP JUMP JUMPDEST PUSH0 DUP2 SWAP1 POP SWAP2 SWAP1 POP JUMP JUMPDEST PUSH0 PUSH2 0xA4B PUSH2 0xA46 PUSH2 0xA41 DUP5 PUSH2 0x876 JUMP JUMPDEST PUSH2 0xA28 JUMP JUMPDEST PUSH2 0x876 JUMP JUMPDEST SWAP1 POP SWAP2 SWAP1 POP JUMP JUMPDEST PUSH0 DUP2 SWAP1 POP SWAP2 SWAP1 POP JUMP JUMPDEST PUSH2 0xA64 DUP4 PUSH2 0xA31 JUMP JUMPDEST PUSH2 0xA78 PUSH2 0xA70 DUP3 PUSH2 0xA52 JUMP JUMPDEST DUP5 DUP5 SLOAD PUSH2 0x9D7 JUMP JUMPDEST DUP3 SSTORE POP POP POP POP JUMP JUMPDEST PUSH0 SWAP1 JUMP JUMPDEST PUSH2 0xA8C PUSH2 0xA80 JUMP JUMPDEST PUSH2 0xA97 DUP2 DUP5 DUP5 PUSH2 0xA5B JUMP JUMPDEST POP POP POP JUMP JUMPDEST JUMPDEST DUP2 DUP2 LT ISZERO PUSH2 0xABA JUMPI PUSH2 0xAAF PUSH0 DUP3 PUSH2 0xA84 JUMP JUMPDEST PUSH1 0x1 DUP2 ADD SWAP1 POP PUSH2 0xA9D JUMP JUMPDEST POP POP JUMP JUMPDEST PUSH1 0x1F DUP3 GT ISZERO PUSH2 0xAFF JUMPI PUSH2 0xAD0 DUP2 PUSH2 0x9AA JUMP JUMPDEST PUSH2 0xAD9 DUP5 PUSH2 0x9BC JUMP JUMPDEST DUP2 ADD PUSH1 0x20 DUP6 LT ISZERO PUSH2 0xAE8 JUMPI DUP2 SWAP1 POP JUMPDEST PUSH2 0xAFC PUSH2 0xAF4 DUP6 PUSH2 0x9BC JUMP JUMPDEST DUP4 ADD DUP3 PUSH2 0xA9C JUMP JUMPDEST POP POP JUMPDEST POP POP POP JUMP JUMPDEST PUSH0 DUP3 DUP3 SHR SWAP1 POP SWAP3 SWAP2 POP POP JUMP JUMPDEST PUSH0 PUSH2 0xB1F PUSH0 NOT DUP5 PUSH1 0x8 MUL PUSH2 0xB04 JUMP JUMPDEST NOT DUP1 DUP4 AND SWAP2 POP POP SWAP3 SWAP2 POP POP JUMP JUMPDEST PUSH0 PUSH2 0xB37 DUP4 DUP4 PUSH2 0xB10 JUMP JUMPDEST SWAP2 POP DUP3 PUSH1 0x2 MUL DUP3 OR SWAP1 POP SWAP3 SWAP2 POP POP JUMP JUMPDEST PUSH2 0xB50 DUP3 PUSH2 0x916 JUMP JUMPDEST PUSH8 0xFFFFFFFFFFFFFFFF DUP2 GT ISZERO PUSH2 0xB69 JUMPI PUSH2 0xB68 PUSH2 0x920 JUMP JUMPDEST JUMPDEST PUSH2 0xB73 DUP3 SLOAD PUSH2 0x97A JUMP JUMPDEST PUSH2 0xB7E DUP3 DUP3 DUP6 PUSH2 0xABE JUMP JUMPDEST PUSH0 PUSH1 0x20 SWAP1 POP PUSH1 0x1F DUP4 GT PUSH1 0x1 DUP2 EQ PUSH2 0xBAF JUMPI PUSH0 DUP5 ISZERO PUSH2 0xB9D JUMPI DUP3 DUP8 ADD MLOAD SWAP1 POP JUMPDEST PUSH2 0xBA7 DUP6 DUP3 PUSH2 0xB2C JUMP JUMPDEST DUP7 SSTORE POP PUSH2 0xC0E JUMP JUMPDEST PUSH1 0x1F NOT DUP5 AND PUSH2 0xBBD DUP7 PUSH2 0x9AA JUMP JUMPDEST PUSH0 JUMPDEST DUP3 DUP2 LT ISZERO PUSH2 0xBE4 JUMPI DUP5 DUP10 ADD MLOAD DUP3 SSTORE PUSH1 0x1 DUP3 ADD SWAP2 POP PUSH1 0x20 DUP6 ADD SWAP5 POP PUSH1 0x20 DUP2 ADD SWAP1 POP PUSH2 0xBBF JUMP JUMPDEST DUP7 DUP4 LT ISZERO PUSH2 0xC01 JUMPI DUP5 DUP10 ADD MLOAD PUSH2 0xBFD PUSH1 0x1F DUP10 AND DUP3 PUSH2 0xB10 JUMP JUMPDEST DUP4 SSTORE POP JUMPDEST PUSH1 0x1 PUSH1 0x2 DUP9 MUL ADD DUP9 SSTORE POP POP POP JUMPDEST POP POP POP POP POP POP JUMP JUMPDEST PUSH0 PUSH20 0xFFFFFFFFFFFFFFFFFFFFFFFFFFFFFFFFFFFFFFFF DUP3 AND SWAP1 POP SWAP2 SWAP1 POP JUMP JUMPDEST PUSH0 PUSH2 0xC3F DUP3 PUSH2 0xC16 JUMP JUMPDEST SWAP1 POP SWAP2 SWAP1 POP JUMP JUMPDEST PUSH2 0xC4F DUP2 PUSH2 0xC35 JUMP JUMPDEST DUP3 MSTORE POP POP JUMP JUMPDEST PUSH0 PUSH1 0x20 DUP3 ADD SWAP1 POP PUSH2 0xC68 PUSH0 DUP4 ADD DUP5 PUSH2 0xC46 JUMP JUMPDEST SWAP3 SWAP2 POP POP JUMP JUMPDEST PUSH0 DUP2 SWAP1 POP SWAP2 SWAP1 POP JUMP JUMPDEST PUSH2 0xC80 DUP2 PUSH2 0xC6E JUMP JUMPDEST DUP3 MSTORE POP POP JUMP JUMPDEST PUSH2 0xC8F DUP2 PUSH2 0x876 JUMP JUMPDEST DUP3 MSTORE POP POP JUMP JUMPDEST PUSH0 PUSH1 0xA0 DUP3 ADD SWAP1 POP PUSH2 0xCA8 PUSH0 DUP4 ADD DUP9 PUSH2 0xC77 JUMP JUMPDEST PUSH2 0xCB5 PUSH1 0x20 DUP4 ADD DUP8 PUSH2 0xC77 JUMP JUMPDEST PUSH2 0xCC2 PUSH1 0x40 DUP4 ADD DUP7 PUSH2 0xC77 JUMP JUMPDEST PUSH2 0xCCF PUSH1 0x60 DUP4 ADD DUP6 PUSH2 0xC86 JUMP JUMPDEST PUSH2 0xCDC PUSH1 0x80 DUP4 ADD DUP5 PUSH2 0xC46 JUMP JUMPDEST SWAP7 SWAP6 POP POP POP POP POP POP JUMP JUMPDEST PUSH0 DUP3 DUP3 MSTORE PUSH1 0x20 DUP3 ADD SWAP1 POP SWAP3 SWAP2 POP POP JUMP JUMPDEST DUP3 DUP2 DUP4 MCOPY PUSH0 DUP4 DUP4 ADD MSTORE POP POP POP JUMP JUMPDEST PUSH0 PUSH1 0x1F NOT PUSH1 0x1F DUP4 ADD AND SWAP1 POP SWAP2 SWAP1 POP JUMP JUMPDEST PUSH0 PUSH2 0xD1E DUP3 PUSH2 0x916 JUMP JUMPDEST PUSH2 0xD28 DUP2 DUP6 PUSH2 0xCE6 JUMP JUMPDEST SWAP4 POP PUSH2 0xD38 DUP2 DUP6 PUSH1 0x20 DUP7 ADD PUSH2 0xCF6 JUMP JUMPDEST PUSH2 0xD41 DUP2 PUSH2 0xD04 JUMP JUMPDEST DUP5 ADD SWAP2 POP POP SWAP3 SWAP2 POP POP JUMP JUMPDEST PUSH0 PUSH1 0x20 DUP3 ADD SWAP1 POP DUP2 DUP2 SUB PUSH0 DUP4 ADD MSTORE PUSH2 0xD64 DUP2 DUP5 PUSH2 0xD14 JUMP JUMPDEST SWAP1 POP SWAP3 SWAP2 POP POP JUMP JUMPDEST PUSH0 DUP2 MLOAD SWAP1 POP SWAP2 SWAP1 POP JUMP JUMPDEST PUSH0 DUP2 SWAP1 POP PUSH1 0x20 DUP3 ADD SWAP1 POP SWAP2 SWAP1 POP JUMP JUMPDEST PUSH0 PUSH2 0xD90 DUP3 MLOAD PUSH2 0xC6E JUMP JUMPDEST DUP1 SWAP2 POP POP SWAP2 SWAP1 POP JUMP JUMPDEST PUSH0 PUSH2 0xDA3 DUP3 PUSH2 0xD6C JUMP JUMPDEST DUP3 PUSH2 0xDAD DUP5 PUSH2 0xD76 JUMP JUMPDEST SWAP1 POP PUSH2 0xDB8 DUP2 PUSH2 0xD85 JUMP JUMPDEST SWAP3 POP PUSH1 0x20 DUP3 LT ISZERO PUSH2 0xDF8 JUMPI PUSH2 0xDF3 PUSH32 0xFFFFFFFFFFFFFFFFFFFFFFFFFFFFFFFFFFFFFFFFFFFFFFFFFFFFFFFFFFFFFFFF DUP4 PUSH1 0x20 SUB PUSH1 0x8 MUL PUSH2 0x9CB JUMP JUMPDEST DUP4 AND SWAP3 POP JUMPDEST POP POP SWAP2 SWAP1 POP JUMP JUMPDEST PUSH0 PUSH2 0xE09 DUP3 PUSH2 0x876 JUMP JUMPDEST SWAP2 POP PUSH2 0xE14 DUP4 PUSH2 0x876 JUMP JUMPDEST SWAP3 POP DUP3 DUP3 ADD SWAP1 POP DUP1 DUP3 GT ISZERO PUSH2 0xE2C JUMPI PUSH2 0xE2B PUSH2 0x71A JUMP JUMPDEST JUMPDEST SWAP3 SWAP2 POP POP JUMP JUMPDEST PUSH0 PUSH1 0x60 DUP3 ADD SWAP1 POP PUSH2 0xE45 PUSH0 DUP4 ADD DUP7 PUSH2 0xC46 JUMP JUMPDEST PUSH2 0xE52 PUSH1 0x20 DUP4 ADD DUP6 PUSH2 0xC86 JUMP JUMPDEST PUSH2 0xE5F PUSH1 0x40 DUP4 ADD DUP5 PUSH2 0xC86 JUMP JUMPDEST SWAP5 SWAP4 POP POP POP POP JUMP JUMPDEST PUSH0 PUSH1 0x20 DUP3 ADD SWAP1 POP PUSH2 0xE7A PUSH0 DUP4 ADD DUP5 PUSH2 0xC86 JUMP JUMPDEST SWAP3 SWAP2 POP POP JUMP JUMPDEST PUSH1 0x80 MLOAD PUSH1 0xA0 MLOAD PUSH1 0xC0 MLOAD PUSH1 0xE0 MLOAD PUSH2 0x100 MLOAD PUSH2 0x120 MLOAD PUSH2 0x140 MLOAD PUSH2 0x2062 PUSH2 0xED1 PUSH0 CODECOPY PUSH0 PUSH2 0xE90 ADD MSTORE PUSH0 PUSH2 0xE55 ADD MSTORE PUSH0 PUSH2 0x1389 ADD MSTORE PUSH0 PUSH2 0x1368 ADD MSTORE PUSH0 PUSH2 0xB0B ADD MSTORE PUSH0 PUSH2 0xB61 ADD MSTORE PUSH0 PUSH2 0xB8A ADD MSTORE PUSH2 0x2062 PUSH0 RETURN INVALID PUSH1 0x80 PUSH1 0x40 MSTORE CALLVALUE DUP1 ISZERO PUSH2 0xF JUMPI PUSH0 DUP1 REVERT JUMPDEST POP PUSH1 0x4 CALLDATASIZE LT PUSH2 0x11F JUMPI PUSH0 CALLDATALOAD PUSH1 0xE0 SHR DUP1 PUSH4 0x715018A6 GT PUSH2 0xAB JUMPI DUP1 PUSH4 0x95D89B41 GT PUSH2 0x6F JUMPI DUP1 PUSH4 0x95D89B41 EQ PUSH2 0x2FD JUMPI DUP1 PUSH4 0xA9059CBB EQ PUSH2 0x31B JUMPI DUP1 PUSH4 0xD505ACCF EQ PUSH2 0x34B JUMPI DUP1 PUSH4 0xDD62ED3E EQ PUSH2 0x367 JUMPI DUP1 PUSH4 0xF2FDE38B EQ PUSH2 0x397 JUMPI PUSH2 0x11F JUMP JUMPDEST DUP1 PUSH4 0x715018A6 EQ PUSH2 0x263 JUMPI DUP1 PUSH4 0x7E1921F5 EQ PUSH2 0x26D JUMPI DUP1 PUSH4 0x7ECEBE00 EQ PUSH2 0x28B JUMPI DUP1 PUSH4 0x84B0196E EQ PUSH2 0x2BB JUMPI DUP1 PUSH4 0x8DA5CB5B EQ PUSH2 0x2DF JUMPI PUSH2 0x11F JUMP JUMPDEST DUP1 PUSH4 0x313CE567 GT PUSH2 0xF2 JUMPI DUP1 PUSH4 0x313CE567 EQ PUSH2 0x1BF JUMPI DUP1 PUSH4 0x3644E515 EQ PUSH2 0x1DD JUMPI DUP1 PUSH4 0x40C10F19 EQ PUSH2 0x1FB JUMPI DUP1 PUSH4 0x42966C68 EQ PUSH2 0x217 JUMPI DUP1 PUSH4 0x70A08231 EQ PUSH2 0x233 JUMPI PUSH2 0x11F JUMP JUMPDEST DUP1 PUSH4 0x6FDDE03 EQ PUSH2 0x123 JUMPI DUP1 PUSH4 0x95EA7B3 EQ PUSH2 0x141 JUMPI DUP1 PUSH4 0x18160DDD EQ PUSH2 0x171 JUMPI DUP1 PUSH4 0x23B872DD EQ PUSH2 0x18F JUMPI JUMPDEST PUSH0 DUP1 REVERT JUMPDEST PUSH2 0x12B PUSH2 0x3B3 JUMP JUMPDEST PUSH1 0x40 MLOAD PUSH2 0x138 SWAP2 SWAP1 PUSH2 0x183F JUMP JUMPDEST PUSH1 0x40 MLOAD DUP1 SWAP2 SUB SWAP1 RETURN JUMPDEST PUSH2 0x15B PUSH1 0x4 DUP1 CALLDATASIZE SUB DUP2 ADD SWAP1 PUSH2 0x156 SWAP2 SWAP1 PUSH2 0x18F0 JUMP JUMPDEST PUSH2 0x443 JUMP JUMPDEST PUSH1 0x40 MLOAD PUSH2 0x168 SWAP2 SWAP1 PUSH2 0x1948 JUMP JUMPDEST PUSH1 0x40 MLOAD DUP1 SWAP2 SUB SWAP1 RETURN JUMPDEST PUSH2 0x179 PUSH2 0x465 JUMP JUMPDEST PUSH1 0x40 MLOAD PUSH2 0x186 SWAP2 SWAP1 PUSH2 0x1970 JUMP JUMPDEST PUSH1 0x40 MLOAD DUP1 SWAP2 SUB SWAP1 RETURN JUMPDEST PUSH2 0x1A9 PUSH1 0x4 DUP1 CALLDATASIZE SUB DUP2 ADD SWAP1 PUSH2 0x1A4 SWAP2 SWAP1 PUSH2 0x1989 JUMP JUMPDEST PUSH2 0x46E JUMP JUMPDEST PUSH1 0x40 MLOAD PUSH2 0x1B6 SWAP2 SWAP1 PUSH2 0x1948 JUMP JUMPDEST PUSH1 0x40 MLOAD DUP1 SWAP2 SUB SWAP1 RETURN JUMPDEST PUSH2 0x1C7 PUSH2 0x49C JUMP JUMPDEST PUSH1 0x40 MLOAD PUSH2 0x1D4 SWAP2 SWAP1 PUSH2 0x19F4 JUMP JUMPDEST PUSH1 0x40 MLOAD DUP1 SWAP2 SUB SWAP1 RETURN JUMPDEST PUSH2 0x1E5 PUSH2 0x4A4 JUMP JUMPDEST PUSH1 0x40 MLOAD PUSH2 0x1F2 SWAP2 SWAP1 PUSH2 0x1A25 JUMP JUMPDEST PUSH1 0x40 MLOAD DUP1 SWAP2 SUB SWAP1 RETURN JUMPDEST PUSH2 0x215 PUSH1 0x4 DUP1 CALLDATASIZE SUB DUP2 ADD SWAP1 PUSH2 0x210 SWAP2 SWAP1 PUSH2 0x18F0 JUMP JUMPDEST PUSH2 0x4B2 JUMP JUMPDEST STOP JUMPDEST PUSH2 0x231 PUSH1 0x4 DUP1 CALLDATASIZE SUB DUP2 ADD SWAP1 PUSH2 0x22C SWAP2 SWAP1 PUSH2 0x1A3E JUMP JUMPDEST PUSH2 0x51F JUMP JUMPDEST STOP JUMPDEST PUSH2 0x24D PUSH1 0x4 DUP1 CALLDATASIZE SUB DUP2 ADD SWAP1 PUSH2 0x248 SWAP2 SWAP1 PUSH2 0x1A69 JUMP JUMPDEST PUSH2 0x534 JUMP JUMPDEST PUSH1 0x40 MLOAD PUSH2 0x25A SWAP2 SWAP1 PUSH2 0x1970 JUMP JUMPDEST PUSH1 0x40 MLOAD DUP1 SWAP2 SUB SWAP1 RETURN JUMPDEST PUSH2 0x26B PUSH2 0x579 JUMP JUMPDEST STOP JUMPDEST PUSH2 0x275 PUSH2 0x58C JUMP JUMPDEST PUSH1 0x40 MLOAD PUSH2 0x282 SWAP2 SWAP1 PUSH2 0x1970 JUMP JUMPDEST PUSH1 0x40 MLOAD DUP1 SWAP2 SUB SWAP1 RETURN JUMPDEST PUSH2 0x2A5 PUSH1 0x4 DUP1 CALLDATASIZE SUB DUP2 ADD SWAP1 PUSH2 0x2A0 SWAP2 SWAP1 PUSH2 0x1A69 JUMP JUMPDEST PUSH2 0x592 JUMP JUMPDEST PUSH1 0x40 MLOAD PUSH2 0x2B2 SWAP2 SWAP1 PUSH2 0x1970 JUMP JUMPDEST PUSH1 0x40 MLOAD DUP1 SWAP2 SUB SWAP1 RETURN JUMPDEST PUSH2 0x2C3 PUSH2 0x5A3 JUMP JUMPDEST PUSH1 0x40 MLOAD PUSH2 0x2D6 SWAP8 SWAP7 SWAP6 SWAP5 SWAP4 SWAP3 SWAP2 SWAP1 PUSH2 0x1B94 JUMP JUMPDEST PUSH1 0x40 MLOAD DUP1 SWAP2 SUB SWAP1 RETURN JUMPDEST PUSH2 0x2E7 PUSH2 0x648 JUMP JUMPDEST PUSH1 0x40 MLOAD PUSH2 0x2F4 SWAP2 SWAP1 PUSH2 0x1C16 JUMP JUMPDEST PUSH1 0x40 MLOAD DUP1 SWAP2 SUB SWAP1 RETURN JUMPDEST PUSH2 0x305 PUSH2 0x670 JUMP JUMPDEST PUSH1 0x40 MLOAD PUSH2 0x312 SWAP2 SWAP1 PUSH2 0x183F JUMP JUMPDEST PUSH1 0x40 MLOAD DUP1 SWAP2 SUB SWAP1 RETURN JUMPDEST PUSH2 0x335 PUSH1 0x4 DUP1 CALLDATASIZE SUB DUP2 ADD SWAP1 PUSH2 0x330 SWAP2 SWAP1 PUSH2 0x18F0 JUMP JUMPDEST PUSH2 0x700 JUMP JUMPDEST PUSH1 0x40 MLOAD PUSH2 0x342 SWAP2 SWAP1 PUSH2 0x1948 JUMP JUMPDEST PUSH1 0x40 MLOAD DUP1 SWAP2 SUB SWAP1 RETURN JUMPDEST PUSH2 0x365 PUSH1 0x4 DUP1 CALLDATASIZE SUB DUP2 ADD SWAP1 PUSH2 0x360 SWAP2 SWAP1 PUSH2 0x1C83 JUMP JUMPDEST PUSH2 0x722 JUMP JUMPDEST STOP JUMPDEST PUSH2 0x381 PUSH1 0x4 DUP1 CALLDATASIZE SUB DUP2 ADD SWAP1 PUSH2 0x37C SWAP2 SWAP1 PUSH2 0x1D20 JUMP JUMPDEST PUSH2 0x867 JUMP JUMPDEST PUSH1 0x40 MLOAD PUSH2 0x38E SWAP2 SWAP1 PUSH2 0x1970 JUMP JUMPDEST PUSH1 0x40 MLOAD DUP1 SWAP2 SUB SWAP1 RETURN JUMPDEST PUSH2 0x3B1 PUSH1 0x4 DUP1 CALLDATASIZE SUB DUP2 ADD SWAP1 PUSH2 0x3AC SWAP2 SWAP1 PUSH2 0x1A69 JUMP JUMPDEST PUSH2 0x8E9 JUMP JUMPDEST STOP JUMPDEST PUSH1 0x60 PUSH1 0x3 DUP1 SLOAD PUSH2 0x3C2 SWAP1 PUSH2 0x1D8B JUMP JUMPDEST DUP1 PUSH1 0x1F ADD PUSH1 0x20 DUP1 SWAP2 DIV MUL PUSH1 0x20 ADD PUSH1 0x40 MLOAD SWAP1 DUP2 ADD PUSH1 0x40 MSTORE DUP1 SWAP3 SWAP2 SWAP1 DUP2 DUP2 MSTORE PUSH1 0x20 ADD DUP3 DUP1 SLOAD PUSH2 0x3EE SWAP1 PUSH2 0x1D8B JUMP JUMPDEST DUP1 ISZERO PUSH2 0x439 JUMPI DUP1 PUSH1 0x1F LT PUSH2 0x410 JUMPI PUSH2 0x100 DUP1 DUP4 SLOAD DIV MUL DUP4 MSTORE SWAP2 PUSH1 0x20 ADD SWAP2 PUSH2 0x439 JUMP JUMPDEST DUP3 ADD SWAP2 SWAP1 PUSH0 MSTORE PUSH1 0x20 PUSH0 KECCAK256 SWAP1 JUMPDEST DUP2 SLOAD DUP2 MSTORE SWAP1 PUSH1 0x1 ADD SWAP1 PUSH1 0x20 ADD DUP1 DUP4 GT PUSH2 0x41C JUMPI DUP3 SWAP1 SUB PUSH1 0x1F AND DUP3 ADD SWAP2 JUMPDEST POP POP POP POP POP SWAP1 POP SWAP1 JUMP JUMPDEST PUSH0 DUP1 PUSH2 0x44D PUSH2 0x96D JUMP JUMPDEST SWAP1 POP PUSH2 0x45A DUP2 DUP6 DUP6 PUSH2 0x974 JUMP JUMPDEST PUSH1 0x1 SWAP2 POP POP SWAP3 SWAP2 POP POP JUMP JUMPDEST PUSH0 PUSH1 0x2 SLOAD SWAP1 POP SWAP1 JUMP JUMPDEST PUSH0 DUP1 PUSH2 0x478 PUSH2 0x96D JUMP JUMPDEST SWAP1 POP PUSH2 0x485 DUP6 DUP3 DUP6 PUSH2 0x986 JUMP JUMPDEST PUSH2 0x490 DUP6 DUP6 DUP6 PUSH2 0xA18 JUMP JUMPDEST PUSH1 0x1 SWAP2 POP POP SWAP4 SWAP3 POP POP POP JUMP JUMPDEST PUSH0 PUSH1 0x12 SWAP1 POP SWAP1 JUMP JUMPDEST PUSH0 PUSH2 0x4AD PUSH2 0xB08 JUMP JUMPDEST SWAP1 POP SWAP1 JUMP JUMPDEST PUSH2 0x4BA PUSH2 0xBBE JUMP JUMPDEST PUSH1 0x9 SLOAD DUP2 PUSH2 0x4C6 PUSH2 0x465 JUMP JUMPDEST PUSH2 0x4D0 SWAP2 SWAP1 PUSH2 0x1DE8 JUMP JUMPDEST GT ISZERO PUSH2 0x511 JUMPI PUSH1 0x40 MLOAD PUSH32 0x8C379A000000000000000000000000000000000000000000000000000000000 DUP2 MSTORE PUSH1 0x4 ADD PUSH2 0x508 SWAP1 PUSH2 0x1E65 JUMP JUMPDEST PUSH1 0x40 MLOAD DUP1 SWAP2 SUB SWAP1 REVERT JUMPDEST PUSH2 0x51B DUP3 DUP3 PUSH2 0xC45 JUMP JUMPDEST POP POP JUMP JUMPDEST PUSH2 0x527 PUSH2 0xBBE JUMP JUMPDEST PUSH2 0x531 CALLER DUP3 PUSH2 0xCC4 JUMP JUMPDEST POP JUMP JUMPDEST PUSH0 DUP1 PUSH0 DUP4 PUSH20 0xFFFFFFFFFFFFFFFFFFFFFFFFFFFFFFFFFFFFFFFF AND PUSH20 0xFFFFFFFFFFFFFFFFFFFFFFFFFFFFFFFFFFFFFFFF AND DUP2 MSTORE PUSH1 0x20 ADD SWAP1 DUP2 MSTORE PUSH1 0x20 ADD PUSH0 KECCAK256 SLOAD SWAP1 POP SWAP2 SWAP1 POP JUMP JUMPDEST PUSH2 0x581 PUSH2 0xBBE JUMP JUMPDEST PUSH2 0x58A PUSH0 PUSH2 0xD43 JUMP JUMPDEST JUMP JUMPDEST PUSH1 0x9 SLOAD DUP2 JUMP JUMPDEST PUSH0 PUSH2 0x59C DUP3 PUSH2 0xE06 JUMP JUMPDEST SWAP1 POP SWAP2 SWAP1 POP JUMP JUMPDEST PUSH0 PUSH1 0x60 DUP1 PUSH0 DUP1 PUSH0 PUSH1 0x60 PUSH2 0x5B4 PUSH2 0xE4C JUMP JUMPDEST PUSH2 0x5BC PUSH2 0xE87 JUMP JUMPDEST CHAINID ADDRESS PUSH0 DUP1 SHL PUSH0 PUSH8 0xFFFFFFFFFFFFFFFF DUP2 GT ISZERO PUSH2 0x5DB JUMPI PUSH2 0x5DA PUSH2 0x1E83 JUMP JUMPDEST JUMPDEST PUSH1 0x40 MLOAD SWAP1 DUP1 DUP3 MSTORE DUP1 PUSH1 0x20 MUL PUSH1 0x20 ADD DUP3 ADD PUSH1 0x40 MSTORE DUP1 ISZERO PUSH2 0x609 JUMPI DUP2 PUSH1 0x20 ADD PUSH1 0x20 DUP3 MUL DUP1 CALLDATASIZE DUP4 CALLDATACOPY DUP1 DUP3 ADD SWAP2 POP POP SWAP1 POP JUMPDEST POP PUSH32 0xF00000000000000000000000000000000000000000000000000000000000000 SWAP6 SWAP5 SWAP4 SWAP3 SWAP2 SWAP1 SWAP7 POP SWAP7 POP SWAP7 POP SWAP7 POP SWAP7 POP SWAP7 POP SWAP7 POP SWAP1 SWAP2 SWAP3 SWAP4 SWAP5 SWAP6 SWAP7 JUMP JUMPDEST PUSH0 PUSH1 0x8 PUSH0 SWAP1 SLOAD SWAP1 PUSH2 0x100 EXP SWAP1 DIV PUSH20 0xFFFFFFFFFFFFFFFFFFFFFFFFFFFFFFFFFFFFFFFF AND SWAP1 POP SWAP1 JUMP JUMPDEST PUSH1 0x60 PUSH1 0x4 DUP1 SLOAD PUSH2 0x67F SWAP1 PUSH2 0x1D8B JUMP JUMPDEST DUP1 PUSH1 0x1F ADD PUSH1 0x20 DUP1 SWAP2 DIV MUL PUSH1 0x20 ADD PUSH1 0x40 MLOAD SWAP1 DUP2 ADD PUSH1 0x40 MSTORE DUP1 SWAP3 SWAP2 SWAP1 DUP2 DUP2 MSTORE PUSH1 0x20 ADD DUP3 DUP1 SLOAD PUSH2 0x6AB SWAP1 PUSH2 0x1D8B JUMP JUMPDEST DUP1 ISZERO PUSH2 0x6F6 JUMPI DUP1 PUSH1 0x1F LT PUSH2 0x6CD JUMPI PUSH2 0x100 DUP1 DUP4 SLOAD DIV MUL DUP4 MSTORE SWAP2 PUSH1 0x20 ADD SWAP2 PUSH2 0x6F6 JUMP JUMPDEST DUP3 ADD SWAP2 SWAP1 PUSH0 MSTORE PUSH1 0x20 PUSH0 KECCAK256 SWAP1 JUMPDEST DUP2 SLOAD DUP2 MSTORE SWAP1 PUSH1 0x1 ADD SWAP1 PUSH1 0x20 ADD DUP1 DUP4 GT PUSH2 0x6D9 JUMPI DUP3 SWAP1 SUB PUSH1 0x1F AND DUP3 ADD SWAP2 JUMPDEST POP POP POP POP POP SWAP1 POP SWAP1 JUMP JUMPDEST PUSH0 DUP1 PUSH2 0x70A PUSH2 0x96D JUMP JUMPDEST SWAP1 POP PUSH2 0x717 DUP2 DUP6 DUP6 PUSH2 0xA18 JUMP JUMPDEST PUSH1 0x1 SWAP2 POP POP SWAP3 SWAP2 POP POP JUMP JUMPDEST DUP4 TIMESTAMP GT ISZERO PUSH2 0x767 JUMPI DUP4 PUSH1 0x40 MLOAD PUSH32 0x6279130200000000000000000000000000000000000000000000000000000000 DUP2 MSTORE PUSH1 0x4 ADD PUSH2 0x75E SWAP2 SWAP1 PUSH2 0x1970 JUMP JUMPDEST PUSH1 0x40 MLOAD DUP1 SWAP2 SUB SWAP1 REVERT JUMPDEST PUSH0 PUSH32 0x6E71EDAE12B1B97F4D1F60370FEF10105FA2FAAE0126114A169C64845D6126C9 DUP9 DUP9 DUP9 PUSH2 0x795 DUP13 PUSH2 0xEC2 JUMP JUMPDEST DUP10 PUSH1 0x40 MLOAD PUSH1 0x20 ADD PUSH2 0x7AB SWAP7 SWAP6 SWAP5 SWAP4 SWAP3 SWAP2 SWAP1 PUSH2 0x1EB0 JUMP JUMPDEST PUSH1 0x40 MLOAD PUSH1 0x20 DUP2 DUP4 SUB SUB DUP2 MSTORE SWAP1 PUSH1 0x40 MSTORE DUP1 MLOAD SWAP1 PUSH1 0x20 ADD KECCAK256 SWAP1 POP PUSH0 PUSH2 0x7CD DUP3 PUSH2 0xF15 JUMP JUMPDEST SWAP1 POP PUSH0 PUSH2 0x7DC DUP3 DUP8 DUP8 DUP8 PUSH2 0xF2E JUMP JUMPDEST SWAP1 POP DUP10 PUSH20 0xFFFFFFFFFFFFFFFFFFFFFFFFFFFFFFFFFFFFFFFF AND DUP2 PUSH20 0xFFFFFFFFFFFFFFFFFFFFFFFFFFFFFFFFFFFFFFFF AND EQ PUSH2 0x850 JUMPI DUP1 DUP11 PUSH1 0x40 MLOAD PUSH32 0x4B800E4600000000000000000000000000000000000000000000000000000000 DUP2 MSTORE PUSH1 0x4 ADD PUSH2 0x847 SWAP3 SWAP2 SWAP1 PUSH2 0x1F0F JUMP JUMPDEST PUSH1 0x40 MLOAD DUP1 SWAP2 SUB SWAP1 REVERT JUMPDEST PUSH2 0x85B DUP11 DUP11 DUP11 PUSH2 0x974 JUMP JUMPDEST POP POP POP POP POP POP POP POP POP POP JUMP JUMPDEST PUSH0 PUSH1 0x1 PUSH0 DUP5 PUSH20 0xFFFFFFFFFFFFFFFFFFFFFFFFFFFFFFFFFFFFFFFF AND PUSH20 0xFFFFFFFFFFFFFFFFFFFFFFFFFFFFFFFFFFFFFFFF AND DUP2 MSTORE PUSH1 0x20 ADD SWAP1 DUP2 MSTORE PUSH1 0x20 ADD PUSH0 KECCAK256 PUSH0 DUP4 PUSH20 0xFFFFFFFFFFFFFFFFFFFFFFFFFFFFFFFFFFFFFFFF AND PUSH20 0xFFFFFFFFFFFFFFFFFFFFFFFFFFFFFFFFFFFFFFFF AND DUP2 MSTORE PUSH1 0x20 ADD SWAP1 DUP2 MSTORE PUSH1 0x20 ADD PUSH0 KECCAK256 SLOAD SWAP1 POP SWAP3 SWAP2 POP POP JUMP JUMPDEST PUSH2 0x8F1 PUSH2 0xBBE JUMP JUMPDEST PUSH0 PUSH20 0xFFFFFFFFFFFFFFFFFFFFFFFFFFFFFFFFFFFFFFFF AND DUP2 PUSH20 0xFFFFFFFFFFFFFFFFFFFFFFFFFFFFFFFFFFFFFFFF AND SUB PUSH2 0x961 JUMPI PUSH0 PUSH1 0x40 MLOAD PUSH32 0x1E4FBDF700000000000000000000000000000000000000000000000000000000 DUP2 MSTORE PUSH1 0x4 ADD PUSH2 0x958 SWAP2 SWAP1 PUSH2 0x1C16 JUMP JUMPDEST PUSH1 0x40 MLOAD DUP1 SWAP2 SUB SWAP1 REVERT JUMPDEST PUSH2 0x96A DUP2 PUSH2 0xD43 JUMP JUMPDEST POP JUMP JUMPDEST PUSH0 CALLER SWAP1 POP SWAP1 JUMP JUMPDEST PUSH2 0x981 DUP4 DUP4 DUP4 PUSH1 0x1 PUSH2 0xF5C JUMP JUMPDEST POP POP POP JUMP JUMPDEST PUSH0 PUSH2 0x991 DUP5 DUP5 PUSH2 0x867 JUMP JUMPDEST SWAP1 POP PUSH32 0xFFFFFFFFFFFFFFFFFFFFFFFFFFFFFFFFFFFFFFFFFFFFFFFFFFFFFFFFFFFFFFFF DUP2 EQ PUSH2 0xA12 JUMPI DUP2 DUP2 LT ISZERO PUSH2 0xA03 JUMPI DUP3 DUP2 DUP4 PUSH1 0x40 MLOAD PUSH32 0xFB8F41B200000000000000000000000000000000000000000000000000000000 DUP2 MSTORE PUSH1 0x4 ADD PUSH2 0x9FA SWAP4 SWAP3 SWAP2 SWAP1 PUSH2 0x1F36 JUMP JUMPDEST PUSH1 0x40 MLOAD DUP1 SWAP2 SUB SWAP1 REVERT JUMPDEST PUSH2 0xA11 DUP5 DUP5 DUP5 DUP5 SUB PUSH0 PUSH2 0xF5C JUMP JUMPDEST JUMPDEST POP POP POP POP JUMP JUMPDEST PUSH0 PUSH20 0xFFFFFFFFFFFFFFFFFFFFFFFFFFFFFFFFFFFFFFFF AND DUP4 PUSH20 0xFFFFFFFFFFFFFFFFFFFFFFFFFFFFFFFFFFFFFFFF AND SUB PUSH2 0xA88 JUMPI PUSH0 PUSH1 0x40 MLOAD PUSH32 0x96C6FD1E00000000000000000000000000000000000000000000000000000000 DUP2 MSTORE PUSH1 0x4 ADD PUSH2 0xA7F SWAP2 SWAP1 PUSH2 0x1C16 JUMP JUMPDEST PUSH1 0x40 MLOAD DUP1 SWAP2 SUB SWAP1 REVERT JUMPDEST PUSH0 PUSH20 0xFFFFFFFFFFFFFFFFFFFFFFFFFFFFFFFFFFFFFFFF AND DUP3 PUSH20 0xFFFFFFFFFFFFFFFFFFFFFFFFFFFFFFFFFFFFFFFF AND SUB PUSH2 0xAF8 JUMPI PUSH0 PUSH1 0x40 MLOAD PUSH32 0xEC442F0500000000000000000000000000000000000000000000000000000000 DUP2 MSTORE PUSH1 0x4 ADD PUSH2 0xAEF SWAP2 SWAP1 PUSH2 0x1C16 JUMP JUMPDEST PUSH1 0x40 MLOAD DUP1 SWAP2 SUB SWAP1 REVERT JUMPDEST PUSH2 0xB03 DUP4 DUP4 DUP4 PUSH2 0x112B JUMP JUMPDEST POP POP POP JUMP JUMPDEST PUSH0 PUSH32 0x0 PUSH20 0xFFFFFFFFFFFFFFFFFFFFFFFFFFFFFFFFFFFFFFFF AND ADDRESS PUSH20 0xFFFFFFFFFFFFFFFFFFFFFFFFFFFFFFFFFFFFFFFF AND EQ DUP1 ISZERO PUSH2 0xB83 JUMPI POP PUSH32 0x0 CHAINID EQ JUMPDEST ISZERO PUSH2 0xBB0 JUMPI PUSH32 0x0 SWAP1 POP PUSH2 0xBBB JUMP JUMPDEST PUSH2 0xBB8 PUSH2 0x1344 JUMP JUMPDEST SWAP1 POP JUMPDEST SWAP1 JUMP JUMPDEST PUSH2 0xBC6 PUSH2 0x96D JUMP JUMPDEST PUSH20 0xFFFFFFFFFFFFFFFFFFFFFFFFFFFFFFFFFFFFFFFF AND PUSH2 0xBE4 PUSH2 0x648 JUMP JUMPDEST PUSH20 0xFFFFFFFFFFFFFFFFFFFFFFFFFFFFFFFFFFFFFFFF AND EQ PUSH2 0xC43 JUMPI PUSH2 0xC07 PUSH2 0x96D JUMP JUMPDEST PUSH1 0x40 MLOAD PUSH32 0x118CDAA700000000000000000000000000000000000000000000000000000000 DUP2 MSTORE PUSH1 0x4 ADD PUSH2 0xC3A SWAP2 SWAP1 PUSH2 0x1C16 JUMP JUMPDEST PUSH1 0x40 MLOAD DUP1 SWAP2 SUB SWAP1 REVERT JUMPDEST JUMP JUMPDEST PUSH0 PUSH20 0xFFFFFFFFFFFFFFFFFFFFFFFFFFFFFFFFFFFFFFFF AND DUP3 PUSH20 0xFFFFFFFFFFFFFFFFFFFFFFFFFFFFFFFFFFFFFFFF AND SUB PUSH2 0xCB5 JUMPI PUSH0 PUSH1 0x40 MLOAD PUSH32 0xEC442F0500000000000000000000000000000000000000000000000000000000 DUP2 MSTORE PUSH1 0x4 ADD PUSH2 0xCAC SWAP2 SWAP1 PUSH2 0x1C16 JUMP JUMPDEST PUSH1 0x40 MLOAD DUP1 SWAP2 SUB SWAP1 REVERT JUMPDEST PUSH2 0xCC0 PUSH0 DUP4 DUP4 PUSH2 0x112B JUMP JUMPDEST POP POP JUMP JUMPDEST PUSH0 PUSH20 0xFFFFFFFFFFFFFFFFFFFFFFFFFFFFFFFFFFFFFFFF AND DUP3 PUSH20 0xFFFFFFFFFFFFFFFFFFFFFFFFFFFFFFFFFFFFFFFF AND SUB PUSH2 0xD34 JUMPI PUSH0 PUSH1 0x40 MLOAD PUSH32 0x96C6FD1E00000000000000000000000000000000000000000000000000000000 DUP2 MSTORE PUSH1 0x4 ADD PUSH2 0xD2B SWAP2 SWAP1 PUSH2 0x1C16 JUMP JUMPDEST PUSH1 0x40 MLOAD DUP1 SWAP2 SUB SWAP1 REVERT JUMPDEST PUSH2 0xD3F DUP3 PUSH0 DUP4 PUSH2 0x112B JUMP JUMPDEST POP POP JUMP JUMPDEST PUSH0 PUSH1 0x8 PUSH0 SWAP1 SLOAD SWAP1 PUSH2 0x100 EXP SWAP1 DIV PUSH20 0xFFFFFFFFFFFFFFFFFFFFFFFFFFFFFFFFFFFFFFFF AND SWAP1 POP DUP2 PUSH1 0x8 PUSH0 PUSH2 0x100 EXP DUP2 SLOAD DUP2 PUSH20 0xFFFFFFFFFFFFFFFFFFFFFFFFFFFFFFFFFFFFFFFF MUL NOT AND SWAP1 DUP4 PUSH20 0xFFFFFFFFFFFFFFFFFFFFFFFFFFFFFFFFFFFFFFFF AND MUL OR SWAP1 SSTORE POP DUP2 PUSH20 0xFFFFFFFFFFFFFFFFFFFFFFFFFFFFFFFFFFFFFFFF AND DUP2 PUSH20 0xFFFFFFFFFFFFFFFFFFFFFFFFFFFFFFFFFFFFFFFF AND PUSH32 0x8BE0079C531659141344CD1FD0A4F28419497F9722A3DAAFE3B4186F6B6457E0 PUSH1 0x40 MLOAD PUSH1 0x40 MLOAD DUP1 SWAP2 SUB SWAP1 LOG3 POP POP JUMP JUMPDEST PUSH0 PUSH1 0x7 PUSH0 DUP4 PUSH20 0xFFFFFFFFFFFFFFFFFFFFFFFFFFFFFFFFFFFFFFFF AND PUSH20 0xFFFFFFFFFFFFFFFFFFFFFFFFFFFFFFFFFFFFFFFF AND DUP2 MSTORE PUSH1 0x20 ADD SWAP1 DUP2 MSTORE PUSH1 0x20 ADD PUSH0 KECCAK256 SLOAD SWAP1 POP SWAP2 SWAP1 POP JUMP JUMPDEST PUSH1 0x60 PUSH2 0xE82 PUSH1 0x5 PUSH32 0x0 PUSH2 0x13D9 SWAP1 SWAP2 SWAP1 PUSH4 0xFFFFFFFF AND JUMP JUMPDEST SWAP1 POP SWAP1 JUMP JUMPDEST PUSH1 0x60 PUSH2 0xEBD PUSH1 0x6 PUSH32 0x0 PUSH2 0x13D9 SWAP1 SWAP2 SWAP1 PUSH4 0xFFFFFFFF AND JUMP JUMPDEST SWAP1 POP SWAP1 JUMP JUMPDEST PUSH0 PUSH1 0x7 PUSH0 DUP4 PUSH20 0xFFFFFFFFFFFFFFFFFFFFFFFFFFFFFFFFFFFFFFFF AND PUSH20 0xFFFFFFFFFFFFFFFFFFFFFFFFFFFFFFFFFFFFFFFF AND DUP2 MSTORE PUSH1 0x20 ADD SWAP1 DUP2 MSTORE PUSH1 0x20 ADD PUSH0 KECCAK256 PUSH0 DUP2 SLOAD DUP1 SWAP3 SWAP2 SWAP1 PUSH1 0x1 ADD SWAP2 SWAP1 POP SSTORE SWAP1 POP SWAP2 SWAP1 POP JUMP JUMPDEST PUSH0 PUSH2 0xF27 PUSH2 0xF21 PUSH2 0xB08 JUMP JUMPDEST DUP4 PUSH2 0x1486 JUMP JUMPDEST SWAP1 POP SWAP2 SWAP1 POP JUMP JUMPDEST PUSH0 DUP1 PUSH0 DUP1 PUSH2 0xF3E DUP9 DUP9 DUP9 DUP9 PUSH2 0x14C6 JUMP JUMPDEST SWAP3 POP SWAP3 POP SWAP3 POP PUSH2 0xF4E DUP3 DUP3 PUSH2 0x15AD JUMP JUMPDEST DUP3 SWAP4 POP POP POP POP SWAP5 SWAP4 POP POP POP POP JUMP JUMPDEST PUSH0 PUSH20 0xFFFFFFFFFFFFFFFFFFFFFFFFFFFFFFFFFFFFFFFF AND DUP5 PUSH20 0xFFFFFFFFFFFFFFFFFFFFFFFFFFFFFFFFFFFFFFFF AND SUB PUSH2 0xFCC JUMPI PUSH0 PUSH1 0x40 MLOAD PUSH32 0xE602DF0500000000000000000000000000000000000000000000000000000000 DUP2 MSTORE PUSH1 0x4 ADD PUSH2 0xFC3 SWAP2 SWAP1 PUSH2 0x1C16 JUMP JUMPDEST PUSH1 0x40 MLOAD DUP1 SWAP2 SUB SWAP1 REVERT JUMPDEST PUSH0 PUSH20 0xFFFFFFFFFFFFFFFFFFFFFFFFFFFFFFFFFFFFFFFF AND DUP4 PUSH20 0xFFFFFFFFFFFFFFFFFFFFFFFFFFFFFFFFFFFFFFFF AND SUB PUSH2 0x103C JUMPI PUSH0 PUSH1 0x40 MLOAD PUSH32 0x94280D6200000000000000000000000000000000000000000000000000000000 DUP2 MSTORE PUSH1 0x4 ADD PUSH2 0x1033 SWAP2 SWAP1 PUSH2 0x1C16 JUMP JUMPDEST PUSH1 0x40 MLOAD DUP1 SWAP2 SUB SWAP1 REVERT JUMPDEST DUP2 PUSH1 0x1 PUSH0 DUP7 PUSH20 0xFFFFFFFFFFFFFFFFFFFFFFFFFFFFFFFFFFFFFFFF AND PUSH20 0xFFFFFFFFFFFFFFFFFFFFFFFFFFFFFFFFFFFFFFFF AND DUP2 MSTORE PUSH1 0x20 ADD SWAP1 DUP2 MSTORE PUSH1 0x20 ADD PUSH0 KECCAK256 PUSH0 DUP6 PUSH20 0xFFFFFFFFFFFFFFFFFFFFFFFFFFFFFFFFFFFFFFFF AND PUSH20 0xFFFFFFFFFFFFFFFFFFFFFFFFFFFFFFFFFFFFFFFF AND DUP2 MSTORE PUSH1 0x20 ADD SWAP1 DUP2 MSTORE PUSH1 0x20 ADD PUSH0 KECCAK256 DUP2 SWAP1 SSTORE POP DUP1 ISZERO PUSH2 0x1125 JUMPI DUP3 PUSH20 0xFFFFFFFFFFFFFFFFFFFFFFFFFFFFFFFFFFFFFFFF AND DUP5 PUSH20 0xFFFFFFFFFFFFFFFFFFFFFFFFFFFFFFFFFFFFFFFF AND PUSH32 0x8C5BE1E5EBEC7D5BD14F71427D1E84F3DD0314C0F7B2291E5B200AC8C7C3B925 DUP5 PUSH1 0x40 MLOAD PUSH2 0x111C SWAP2 SWAP1 PUSH2 0x1970 JUMP JUMPDEST PUSH1 0x40 MLOAD DUP1 SWAP2 SUB SWAP1 LOG3 JUMPDEST POP POP POP POP JUMP JUMPDEST PUSH0 PUSH20 0xFFFFFFFFFFFFFFFFFFFFFFFFFFFFFFFFFFFFFFFF AND DUP4 PUSH20 0xFFFFFFFFFFFFFFFFFFFFFFFFFFFFFFFFFFFFFFFF AND SUB PUSH2 0x117B JUMPI DUP1 PUSH1 0x2 PUSH0 DUP3 DUP3 SLOAD PUSH2 0x116F SWAP2 SWAP1 PUSH2 0x1DE8 JUMP JUMPDEST SWAP3 POP POP DUP2 SWAP1 SSTORE POP PUSH2 0x1249 JUMP JUMPDEST PUSH0 DUP1 PUSH0 DUP6 PUSH20 0xFFFFFFFFFFFFFFFFFFFFFFFFFFFFFFFFFFFFFFFF AND PUSH20 0xFFFFFFFFFFFFFFFFFFFFFFFFFFFFFFFFFFFFFFFF AND DUP2 MSTORE PUSH1 0x20 ADD SWAP1 DUP2 MSTORE PUSH1 0x20 ADD PUSH0 KECCAK256 SLOAD SWAP1 POP DUP2 DUP2 LT ISZERO PUSH2 0x1204 JUMPI DUP4 DUP2 DUP4 PUSH1 0x40 MLOAD PUSH32 0xE450D38C00000000000000000000000000000000000000000000000000000000 DUP2 MSTORE PUSH1 0x4 ADD PUSH2 0x11FB SWAP4 SWAP3 SWAP2 SWAP1 PUSH2 0x1F36 JUMP JUMPDEST PUSH1 0x40 MLOAD DUP1 SWAP2 SUB SWAP1 REVERT JUMPDEST DUP2 DUP2 SUB PUSH0 DUP1 DUP7 PUSH20 0xFFFFFFFFFFFFFFFFFFFFFFFFFFFFFFFFFFFFFFFF AND PUSH20 0xFFFFFFFFFFFFFFFFFFFFFFFFFFFFFFFFFFFFFFFF AND DUP2 MSTORE PUSH1 0x20 ADD SWAP1 DUP2 MSTORE PUSH1 0x20 ADD PUSH0 KECCAK256 DUP2 SWAP1 SSTORE POP POP JUMPDEST PUSH0 PUSH20 0xFFFFFFFFFFFFFFFFFFFFFFFFFFFFFFFFFFFFFFFF AND DUP3 PUSH20 0xFFFFFFFFFFFFFFFFFFFFFFFFFFFFFFFFFFFFFFFF AND SUB PUSH2 0x1290 JUMPI DUP1 PUSH1 0x2 PUSH0 DUP3 DUP3 SLOAD SUB SWAP3 POP POP DUP2 SWAP1 SSTORE POP PUSH2 0x12DA JUMP JUMPDEST DUP1 PUSH0 DUP1 DUP5 PUSH20 0xFFFFFFFFFFFFFFFFFFFFFFFFFFFFFFFFFFFFFFFF AND PUSH20 0xFFFFFFFFFFFFFFFFFFFFFFFFFFFFFFFFFFFFFFFF AND DUP2 MSTORE PUSH1 0x20 ADD SWAP1 DUP2 MSTORE PUSH1 0x20 ADD PUSH0 KECCAK256 PUSH0 DUP3 DUP3 SLOAD ADD SWAP3 POP POP DUP2 SWAP1 SSTORE POP JUMPDEST DUP2 PUSH20 0xFFFFFFFFFFFFFFFFFFFFFFFFFFFFFFFFFFFFFFFF AND DUP4 PUSH20 0xFFFFFFFFFFFFFFFFFFFFFFFFFFFFFFFFFFFFFFFF AND PUSH32 0xDDF252AD1BE2C89B69C2B068FC378DAA952BA7F163C4A11628F55A4DF523B3EF DUP4 PUSH1 0x40 MLOAD PUSH2 0x1337 SWAP2 SWAP1 PUSH2 0x1970 JUMP JUMPDEST PUSH1 0x40 MLOAD DUP1 SWAP2 SUB SWAP1 LOG3 POP POP POP JUMP JUMPDEST PUSH0 PUSH32 0x8B73C3C69BB8FE3D512ECC4CF759CC79239F7B179B0FFACAA9A75D522B39400F PUSH32 0x0 PUSH32 0x0 CHAINID ADDRESS PUSH1 0x40 MLOAD PUSH1 0x20 ADD PUSH2 0x13BE SWAP6 SWAP5 SWAP4 SWAP3 SWAP2 SWAP1 PUSH2 0x1F6B JUMP JUMPDEST PUSH1 0x40 MLOAD PUSH1 0x20 DUP2 DUP4 SUB SUB DUP2 MSTORE SWAP1 PUSH1 0x40 MSTORE DUP1 MLOAD SWAP1 PUSH1 0x20 ADD KECCAK256 SWAP1 POP SWAP1 JUMP JUMPDEST PUSH1 0x60 PUSH1 0xFF PUSH0 SHL DUP4 EQ PUSH2 0x13F5 JUMPI PUSH2 0x13EE DUP4 PUSH2 0x170F JUMP JUMPDEST SWAP1 POP PUSH2 0x1480 JUMP JUMPDEST DUP2 DUP1 SLOAD PUSH2 0x1401 SWAP1 PUSH2 0x1D8B JUMP JUMPDEST DUP1 PUSH1 0x1F ADD PUSH1 0x20 DUP1 SWAP2 DIV MUL PUSH1 0x20 ADD PUSH1 0x40 MLOAD SWAP1 DUP2 ADD PUSH1 0x40 MSTORE DUP1 SWAP3 SWAP2 SWAP1 DUP2 DUP2 MSTORE PUSH1 0x20 ADD DUP3 DUP1 SLOAD PUSH2 0x142D SWAP1 PUSH2 0x1D8B JUMP JUMPDEST DUP1 ISZERO PUSH2 0x1478 JUMPI DUP1 PUSH1 0x1F LT PUSH2 0x144F JUMPI PUSH2 0x100 DUP1 DUP4 SLOAD DIV MUL DUP4 MSTORE SWAP2 PUSH1 0x20 ADD SWAP2 PUSH2 0x1478 JUMP JUMPDEST DUP3 ADD SWAP2 SWAP1 PUSH0 MSTORE PUSH1 0x20 PUSH0 KECCAK256 SWAP1 JUMPDEST DUP2 SLOAD DUP2 MSTORE SWAP1 PUSH1 0x1 ADD SWAP1 PUSH1 0x20 ADD DUP1 DUP4 GT PUSH2 0x145B JUMPI DUP3 SWAP1 SUB PUSH1 0x1F AND DUP3 ADD SWAP2 JUMPDEST POP POP POP POP POP SWAP1 POP JUMPDEST SWAP3 SWAP2 POP POP JUMP JUMPDEST PUSH0 PUSH1 0x40 MLOAD PUSH32 0x1901000000000000000000000000000000000000000000000000000000000000 DUP2 MSTORE DUP4 PUSH1 0x2 DUP3 ADD MSTORE DUP3 PUSH1 0x22 DUP3 ADD MSTORE PUSH1 0x42 DUP2 KECCAK256 SWAP2 POP POP SWAP3 SWAP2 POP POP JUMP JUMPDEST PUSH0 DUP1 PUSH0 PUSH32 0x7FFFFFFFFFFFFFFFFFFFFFFFFFFFFFFF5D576E7357A4501DDFE92F46681B20A0 DUP5 PUSH0 SHR GT ISZERO PUSH2 0x1502 JUMPI PUSH0 PUSH1 0x3 DUP6 SWAP3 POP SWAP3 POP SWAP3 POP PUSH2 0x15A3 JUMP JUMPDEST PUSH0 PUSH1 0x1 DUP9 DUP9 DUP9 DUP9 PUSH1 0x40 MLOAD PUSH0 DUP2 MSTORE PUSH1 0x20 ADD PUSH1 0x40 MSTORE PUSH1 0x40 MLOAD PUSH2 0x1525 SWAP5 SWAP4 SWAP3 SWAP2 SWAP1 PUSH2 0x1FBC JUMP JUMPDEST PUSH1 0x20 PUSH1 0x40 MLOAD PUSH1 0x20 DUP2 SUB SWAP1 DUP1 DUP5 SUB SWAP1 DUP6 GAS STATICCALL ISZERO DUP1 ISZERO PUSH2 0x1545 JUMPI RETURNDATASIZE PUSH0 DUP1 RETURNDATACOPY RETURNDATASIZE PUSH0 REVERT JUMPDEST POP POP POP PUSH1 0x20 PUSH1 0x40 MLOAD SUB MLOAD SWAP1 POP PUSH0 PUSH20 0xFFFFFFFFFFFFFFFFFFFFFFFFFFFFFFFFFFFFFFFF AND DUP2 PUSH20 0xFFFFFFFFFFFFFFFFFFFFFFFFFFFFFFFFFFFFFFFF AND SUB PUSH2 0x1596 JUMPI PUSH0 PUSH1 0x1 PUSH0 DUP1 SHL SWAP4 POP SWAP4 POP SWAP4 POP POP PUSH2 0x15A3 JUMP JUMPDEST DUP1 PUSH0 DUP1 PUSH0 SHL SWAP4 POP SWAP4 POP SWAP4 POP POP JUMPDEST SWAP5 POP SWAP5 POP SWAP5 SWAP2 POP POP JUMP JUMPDEST PUSH0 PUSH1 0x3 DUP2 GT ISZERO PUSH2 0x15C0 JUMPI PUSH2 0x15BF PUSH2 0x1FFF JUMP JUMPDEST JUMPDEST DUP3 PUSH1 0x3 DUP2 GT ISZERO PUSH2 0x15D3 JUMPI PUSH2 0x15D2 PUSH2 0x1FFF JUMP JUMPDEST JUMPDEST SUB ISZERO PUSH2 0x170B JUMPI PUSH1 0x1 PUSH1 0x3 DUP2 GT ISZERO PUSH2 0x15ED JUMPI PUSH2 0x15EC PUSH2 0x1FFF JUMP JUMPDEST JUMPDEST DUP3 PUSH1 0x3 DUP2 GT ISZERO PUSH2 0x1600 JUMPI PUSH2 0x15FF PUSH2 0x1FFF JUMP JUMPDEST JUMPDEST SUB PUSH2 0x1637 JUMPI PUSH1 0x40 MLOAD PUSH32 0xF645EEDF00000000000000000000000000000000000000000000000000000000 DUP2 MSTORE PUSH1 0x4 ADD PUSH1 0x40 MLOAD DUP1 SWAP2 SUB SWAP1 REVERT JUMPDEST PUSH1 0x2 PUSH1 0x3 DUP2 GT ISZERO PUSH2 0x164B JUMPI PUSH2 0x164A PUSH2 0x1FFF JUMP JUMPDEST JUMPDEST DUP3 PUSH1 0x3 DUP2 GT ISZERO PUSH2 0x165E JUMPI PUSH2 0x165D PUSH2 0x1FFF JUMP JUMPDEST JUMPDEST SUB PUSH2 0x16A2 JUMPI DUP1 PUSH0 SHR PUSH1 0x40 MLOAD PUSH32 0xFCE698F700000000000000000000000000000000000000000000000000000000 DUP2 MSTORE PUSH1 0x4 ADD PUSH2 0x1699 SWAP2 SWAP1 PUSH2 0x1970 JUMP JUMPDEST PUSH1 0x40 MLOAD DUP1 SWAP2 SUB SWAP1 REVERT JUMPDEST PUSH1 0x3 DUP1 DUP2 GT ISZERO PUSH2 0x16B5 JUMPI PUSH2 0x16B4 PUSH2 0x1FFF JUMP JUMPDEST JUMPDEST DUP3 PUSH1 0x3 DUP2 GT ISZERO PUSH2 0x16C8 JUMPI PUSH2 0x16C7 PUSH2 0x1FFF JUMP JUMPDEST JUMPDEST SUB PUSH2 0x170A JUMPI DUP1 PUSH1 0x40 MLOAD PUSH32 0xD78BCE0C00000000000000000000000000000000000000000000000000000000 DUP2 MSTORE PUSH1 0x4 ADD PUSH2 0x1701 SWAP2 SWAP1 PUSH2 0x1A25 JUMP JUMPDEST PUSH1 0x40 MLOAD DUP1 SWAP2 SUB SWAP1 REVERT JUMPDEST JUMPDEST POP POP JUMP JUMPDEST PUSH1 0x60 PUSH0 PUSH2 0x171B DUP4 PUSH2 0x1781 JUMP JUMPDEST SWAP1 POP PUSH0 PUSH1 0x20 PUSH8 0xFFFFFFFFFFFFFFFF DUP2 GT ISZERO PUSH2 0x1739 JUMPI PUSH2 0x1738 PUSH2 0x1E83 JUMP JUMPDEST JUMPDEST PUSH1 0x40 MLOAD SWAP1 DUP1 DUP3 MSTORE DUP1 PUSH1 0x1F ADD PUSH1 0x1F NOT AND PUSH1 0x20 ADD DUP3 ADD PUSH1 0x40 MSTORE DUP1 ISZERO PUSH2 0x176B JUMPI DUP2 PUSH1 0x20 ADD PUSH1 0x1 DUP3 MUL DUP1 CALLDATASIZE DUP4 CALLDATACOPY DUP1 DUP3 ADD SWAP2 POP POP SWAP1 POP JUMPDEST POP SWAP1 POP DUP2 DUP2 MSTORE DUP4 PUSH1 0x20 DUP3 ADD MSTORE DUP1 SWAP3 POP POP POP SWAP2 SWAP1 POP JUMP JUMPDEST PUSH0 DUP1 PUSH1 0xFF DUP4 PUSH0 SHR AND SWAP1 POP PUSH1 0x1F DUP2 GT ISZERO PUSH2 0x17C6 JUMPI PUSH1 0x40 MLOAD PUSH32 0xB3512B0C00000000000000000000000000000000000000000000000000000000 DUP2 MSTORE PUSH1 0x4 ADD PUSH1 0x40 MLOAD DUP1 SWAP2 SUB SWAP1 REVERT JUMPDEST DUP1 SWAP2 POP POP SWAP2 SWAP1 POP JUMP JUMPDEST PUSH0 DUP2 MLOAD SWAP1 POP SWAP2 SWAP1 POP JUMP JUMPDEST PUSH0 DUP3 DUP3 MSTORE PUSH1 0x20 DUP3 ADD SWAP1 POP SWAP3 SWAP2 POP POP JUMP JUMPDEST DUP3 DUP2 DUP4 MCOPY PUSH0 DUP4 DUP4 ADD MSTORE POP POP POP JUMP JUMPDEST PUSH0 PUSH1 0x1F NOT PUSH1 0x1F DUP4 ADD AND SWAP1 POP SWAP2 SWAP1 POP JUMP JUMPDEST PUSH0 PUSH2 0x1811 DUP3 PUSH2 0x17CF JUMP JUMPDEST PUSH2 0x181B DUP2 DUP6 PUSH2 0x17D9 JUMP JUMPDEST SWAP4 POP PUSH2 0x182B DUP2 DUP6 PUSH1 0x20 DUP7 ADD PUSH2 0x17E9 JUMP JUMPDEST PUSH2 0x1834 DUP2 PUSH2 0x17F7 JUMP JUMPDEST DUP5 ADD SWAP2 POP POP SWAP3 SWAP2 POP POP JUMP JUMPDEST PUSH0 PUSH1 0x20 DUP3 ADD SWAP1 POP DUP2 DUP2 SUB PUSH0 DUP4 ADD MSTORE PUSH2 0x1857 DUP2 DUP5 PUSH2 0x1807 JUMP JUMPDEST SWAP1 POP SWAP3 SWAP2 POP POP JUMP JUMPDEST PUSH0 DUP1 REVERT JUMPDEST PUSH0 PUSH20 0xFFFFFFFFFFFFFFFFFFFFFFFFFFFFFFFFFFFFFFFF DUP3 AND SWAP1 POP SWAP2 SWAP1 POP JUMP JUMPDEST PUSH0 PUSH2 0x188C DUP3 PUSH2 0x1863 JUMP JUMPDEST SWAP1 POP SWAP2 SWAP1 POP JUMP JUMPDEST PUSH2 0x189C DUP2 PUSH2 0x1882 JUMP JUMPDEST DUP2 EQ PUSH2 0x18A6 JUMPI PUSH0 DUP1 REVERT JUMPDEST POP JUMP JUMPDEST PUSH0 DUP2 CALLDATALOAD SWAP1 POP PUSH2 0x18B7 DUP2 PUSH2 0x1893 JUMP JUMPDEST SWAP3 SWAP2 POP POP JUMP JUMPDEST PUSH0 DUP2 SWAP1 POP SWAP2 SWAP1 POP JUMP JUMPDEST PUSH2 0x18CF DUP2 PUSH2 0x18BD JUMP JUMPDEST DUP2 EQ PUSH2 0x18D9 JUMPI PUSH0 DUP1 REVERT JUMPDEST POP JUMP JUMPDEST PUSH0 DUP2 CALLDATALOAD SWAP1 POP PUSH2 0x18EA DUP2 PUSH2 0x18C6 JUMP JUMPDEST SWAP3 SWAP2 POP POP JUMP JUMPDEST PUSH0 DUP1 PUSH1 0x40 DUP4 DUP6 SUB SLT ISZERO PUSH2 0x1906 JUMPI PUSH2 0x1905 PUSH2 0x185F JUMP JUMPDEST JUMPDEST PUSH0 PUSH2 0x1913 DUP6 DUP3 DUP7 ADD PUSH2 0x18A9 JUMP JUMPDEST SWAP3 POP POP PUSH1 0x20 PUSH2 0x1924 DUP6 DUP3 DUP7 ADD PUSH2 0x18DC JUMP JUMPDEST SWAP2 POP POP SWAP3 POP SWAP3 SWAP1 POP JUMP JUMPDEST PUSH0 DUP2 ISZERO ISZERO SWAP1 POP SWAP2 SWAP1 POP JUMP JUMPDEST PUSH2 0x1942 DUP2 PUSH2 0x192E JUMP JUMPDEST DUP3 MSTORE POP POP JUMP JUMPDEST PUSH0 PUSH1 0x20 DUP3 ADD SWAP1 POP PUSH2 0x195B PUSH0 DUP4 ADD DUP5 PUSH2 0x1939 JUMP JUMPDEST SWAP3 SWAP2 POP POP JUMP JUMPDEST PUSH2 0x196A DUP2 PUSH2 0x18BD JUMP JUMPDEST DUP3 MSTORE POP POP JUMP JUMPDEST PUSH0 PUSH1 0x20 DUP3 ADD SWAP1 POP PUSH2 0x1983 PUSH0 DUP4 ADD DUP5 PUSH2 0x1961 JUMP JUMPDEST SWAP3 SWAP2 POP POP JUMP JUMPDEST PUSH0 DUP1 PUSH0 PUSH1 0x60 DUP5 DUP7 SUB SLT ISZERO PUSH2 0x19A0 JUMPI PUSH2 0x199F PUSH2 0x185F JUMP JUMPDEST JUMPDEST PUSH0 PUSH2 0x19AD DUP7 DUP3 DUP8 ADD PUSH2 0x18A9 JUMP JUMPDEST SWAP4 POP POP PUSH1 0x20 PUSH2 0x19BE DUP7 DUP3 DUP8 ADD PUSH2 0x18A9 JUMP JUMPDEST SWAP3 POP POP PUSH1 0x40 PUSH2 0x19CF DUP7 DUP3 DUP8 ADD PUSH2 0x18DC JUMP JUMPDEST SWAP2 POP POP SWAP3 POP SWAP3 POP SWAP3 JUMP JUMPDEST PUSH0 PUSH1 0xFF DUP3 AND SWAP1 POP SWAP2 SWAP1 POP JUMP JUMPDEST PUSH2 0x19EE DUP2 PUSH2 0x19D9 JUMP JUMPDEST DUP3 MSTORE POP POP JUMP JUMPDEST PUSH0 PUSH1 0x20 DUP3 ADD SWAP1 POP PUSH2 0x1A07 PUSH0 DUP4 ADD DUP5 PUSH2 0x19E5 JUMP JUMPDEST SWAP3 SWAP2 POP POP JUMP JUMPDEST PUSH0 DUP2 SWAP1 POP SWAP2 SWAP1 POP JUMP JUMPDEST PUSH2 0x1A1F DUP2 PUSH2 0x1A0D JUMP JUMPDEST DUP3 MSTORE POP POP JUMP JUMPDEST PUSH0 PUSH1 0x20 DUP3 ADD SWAP1 POP PUSH2 0x1A38 PUSH0 DUP4 ADD DUP5 PUSH2 0x1A16 JUMP JUMPDEST SWAP3 SWAP2 POP POP JUMP JUMPDEST PUSH0 PUSH1 0x20 DUP3 DUP5 SUB SLT ISZERO PUSH2 0x1A53 JUMPI PUSH2 0x1A52 PUSH2 0x185F JUMP JUMPDEST JUMPDEST PUSH0 PUSH2 0x1A60 DUP5 DUP3 DUP6 ADD PUSH2 0x18DC JUMP JUMPDEST SWAP2 POP POP SWAP3 SWAP2 POP POP JUMP JUMPDEST PUSH0 PUSH1 0x20 DUP3 DUP5 SUB SLT ISZERO PUSH2 0x1A7E JUMPI PUSH2 0x1A7D PUSH2 0x185F JUMP JUMPDEST JUMPDEST PUSH0 PUSH2 0x1A8B DUP5 DUP3 DUP6 ADD PUSH2 0x18A9 JUMP JUMPDEST SWAP2 POP POP SWAP3 SWAP2 POP POP JUMP JUMPDEST PUSH0 PUSH32 0xFF00000000000000000000000000000000000000000000000000000000000000 DUP3 AND SWAP1 POP SWAP2 SWAP1 POP JUMP JUMPDEST PUSH2 0x1AC8 DUP2 PUSH2 0x1A94 JUMP JUMPDEST DUP3 MSTORE POP POP JUMP JUMPDEST PUSH2 0x1AD7 DUP2 PUSH2 0x1882 JUMP JUMPDEST DUP3 MSTORE POP POP JUMP JUMPDEST PUSH0 DUP2 MLOAD SWAP1 POP SWAP2 SWAP1 POP JUMP JUMPDEST PUSH0 DUP3 DUP3 MSTORE PUSH1 0x20 DUP3 ADD SWAP1 POP SWAP3 SWAP2 POP POP JUMP JUMPDEST PUSH0 DUP2 SWAP1 POP PUSH1 0x20 DUP3 ADD SWAP1 POP SWAP2 SWAP1 POP JUMP JUMPDEST PUSH2 0x1B0F DUP2 PUSH2 0x18BD JUMP JUMPDEST DUP3 MSTORE POP POP JUMP JUMPDEST PUSH0 PUSH2 0x1B20 DUP4 DUP4 PUSH2 0x1B06 JUMP JUMPDEST PUSH1 0x20 DUP4 ADD SWAP1 POP SWAP3 SWAP2 POP POP JUMP JUMPDEST PUSH0 PUSH1 0x20 DUP3 ADD SWAP1 POP SWAP2 SWAP1 POP JUMP JUMPDEST PUSH0 PUSH2 0x1B42 DUP3 PUSH2 0x1ADD JUMP JUMPDEST PUSH2 0x1B4C DUP2 DUP6 PUSH2 0x1AE7 JUMP JUMPDEST SWAP4 POP PUSH2 0x1B57 DUP4 PUSH2 0x1AF7 JUMP JUMPDEST DUP1 PUSH0 JUMPDEST DUP4 DUP2 LT ISZERO PUSH2 0x1B87 JUMPI DUP2 MLOAD PUSH2 0x1B6E DUP9 DUP3 PUSH2 0x1B15 JUMP JUMPDEST SWAP8 POP PUSH2 0x1B79 DUP4 PUSH2 0x1B2C JUMP JUMPDEST SWAP3 POP POP PUSH1 0x1 DUP2 ADD SWAP1 POP PUSH2 0x1B5A JUMP JUMPDEST POP DUP6 SWAP4 POP POP POP POP SWAP3 SWAP2 POP POP JUMP JUMPDEST PUSH0 PUSH1 0xE0 DUP3 ADD SWAP1 POP PUSH2 0x1BA7 PUSH0 DUP4 ADD DUP11 PUSH2 0x1ABF JUMP JUMPDEST DUP2 DUP2 SUB PUSH1 0x20 DUP4 ADD MSTORE PUSH2 0x1BB9 DUP2 DUP10 PUSH2 0x1807 JUMP JUMPDEST SWAP1 POP DUP2 DUP2 SUB PUSH1 0x40 DUP4 ADD MSTORE PUSH2 0x1BCD DUP2 DUP9 PUSH2 0x1807 JUMP JUMPDEST SWAP1 POP PUSH2 0x1BDC PUSH1 0x60 DUP4 ADD DUP8 PUSH2 0x1961 JUMP JUMPDEST PUSH2 0x1BE9 PUSH1 0x80 DUP4 ADD DUP7 PUSH2 0x1ACE JUMP JUMPDEST PUSH2 0x1BF6 PUSH1 0xA0 DUP4 ADD DUP6 PUSH2 0x1A16 JUMP JUMPDEST DUP2 DUP2 SUB PUSH1 0xC0 DUP4 ADD MSTORE PUSH2 0x1C08 DUP2 DUP5 PUSH2 0x1B38 JUMP JUMPDEST SWAP1 POP SWAP9 SWAP8 POP POP POP POP POP POP POP POP JUMP JUMPDEST PUSH0 PUSH1 0x20 DUP3 ADD SWAP1 POP PUSH2 0x1C29 PUSH0 DUP4 ADD DUP5 PUSH2 0x1ACE JUMP JUMPDEST SWAP3 SWAP2 POP POP JUMP JUMPDEST PUSH2 0x1C38 DUP2 PUSH2 0x19D9 JUMP JUMPDEST DUP2 EQ PUSH2 0x1C42 JUMPI PUSH0 DUP1 REVERT JUMPDEST POP JUMP JUMPDEST PUSH0 DUP2 CALLDATALOAD SWAP1 POP PUSH2 0x1C53 DUP2 PUSH2 0x1C2F JUMP JUMPDEST SWAP3 SWAP2 POP POP JUMP JUMPDEST PUSH2 0x1C62 DUP2 PUSH2 0x1A0D JUMP JUMPDEST DUP2 EQ PUSH2 0x1C6C JUMPI PUSH0 DUP1 REVERT JUMPDEST POP JUMP JUMPDEST PUSH0 DUP2 CALLDATALOAD SWAP1 POP PUSH2 0x1C7D DUP2 PUSH2 0x1C59 JUMP JUMPDEST SWAP3 SWAP2 POP POP JUMP JUMPDEST PUSH0 DUP1 PUSH0 DUP1 PUSH0 DUP1 PUSH0 PUSH1 0xE0 DUP9 DUP11 SUB SLT ISZERO PUSH2 0x1C9E JUMPI PUSH2 0x1C9D PUSH2 0x185F JUMP JUMPDEST JUMPDEST PUSH0 PUSH2 0x1CAB DUP11 DUP3 DUP12 ADD PUSH2 0x18A9 JUMP JUMPDEST SWAP8 POP POP PUSH1 0x20 PUSH2 0x1CBC DUP11 DUP3 DUP12 ADD PUSH2 0x18A9 JUMP JUMPDEST SWAP7 POP POP PUSH1 0x40 PUSH2 0x1CCD DUP11 DUP3 DUP12 ADD PUSH2 0x18DC JUMP JUMPDEST SWAP6 POP POP PUSH1 0x60 PUSH2 0x1CDE DUP11 DUP3 DUP12 ADD PUSH2 0x18DC JUMP JUMPDEST SWAP5 POP POP PUSH1 0x80 PUSH2 0x1CEF DUP11 DUP3 DUP12 ADD PUSH2 0x1C45 JUMP JUMPDEST SWAP4 POP POP PUSH1 0xA0 PUSH2 0x1D00 DUP11 DUP3 DUP12 ADD PUSH2 0x1C6F JUMP JUMPDEST SWAP3 POP POP PUSH1 0xC0 PUSH2 0x1D11 DUP11 DUP3 DUP12 ADD PUSH2 0x1C6F JUMP JUMPDEST SWAP2 POP POP SWAP3 SWAP6 SWAP9 SWAP2 SWAP5 SWAP8 POP SWAP3 SWAP6 POP JUMP JUMPDEST PUSH0 DUP1 PUSH1 0x40 DUP4 DUP6 SUB SLT ISZERO PUSH2 0x1D36 JUMPI PUSH2 0x1D35 PUSH2 0x185F JUMP JUMPDEST JUMPDEST PUSH0 PUSH2 0x1D43 DUP6 DUP3 DUP7 ADD PUSH2 0x18A9 JUMP JUMPDEST SWAP3 POP POP PUSH1 0x20 PUSH2 0x1D54 DUP6 DUP3 DUP7 ADD PUSH2 0x18A9 JUMP JUMPDEST SWAP2 POP POP SWAP3 POP SWAP3 SWAP1 POP JUMP JUMPDEST PUSH32 0x4E487B7100000000000000000000000000000000000000000000000000000000 PUSH0 MSTORE PUSH1 0x22 PUSH1 0x4 MSTORE PUSH1 0x24 PUSH0 REVERT JUMPDEST PUSH0 PUSH1 0x2 DUP3 DIV SWAP1 POP PUSH1 0x1 DUP3 AND DUP1 PUSH2 0x1DA2 JUMPI PUSH1 0x7F DUP3 AND SWAP2 POP JUMPDEST PUSH1 0x20 DUP3 LT DUP2 SUB PUSH2 0x1DB5 JUMPI PUSH2 0x1DB4 PUSH2 0x1D5E JUMP JUMPDEST JUMPDEST POP SWAP2 SWAP1 POP JUMP JUMPDEST PUSH32 0x4E487B7100000000000000000000000000000000000000000000000000000000 PUSH0 MSTORE PUSH1 0x11 PUSH1 0x4 MSTORE PUSH1 0x24 PUSH0 REVERT JUMPDEST PUSH0 PUSH2 0x1DF2 DUP3 PUSH2 0x18BD JUMP JUMPDEST SWAP2 POP PUSH2 0x1DFD DUP4 PUSH2 0x18BD JUMP JUMPDEST SWAP3 POP DUP3 DUP3 ADD SWAP1 POP DUP1 DUP3 GT ISZERO PUSH2 0x1E15 JUMPI PUSH2 0x1E14 PUSH2 0x1DBB JUMP JUMPDEST JUMPDEST SWAP3 SWAP2 POP POP JUMP JUMPDEST PUSH32 0x746F74616C20737570706C792031303025206D696E7465640000000000000000 PUSH0 DUP3 ADD MSTORE POP JUMP JUMPDEST PUSH0 PUSH2 0x1E4F PUSH1 0x18 DUP4 PUSH2 0x17D9 JUMP JUMPDEST SWAP2 POP PUSH2 0x1E5A DUP3 PUSH2 0x1E1B JUMP JUMPDEST PUSH1 0x20 DUP3 ADD SWAP1 POP SWAP2 SWAP1 POP JUMP JUMPDEST PUSH0 PUSH1 0x20 DUP3 ADD SWAP1 POP DUP2 DUP2 SUB PUSH0 DUP4 ADD MSTORE PUSH2 0x1E7C DUP2 PUSH2 0x1E43 JUMP JUMPDEST SWAP1 POP SWAP2 SWAP1 POP JUMP JUMPDEST PUSH32 0x4E487B7100000000000000000000000000000000000000000000000000000000 PUSH0 MSTORE PUSH1 0x41 PUSH1 0x4 MSTORE PUSH1 0x24 PUSH0 REVERT JUMPDEST PUSH0 PUSH1 0xC0 DUP3 ADD SWAP1 POP PUSH2 0x1EC3 PUSH0 DUP4 ADD DUP10 PUSH2 0x1A16 JUMP JUMPDEST PUSH2 0x1ED0 PUSH1 0x20 DUP4 ADD DUP9 PUSH2 0x1ACE JUMP JUMPDEST PUSH2 0x1EDD PUSH1 0x40 DUP4 ADD DUP8 PUSH2 0x1ACE JUMP JUMPDEST PUSH2 0x1EEA PUSH1 0x60 DUP4 ADD DUP7 PUSH2 0x1961 JUMP JUMPDEST PUSH2 0x1EF7 PUSH1 0x80 DUP4 ADD DUP6 PUSH2 0x1961 JUMP JUMPDEST PUSH2 0x1F04 PUSH1 0xA0 DUP4 ADD DUP5 PUSH2 0x1961 JUMP JUMPDEST SWAP8 SWAP7 POP POP POP POP POP POP POP JUMP JUMPDEST PUSH0 PUSH1 0x40 DUP3 ADD SWAP1 POP PUSH2 0x1F22 PUSH0 DUP4 ADD DUP6 PUSH2 0x1ACE JUMP JUMPDEST PUSH2 0x1F2F PUSH1 0x20 DUP4 ADD DUP5 PUSH2 0x1ACE JUMP JUMPDEST SWAP4 SWAP3 POP POP POP JUMP JUMPDEST PUSH0 PUSH1 0x60 DUP3 ADD SWAP1 POP PUSH2 0x1F49 PUSH0 DUP4 ADD DUP7 PUSH2 0x1ACE JUMP JUMPDEST PUSH2 0x1F56 PUSH1 0x20 DUP4 ADD DUP6 PUSH2 0x1961 JUMP JUMPDEST PUSH2 0x1F63 PUSH1 0x40 DUP4 ADD DUP5 PUSH2 0x1961 JUMP JUMPDEST SWAP5 SWAP4 POP POP POP POP JUMP JUMPDEST PUSH0 PUSH1 0xA0 DUP3 ADD SWAP1 POP PUSH2 0x1F7E PUSH0 DUP4 ADD DUP9 PUSH2 0x1A16 JUMP JUMPDEST PUSH2 0x1F8B PUSH1 0x20 DUP4 ADD DUP8 PUSH2 0x1A16 JUMP JUMPDEST PUSH2 0x1F98 PUSH1 0x40 DUP4 ADD DUP7 PUSH2 0x1A16 JUMP JUMPDEST PUSH2 0x1FA5 PUSH1 0x60 DUP4 ADD DUP6 PUSH2 0x1961 JUMP JUMPDEST PUSH2 0x1FB2 PUSH1 0x80 DUP4 ADD DUP5 PUSH2 0x1ACE JUMP JUMPDEST SWAP7 SWAP6 POP POP POP POP POP POP JUMP JUMPDEST PUSH0 PUSH1 0x80 DUP3 ADD SWAP1 POP PUSH2 0x1FCF PUSH0 DUP4 ADD DUP8 PUSH2 0x1A16 JUMP JUMPDEST PUSH2 0x1FDC PUSH1 0x20 DUP4 ADD DUP7 PUSH2 0x19E5 JUMP JUMPDEST PUSH2 0x1FE9 PUSH1 0x40 DUP4 ADD DUP6 PUSH2 0x1A16 JUMP JUMPDEST PUSH2 0x1FF6 PUSH1 0x60 DUP4 ADD DUP5 PUSH2 0x1A16 JUMP JUMPDEST SWAP6 SWAP5 POP POP POP POP POP JUMP JUMPDEST PUSH32 0x4E487B7100000000000000000000000000000000000000000000000000000000 PUSH0 MSTORE PUSH1 0x21 PUSH1 0x4 MSTORE PUSH1 0x24 PUSH0 REVERT INVALID LOG2 PUSH5 0x6970667358 0x22 SLT KECCAK256 RETURNDATASIZE 0xE6 CHAINID CALLVALUE PUSH29 0x4C1FAB28B98FFCD8DE5E2F2D509B0F6E35ADA8B4946BB8D97972B26473 PUSH16 0x6C634300081A00330000000000000000 "
				},
				"gasEstimates": {
					"creation": {
						"codeDepositCost": "1658000",
						"executionCost": "infinite",
						"totalCost": "infinite"
					},
					"external": {
						"DOMAIN_SEPARATOR()": "infinite",
						"allowance(address,address)": "infinite",
						"approve(address,uint256)": "infinite",
						"balanceOf(address)": "2940",
						"burn(uint256)": "infinite",
						"decimals()": "361",
						"eip712Domain()": "infinite",
						"maxRutra()": "2470",
						"mint(address,uint256)": "infinite",
						"name()": "infinite",
						"nonces(address)": "2938",
						"owner()": "2626",
						"permit(address,address,uint256,uint256,uint8,bytes32,bytes32)": "infinite",
						"renounceOwnership()": "infinite",
						"symbol()": "infinite",
						"totalSupply()": "2500",
						"transfer(address,uint256)": "infinite",
						"transferFrom(address,address,uint256)": "infinite",
						"transferOwnership(address)": "infinite"
					}
				},
				"methodIdentifiers": {
					"DOMAIN_SEPARATOR()": "3644e515",
					"allowance(address,address)": "dd62ed3e",
					"approve(address,uint256)": "095ea7b3",
					"balanceOf(address)": "70a08231",
					"burn(uint256)": "42966c68",
					"decimals()": "313ce567",
					"eip712Domain()": "84b0196e",
					"maxRutra()": "7e1921f5",
					"mint(address,uint256)": "40c10f19",
					"name()": "06fdde03",
					"nonces(address)": "7ecebe00",
					"owner()": "8da5cb5b",
					"permit(address,address,uint256,uint256,uint8,bytes32,bytes32)": "d505accf",
					"renounceOwnership()": "715018a6",
					"symbol()": "95d89b41",
					"totalSupply()": "18160ddd",
					"transfer(address,uint256)": "a9059cbb",
					"transferFrom(address,address,uint256)": "23b872dd",
					"transferOwnership(address)": "f2fde38b"
				}
			},
			"storageLayout": {
				"storage": [
					{
						"astId": 332,
						"contract": "contracts/MyToken.sol:RutraToken",
						"label": "_balances",
						"offset": 0,
						"slot": "0",
						"type": "t_mapping(t_address,t_uint256)"
					},
					{
						"astId": 338,
						"contract": "contracts/MyToken.sol:RutraToken",
						"label": "_allowances",
						"offset": 0,
						"slot": "1",
						"type": "t_mapping(t_address,t_mapping(t_address,t_uint256))"
					},
					{
						"astId": 340,
						"contract": "contracts/MyToken.sol:RutraToken",
						"label": "_totalSupply",
						"offset": 0,
						"slot": "2",
						"type": "t_uint256"
					},
					{
						"astId": 342,
						"contract": "contracts/MyToken.sol:RutraToken",
						"label": "_name",
						"offset": 0,
						"slot": "3",
						"type": "t_string_storage"
					},
					{
						"astId": 344,
						"contract": "contracts/MyToken.sol:RutraToken",
						"label": "_symbol",
						"offset": 0,
						"slot": "4",
						"type": "t_string_storage"
					},
					{
						"astId": 2183,
						"contract": "contracts/MyToken.sol:RutraToken",
						"label": "_nameFallback",
						"offset": 0,
						"slot": "5",
						"type": "t_string_storage"
					},
					{
						"astId": 2185,
						"contract": "contracts/MyToken.sol:RutraToken",
						"label": "_versionFallback",
						"offset": 0,
						"slot": "6",
						"type": "t_string_storage"
					},
					{
						"astId": 1162,
						"contract": "contracts/MyToken.sol:RutraToken",
						"label": "_nonces",
						"offset": 0,
						"slot": "7",
						"type": "t_mapping(t_address,t_uint256)"
					},
					{
						"astId": 8,
						"contract": "contracts/MyToken.sol:RutraToken",
						"label": "_owner",
						"offset": 0,
						"slot": "8",
						"type": "t_address"
					},
					{
						"astId": 3625,
						"contract": "contracts/MyToken.sol:RutraToken",
						"label": "maxRutra",
						"offset": 0,
						"slot": "9",
						"type": "t_uint256"
					}
				],
				"types": {
					"t_address": {
						"encoding": "inplace",
						"label": "address",
						"numberOfBytes": "20"
					},
					"t_mapping(t_address,t_mapping(t_address,t_uint256))": {
						"encoding": "mapping",
						"key": "t_address",
						"label": "mapping(address => mapping(address => uint256))",
						"numberOfBytes": "32",
						"value": "t_mapping(t_address,t_uint256)"
					},
					"t_mapping(t_address,t_uint256)": {
						"encoding": "mapping",
						"key": "t_address",
						"label": "mapping(address => uint256)",
						"numberOfBytes": "32",
						"value": "t_uint256"
					},
					"t_string_storage": {
						"encoding": "bytes",
						"label": "string",
						"numberOfBytes": "32"
					},
					"t_uint256": {
						"encoding": "inplace",
						"label": "uint256",
						"numberOfBytes": "32"
					}
				}
			},
			"userdoc": {
				"kind": "user",
				"methods": {},
				"version": 1
			}
		}
	}
}