{
	"data": {
		"bytecode": {
			"linkReferences": {},
			"object": "61016060405261001361029c60201b60201c565b600a61001f919061088b565b61271061002c91906108d5565b60095534801561003a575f80fd5b50336040518060400160405280600a81526020017f5275747261546f6b656e00000000000000000000000000000000000000000000815250806040518060400160405280600181526020017f31000000000000000000000000000000000000000000000000000000000000008152506040518060400160405280600a81526020017f5275747261546f6b656e000000000000000000000000000000000000000000008152506040518060400160405280600581526020017f525554524100000000000000000000000000000000000000000000000000000081525081600390816101249190610b47565b5080600490816101349190610b47565b50505061014b6005836102a460201b90919060201c565b61012081815250506101676006826102a460201b90919060201c565b6101408181525050818051906020012060e08181525050808051906020012061010081815250504660a081815250506101a46102f160201b60201c565b608081815250503073ffffffffffffffffffffffffffffffffffffffff1660c08173ffffffffffffffffffffffffffffffffffffffff16815250505050505f73ffffffffffffffffffffffffffffffffffffffff168173ffffffffffffffffffffffffffffffffffffffff1603610252575f6040517f1e4fbdf70000000000000000000000000000000000000000000000000000000081526004016102499190610c55565b60405180910390fd5b6102618161034b60201b60201c565b506102973361027461029c60201b60201c565b600a610280919061088b565b606461028c91906108d5565b61040e60201b60201c565b610e80565b5f6012905090565b5f6020835110156102c5576102be8361049360201b60201c565b90506102eb565b826102d5836104f860201b60201c565b5f0190816102e39190610b47565b5060ff5f1b90505b92915050565b5f7f8b73c3c69bb8fe3d512ecc4cf759cc79239f7b179b0ffacaa9a75d522b39400f60e051610100514630604051602001610330959493929190610c95565b60405160208183030381529060405280519060200120905090565b5f60085f9054906101000a900473ffffffffffffffffffffffffffffffffffffffff1690508160085f6101000a81548173ffffffffffffffffffffffffffffffffffffffff021916908373ffffffffffffffffffffffffffffffffffffffff1602179055508173ffffffffffffffffffffffffffffffffffffffff168173ffffffffffffffffffffffffffffffffffffffff167f8be0079c531659141344cd1fd0a4f28419497f9722a3daafe3b4186f6b6457e060405160405180910390a35050565b5f73ffffffffffffffffffffffffffffffffffffffff168273ffffffffffffffffffffffffffffffffffffffff160361047e575f6040517fec442f050000000000000000000000000000000000000000000000000000000081526004016104759190610c55565b60405180910390fd5b61048f5f838361050160201b60201c565b5050565b5f80829050601f815111156104df57826040517f305a27a90000000000000000000000000000000000000000000000000000000081526004016104d69190610d4c565b60405180910390fd5b8051816104eb90610d99565b5f1c175f1b915050919050565b5f819050919050565b5f73ffffffffffffffffffffffffffffffffffffffff168373ffffffffffffffffffffffffffffffffffffffff1603610551578060025f8282546105459190610dff565b9250508190555061061f565b5f805f8573ffffffffffffffffffffffffffffffffffffffff1673ffffffffffffffffffffffffffffffffffffffff1681526020019081526020015f20549050818110156105da578381836040517fe450d38c0000000000000000000000000000000000000000000000000000000081526004016105d193929190610e32565b60405180910390fd5b8181035f808673ffffffffffffffffffffffffffffffffffffffff1673ffffffffffffffffffffffffffffffffffffffff1681526020019081526020015f2081905550505b5f73ffffffffffffffffffffffffffffffffffffffff168273ffffffffffffffffffffffffffffffffffffffff1603610666578060025f82825403925050819055506106b0565b805f808473ffffffffffffffffffffffffffffffffffffffff1673ffffffffffffffffffffffffffffffffffffffff1681526020019081526020015f205f82825401925050819055505b8173ffffffffffffffffffffffffffffffffffffffff168373ffffffffffffffffffffffffffffffffffffffff167fddf252ad1be2c89b69c2b068fc378daa952ba7f163c4a11628f55a4df523b3ef8360405161070d9190610e67565b60405180910390a3505050565b7f4e487b71000000000000000000000000000000000000000000000000000000005f52601160045260245ffd5b5f8160011c9050919050565b5f808291508390505b600185111561079c578086048111156107785761077761071a565b5b60018516156107875780820291505b808102905061079585610747565b945061075c565b94509492505050565b5f826107b4576001905061086f565b816107c1575f905061086f565b81600181146107d757600281146107e157610810565b600191505061086f565b60ff8411156107f3576107f261071a565b5b8360020a91508482111561080a5761080961071a565b5b5061086f565b5060208310610133831016604e8410600b84101617156108455782820a9050838111156108405761083f61071a565b5b61086f565b6108528484846001610753565b925090508184048111156108695761086861071a565b5b81810290505b9392505050565b5f819050919050565b5f60ff82169050919050565b5f61089582610876565b91506108a08361087f565b92506108cd7fffffffffffffffffffffffffffffffffffffffffffffffffffffffffffffffff84846107a5565b905092915050565b5f6108df82610876565b91506108ea83610876565b92508282026108f881610876565b9150828204841483151761090f5761090e61071a565b5b5092915050565b5f81519050919050565b7f4e487b71000000000000000000000000000000000000000000000000000000005f52604160045260245ffd5b7f4e487b71000000000000000000000000000000000000000000000000000000005f52602260045260245ffd5b5f600282049050600182168061099157607f821691505b6020821081036109a4576109a361094d565b5b50919050565b5f819050815f5260205f209050919050565b5f6020601f8301049050919050565b5f82821b905092915050565b5f60088302610a067fffffffffffffffffffffffffffffffffffffffffffffffffffffffffffffffff826109cb565b610a1086836109cb565b95508019841693508086168417925050509392505050565b5f819050919050565b5f610a4b610a46610a4184610876565b610a28565b610876565b9050919050565b5f819050919050565b610a6483610a31565b610a78610a7082610a52565b8484546109d7565b825550505050565b5f90565b610a8c610a80565b610a97818484610a5b565b505050565b5b81811015610aba57610aaf5f82610a84565b600181019050610a9d565b5050565b601f821115610aff57610ad0816109aa565b610ad9846109bc565b81016020851015610ae8578190505b610afc610af4856109bc565b830182610a9c565b50505b505050565b5f82821c905092915050565b5f610b1f5f1984600802610b04565b1980831691505092915050565b5f610b378383610b10565b9150826002028217905092915050565b610b5082610916565b67ffffffffffffffff811115610b6957610b68610920565b5b610b73825461097a565b610b7e828285610abe565b5f60209050601f831160018114610baf575f8415610b9d578287015190505b610ba78582610b2c565b865550610c0e565b601f198416610bbd866109aa565b5f5b82811015610be457848901518255600182019150602085019450602081019050610bbf565b86831015610c015784890151610bfd601f891682610b10565b8355505b6001600288020188555050505b505050505050565b5f73ffffffffffffffffffffffffffffffffffffffff82169050919050565b5f610c3f82610c16565b9050919050565b610c4f81610c35565b82525050565b5f602082019050610c685f830184610c46565b92915050565b5f819050919050565b610c8081610c6e565b82525050565b610c8f81610876565b82525050565b5f60a082019050610ca85f830188610c77565b610cb56020830187610c77565b610cc26040830186610c77565b610ccf6060830185610c86565b610cdc6080830184610c46565b9695505050505050565b5f82825260208201905092915050565b8281835e5f83830152505050565b5f601f19601f8301169050919050565b5f610d1e82610916565b610d288185610ce6565b9350610d38818560208601610cf6565b610d4181610d04565b840191505092915050565b5f6020820190508181035f830152610d648184610d14565b905092915050565b5f81519050919050565b5f819050602082019050919050565b5f610d908251610c6e565b80915050919050565b5f610da382610d6c565b82610dad84610d76565b9050610db881610d85565b92506020821015610df857610df37fffffffffffffffffffffffffffffffffffffffffffffffffffffffffffffffff836020036008026109cb565b831692505b5050919050565b5f610e0982610876565b9150610e1483610876565b9250828201905080821115610e2c57610e2b61071a565b5b92915050565b5f606082019050610e455f830186610c46565b610e526020830185610c86565b610e5f6040830184610c86565b949350505050565b5f602082019050610e7a5f830184610c86565b92915050565b60805160a05160c05160e051610100516101205161014051612062610ed15f395f610e9001525f610e5501525f61138901525f61136801525f610b0b01525f610b6101525f610b8a01526120625ff3fe608060405234801561000f575f80fd5b506004361061011f575f3560e01c8063715018a6116100ab57806395d89b411161006f57806395d89b41146102fd578063a9059cbb1461031b578063d505accf1461034b578063dd62ed3e14610367578063f2fde38b146103975761011f565b8063715018a6146102635780637e1921f51461026d5780637ecebe001461028b57806384b0196e146102bb5780638da5cb5b146102df5761011f565b8063313ce567116100f2578063313ce567146101bf5780633644e515146101dd57806340c10f19146101fb57806342966c681461021757806370a08231146102335761011f565b806306fdde0314610123578063095ea7b31461014157806318160ddd1461017157806323b872dd1461018f575b5f80fd5b61012b6103b3565b604051610138919061183f565b60405180910390f35b61015b600480360381019061015691906118f0565b610443565b6040516101689190611948565b60405180910390f35b610179610465565b6040516101869190611970565b60405180910390f35b6101a960048036038101906101a49190611989565b61046e565b6040516101b69190611948565b60405180910390f35b6101c761049c565b6040516101d491906119f4565b60405180910390f35b6101e56104a4565b6040516101f29190611a25565b60405180910390f35b610215600480360381019061021091906118f0565b6104b2565b005b610231600480360381019061022c9190611a3e565b61051f565b005b61024d60048036038101906102489190611a69565b610534565b60405161025a9190611970565b60405180910390f35b61026b610579565b005b61027561058c565b6040516102829190611970565b60405180910390f35b6102a560048036038101906102a09190611a69565b610592565b6040516102b29190611970565b60405180910390f35b6102c36105a3565b6040516102d69796959493929190611b94565b60405180910390f35b6102e7610648565b6040516102f49190611c16565b60405180910390f35b610305610670565b604051610312919061183f565b60405180910390f35b610335600480360381019061033091906118f0565b610700565b6040516103429190611948565b60405180910390f35b61036560048036038101906103609190611c83565b610722565b005b610381600480360381019061037c9190611d20565b610867565b60405161038e9190611970565b60405180910390f35b6103b160048036038101906103ac9190611a69565b6108e9565b005b6060600380546103c290611d8b565b80601f01602080910402602001604051908101604052809291908181526020018280546103ee90611d8b565b80156104395780601f1061041057610100808354040283529160200191610439565b820191905f5260205f20905b81548152906001019060200180831161041c57829003601f168201915b5050505050905090565b5f8061044d61096d565b905061045a818585610974565b600191505092915050565b5f600254905090565b5f8061047861096d565b9050610485858285610986565b610490858585610a18565b60019150509392505050565b5f6012905090565b5f6104ad610b08565b905090565b6104ba610bbe565b600954816104c6610465565b6104d09190611de8565b1115610511576040517f08c379a000000000000000000000000000000000000000000000000000000000815260040161050890611e65565b60405180910390fd5b61051b8282610c45565b5050565b610527610bbe565b6105313382610cc4565b50565b5f805f8373ffffffffffffffffffffffffffffffffffffffff1673ffffffffffffffffffffffffffffffffffffffff1681526020019081526020015f20549050919050565b610581610bbe565b61058a5f610d43565b565b60095481565b5f61059c82610e06565b9050919050565b5f6060805f805f60606105b4610e4c565b6105bc610e87565b46305f801b5f67ffffffffffffffff8111156105db576105da611e83565b5b6040519080825280602002602001820160405280156106095781602001602082028036833780820191505090505b507f0f00000000000000000000000000000000000000000000000000000000000000959493929190965096509650965096509650965090919293949596565b5f60085f9054906101000a900473ffffffffffffffffffffffffffffffffffffffff16905090565b60606004805461067f90611d8b565b80601f01602080910402602001604051908101604052809291908181526020018280546106ab90611d8b565b80156106f65780601f106106cd576101008083540402835291602001916106f6565b820191905f5260205f20905b8154815290600101906020018083116106d957829003601f168201915b5050505050905090565b5f8061070a61096d565b9050610717818585610a18565b600191505092915050565b8342111561076757836040517f6279130200000000000000000000000000000000000000000000000000000000815260040161075e9190611970565b60405180910390fd5b5f7f6e71edae12b1b97f4d1f60370fef10105fa2faae0126114a169c64845d6126c98888886107958c610ec2565b896040516020016107ab96959493929190611eb0565b6040516020818303038152906040528051906020012090505f6107cd82610f15565b90505f6107dc82878787610f2e565b90508973ffffffffffffffffffffffffffffffffffffffff168173ffffffffffffffffffffffffffffffffffffffff161461085057808a6040517f4b800e46000000000000000000000000000000000000000000000000000000008152600401610847929190611f0f565b60405180910390fd5b61085b8a8a8a610974565b50505050505050505050565b5f60015f8473ffffffffffffffffffffffffffffffffffffffff1673ffffffffffffffffffffffffffffffffffffffff1681526020019081526020015f205f8373ffffffffffffffffffffffffffffffffffffffff1673ffffffffffffffffffffffffffffffffffffffff1681526020019081526020015f2054905092915050565b6108f1610bbe565b5f73ffffffffffffffffffffffffffffffffffffffff168173ffffffffffffffffffffffffffffffffffffffff1603610961575f6040517f1e4fbdf70000000000000000000000000000000000000000000000000000000081526004016109589190611c16565b60405180910390fd5b61096a81610d43565b50565b5f33905090565b6109818383836001610f5c565b505050565b5f6109918484610867565b90507fffffffffffffffffffffffffffffffffffffffffffffffffffffffffffffffff8114610a125781811015610a03578281836040517ffb8f41b20000000000000000000000000000000000000000000000000000000081526004016109fa93929190611f36565b60405180910390fd5b610a1184848484035f610f5c565b5b50505050565b5f73ffffffffffffffffffffffffffffffffffffffff168373ffffffffffffffffffffffffffffffffffffffff1603610a88575f6040517f96c6fd1e000000000000000000000000000000000000000000000000000000008152600401610a7f9190611c16565b60405180910390fd5b5f73ffffffffffffffffffffffffffffffffffffffff168273ffffffffffffffffffffffffffffffffffffffff1603610af8575f6040517fec442f05000000000000000000000000000000000000000000000000000000008152600401610aef9190611c16565b60405180910390fd5b610b0383838361112b565b505050565b5f7f000000000000000000000000000000000000000000000000000000000000000073ffffffffffffffffffffffffffffffffffffffff163073ffffffffffffffffffffffffffffffffffffffff16148015610b8357507f000000000000000000000000000000000000000000000000000000000000000046145b15610bb0577f00000000000000000000000000000000000000000000000000000000000000009050610bbb565b610bb8611344565b90505b90565b610bc661096d565b73ffffffffffffffffffffffffffffffffffffffff16610be4610648565b73ffffffffffffffffffffffffffffffffffffffff1614610c4357610c0761096d565b6040517f118cdaa7000000000000000000000000000000000000000000000000000000008152600401610c3a9190611c16565b60405180910390fd5b565b5f73ffffffffffffffffffffffffffffffffffffffff168273ffffffffffffffffffffffffffffffffffffffff1603610cb5575f6040517fec442f05000000000000000000000000000000000000000000000000000000008152600401610cac9190611c16565b60405180910390fd5b610cc05f838361112b565b5050565b5f73ffffffffffffffffffffffffffffffffffffffff168273ffffffffffffffffffffffffffffffffffffffff1603610d34575f6040517f96c6fd1e000000000000000000000000000000000000000000000000000000008152600401610d2b9190611c16565b60405180910390fd5b610d3f825f8361112b565b5050565b5f60085f9054906101000a900473ffffffffffffffffffffffffffffffffffffffff1690508160085f6101000a81548173ffffffffffffffffffffffffffffffffffffffff021916908373ffffffffffffffffffffffffffffffffffffffff1602179055508173ffffffffffffffffffffffffffffffffffffffff168173ffffffffffffffffffffffffffffffffffffffff167f8be0079c531659141344cd1fd0a4f28419497f9722a3daafe3b4186f6b6457e060405160405180910390a35050565b5f60075f8373ffffffffffffffffffffffffffffffffffffffff1673ffffffffffffffffffffffffffffffffffffffff1681526020019081526020015f20549050919050565b6060610e8260057f00000000000000000000000000000000000000000000000000000000000000006113d990919063ffffffff16565b905090565b6060610ebd60067f00000000000000000000000000000000000000000000000000000000000000006113d990919063ffffffff16565b905090565b5f60075f8373ffffffffffffffffffffffffffffffffffffffff1673ffffffffffffffffffffffffffffffffffffffff1681526020019081526020015f205f815480929190600101919050559050919050565b5f610f27610f21610b08565b83611486565b9050919050565b5f805f80610f3e888888886114c6565b925092509250610f4e82826115ad565b829350505050949350505050565b5f73ffffffffffffffffffffffffffffffffffffffff168473ffffffffffffffffffffffffffffffffffffffff1603610fcc575f6040517fe602df05000000000000000000000000000000000000000000000000000000008152600401610fc39190611c16565b60405180910390fd5b5f73ffffffffffffffffffffffffffffffffffffffff168373ffffffffffffffffffffffffffffffffffffffff160361103c575f6040517f94280d620000000000000000000000000000000000000000000000000000000081526004016110339190611c16565b60405180910390fd5b8160015f8673ffffffffffffffffffffffffffffffffffffffff1673ffffffffffffffffffffffffffffffffffffffff1681526020019081526020015f205f8573ffffffffffffffffffffffffffffffffffffffff1673ffffffffffffffffffffffffffffffffffffffff1681526020019081526020015f20819055508015611125578273ffffffffffffffffffffffffffffffffffffffff168473ffffffffffffffffffffffffffffffffffffffff167f8c5be1e5ebec7d5bd14f71427d1e84f3dd0314c0f7b2291e5b200ac8c7c3b9258460405161111c9190611970565b60405180910390a35b50505050565b5f73ffffffffffffffffffffffffffffffffffffffff168373ffffffffffffffffffffffffffffffffffffffff160361117b578060025f82825461116f9190611de8565b92505081905550611249565b5f805f8573ffffffffffffffffffffffffffffffffffffffff1673ffffffffffffffffffffffffffffffffffffffff1681526020019081526020015f2054905081811015611204578381836040517fe450d38c0000000000000000000000000000000000000000000000000000000081526004016111fb93929190611f36565b60405180910390fd5b8181035f808673ffffffffffffffffffffffffffffffffffffffff1673ffffffffffffffffffffffffffffffffffffffff1681526020019081526020015f2081905550505b5f73ffffffffffffffffffffffffffffffffffffffff168273ffffffffffffffffffffffffffffffffffffffff1603611290578060025f82825403925050819055506112da565b805f808473ffffffffffffffffffffffffffffffffffffffff1673ffffffffffffffffffffffffffffffffffffffff1681526020019081526020015f205f82825401925050819055505b8173ffffffffffffffffffffffffffffffffffffffff168373ffffffffffffffffffffffffffffffffffffffff167fddf252ad1be2c89b69c2b068fc378daa952ba7f163c4a11628f55a4df523b3ef836040516113379190611970565b60405180910390a3505050565b5f7f8b73c3c69bb8fe3d512ecc4cf759cc79239f7b179b0ffacaa9a75d522b39400f7f00000000000000000000000000000000000000000000000000000000000000007f000000000000000000000000000000000000000000000000000000000000000046306040516020016113be959493929190611f6b565b60405160208183030381529060405280519060200120905090565b606060ff5f1b83146113f5576113ee8361170f565b9050611480565b81805461140190611d8b565b80601f016020809104026020016040519081016040528092919081815260200182805461142d90611d8b565b80156114785780601f1061144f57610100808354040283529160200191611478565b820191905f5260205f20905b81548152906001019060200180831161145b57829003601f168201915b505050505090505b92915050565b5f6040517f190100000000000000000000000000000000000000000000000000000000000081528360028201528260228201526042812091505092915050565b5f805f7f7fffffffffffffffffffffffffffffff5d576e7357a4501ddfe92f46681b20a0845f1c1115611502575f6003859250925092506115a3565b5f6001888888886040515f81526020016040526040516115259493929190611fbc565b6020604051602081039080840390855afa158015611545573d5f803e3d5ffd5b5050506020604051035190505f73ffffffffffffffffffffffffffffffffffffffff168173ffffffffffffffffffffffffffffffffffffffff1603611596575f60015f801b935093509350506115a3565b805f805f1b935093509350505b9450945094915050565b5f60038111156115c0576115bf611fff565b5b8260038111156115d3576115d2611fff565b5b031561170b57600160038111156115ed576115ec611fff565b5b826003811115611600576115ff611fff565b5b03611637576040517ff645eedf00000000000000000000000000000000000000000000000000000000815260040160405180910390fd5b6002600381111561164b5761164a611fff565b5b82600381111561165e5761165d611fff565b5b036116a257805f1c6040517ffce698f70000000000000000000000000000000000000000000000000000000081526004016116999190611970565b60405180910390fd5b6003808111156116b5576116b4611fff565b5b8260038111156116c8576116c7611fff565b5b0361170a57806040517fd78bce0c0000000000000000000000000000000000000000000000000000000081526004016117019190611a25565b60405180910390fd5b5b5050565b60605f61171b83611781565b90505f602067ffffffffffffffff81111561173957611738611e83565b5b6040519080825280601f01601f19166020018201604052801561176b5781602001600182028036833780820191505090505b5090508181528360208201528092505050919050565b5f8060ff835f1c169050601f8111156117c6576040517fb3512b0c00000000000000000000000000000000000000000000000000000000815260040160405180910390fd5b80915050919050565b5f81519050919050565b5f82825260208201905092915050565b8281835e5f83830152505050565b5f601f19601f8301169050919050565b5f611811826117cf565b61181b81856117d9565b935061182b8185602086016117e9565b611834816117f7565b840191505092915050565b5f6020820190508181035f8301526118578184611807565b905092915050565b5f80fd5b5f73ffffffffffffffffffffffffffffffffffffffff82169050919050565b5f61188c82611863565b9050919050565b61189c81611882565b81146118a6575f80fd5b50565b5f813590506118b781611893565b92915050565b5f819050919050565b6118cf816118bd565b81146118d9575f80fd5b50565b5f813590506118ea816118c6565b92915050565b5f80604083850312156119065761190561185f565b5b5f611913858286016118a9565b9250506020611924858286016118dc565b9150509250929050565b5f8115159050919050565b6119428161192e565b82525050565b5f60208201905061195b5f830184611939565b92915050565b61196a816118bd565b82525050565b5f6020820190506119835f830184611961565b92915050565b5f805f606084860312156119a05761199f61185f565b5b5f6119ad868287016118a9565b93505060206119be868287016118a9565b92505060406119cf868287016118dc565b9150509250925092565b5f60ff82169050919050565b6119ee816119d9565b82525050565b5f602082019050611a075f8301846119e5565b92915050565b5f819050919050565b611a1f81611a0d565b82525050565b5f602082019050611a385f830184611a16565b92915050565b5f60208284031215611a5357611a5261185f565b5b5f611a60848285016118dc565b91505092915050565b5f60208284031215611a7e57611a7d61185f565b5b5f611a8b848285016118a9565b91505092915050565b5f7fff0000000000000000000000000000000000000000000000000000000000000082169050919050565b611ac881611a94565b82525050565b611ad781611882565b82525050565b5f81519050919050565b5f82825260208201905092915050565b5f819050602082019050919050565b611b0f816118bd565b82525050565b5f611b208383611b06565b60208301905092915050565b5f602082019050919050565b5f611b4282611add565b611b4c8185611ae7565b9350611b5783611af7565b805f5b83811015611b87578151611b6e8882611b15565b9750611b7983611b2c565b925050600181019050611b5a565b5085935050505092915050565b5f60e082019050611ba75f83018a611abf565b8181036020830152611bb98189611807565b90508181036040830152611bcd8188611807565b9050611bdc6060830187611961565b611be96080830186611ace565b611bf660a0830185611a16565b81810360c0830152611c088184611b38565b905098975050505050505050565b5f602082019050611c295f830184611ace565b92915050565b611c38816119d9565b8114611c42575f80fd5b50565b5f81359050611c5381611c2f565b92915050565b611c6281611a0d565b8114611c6c575f80fd5b50565b5f81359050611c7d81611c59565b92915050565b5f805f805f805f60e0888a031215611c9e57611c9d61185f565b5b5f611cab8a828b016118a9565b9750506020611cbc8a828b016118a9565b9650506040611ccd8a828b016118dc565b9550506060611cde8a828b016118dc565b9450506080611cef8a828b01611c45565b93505060a0611d008a828b01611c6f565b92505060c0611d118a828b01611c6f565b91505092959891949750929550565b5f8060408385031215611d3657611d3561185f565b5b5f611d43858286016118a9565b9250506020611d54858286016118a9565b9150509250929050565b7f4e487b71000000000000000000000000000000000000000000000000000000005f52602260045260245ffd5b5f6002820490506001821680611da257607f821691505b602082108103611db557611db4611d5e565b5b50919050565b7f4e487b71000000000000000000000000000000000000000000000000000000005f52601160045260245ffd5b5f611df2826118bd565b9150611dfd836118bd565b9250828201905080821115611e1557611e14611dbb565b5b92915050565b7f746f74616c20737570706c792031303025206d696e74656400000000000000005f82015250565b5f611e4f6018836117d9565b9150611e5a82611e1b565b602082019050919050565b5f6020820190508181035f830152611e7c81611e43565b9050919050565b7f4e487b71000000000000000000000000000000000000000000000000000000005f52604160045260245ffd5b5f60c082019050611ec35f830189611a16565b611ed06020830188611ace565b611edd6040830187611ace565b611eea6060830186611961565b611ef76080830185611961565b611f0460a0830184611961565b979650505050505050565b5f604082019050611f225f830185611ace565b611f2f6020830184611ace565b9392505050565b5f606082019050611f495f830186611ace565b611f566020830185611961565b611f636040830184611961565b949350505050565b5f60a082019050611f7e5f830188611a16565b611f8b6020830187611a16565b611f986040830186611a16565b611fa56060830185611961565b611fb26080830184611ace565b9695505050505050565b5f608082019050611fcf5f830187611a16565b611fdc60208301866119e5565b611fe96040830185611a16565b611ff66060830184611a16565b95945050505050565b7f4e487b71000000000000000000000000000000000000000000000000000000005f52602160045260245ffdfea2646970667358221220ed7b0a2fbece994cec33b82bd3bcfa4d6228010e2ecde8829bcd73d430097dbe64736f6c634300081a0033",
			"opcodes": "PUSH2 0x160 PUSH1 0x40 MSTORE PUSH2 0x13 PUSH2 0x29C PUSH1 0x20 SHL PUSH1 0x20 SHR JUMP JUMPDEST PUSH1 0xA PUSH2 0x1F SWAP2 SWAP1 PUSH2 0x88B JUMP JUMPDEST PUSH2 0x2710 PUSH2 0x2C SWAP2 SWAP1 PUSH2 0x8D5 JUMP JUMPDEST PUSH1 0x9 SSTORE CALLVALUE DUP1 ISZERO PUSH2 0x3A JUMPI PUSH0 DUP1 REVERT JUMPDEST POP CALLER PUSH1 0x40 MLOAD DUP1 PUSH1 0x40 ADD PUSH1 0x40 MSTORE DUP1 PUSH1 0xA DUP2 MSTORE PUSH1 0x20 ADD PUSH32 0x5275747261546F6B656E00000000000000000000000000000000000000000000 DUP2 MSTORE POP DUP1 PUSH1 0x40 MLOAD DUP1 PUSH1 0x40 ADD PUSH1 0x40 MSTORE DUP1 PUSH1 0x1 DUP2 MSTORE PUSH1 0x20 ADD PUSH32 0x3100000000000000000000000000000000000000000000000000000000000000 DUP2 MSTORE POP PUSH1 0x40 MLOAD DUP1 PUSH1 0x40 ADD PUSH1 0x40 MSTORE DUP1 PUSH1 0xA DUP2 MSTORE PUSH1 0x20 ADD PUSH32 0x5275747261546F6B656E00000000000000000000000000000000000000000000 DUP2 MSTORE POP PUSH1 0x40 MLOAD DUP1 PUSH1 0x40 ADD PUSH1 0x40 MSTORE DUP1 PUSH1 0x5 DUP2 MSTORE PUSH1 0x20 ADD PUSH32 0x5255545241000000000000000000000000000000000000000000000000000000 DUP2 MSTORE POP DUP2 PUSH1 0x3 SWAP1 DUP2 PUSH2 0x124 SWAP2 SWAP1 PUSH2 0xB47 JUMP JUMPDEST POP DUP1 PUSH1 0x4 SWAP1 DUP2 PUSH2 0x134 SWAP2 SWAP1 PUSH2 0xB47 JUMP JUMPDEST POP POP POP PUSH2 0x14B PUSH1 0x5 DUP4 PUSH2 0x2A4 PUSH1 0x20 SHL SWAP1 SWAP2 SWAP1 PUSH1 0x20 SHR JUMP JUMPDEST PUSH2 0x120 DUP2 DUP2 MSTORE POP POP PUSH2 0x167 PUSH1 0x6 DUP3 PUSH2 0x2A4 PUSH1 0x20 SHL SWAP1 SWAP2 SWAP1 PUSH1 0x20 SHR JUMP JUMPDEST PUSH2 0x140 DUP2 DUP2 MSTORE POP POP DUP2 DUP1 MLOAD SWAP1 PUSH1 0x20 ADD KECCAK256 PUSH1 0xE0 DUP2 DUP2 MSTORE POP POP DUP1 DUP1 MLOAD SWAP1 PUSH1 0x20 ADD KECCAK256 PUSH2 0x100 DUP2 DUP2 MSTORE POP POP CHAINID PUSH1 0xA0 DUP2 DUP2 MSTORE POP POP PUSH2 0x1A4 PUSH2 0x2F1 PUSH1 0x20 SHL PUSH1 0x20 SHR JUMP JUMPDEST PUSH1 0x80 DUP2 DUP2 MSTORE POP POP ADDRESS PUSH20 0xFFFFFFFFFFFFFFFFFFFFFFFFFFFFFFFFFFFFFFFF AND PUSH1 0xC0 DUP2 PUSH20 0xFFFFFFFFFFFFFFFFFFFFFFFFFFFFFFFFFFFFFFFF AND DUP2 MSTORE POP POP POP POP POP PUSH0 PUSH20 0xFFFFFFFFFFFFFFFFFFFFFFFFFFFFFFFFFFFFFFFF AND DUP2 PUSH20 0xFFFFFFFFFFFFFFFFFFFFFFFFFFFFFFFFFFFFFFFF AND SUB PUSH2 0x252 JUMPI PUSH0 PUSH1 0x40 MLOAD PUSH32 0x1E4FBDF700000000000000000000000000000000000000000000000000000000 DUP2 MSTORE PUSH1 0x4 ADD PUSH2 0x249 SWAP2 SWAP1 PUSH2 0xC55 JUMP JUMPDEST PUSH1 0x40 MLOAD DUP1 SWAP2 SUB SWAP1 REVERT JUMPDEST PUSH2 0x261 DUP2 PUSH2 0x34B PUSH1 0x20 SHL PUSH1 0x20 SHR JUMP JUMPDEST POP PUSH2 0x297 CALLER PUSH2 0x274 PUSH2 0x29C PUSH1 0x20 SHL PUSH1 0x20 SHR JUMP JUMPDEST PUSH1 0xA PUSH2 0x280 SWAP2 SWAP1 PUSH2 0x88B JUMP JUMPDEST PUSH1 0x64 PUSH2 0x28C SWAP2 SWAP1 PUSH2 0x8D5 JUMP JUMPDEST PUSH2 0x40E PUSH1 0x20 SHL PUSH1 0x20 SHR JUMP JUMPDEST PUSH2 0xE80 JUMP JUMPDEST PUSH0 PUSH1 0x12 SWAP1 POP SWAP1 JUMP JUMPDEST PUSH0 PUSH1 0x20 DUP4 MLOAD LT ISZERO PUSH2 0x2C5 JUMPI PUSH2 0x2BE DUP4 PUSH2 0x493 PUSH1 0x20 SHL PUSH1 0x20 SHR JUMP JUMPDEST SWAP1 POP PUSH2 0x2EB JUMP JUMPDEST DUP3 PUSH2 0x2D5 DUP4 PUSH2 0x4F8 PUSH1 0x20 SHL PUSH1 0x20 SHR JUMP JUMPDEST PUSH0 ADD SWAP1 DUP2 PUSH2 0x2E3 SWAP2 SWAP1 PUSH2 0xB47 JUMP JUMPDEST POP PUSH1 0xFF PUSH0 SHL SWAP1 POP JUMPDEST SWAP3 SWAP2 POP POP JUMP JUMPDEST PUSH0 PUSH32 0x8B73C3C69BB8FE3D512ECC4CF759CC79239F7B179B0FFACAA9A75D522B39400F PUSH1 0xE0 MLOAD PUSH2 0x100 MLOAD CHAINID ADDRESS PUSH1 0x40 MLOAD PUSH1 0x20 ADD PUSH2 0x330 SWAP6 SWAP5 SWAP4 SWAP3 SWAP2 SWAP1 PUSH2 0xC95 JUMP JUMPDEST PUSH1 0x40 MLOAD PUSH1 0x20 DUP2 DUP4 SUB SUB DUP2 MSTORE SWAP1 PUSH1 0x40 MSTORE DUP1 MLOAD SWAP1 PUSH1 0x20 ADD KECCAK256 SWAP1 POP SWAP1 JUMP JUMPDEST PUSH0 PUSH1 0x8 PUSH0 SWAP1 SLOAD SWAP1 PUSH2 0x100 EXP SWAP1 DIV PUSH20 0xFFFFFFFFFFFFFFFFFFFFFFFFFFFFFFFFFFFFFFFF AND SWAP1 POP DUP2 PUSH1 0x8 PUSH0 PUSH2 0x100 EXP DUP2 SLOAD DUP2 PUSH20 0xFFFFFFFFFFFFFFFFFFFFFFFFFFFFFFFFFFFFFFFF MUL NOT AND SWAP1 DUP4 PUSH20 0xFFFFFFFFFFFFFFFFFFFFFFFFFFFFFFFFFFFFFFFF AND MUL OR SWAP1 SSTORE POP DUP2 PUSH20 0xFFFFFFFFFFFFFFFFFFFFFFFFFFFFFFFFFFFFFFFF AND DUP2 PUSH20 0xFFFFFFFFFFFFFFFFFFFFFFFFFFFFFFFFFFFFFFFF AND PUSH32 0x8BE0079C531659141344CD1FD0A4F28419497F9722A3DAAFE3B4186F6B6457E0 PUSH1 0x40 MLOAD PUSH1 0x40 MLOAD DUP1 SWAP2 SUB SWAP1 LOG3 POP POP JUMP JUMPDEST PUSH0 PUSH20 0xFFFFFFFFFFFFFFFFFFFFFFFFFFFFFFFFFFFFFFFF AND DUP3 PUSH20 0xFFFFFFFFFFFFFFFFFFFFFFFFFFFFFFFFFFFFFFFF AND SUB PUSH2 0x47E JUMPI PUSH0 PUSH1 0x40 MLOAD PUSH32 0xEC442F0500000000000000000000000000000000000000000000000000000000 DUP2 MSTORE PUSH1 0x4 ADD PUSH2 0x475 SWAP2 SWAP1 PUSH2 0xC55 JUMP JUMPDEST PUSH1 0x40 MLOAD DUP1 SWAP2 SUB SWAP1 REVERT JUMPDEST PUSH2 0x48F PUSH0 DUP4 DUP4 PUSH2 0x501 PUSH1 0x20 SHL PUSH1 0x20 SHR JUMP JUMPDEST POP POP JUMP JUMPDEST PUSH0 DUP1 DUP3 SWAP1 POP PUSH1 0x1F DUP2 MLOAD GT ISZERO PUSH2 0x4DF JUMPI DUP3 PUSH1 0x40 MLOAD PUSH32 0x305A27A900000000000000000000000000000000000000000000000000000000 DUP2 MSTORE PUSH1 0x4 ADD PUSH2 0x4D6 SWAP2 SWAP1 PUSH2 0xD4C JUMP JUMPDEST PUSH1 0x40 MLOAD DUP1 SWAP2 SUB SWAP1 REVERT JUMPDEST DUP1 MLOAD DUP2 PUSH2 0x4EB SWAP1 PUSH2 0xD99 JUMP JUMPDEST PUSH0 SHR OR PUSH0 SHL SWAP2 POP POP SWAP2 SWAP1 POP JUMP JUMPDEST PUSH0 DUP2 SWAP1 POP SWAP2 SWAP1 POP JUMP JUMPDEST PUSH0 PUSH20 0xFFFFFFFFFFFFFFFFFFFFFFFFFFFFFFFFFFFFFFFF AND DUP4 PUSH20 0xFFFFFFFFFFFFFFFFFFFFFFFFFFFFFFFFFFFFFFFF AND SUB PUSH2 0x551 JUMPI DUP1 PUSH1 0x2 PUSH0 DUP3 DUP3 SLOAD PUSH2 0x545 SWAP2 SWAP1 PUSH2 0xDFF JUMP JUMPDEST SWAP3 POP POP DUP2 SWAP1 SSTORE POP PUSH2 0x61F JUMP JUMPDEST PUSH0 DUP1 PUSH0 DUP6 PUSH20 0xFFFFFFFFFFFFFFFFFFFFFFFFFFFFFFFFFFFFFFFF AND PUSH20 0xFFFFFFFFFFFFFFFFFFFFFFFFFFFFFFFFFFFFFFFF AND DUP2 MSTORE PUSH1 0x20 ADD SWAP1 DUP2 MSTORE PUSH1 0x20 ADD PUSH0 KECCAK256 SLOAD SWAP1 POP DUP2 DUP2 LT ISZERO PUSH2 0x5DA JUMPI DUP4 DUP2 DUP4 PUSH1 0x40 MLOAD PUSH32 0xE450D38C00000000000000000000000000000000000000000000000000000000 DUP2 MSTORE PUSH1 0x4 ADD PUSH2 0x5D1 SWAP4 SWAP3 SWAP2 SWAP1 PUSH2 0xE32 JUMP JUMPDEST PUSH1 0x40 MLOAD DUP1 SWAP2 SUB SWAP1 REVERT JUMPDEST DUP2 DUP2 SUB PUSH0 DUP1 DUP7 PUSH20 0xFFFFFFFFFFFFFFFFFFFFFFFFFFFFFFFFFFFFFFFF AND PUSH20 0xFFFFFFFFFFFFFFFFFFFFFFFFFFFFFFFFFFFFFFFF AND DUP2 MSTORE PUSH1 0x20 ADD SWAP1 DUP2 MSTORE PUSH1 0x20 ADD PUSH0 KECCAK256 DUP2 SWAP1 SSTORE POP POP JUMPDEST PUSH0 PUSH20 0xFFFFFFFFFFFFFFFFFFFFFFFFFFFFFFFFFFFFFFFF AND DUP3 PUSH20 0xFFFFFFFFFFFFFFFFFFFFFFFFFFFFFFFFFFFFFFFF AND SUB PUSH2 0x666 JUMPI DUP1 PUSH1 0x2 PUSH0 DUP3 DUP3 SLOAD SUB SWAP3 POP POP DUP2 SWAP1 SSTORE POP PUSH2 0x6B0 JUMP JUMPDEST DUP1 PUSH0 DUP1 DUP5 PUSH20 0xFFFFFFFFFFFFFFFFFFFFFFFFFFFFFFFFFFFFFFFF AND PUSH20 0xFFFFFFFFFFFFFFFFFFFFFFFFFFFFFFFFFFFFFFFF AND DUP2 MSTORE PUSH1 0x20 ADD SWAP1 DUP2 MSTORE PUSH1 0x20 ADD PUSH0 KECCAK256 PUSH0 DUP3 DUP3 SLOAD ADD SWAP3 POP POP DUP2 SWAP1 SSTORE POP JUMPDEST DUP2 PUSH20 0xFFFFFFFFFFFFFFFFFFFFFFFFFFFFFFFFFFFFFFFF AND DUP4 PUSH20 0xFFFFFFFFFFFFFFFFFFFFFFFFFFFFFFFFFFFFFFFF AND PUSH32 0xDDF252AD1BE2C89B69C2B068FC378DAA952BA7F163C4A11628F55A4DF523B3EF DUP4 PUSH1 0x40 MLOAD PUSH2 0x70D SWAP2 SWAP1 PUSH2 0xE67 JUMP JUMPDEST PUSH1 0x40 MLOAD DUP1 SWAP2 SUB SWAP1 LOG3 POP POP POP JUMP JUMPDEST PUSH32 0x4E487B7100000000000000000000000000000000000000000000000000000000 PUSH0 MSTORE PUSH1 0x11 PUSH1 0x4 MSTORE PUSH1 0x24 PUSH0 REVERT JUMPDEST PUSH0 DUP2 PUSH1 0x1 SHR SWAP1 POP SWAP2 SWAP1 POP JUMP JUMPDEST PUSH0 DUP1 DUP3 SWAP2 POP DUP4 SWAP1 POP JUMPDEST PUSH1 0x1 DUP6 GT ISZERO PUSH2 0x79C JUMPI DUP1 DUP7 DIV DUP2 GT ISZERO PUSH2 0x778 JUMPI PUSH2 0x777 PUSH2 0x71A JUMP JUMPDEST JUMPDEST PUSH1 0x1 DUP6 AND ISZERO PUSH2 0x787 JUMPI DUP1 DUP3 MUL SWAP2 POP JUMPDEST DUP1 DUP2 MUL SWAP1 POP PUSH2 0x795 DUP6 PUSH2 0x747 JUMP JUMPDEST SWAP5 POP PUSH2 0x75C JUMP JUMPDEST SWAP5 POP SWAP5 SWAP3 POP POP POP JUMP JUMPDEST PUSH0 DUP3 PUSH2 0x7B4 JUMPI PUSH1 0x1 SWAP1 POP PUSH2 0x86F JUMP JUMPDEST DUP2 PUSH2 0x7C1 JUMPI PUSH0 SWAP1 POP PUSH2 0x86F JUMP JUMPDEST DUP2 PUSH1 0x1 DUP2 EQ PUSH2 0x7D7 JUMPI PUSH1 0x2 DUP2 EQ PUSH2 0x7E1 JUMPI PUSH2 0x810 JUMP JUMPDEST PUSH1 0x1 SWAP2 POP POP PUSH2 0x86F JUMP JUMPDEST PUSH1 0xFF DUP5 GT ISZERO PUSH2 0x7F3 JUMPI PUSH2 0x7F2 PUSH2 0x71A JUMP JUMPDEST JUMPDEST DUP4 PUSH1 0x2 EXP SWAP2 POP DUP5 DUP3 GT ISZERO PUSH2 0x80A JUMPI PUSH2 0x809 PUSH2 0x71A JUMP JUMPDEST JUMPDEST POP PUSH2 0x86F JUMP JUMPDEST POP PUSH1 0x20 DUP4 LT PUSH2 0x133 DUP4 LT AND PUSH1 0x4E DUP5 LT PUSH1 0xB DUP5 LT AND OR ISZERO PUSH2 0x845 JUMPI DUP3 DUP3 EXP SWAP1 POP DUP4 DUP2 GT ISZERO PUSH2 0x840 JUMPI PUSH2 0x83F PUSH2 0x71A JUMP JUMPDEST JUMPDEST PUSH2 0x86F JUMP JUMPDEST PUSH2 0x852 DUP5 DUP5 DUP5 PUSH1 0x1 PUSH2 0x753 JUMP JUMPDEST SWAP3 POP SWAP1 POP DUP2 DUP5 DIV DUP2 GT ISZERO PUSH2 0x869 JUMPI PUSH2 0x868 PUSH2 0x71A JUMP JUMPDEST JUMPDEST DUP2 DUP2 MUL SWAP1 POP JUMPDEST SWAP4 SWAP3 POP POP POP JUMP JUMPDEST PUSH0 DUP2 SWAP1 POP SWAP2 SWAP1 POP JUMP JUMPDEST PUSH0 PUSH1 0xFF DUP3 AND SWAP1 POP SWAP2 SWAP1 POP JUMP JUMPDEST PUSH0 PUSH2 0x895 DUP3 PUSH2 0x876 JUMP JUMPDEST SWAP2 POP PUSH2 0x8A0 DUP4 PUSH2 0x87F JUMP JUMPDEST SWAP3 POP PUSH2 0x8CD PUSH32 0xFFFFFFFFFFFFFFFFFFFFFFFFFFFFFFFFFFFFFFFFFFFFFFFFFFFFFFFFFFFFFFFF DUP5 DUP5 PUSH2 0x7A5 JUMP JUMPDEST SWAP1 POP SWAP3 SWAP2 POP POP JUMP JUMPDEST PUSH0 PUSH2 0x8DF DUP3 PUSH2 0x876 JUMP JUMPDEST SWAP2 POP PUSH2 0x8EA DUP4 PUSH2 0x876 JUMP JUMPDEST SWAP3 POP DUP3 DUP3 MUL PUSH2 0x8F8 DUP2 PUSH2 0x876 JUMP JUMPDEST SWAP2 POP DUP3 DUP3 DIV DUP5 EQ DUP4 ISZERO OR PUSH2 0x90F JUMPI PUSH2 0x90E PUSH2 0x71A JUMP JUMPDEST JUMPDEST POP SWAP3 SWAP2 POP POP JUMP JUMPDEST PUSH0 DUP2 MLOAD SWAP1 POP SWAP2 SWAP1 POP JUMP JUMPDEST PUSH32 0x4E487B7100000000000000000000000000000000000000000000000000000000 PUSH0 MSTORE PUSH1 0x41 PUSH1 0x4 MSTORE PUSH1 0x24 PUSH0 REVERT JUMPDEST PUSH32 0x4E487B7100000000000000000000000000000000000000000000000000000000 PUSH0 MSTORE PUSH1 0x22 PUSH1 0x4 MSTORE PUSH1 0x24 PUSH0 REVERT JUMPDEST PUSH0 PUSH1 0x2 DUP3 DIV SWAP1 POP PUSH1 0x1 DUP3 AND DUP1 PUSH2 0x991 JUMPI PUSH1 0x7F DUP3 AND SWAP2 POP JUMPDEST PUSH1 0x20 DUP3 LT DUP2 SUB PUSH2 0x9A4 JUMPI PUSH2 0x9A3 PUSH2 0x94D JUMP JUMPDEST JUMPDEST POP SWAP2 SWAP1 POP JUMP JUMPDEST PUSH0 DUP2 SWAP1 POP DUP2 PUSH0 MSTORE PUSH1 0x20 PUSH0 KECCAK256 SWAP1 POP SWAP2 SWAP1 POP JUMP JUMPDEST PUSH0 PUSH1 0x20 PUSH1 0x1F DUP4 ADD DIV SWAP1 POP SWAP2 SWAP1 POP JUMP JUMPDEST PUSH0 DUP3 DUP3 SHL SWAP1 POP SWAP3 SWAP2 POP POP JUMP JUMPDEST PUSH0 PUSH1 0x8 DUP4 MUL PUSH2 0xA06 PUSH32 0xFFFFFFFFFFFFFFFFFFFFFFFFFFFFFFFFFFFFFFFFFFFFFFFFFFFFFFFFFFFFFFFF DUP3 PUSH2 0x9CB JUMP JUMPDEST PUSH2 0xA10 DUP7 DUP4 PUSH2 0x9CB JUMP JUMPDEST SWAP6 POP DUP1 NOT DUP5 AND SWAP4 POP DUP1 DUP7 AND DUP5 OR SWAP3 POP POP POP SWAP4 SWAP3 POP POP POP JUMP JUMPDEST PUSH0 DUP2 SWAP1 POP SWAP2 SWAP1 POP JUMP JUMPDEST PUSH0 PUSH2 0xA4B PUSH2 0xA46 PUSH2 0xA41 DUP5 PUSH2 0x876 JUMP JUMPDEST PUSH2 0xA28 JUMP JUMPDEST PUSH2 0x876 JUMP JUMPDEST SWAP1 POP SWAP2 SWAP1 POP JUMP JUMPDEST PUSH0 DUP2 SWAP1 POP SWAP2 SWAP1 POP JUMP JUMPDEST PUSH2 0xA64 DUP4 PUSH2 0xA31 JUMP JUMPDEST PUSH2 0xA78 PUSH2 0xA70 DUP3 PUSH2 0xA52 JUMP JUMPDEST DUP5 DUP5 SLOAD PUSH2 0x9D7 JUMP JUMPDEST DUP3 SSTORE POP POP POP POP JUMP JUMPDEST PUSH0 SWAP1 JUMP JUMPDEST PUSH2 0xA8C PUSH2 0xA80 JUMP JUMPDEST PUSH2 0xA97 DUP2 DUP5 DUP5 PUSH2 0xA5B JUMP JUMPDEST POP POP POP JUMP JUMPDEST JUMPDEST DUP2 DUP2 LT ISZERO PUSH2 0xABA JUMPI PUSH2 0xAAF PUSH0 DUP3 PUSH2 0xA84 JUMP JUMPDEST PUSH1 0x1 DUP2 ADD SWAP1 POP PUSH2 0xA9D JUMP JUMPDEST POP POP JUMP JUMPDEST PUSH1 0x1F DUP3 GT ISZERO PUSH2 0xAFF JUMPI PUSH2 0xAD0 DUP2 PUSH2 0x9AA JUMP JUMPDEST PUSH2 0xAD9 DUP5 PUSH2 0x9BC JUMP JUMPDEST DUP2 ADD PUSH1 0x20 DUP6 LT ISZERO PUSH2 0xAE8 JUMPI DUP2 SWAP1 POP JUMPDEST PUSH2 0xAFC PUSH2 0xAF4 DUP6 PUSH2 0x9BC JUMP JUMPDEST DUP4 ADD DUP3 PUSH2 0xA9C JUMP JUMPDEST POP POP JUMPDEST POP POP POP JUMP JUMPDEST PUSH0 DUP3 DUP3 SHR SWAP1 POP SWAP3 SWAP2 POP POP JUMP JUMPDEST PUSH0 PUSH2 0xB1F PUSH0 NOT DUP5 PUSH1 0x8 MUL PUSH2 0xB04 JUMP JUMPDEST NOT DUP1 DUP4 AND SWAP2 POP POP SWAP3 SWAP2 POP POP JUMP JUMPDEST PUSH0 PUSH2 0xB37 DUP4 DUP4 PUSH2 0xB10 JUMP JUMPDEST SWAP2 POP DUP3 PUSH1 0x2 MUL DUP3 OR SWAP1 POP SWAP3 SWAP2 POP POP JUMP JUMPDEST PUSH2 0xB50 DUP3 PUSH2 0x916 JUMP JUMPDEST PUSH8 0xFFFFFFFFFFFFFFFF DUP2 GT ISZERO PUSH2 0xB69 JUMPI PUSH2 0xB68 PUSH2 0x920 JUMP JUMPDEST JUMPDEST PUSH2 0xB73 DUP3 SLOAD PUSH2 0x97A JUMP JUMPDEST PUSH2 0xB7E DUP3 DUP3 DUP6 PUSH2 0xABE JUMP JUMPDEST PUSH0 PUSH1 0x20 SWAP1 POP PUSH1 0x1F DUP4 GT PUSH1 0x1 DUP2 EQ PUSH2 0xBAF JUMPI PUSH0 DUP5 ISZERO PUSH2 0xB9D JUMPI DUP3 DUP8 ADD MLOAD SWAP1 POP JUMPDEST PUSH2 0xBA7 DUP6 DUP3 PUSH2 0xB2C JUMP JUMPDEST DUP7 SSTORE POP PUSH2 0xC0E JUMP JUMPDEST PUSH1 0x1F NOT DUP5 AND PUSH2 0xBBD DUP7 PUSH2 0x9AA JUMP JUMPDEST PUSH0 JUMPDEST DUP3 DUP2 LT ISZERO PUSH2 0xBE4 JUMPI DUP5 DUP10 ADD MLOAD DUP3 SSTORE PUSH1 0x1 DUP3 ADD SWAP2 POP PUSH1 0x20 DUP6 ADD SWAP5 POP PUSH1 0x20 DUP2 ADD SWAP1 POP PUSH2 0xBBF JUMP JUMPDEST DUP7 DUP4 LT ISZERO PUSH2 0xC01 JUMPI DUP5 DUP10 ADD MLOAD PUSH2 0xBFD PUSH1 0x1F DUP10 AND DUP3 PUSH2 0xB10 JUMP JUMPDEST DUP4 SSTORE POP JUMPDEST PUSH1 0x1 PUSH1 0x2 DUP9 MUL ADD DUP9 SSTORE POP POP POP JUMPDEST POP POP POP POP POP POP JUMP JUMPDEST PUSH0 PUSH20 0xFFFFFFFFFFFFFFFFFFFFFFFFFFFFFFFFFFFFFFFF DUP3 AND SWAP1 POP SWAP2 SWAP1 POP JUMP JUMPDEST PUSH0 PUSH2 0xC3F DUP3 PUSH2 0xC16 JUMP JUMPDEST SWAP1 POP SWAP2 SWAP1 POP JUMP JUMPDEST PUSH2 0xC4F DUP2 PUSH2 0xC35 JUMP JUMPDEST DUP3 MSTORE POP POP JUMP JUMPDEST PUSH0 PUSH1 0x20 DUP3 ADD SWAP1 POP PUSH2 0xC68 PUSH0 DUP4 ADD DUP5 PUSH2 0xC46 JUMP JUMPDEST SWAP3 SWAP2 POP POP JUMP JUMPDEST PUSH0 DUP2 SWAP1 POP SWAP2 SWAP1 POP JUMP JUMPDEST PUSH2 0xC80 DUP2 PUSH2 0xC6E JUMP JUMPDEST DUP3 MSTORE POP POP JUMP JUMPDEST PUSH2 0xC8F DUP2 PUSH2 0x876 JUMP JUMPDEST DUP3 MSTORE POP POP JUMP JUMPDEST PUSH0 PUSH1 0xA0 DUP3 ADD SWAP1 POP PUSH2 0xCA8 PUSH0 DUP4 ADD DUP9 PUSH2 0xC77 JUMP JUMPDEST PUSH2 0xCB5 PUSH1 0x20 DUP4 ADD DUP8 PUSH2 0xC77 JUMP JUMPDEST PUSH2 0xCC2 PUSH1 0x40 DUP4 ADD DUP7 PUSH2 0xC77 JUMP JUMPDEST PUSH2 0xCCF PUSH1 0x60 DUP4 ADD DUP6 PUSH2 0xC86 JUMP JUMPDEST PUSH2 0xCDC PUSH1 0x80 DUP4 ADD DUP5 PUSH2 0xC46 JUMP JUMPDEST SWAP7 SWAP6 POP POP POP POP POP POP JUMP JUMPDEST PUSH0 DUP3 DUP3 MSTORE PUSH1 0x20 DUP3 ADD SWAP1 POP SWAP3 SWAP2 POP POP JUMP JUMPDEST DUP3 DUP2 DUP4 MCOPY PUSH0 DUP4 DUP4 ADD MSTORE POP POP POP JUMP JUMPDEST PUSH0 PUSH1 0x1F NOT PUSH1 0x1F DUP4 ADD AND SWAP1 POP SWAP2 SWAP1 POP JUMP JUMPDEST PUSH0 PUSH2 0xD1E DUP3 PUSH2 0x916 JUMP JUMPDEST PUSH2 0xD28 DUP2 DUP6 PUSH2 0xCE6 JUMP JUMPDEST SWAP4 POP PUSH2 0xD38 DUP2 DUP6 PUSH1 0x20 DUP7 ADD PUSH2 0xCF6 JUMP JUMPDEST PUSH2 0xD41 DUP2 PUSH2 0xD04 JUMP JUMPDEST DUP5 ADD SWAP2 POP POP SWAP3 SWAP2 POP POP JUMP JUMPDEST PUSH0 PUSH1 0x20 DUP3 ADD SWAP1 POP DUP2 DUP2 SUB PUSH0 DUP4 ADD MSTORE PUSH2 0xD64 DUP2 DUP5 PUSH2 0xD14 JUMP JUMPDEST SWAP1 POP SWAP3 SWAP2 POP POP JUMP JUMPDEST PUSH0 DUP2 MLOAD SWAP1 POP SWAP2 SWAP1 POP JUMP JUMPDEST PUSH0 DUP2 SWAP1 POP PUSH1 0x20 DUP3 ADD SWAP1 POP SWAP2 SWAP1 POP JUMP JUMPDEST PUSH0 PUSH2 0xD90 DUP3 MLOAD PUSH2 0xC6E JUMP JUMPDEST DUP1 SWAP2 POP POP SWAP2 SWAP1 POP JUMP JUMPDEST PUSH0 PUSH2 0xDA3 DUP3 PUSH2 0xD6C JUMP JUMPDEST DUP3 PUSH2 0xDAD DUP5 PUSH2 0xD76 JUMP JUMPDEST SWAP1 POP PUSH2 0xDB8 DUP2 PUSH2 0xD85 JUMP JUMPDEST SWAP3 POP PUSH1 0x20 DUP3 LT ISZERO PUSH2 0xDF8 JUMPI PUSH2 0xDF3 PUSH32 0xFFFFFFFFFFFFFFFFFFFFFFFFFFFFFFFFFFFFFFFFFFFFFFFFFFFFFFFFFFFFFFFF DUP4 PUSH1 0x20 SUB PUSH1 0x8 MUL PUSH2 0x9CB JUMP JUMPDEST DUP4 AND SWAP3 POP JUMPDEST POP POP SWAP2 SWAP1 POP JUMP JUMPDEST PUSH0 PUSH2 0xE09 DUP3 PUSH2 0x876 JUMP JUMPDEST SWAP2 POP PUSH2 0xE14 DUP4 PUSH2 0x876 JUMP JUMPDEST SWAP3 POP DUP3 DUP3 ADD SWAP1 POP DUP1 DUP3 GT ISZERO PUSH2 0xE2C JUMPI PUSH2 0xE2B PUSH2 0x71A JUMP JUMPDEST JUMPDEST SWAP3 SWAP2 POP POP JUMP JUMPDEST PUSH0 PUSH1 0x60 DUP3 ADD SWAP1 POP PUSH2 0xE45 PUSH0 DUP4 ADD DUP7 PUSH2 0xC46 JUMP JUMPDEST PUSH2 0xE52 PUSH1 0x20 DUP4 ADD DUP6 PUSH2 0xC86 JUMP JUMPDEST PUSH2 0xE5F PUSH1 0x40 DUP4 ADD DUP5 PUSH2 0xC86 JUMP JUMPDEST SWAP5 SWAP4 POP POP POP POP JUMP JUMPDEST PUSH0 PUSH1 0x20 DUP3 ADD SWAP1 POP PUSH2 0xE7A PUSH0 DUP4 ADD DUP5 PUSH2 0xC86 JUMP JUMPDEST SWAP3 SWAP2 POP POP JUMP JUMPDEST PUSH1 0x80 MLOAD PUSH1 0xA0 MLOAD PUSH1 0xC0 MLOAD PUSH1 0xE0 MLOAD PUSH2 0x100 MLOAD PUSH2 0x120 MLOAD PUSH2 0x140 MLOAD PUSH2 0x2062 PUSH2 0xED1 PUSH0 CODECOPY PUSH0 PUSH2 0xE90 ADD MSTORE PUSH0 PUSH2 0xE55 ADD MSTORE PUSH0 PUSH2 0x1389 ADD MSTORE PUSH0 PUSH2 0x1368 ADD MSTORE PUSH0 PUSH2 0xB0B ADD MSTORE PUSH0 PUSH2 0xB61 ADD MSTORE PUSH0 PUSH2 0xB8A ADD MSTORE PUSH2 0x2062 PUSH0 RETURN INVALID PUSH1 0x80 PUSH1 0x40 MSTORE CALLVALUE DUP1 ISZERO PUSH2 0xF JUMPI PUSH0 DUP1 REVERT JUMPDEST POP PUSH1 0x4 CALLDATASIZE LT PUSH2 0x11F JUMPI PUSH0 CALLDATALOAD PUSH1 0xE0 SHR DUP1 PUSH4 0x715018A6 GT PUSH2 0xAB JUMPI DUP1 PUSH4 0x95D89B41 GT PUSH2 0x6F JUMPI DUP1 PUSH4 0x95D89B41 EQ PUSH2 0x2FD JUMPI DUP1 PUSH4 0xA9059CBB EQ PUSH2 0x31B JUMPI DUP1 PUSH4 0xD505ACCF EQ PUSH2 0x34B JUMPI DUP1 PUSH4 0xDD62ED3E EQ PUSH2 0x367 JUMPI DUP1 PUSH4 0xF2FDE38B EQ PUSH2 0x397 JUMPI PUSH2 0x11F JUMP JUMPDEST DUP1 PUSH4 0x715018A6 EQ PUSH2 0x263 JUMPI DUP1 PUSH4 0x7E1921F5 EQ PUSH2 0x26D JUMPI DUP1 PUSH4 0x7ECEBE00 EQ PUSH2 0x28B JUMPI DUP1 PUSH4 0x84B0196E EQ PUSH2 0x2BB JUMPI DUP1 PUSH4 0x8DA5CB5B EQ PUSH2 0x2DF JUMPI PUSH2 0x11F JUMP JUMPDEST DUP1 PUSH4 0x313CE567 GT PUSH2 0xF2 JUMPI DUP1 PUSH4 0x313CE567 EQ PUSH2 0x1BF JUMPI DUP1 PUSH4 0x3644E515 EQ PUSH2 0x1DD JUMPI DUP1 PUSH4 0x40C10F19 EQ PUSH2 0x1FB JUMPI DUP1 PUSH4 0x42966C68 EQ PUSH2 0x217 JUMPI DUP1 PUSH4 0x70A08231 EQ PUSH2 0x233 JUMPI PUSH2 0x11F JUMP JUMPDEST DUP1 PUSH4 0x6FDDE03 EQ PUSH2 0x123 JUMPI DUP1 PUSH4 0x95EA7B3 EQ PUSH2 0x141 JUMPI DUP1 PUSH4 0x18160DDD EQ PUSH2 0x171 JUMPI DUP1 PUSH4 0x23B872DD EQ PUSH2 0x18F JUMPI JUMPDEST PUSH0 DUP1 REVERT JUMPDEST PUSH2 0x12B PUSH2 0x3B3 JUMP JUMPDEST PUSH1 0x40 MLOAD PUSH2 0x138 SWAP2 SWAP1 PUSH2 0x183F JUMP JUMPDEST PUSH1 0x40 MLOAD DUP1 SWAP2 SUB SWAP1 RETURN JUMPDEST PUSH2 0x15B PUSH1 0x4 DUP1 CALLDATASIZE SUB DUP2 ADD SWAP1 PUSH2 0x156 SWAP2 SWAP1 PUSH2 0x18F0 JUMP JUMPDEST PUSH2 0x443 JUMP JUMPDEST PUSH1 0x40 MLOAD PUSH2 0x168 SWAP2 SWAP1 PUSH2 0x1948 JUMP JUMPDEST PUSH1 0x40 MLOAD DUP1 SWAP2 SUB SWAP1 RETURN JUMPDEST PUSH2 0x179 PUSH2 0x465 JUMP JUMPDEST PUSH1 0x40 MLOAD PUSH2 0x186 SWAP2 SWAP1 PUSH2 0x1970 JUMP JUMPDEST PUSH1 0x40 MLOAD DUP1 SWAP2 SUB SWAP1 RETURN JUMPDEST PUSH2 0x1A9 PUSH1 0x4 DUP1 CALLDATASIZE SUB DUP2 ADD SWAP1 PUSH2 0x1A4 SWAP2 SWAP1 PUSH2 0x1989 JUMP JUMPDEST PUSH2 0x46E JUMP JUMPDEST PUSH1 0x40 MLOAD PUSH2 0x1B6 SWAP2 SWAP1 PUSH2 0x1948 JUMP JUMPDEST PUSH1 0x40 MLOAD DUP1 SWAP2 SUB SWAP1 RETURN JUMPDEST PUSH2 0x1C7 PUSH2 0x49C JUMP JUMPDEST PUSH1 0x40 MLOAD PUSH2 0x1D4 SWAP2 SWAP1 PUSH2 0x19F4 JUMP JUMPDEST PUSH1 0x40 MLOAD DUP1 SWAP2 SUB SWAP1 RETURN JUMPDEST PUSH2 0x1E5 PUSH2 0x4A4 JUMP JUMPDEST PUSH1 0x40 MLOAD PUSH2 0x1F2 SWAP2 SWAP1 PUSH2 0x1A25 JUMP JUMPDEST PUSH1 0x40 MLOAD DUP1 SWAP2 SUB SWAP1 RETURN JUMPDEST PUSH2 0x215 PUSH1 0x4 DUP1 CALLDATASIZE SUB DUP2 ADD SWAP1 PUSH2 0x210 SWAP2 SWAP1 PUSH2 0x18F0 JUMP JUMPDEST PUSH2 0x4B2 JUMP JUMPDEST STOP JUMPDEST PUSH2 0x231 PUSH1 0x4 DUP1 CALLDATASIZE SUB DUP2 ADD SWAP1 PUSH2 0x22C SWAP2 SWAP1 PUSH2 0x1A3E JUMP JUMPDEST PUSH2 0x51F JUMP JUMPDEST STOP JUMPDEST PUSH2 0x24D PUSH1 0x4 DUP1 CALLDATASIZE SUB DUP2 ADD SWAP1 PUSH2 0x248 SWAP2 SWAP1 PUSH2 0x1A69 JUMP JUMPDEST PUSH2 0x534 JUMP JUMPDEST PUSH1 0x40 MLOAD PUSH2 0x25A SWAP2 SWAP1 PUSH2 0x1970 JUMP JUMPDEST PUSH1 0x40 MLOAD DUP1 SWAP2 SUB SWAP1 RETURN JUMPDEST PUSH2 0x26B PUSH2 0x579 JUMP JUMPDEST STOP JUMPDEST PUSH2 0x275 PUSH2 0x58C JUMP JUMPDEST PUSH1 0x40 MLOAD PUSH2 0x282 SWAP2 SWAP1 PUSH2 0x1970 JUMP JUMPDEST PUSH1 0x40 MLOAD DUP1 SWAP2 SUB SWAP1 RETURN JUMPDEST PUSH2 0x2A5 PUSH1 0x4 DUP1 CALLDATASIZE SUB DUP2 ADD SWAP1 PUSH2 0x2A0 SWAP2 SWAP1 PUSH2 0x1A69 JUMP JUMPDEST PUSH2 0x592 JUMP JUMPDEST PUSH1 0x40 MLOAD PUSH2 0x2B2 SWAP2 SWAP1 PUSH2 0x1970 JUMP JUMPDEST PUSH1 0x40 MLOAD DUP1 SWAP2 SUB SWAP1 RETURN JUMPDEST PUSH2 0x2C3 PUSH2 0x5A3 JUMP JUMPDEST PUSH1 0x40 MLOAD PUSH2 0x2D6 SWAP8 SWAP7 SWAP6 SWAP5 SWAP4 SWAP3 SWAP2 SWAP1 PUSH2 0x1B94 JUMP JUMPDEST PUSH1 0x40 MLOAD DUP1 SWAP2 SUB SWAP1 RETURN JUMPDEST PUSH2 0x2E7 PUSH2 0x648 JUMP JUMPDEST PUSH1 0x40 MLOAD PUSH2 0x2F4 SWAP2 SWAP1 PUSH2 0x1C16 JUMP JUMPDEST PUSH1 0x40 MLOAD DUP1 SWAP2 SUB SWAP1 RETURN JUMPDEST PUSH2 0x305 PUSH2 0x670 JUMP JUMPDEST PUSH1 0x40 MLOAD PUSH2 0x312 SWAP2 SWAP1 PUSH2 0x183F JUMP JUMPDEST PUSH1 0x40 MLOAD DUP1 SWAP2 SUB SWAP1 RETURN JUMPDEST PUSH2 0x335 PUSH1 0x4 DUP1 CALLDATASIZE SUB DUP2 ADD SWAP1 PUSH2 0x330 SWAP2 SWAP1 PUSH2 0x18F0 JUMP JUMPDEST PUSH2 0x700 JUMP JUMPDEST PUSH1 0x40 MLOAD PUSH2 0x342 SWAP2 SWAP1 PUSH2 0x1948 JUMP JUMPDEST PUSH1 0x40 MLOAD DUP1 SWAP2 SUB SWAP1 RETURN JUMPDEST PUSH2 0x365 PUSH1 0x4 DUP1 CALLDATASIZE SUB DUP2 ADD SWAP1 PUSH2 0x360 SWAP2 SWAP1 PUSH2 0x1C83 JUMP JUMPDEST PUSH2 0x722 JUMP JUMPDEST STOP JUMPDEST PUSH2 0x381 PUSH1 0x4 DUP1 CALLDATASIZE SUB DUP2 ADD SWAP1 PUSH2 0x37C SWAP2 SWAP1 PUSH2 0x1D20 JUMP JUMPDEST PUSH2 0x867 JUMP JUMPDEST PUSH1 0x40 MLOAD PUSH2 0x38E SWAP2 SWAP1 PUSH2 0x1970 JUMP JUMPDEST PUSH1 0x40 MLOAD DUP1 SWAP2 SUB SWAP1 RETURN JUMPDEST PUSH2 0x3B1 PUSH1 0x4 DUP1 CALLDATASIZE SUB DUP2 ADD SWAP1 PUSH2 0x3AC SWAP2 SWAP1 PUSH2 0x1A69 JUMP JUMPDEST PUSH2 0x8E9 JUMP JUMPDEST STOP JUMPDEST PUSH1 0x60 PUSH1 0x3 DUP1 SLOAD PUSH2 0x3C2 SWAP1 PUSH2 0x1D8B JUMP JUMPDEST DUP1 PUSH1 0x1F ADD PUSH1 0x20 DUP1 SWAP2 DIV MUL PUSH1 0x20 ADD PUSH1 0x40 MLOAD SWAP1 DUP2 ADD PUSH1 0x40 MSTORE DUP1 SWAP3 SWAP2 SWAP1 DUP2 DUP2 MSTORE PUSH1 0x20 ADD DUP3 DUP1 SLOAD PUSH2 0x3EE SWAP1 PUSH2 0x1D8B JUMP JUMPDEST DUP1 ISZERO PUSH2 0x439 JUMPI DUP1 PUSH1 0x1F LT PUSH2 0x410 JUMPI PUSH2 0x100 DUP1 DUP4 SLOAD DIV MUL DUP4 MSTORE SWAP2 PUSH1 0x20 ADD SWAP2 PUSH2 0x439 JUMP JUMPDEST DUP3 ADD SWAP2 SWAP1 PUSH0 MSTORE PUSH1 0x20 PUSH0 KECCAK256 SWAP1 JUMPDEST DUP2 SLOAD DUP2 MSTORE SWAP1 PUSH1 0x1 ADD SWAP1 PUSH1 0x20 ADD DUP1 DUP4 GT PUSH2 0x41C JUMPI DUP3 SWAP1 SUB PUSH1 0x1F AND DUP3 ADD SWAP2 JUMPDEST POP POP POP POP POP SWAP1 POP SWAP1 JUMP JUMPDEST PUSH0 DUP1 PUSH2 0x44D PUSH2 0x96D JUMP JUMPDEST SWAP1 POP PUSH2 0x45A DUP2 DUP6 DUP6 PUSH2 0x974 JUMP JUMPDEST PUSH1 0x1 SWAP2 POP POP SWAP3 SWAP2 POP POP JUMP JUMPDEST PUSH0 PUSH1 0x2 SLOAD SWAP1 POP SWAP1 JUMP JUMPDEST PUSH0 DUP1 PUSH2 0x478 PUSH2 0x96D JUMP JUMPDEST SWAP1 POP PUSH2 0x485 DUP6 DUP3 DUP6 PUSH2 0x986 JUMP JUMPDEST PUSH2 0x490 DUP6 DUP6 DUP6 PUSH2 0xA18 JUMP JUMPDEST PUSH1 0x1 SWAP2 POP POP SWAP4 SWAP3 POP POP POP JUMP JUMPDEST PUSH0 PUSH1 0x12 SWAP1 POP SWAP1 JUMP JUMPDEST PUSH0 PUSH2 0x4AD PUSH2 0xB08 JUMP JUMPDEST SWAP1 POP SWAP1 JUMP JUMPDEST PUSH2 0x4BA PUSH2 0xBBE JUMP JUMPDEST PUSH1 0x9 SLOAD DUP2 PUSH2 0x4C6 PUSH2 0x465 JUMP JUMPDEST PUSH2 0x4D0 SWAP2 SWAP1 PUSH2 0x1DE8 JUMP JUMPDEST GT ISZERO PUSH2 0x511 JUMPI PUSH1 0x40 MLOAD PUSH32 0x8C379A000000000000000000000000000000000000000000000000000000000 DUP2 MSTORE PUSH1 0x4 ADD PUSH2 0x508 SWAP1 PUSH2 0x1E65 JUMP JUMPDEST PUSH1 0x40 MLOAD DUP1 SWAP2 SUB SWAP1 REVERT JUMPDEST PUSH2 0x51B DUP3 DUP3 PUSH2 0xC45 JUMP JUMPDEST POP POP JUMP JUMPDEST PUSH2 0x527 PUSH2 0xBBE JUMP JUMPDEST PUSH2 0x531 CALLER DUP3 PUSH2 0xCC4 JUMP JUMPDEST POP JUMP JUMPDEST PUSH0 DUP1 PUSH0 DUP4 PUSH20 0xFFFFFFFFFFFFFFFFFFFFFFFFFFFFFFFFFFFFFFFF AND PUSH20 0xFFFFFFFFFFFFFFFFFFFFFFFFFFFFFFFFFFFFFFFF AND DUP2 MSTORE PUSH1 0x20 ADD SWAP1 DUP2 MSTORE PUSH1 0x20 ADD PUSH0 KECCAK256 SLOAD SWAP1 POP SWAP2 SWAP1 POP JUMP JUMPDEST PUSH2 0x581 PUSH2 0xBBE JUMP JUMPDEST PUSH2 0x58A PUSH0 PUSH2 0xD43 JUMP JUMPDEST JUMP JUMPDEST PUSH1 0x9 SLOAD DUP2 JUMP JUMPDEST PUSH0 PUSH2 0x59C DUP3 PUSH2 0xE06 JUMP JUMPDEST SWAP1 POP SWAP2 SWAP1 POP JUMP JUMPDEST PUSH0 PUSH1 0x60 DUP1 PUSH0 DUP1 PUSH0 PUSH1 0x60 PUSH2 0x5B4 PUSH2 0xE4C JUMP JUMPDEST PUSH2 0x5BC PUSH2 0xE87 JUMP JUMPDEST CHAINID ADDRESS PUSH0 DUP1 SHL PUSH0 PUSH8 0xFFFFFFFFFFFFFFFF DUP2 GT ISZERO PUSH2 0x5DB JUMPI PUSH2 0x5DA PUSH2 0x1E83 JUMP JUMPDEST JUMPDEST PUSH1 0x40 MLOAD SWAP1 DUP1 DUP3 MSTORE DUP1 PUSH1 0x20 MUL PUSH1 0x20 ADD DUP3 ADD PUSH1 0x40 MSTORE DUP1 ISZERO PUSH2 0x609 JUMPI DUP2 PUSH1 0x20 ADD PUSH1 0x20 DUP3 MUL DUP1 CALLDATASIZE DUP4 CALLDATACOPY DUP1 DUP3 ADD SWAP2 POP POP SWAP1 POP JUMPDEST POP PUSH32 0xF00000000000000000000000000000000000000000000000000000000000000 SWAP6 SWAP5 SWAP4 SWAP3 SWAP2 SWAP1 SWAP7 POP SWAP7 POP SWAP7 POP SWAP7 POP SWAP7 POP SWAP7 POP SWAP7 POP SWAP1 SWAP2 SWAP3 SWAP4 SWAP5 SWAP6 SWAP7 JUMP JUMPDEST PUSH0 PUSH1 0x8 PUSH0 SWAP1 SLOAD SWAP1 PUSH2 0x100 EXP SWAP1 DIV PUSH20 0xFFFFFFFFFFFFFFFFFFFFFFFFFFFFFFFFFFFFFFFF AND SWAP1 POP SWAP1 JUMP JUMPDEST PUSH1 0x60 PUSH1 0x4 DUP1 SLOAD PUSH2 0x67F SWAP1 PUSH2 0x1D8B JUMP JUMPDEST DUP1 PUSH1 0x1F ADD PUSH1 0x20 DUP1 SWAP2 DIV MUL PUSH1 0x20 ADD PUSH1 0x40 MLOAD SWAP1 DUP2 ADD PUSH1 0x40 MSTORE DUP1 SWAP3 SWAP2 SWAP1 DUP2 DUP2 MSTORE PUSH1 0x20 ADD DUP3 DUP1 SLOAD PUSH2 0x6AB SWAP1 PUSH2 0x1D8B JUMP JUMPDEST DUP1 ISZERO PUSH2 0x6F6 JUMPI DUP1 PUSH1 0x1F LT PUSH2 0x6CD JUMPI PUSH2 0x100 DUP1 DUP4 SLOAD DIV MUL DUP4 MSTORE SWAP2 PUSH1 0x20 ADD SWAP2 PUSH2 0x6F6 JUMP JUMPDEST DUP3 ADD SWAP2 SWAP1 PUSH0 MSTORE PUSH1 0x20 PUSH0 KECCAK256 SWAP1 JUMPDEST DUP2 SLOAD DUP2 MSTORE SWAP1 PUSH1 0x1 ADD SWAP1 PUSH1 0x20 ADD DUP1 DUP4 GT PUSH2 0x6D9 JUMPI DUP3 SWAP1 SUB PUSH1 0x1F AND DUP3 ADD SWAP2 JUMPDEST POP POP POP POP POP SWAP1 POP SWAP1 JUMP JUMPDEST PUSH0 DUP1 PUSH2 0x70A PUSH2 0x96D JUMP JUMPDEST SWAP1 POP PUSH2 0x717 DUP2 DUP6 DUP6 PUSH2 0xA18 JUMP JUMPDEST PUSH1 0x1 SWAP2 POP POP SWAP3 SWAP2 POP POP JUMP JUMPDEST DUP4 TIMESTAMP GT ISZERO PUSH2 0x767 JUMPI DUP4 PUSH1 0x40 MLOAD PUSH32 0x6279130200000000000000000000000000000000000000000000000000000000 DUP2 MSTORE PUSH1 0x4 ADD PUSH2 0x75E SWAP2 SWAP1 PUSH2 0x1970 JUMP JUMPDEST PUSH1 0x40 MLOAD DUP1 SWAP2 SUB SWAP1 REVERT JUMPDEST PUSH0 PUSH32 0x6E71EDAE12B1B97F4D1F60370FEF10105FA2FAAE0126114A169C64845D6126C9 DUP9 DUP9 DUP9 PUSH2 0x795 DUP13 PUSH2 0xEC2 JUMP JUMPDEST DUP10 PUSH1 0x40 MLOAD PUSH1 0x20 ADD PUSH2 0x7AB SWAP7 SWAP6 SWAP5 SWAP4 SWAP3 SWAP2 SWAP1 PUSH2 0x1EB0 JUMP JUMPDEST PUSH1 0x40 MLOAD PUSH1 0x20 DUP2 DUP4 SUB SUB DUP2 MSTORE SWAP1 PUSH1 0x40 MSTORE DUP1 MLOAD SWAP1 PUSH1 0x20 ADD KECCAK256 SWAP1 POP PUSH0 PUSH2 0x7CD DUP3 PUSH2 0xF15 JUMP JUMPDEST SWAP1 POP PUSH0 PUSH2 0x7DC DUP3 DUP8 DUP8 DUP8 PUSH2 0xF2E JUMP JUMPDEST SWAP1 POP DUP10 PUSH20 0xFFFFFFFFFFFFFFFFFFFFFFFFFFFFFFFFFFFFFFFF AND DUP2 PUSH20 0xFFFFFFFFFFFFFFFFFFFFFFFFFFFFFFFFFFFFFFFF AND EQ PUSH2 0x850 JUMPI DUP1 DUP11 PUSH1 0x40 MLOAD PUSH32 0x4B800E4600000000000000000000000000000000000000000000000000000000 DUP2 MSTORE PUSH1 0x4 ADD PUSH2 0x847 SWAP3 SWAP2 SWAP1 PUSH2 0x1F0F JUMP JUMPDEST PUSH1 0x40 MLOAD DUP1 SWAP2 SUB SWAP1 REVERT JUMPDEST PUSH2 0x85B DUP11 DUP11 DUP11 PUSH2 0x974 JUMP JUMPDEST POP POP POP POP POP POP POP POP POP POP JUMP JUMPDEST PUSH0 PUSH1 0x1 PUSH0 DUP5 PUSH20 0xFFFFFFFFFFFFFFFFFFFFFFFFFFFFFFFFFFFFFFFF AND PUSH20 0xFFFFFFFFFFFFFFFFFFFFFFFFFFFFFFFFFFFFFFFF AND DUP2 MSTORE PUSH1 0x20 ADD SWAP1 DUP2 MSTORE PUSH1 0x20 ADD PUSH0 KECCAK256 PUSH0 DUP4 PUSH20 0xFFFFFFFFFFFFFFFFFFFFFFFFFFFFFFFFFFFFFFFF AND PUSH20 0xFFFFFFFFFFFFFFFFFFFFFFFFFFFFFFFFFFFFFFFF AND DUP2 MSTORE PUSH1 0x20 ADD SWAP1 DUP2 MSTORE PUSH1 0x20 ADD PUSH0 KECCAK256 SLOAD SWAP1 POP SWAP3 SWAP2 POP POP JUMP JUMPDEST PUSH2 0x8F1 PUSH2 0xBBE JUMP JUMPDEST PUSH0 PUSH20 0xFFFFFFFFFFFFFFFFFFFFFFFFFFFFFFFFFFFFFFFF AND DUP2 PUSH20 0xFFFFFFFFFFFFFFFFFFFFFFFFFFFFFFFFFFFFFFFF AND SUB PUSH2 0x961 JUMPI PUSH0 PUSH1 0x40 MLOAD PUSH32 0x1E4FBDF700000000000000000000000000000000000000000000000000000000 DUP2 MSTORE PUSH1 0x4 ADD PUSH2 0x958 SWAP2 SWAP1 PUSH2 0x1C16 JUMP JUMPDEST PUSH1 0x40 MLOAD DUP1 SWAP2 SUB SWAP1 REVERT JUMPDEST PUSH2 0x96A DUP2 PUSH2 0xD43 JUMP JUMPDEST POP JUMP JUMPDEST PUSH0 CALLER SWAP1 POP SWAP1 JUMP JUMPDEST PUSH2 0x981 DUP4 DUP4 DUP4 PUSH1 0x1 PUSH2 0xF5C JUMP JUMPDEST POP POP POP JUMP JUMPDEST PUSH0 PUSH2 0x991 DUP5 DUP5 PUSH2 0x867 JUMP JUMPDEST SWAP1 POP PUSH32 0xFFFFFFFFFFFFFFFFFFFFFFFFFFFFFFFFFFFFFFFFFFFFFFFFFFFFFFFFFFFFFFFF DUP2 EQ PUSH2 0xA12 JUMPI DUP2 DUP2 LT ISZERO PUSH2 0xA03 JUMPI DUP3 DUP2 DUP4 PUSH1 0x40 MLOAD PUSH32 0xFB8F41B200000000000000000000000000000000000000000000000000000000 DUP2 MSTORE PUSH1 0x4 ADD PUSH2 0x9FA SWAP4 SWAP3 SWAP2 SWAP1 PUSH2 0x1F36 JUMP JUMPDEST PUSH1 0x40 MLOAD DUP1 SWAP2 SUB SWAP1 REVERT JUMPDEST PUSH2 0xA11 DUP5 DUP5 DUP5 DUP5 SUB PUSH0 PUSH2 0xF5C JUMP JUMPDEST JUMPDEST POP POP POP POP JUMP JUMPDEST PUSH0 PUSH20 0xFFFFFFFFFFFFFFFFFFFFFFFFFFFFFFFFFFFFFFFF AND DUP4 PUSH20 0xFFFFFFFFFFFFFFFFFFFFFFFFFFFFFFFFFFFFFFFF AND SUB PUSH2 0xA88 JUMPI PUSH0 PUSH1 0x40 MLOAD PUSH32 0x96C6FD1E00000000000000000000000000000000000000000000000000000000 DUP2 MSTORE PUSH1 0x4 ADD PUSH2 0xA7F SWAP2 SWAP1 PUSH2 0x1C16 JUMP JUMPDEST PUSH1 0x40 MLOAD DUP1 SWAP2 SUB SWAP1 REVERT JUMPDEST PUSH0 PUSH20 0xFFFFFFFFFFFFFFFFFFFFFFFFFFFFFFFFFFFFFFFF AND DUP3 PUSH20 0xFFFFFFFFFFFFFFFFFFFFFFFFFFFFFFFFFFFFFFFF AND SUB PUSH2 0xAF8 JUMPI PUSH0 PUSH1 0x40 MLOAD PUSH32 0xEC442F0500000000000000000000000000000000000000000000000000000000 DUP2 MSTORE PUSH1 0x4 ADD PUSH2 0xAEF SWAP2 SWAP1 PUSH2 0x1C16 JUMP JUMPDEST PUSH1 0x40 MLOAD DUP1 SWAP2 SUB SWAP1 REVERT JUMPDEST PUSH2 0xB03 DUP4 DUP4 DUP4 PUSH2 0x112B JUMP JUMPDEST POP POP POP JUMP JUMPDEST PUSH0 PUSH32 0x0 PUSH20 0xFFFFFFFFFFFFFFFFFFFFFFFFFFFFFFFFFFFFFFFF AND ADDRESS PUSH20 0xFFFFFFFFFFFFFFFFFFFFFFFFFFFFFFFFFFFFFFFF AND EQ DUP1 ISZERO PUSH2 0xB83 JUMPI POP PUSH32 0x0 CHAINID EQ JUMPDEST ISZERO PUSH2 0xBB0 JUMPI PUSH32 0x0 SWAP1 POP PUSH2 0xBBB JUMP JUMPDEST PUSH2 0xBB8 PUSH2 0x1344 JUMP JUMPDEST SWAP1 POP JUMPDEST SWAP1 JUMP JUMPDEST PUSH2 0xBC6 PUSH2 0x96D JUMP JUMPDEST PUSH20 0xFFFFFFFFFFFFFFFFFFFFFFFFFFFFFFFFFFFFFFFF AND PUSH2 0xBE4 PUSH2 0x648 JUMP JUMPDEST PUSH20 0xFFFFFFFFFFFFFFFFFFFFFFFFFFFFFFFFFFFFFFFF AND EQ PUSH2 0xC43 JUMPI PUSH2 0xC07 PUSH2 0x96D JUMP JUMPDEST PUSH1 0x40 MLOAD PUSH32 0x118CDAA700000000000000000000000000000000000000000000000000000000 DUP2 MSTORE PUSH1 0x4 ADD PUSH2 0xC3A SWAP2 SWAP1 PUSH2 0x1C16 JUMP JUMPDEST PUSH1 0x40 MLOAD DUP1 SWAP2 SUB SWAP1 REVERT JUMPDEST JUMP JUMPDEST PUSH0 PUSH20 0xFFFFFFFFFFFFFFFFFFFFFFFFFFFFFFFFFFFFFFFF AND DUP3 PUSH20 0xFFFFFFFFFFFFFFFFFFFFFFFFFFFFFFFFFFFFFFFF AND SUB PUSH2 0xCB5 JUMPI PUSH0 PUSH1 0x40 MLOAD PUSH32 0xEC442F0500000000000000000000000000000000000000000000000000000000 DUP2 MSTORE PUSH1 0x4 ADD PUSH2 0xCAC SWAP2 SWAP1 PUSH2 0x1C16 JUMP JUMPDEST PUSH1 0x40 MLOAD DUP1 SWAP2 SUB SWAP1 REVERT JUMPDEST PUSH2 0xCC0 PUSH0 DUP4 DUP4 PUSH2 0x112B JUMP JUMPDEST POP POP JUMP JUMPDEST PUSH0 PUSH20 0xFFFFFFFFFFFFFFFFFFFFFFFFFFFFFFFFFFFFFFFF AND DUP3 PUSH20 0xFFFFFFFFFFFFFFFFFFFFFFFFFFFFFFFFFFFFFFFF AND SUB PUSH2 0xD34 JUMPI PUSH0 PUSH1 0x40 MLOAD PUSH32 0x96C6FD1E00000000000000000000000000000000000000000000000000000000 DUP2 MSTORE PUSH1 0x4 ADD PUSH2 0xD2B SWAP2 SWAP1 PUSH2 0x1C16 JUMP JUMPDEST PUSH1 0x40 MLOAD DUP1 SWAP2 SUB SWAP1 REVERT JUMPDEST PUSH2 0xD3F DUP3 PUSH0 DUP4 PUSH2 0x112B JUMP JUMPDEST POP POP JUMP JUMPDEST PUSH0 PUSH1 0x8 PUSH0 SWAP1 SLOAD SWAP1 PUSH2 0x100 EXP SWAP1 DIV PUSH20 0xFFFFFFFFFFFFFFFFFFFFFFFFFFFFFFFFFFFFFFFF AND SWAP1 POP DUP2 PUSH1 0x8 PUSH0 PUSH2 0x100 EXP DUP2 SLOAD DUP2 PUSH20 0xFFFFFFFFFFFFFFFFFFFFFFFFFFFFFFFFFFFFFFFF MUL NOT AND SWAP1 DUP4 PUSH20 0xFFFFFFFFFFFFFFFFFFFFFFFFFFFFFFFFFFFFFFFF AND MUL OR SWAP1 SSTORE POP DUP2 PUSH20 0xFFFFFFFFFFFFFFFFFFFFFFFFFFFFFFFFFFFFFFFF AND DUP2 PUSH20 0xFFFFFFFFFFFFFFFFFFFFFFFFFFFFFFFFFFFFFFFF AND PUSH32 0x8BE0079C531659141344CD1FD0A4F28419497F9722A3DAAFE3B4186F6B6457E0 PUSH1 0x40 MLOAD PUSH1 0x40 MLOAD DUP1 SWAP2 SUB SWAP1 LOG3 POP POP JUMP JUMPDEST PUSH0 PUSH1 0x7 PUSH0 DUP4 PUSH20 0xFFFFFFFFFFFFFFFFFFFFFFFFFFFFFFFFFFFFFFFF AND PUSH20 0xFFFFFFFFFFFFFFFFFFFFFFFFFFFFFFFFFFFFFFFF AND DUP2 MSTORE PUSH1 0x20 ADD SWAP1 DUP2 MSTORE PUSH1 0x20 ADD PUSH0 KECCAK256 SLOAD SWAP1 POP SWAP2 SWAP1 POP JUMP JUMPDEST PUSH1 0x60 PUSH2 0xE82 PUSH1 0x5 PUSH32 0x0 PUSH2 0x13D9 SWAP1 SWAP2 SWAP1 PUSH4 0xFFFFFFFF AND JUMP JUMPDEST SWAP1 POP SWAP1 JUMP JUMPDEST PUSH1 0x60 PUSH2 0xEBD PUSH1 0x6 PUSH32 0x0 PUSH2 0x13D9 SWAP1 SWAP2 SWAP1 PUSH4 0xFFFFFFFF AND JUMP JUMPDEST SWAP1 POP SWAP1 JUMP JUMPDEST PUSH0 PUSH1 0x7 PUSH0 DUP4 PUSH20 0xFFFFFFFFFFFFFFFFFFFFFFFFFFFFFFFFFFFFFFFF AND PUSH20 0xFFFFFFFFFFFFFFFFFFFFFFFFFFFFFFFFFFFFFFFF AND DUP2 MSTORE PUSH1 0x20 ADD SWAP1 DUP2 MSTORE PUSH1 0x20 ADD PUSH0 KECCAK256 PUSH0 DUP2 SLOAD DUP1 SWAP3 SWAP2 SWAP1 PUSH1 0x1 ADD SWAP2 SWAP1 POP SSTORE SWAP1 POP SWAP2 SWAP1 POP JUMP JUMPDEST PUSH0 PUSH2 0xF27 PUSH2 0xF21 PUSH2 0xB08 JUMP JUMPDEST DUP4 PUSH2 0x1486 JUMP JUMPDEST SWAP1 POP SWAP2 SWAP1 POP JUMP JUMPDEST PUSH0 DUP1 PUSH0 DUP1 PUSH2 0xF3E DUP9 DUP9 DUP9 DUP9 PUSH2 0x14C6 JUMP JUMPDEST SWAP3 POP SWAP3 POP SWAP3 POP PUSH2 0xF4E DUP3 DUP3 PUSH2 0x15AD JUMP JUMPDEST DUP3 SWAP4 POP POP POP POP SWAP5 SWAP4 POP POP POP POP JUMP JUMPDEST PUSH0 PUSH20 0xFFFFFFFFFFFFFFFFFFFFFFFFFFFFFFFFFFFFFFFF AND DUP5 PUSH20 0xFFFFFFFFFFFFFFFFFFFFFFFFFFFFFFFFFFFFFFFF AND SUB PUSH2 0xFCC JUMPI PUSH0 PUSH1 0x40 MLOAD PUSH32 0xE602DF0500000000000000000000000000000000000000000000000000000000 DUP2 MSTORE PUSH1 0x4 ADD PUSH2 0xFC3 SWAP2 SWAP1 PUSH2 0x1C16 JUMP JUMPDEST PUSH1 0x40 MLOAD DUP1 SWAP2 SUB SWAP1 REVERT JUMPDEST PUSH0 PUSH20 0xFFFFFFFFFFFFFFFFFFFFFFFFFFFFFFFFFFFFFFFF AND DUP4 PUSH20 0xFFFFFFFFFFFFFFFFFFFFFFFFFFFFFFFFFFFFFFFF AND SUB PUSH2 0x103C JUMPI PUSH0 PUSH1 0x40 MLOAD PUSH32 0x94280D6200000000000000000000000000000000000000000000000000000000 DUP2 MSTORE PUSH1 0x4 ADD PUSH2 0x1033 SWAP2 SWAP1 PUSH2 0x1C16 JUMP JUMPDEST PUSH1 0x40 MLOAD DUP1 SWAP2 SUB SWAP1 REVERT JUMPDEST DUP2 PUSH1 0x1 PUSH0 DUP7 PUSH20 0xFFFFFFFFFFFFFFFFFFFFFFFFFFFFFFFFFFFFFFFF AND PUSH20 0xFFFFFFFFFFFFFFFFFFFFFFFFFFFFFFFFFFFFFFFF AND DUP2 MSTORE PUSH1 0x20 ADD SWAP1 DUP2 MSTORE PUSH1 0x20 ADD PUSH0 KECCAK256 PUSH0 DUP6 PUSH20 0xFFFFFFFFFFFFFFFFFFFFFFFFFFFFFFFFFFFFFFFF AND PUSH20 0xFFFFFFFFFFFFFFFFFFFFFFFFFFFFFFFFFFFFFFFF AND DUP2 MSTORE PUSH1 0x20 ADD SWAP1 DUP2 MSTORE PUSH1 0x20 ADD PUSH0 KECCAK256 DUP2 SWAP1 SSTORE POP DUP1 ISZERO PUSH2 0x1125 JUMPI DUP3 PUSH20 0xFFFFFFFFFFFFFFFFFFFFFFFFFFFFFFFFFFFFFFFF AND DUP5 PUSH20 0xFFFFFFFFFFFFFFFFFFFFFFFFFFFFFFFFFFFFFFFF AND PUSH32 0x8C5BE1E5EBEC7D5BD14F71427D1E84F3DD0314C0F7B2291E5B200AC8C7C3B925 DUP5 PUSH1 0x40 MLOAD PUSH2 0x111C SWAP2 SWAP1 PUSH2 0x1970 JUMP JUMPDEST PUSH1 0x40 MLOAD DUP1 SWAP2 SUB SWAP1 LOG3 JUMPDEST POP POP POP POP JUMP JUMPDEST PUSH0 PUSH20 0xFFFFFFFFFFFFFFFFFFFFFFFFFFFFFFFFFFFFFFFF AND DUP4 PUSH20 0xFFFFFFFFFFFFFFFFFFFFFFFFFFFFFFFFFFFFFFFF AND SUB PUSH2 0x117B JUMPI DUP1 PUSH1 0x2 PUSH0 DUP3 DUP3 SLOAD PUSH2 0x116F SWAP2 SWAP1 PUSH2 0x1DE8 JUMP JUMPDEST SWAP3 POP POP DUP2 SWAP1 SSTORE POP PUSH2 0x1249 JUMP JUMPDEST PUSH0 DUP1 PUSH0 DUP6 PUSH20 0xFFFFFFFFFFFFFFFFFFFFFFFFFFFFFFFFFFFFFFFF AND PUSH20 0xFFFFFFFFFFFFFFFFFFFFFFFFFFFFFFFFFFFFFFFF AND DUP2 MSTORE PUSH1 0x20 ADD SWAP1 DUP2 MSTORE PUSH1 0x20 ADD PUSH0 KECCAK256 SLOAD SWAP1 POP DUP2 DUP2 LT ISZERO PUSH2 0x1204 JUMPI DUP4 DUP2 DUP4 PUSH1 0x40 MLOAD PUSH32 0xE450D38C00000000000000000000000000000000000000000000000000000000 DUP2 MSTORE PUSH1 0x4 ADD PUSH2 0x11FB SWAP4 SWAP3 SWAP2 SWAP1 PUSH2 0x1F36 JUMP JUMPDEST PUSH1 0x40 MLOAD DUP1 SWAP2 SUB SWAP1 REVERT JUMPDEST DUP2 DUP2 SUB PUSH0 DUP1 DUP7 PUSH20 0xFFFFFFFFFFFFFFFFFFFFFFFFFFFFFFFFFFFFFFFF AND PUSH20 0xFFFFFFFFFFFFFFFFFFFFFFFFFFFFFFFFFFFFFFFF AND DUP2 MSTORE PUSH1 0x20 ADD SWAP1 DUP2 MSTORE PUSH1 0x20 ADD PUSH0 KECCAK256 DUP2 SWAP1 SSTORE POP POP JUMPDEST PUSH0 PUSH20 0xFFFFFFFFFFFFFFFFFFFFFFFFFFFFFFFFFFFFFFFF AND DUP3 PUSH20 0xFFFFFFFFFFFFFFFFFFFFFFFFFFFFFFFFFFFFFFFF AND SUB PUSH2 0x1290 JUMPI DUP1 PUSH1 0x2 PUSH0 DUP3 DUP3 SLOAD SUB SWAP3 POP POP DUP2 SWAP1 SSTORE POP PUSH2 0x12DA JUMP JUMPDEST DUP1 PUSH0 DUP1 DUP5 PUSH20 0xFFFFFFFFFFFFFFFFFFFFFFFFFFFFFFFFFFFFFFFF AND PUSH20 0xFFFFFFFFFFFFFFFFFFFFFFFFFFFFFFFFFFFFFFFF AND DUP2 MSTORE PUSH1 0x20 ADD SWAP1 DUP2 MSTORE PUSH1 0x20 ADD PUSH0 KECCAK256 PUSH0 DUP3 DUP3 SLOAD ADD SWAP3 POP POP DUP2 SWAP1 SSTORE POP JUMPDEST DUP2 PUSH20 0xFFFFFFFFFFFFFFFFFFFFFFFFFFFFFFFFFFFFFFFF AND DUP4 PUSH20 0xFFFFFFFFFFFFFFFFFFFFFFFFFFFFFFFFFFFFFFFF AND PUSH32 0xDDF252AD1BE2C89B69C2B068FC378DAA952BA7F163C4A11628F55A4DF523B3EF DUP4 PUSH1 0x40 MLOAD PUSH2 0x1337 SWAP2 SWAP1 PUSH2 0x1970 JUMP JUMPDEST PUSH1 0x40 MLOAD DUP1 SWAP2 SUB SWAP1 LOG3 POP POP POP JUMP JUMPDEST PUSH0 PUSH32 0x8B73C3C69BB8FE3D512ECC4CF759CC79239F7B179B0FFACAA9A75D522B39400F PUSH32 0x0 PUSH32 0x0 CHAINID ADDRESS PUSH1 0x40 MLOAD PUSH1 0x20 ADD PUSH2 0x13BE SWAP6 SWAP5 SWAP4 SWAP3 SWAP2 SWAP1 PUSH2 0x1F6B JUMP JUMPDEST PUSH1 0x40 MLOAD PUSH1 0x20 DUP2 DUP4 SUB SUB DUP2 MSTORE SWAP1 PUSH1 0x40 MSTORE DUP1 MLOAD SWAP1 PUSH1 0x20 ADD KECCAK256 SWAP1 POP SWAP1 JUMP JUMPDEST PUSH1 0x60 PUSH1 0xFF PUSH0 SHL DUP4 EQ PUSH2 0x13F5 JUMPI PUSH2 0x13EE DUP4 PUSH2 0x170F JUMP JUMPDEST SWAP1 POP PUSH2 0x1480 JUMP JUMPDEST DUP2 DUP1 SLOAD PUSH2 0x1401 SWAP1 PUSH2 0x1D8B JUMP JUMPDEST DUP1 PUSH1 0x1F ADD PUSH1 0x20 DUP1 SWAP2 DIV MUL PUSH1 0x20 ADD PUSH1 0x40 MLOAD SWAP1 DUP2 ADD PUSH1 0x40 MSTORE DUP1 SWAP3 SWAP2 SWAP1 DUP2 DUP2 MSTORE PUSH1 0x20 ADD DUP3 DUP1 SLOAD PUSH2 0x142D SWAP1 PUSH2 0x1D8B JUMP JUMPDEST DUP1 ISZERO PUSH2 0x1478 JUMPI DUP1 PUSH1 0x1F LT PUSH2 0x144F JUMPI PUSH2 0x100 DUP1 DUP4 SLOAD DIV MUL DUP4 MSTORE SWAP2 PUSH1 0x20 ADD SWAP2 PUSH2 0x1478 JUMP JUMPDEST DUP3 ADD SWAP2 SWAP1 PUSH0 MSTORE PUSH1 0x20 PUSH0 KECCAK256 SWAP1 JUMPDEST DUP2 SLOAD DUP2 MSTORE SWAP1 PUSH1 0x1 ADD SWAP1 PUSH1 0x20 ADD DUP1 DUP4 GT PUSH2 0x145B JUMPI DUP3 SWAP1 SUB PUSH1 0x1F AND DUP3 ADD SWAP2 JUMPDEST POP POP POP POP POP SWAP1 POP JUMPDEST SWAP3 SWAP2 POP POP JUMP JUMPDEST PUSH0 PUSH1 0x40 MLOAD PUSH32 0x1901000000000000000000000000000000000000000000000000000000000000 DUP2 MSTORE DUP4 PUSH1 0x2 DUP3 ADD MSTORE DUP3 PUSH1 0x22 DUP3 ADD MSTORE PUSH1 0x42 DUP2 KECCAK256 SWAP2 POP POP SWAP3 SWAP2 POP POP JUMP JUMPDEST PUSH0 DUP1 PUSH0 PUSH32 0x7FFFFFFFFFFFFFFFFFFFFFFFFFFFFFFF5D576E7357A4501DDFE92F46681B20A0 DUP5 PUSH0 SHR GT ISZERO PUSH2 0x1502 JUMPI PUSH0 PUSH1 0x3 DUP6 SWAP3 POP SWAP3 POP SWAP3 POP PUSH2 0x15A3 JUMP JUMPDEST PUSH0 PUSH1 0x1 DUP9 DUP9 DUP9 DUP9 PUSH1 0x40 MLOAD PUSH0 DUP2 MSTORE PUSH1 0x20 ADD PUSH1 0x40 MSTORE PUSH1 0x40 MLOAD PUSH2 0x1525 SWAP5 SWAP4 SWAP3 SWAP2 SWAP1 PUSH2 0x1FBC JUMP JUMPDEST PUSH1 0x20 PUSH1 0x40 MLOAD PUSH1 0x20 DUP2 SUB SWAP1 DUP1 DUP5 SUB SWAP1 DUP6 GAS STATICCALL ISZERO DUP1 ISZERO PUSH2 0x1545 JUMPI RETURNDATASIZE PUSH0 DUP1 RETURNDATACOPY RETURNDATASIZE PUSH0 REVERT JUMPDEST POP POP POP PUSH1 0x20 PUSH1 0x40 MLOAD SUB MLOAD SWAP1 POP PUSH0 PUSH20 0xFFFFFFFFFFFFFFFFFFFFFFFFFFFFFFFFFFFFFFFF AND DUP2 PUSH20 0xFFFFFFFFFFFFFFFFFFFFFFFFFFFFFFFFFFFFFFFF AND SUB PUSH2 0x1596 JUMPI PUSH0 PUSH1 0x1 PUSH0 DUP1 SHL SWAP4 POP SWAP4 POP SWAP4 POP POP PUSH2 0x15A3 JUMP JUMPDEST DUP1 PUSH0 DUP1 PUSH0 SHL SWAP4 POP SWAP4 POP SWAP4 POP POP JUMPDEST SWAP5 POP SWAP5 POP SWAP5 SWAP2 POP POP JUMP JUMPDEST PUSH0 PUSH1 0x3 DUP2 GT ISZERO PUSH2 0x15C0 JUMPI PUSH2 0x15BF PUSH2 0x1FFF JUMP JUMPDEST JUMPDEST DUP3 PUSH1 0x3 DUP2 GT ISZERO PUSH2 0x15D3 JUMPI PUSH2 0x15D2 PUSH2 0x1FFF JUMP JUMPDEST JUMPDEST SUB ISZERO PUSH2 0x170B JUMPI PUSH1 0x1 PUSH1 0x3 DUP2 GT ISZERO PUSH2 0x15ED JUMPI PUSH2 0x15EC PUSH2 0x1FFF JUMP JUMPDEST JUMPDEST DUP3 PUSH1 0x3 DUP2 GT ISZERO PUSH2 0x1600 JUMPI PUSH2 0x15FF PUSH2 0x1FFF JUMP JUMPDEST JUMPDEST SUB PUSH2 0x1637 JUMPI PUSH1 0x40 MLOAD PUSH32 0xF645EEDF00000000000000000000000000000000000000000000000000000000 DUP2 MSTORE PUSH1 0x4 ADD PUSH1 0x40 MLOAD DUP1 SWAP2 SUB SWAP1 REVERT JUMPDEST PUSH1 0x2 PUSH1 0x3 DUP2 GT ISZERO PUSH2 0x164B JUMPI PUSH2 0x164A PUSH2 0x1FFF JUMP JUMPDEST JUMPDEST DUP3 PUSH1 0x3 DUP2 GT ISZERO PUSH2 0x165E JUMPI PUSH2 0x165D PUSH2 0x1FFF JUMP JUMPDEST JUMPDEST SUB PUSH2 0x16A2 JUMPI DUP1 PUSH0 SHR PUSH1 0x40 MLOAD PUSH32 0xFCE698F700000000000000000000000000000000000000000000000000000000 DUP2 MSTORE PUSH1 0x4 ADD PUSH2 0x1699 SWAP2 SWAP1 PUSH2 0x1970 JUMP JUMPDEST PUSH1 0x40 MLOAD DUP1 SWAP2 SUB SWAP1 REVERT JUMPDEST PUSH1 0x3 DUP1 DUP2 GT ISZERO PUSH2 0x16B5 JUMPI PUSH2 0x16B4 PUSH2 0x1FFF JUMP JUMPDEST JUMPDEST DUP3 PUSH1 0x3 DUP2 GT ISZERO PUSH2 0x16C8 JUMPI PUSH2 0x16C7 PUSH2 0x1FFF JUMP JUMPDEST JUMPDEST SUB PUSH2 0x170A JUMPI DUP1 PUSH1 0x40 MLOAD PUSH32 0xD78BCE0C00000000000000000000000000000000000000000000000000000000 DUP2 MSTORE PUSH1 0x4 ADD PUSH2 0x1701 SWAP2 SWAP1 PUSH2 0x1A25 JUMP JUMPDEST PUSH1 0x40 MLOAD DUP1 SWAP2 SUB SWAP1 REVERT JUMPDEST JUMPDEST POP POP JUMP JUMPDEST PUSH1 0x60 PUSH0 PUSH2 0x171B DUP4 PUSH2 0x1781 JUMP JUMPDEST SWAP1 POP PUSH0 PUSH1 0x20 PUSH8 0xFFFFFFFFFFFFFFFF DUP2 GT ISZERO PUSH2 0x1739 JUMPI PUSH2 0x1738 PUSH2 0x1E83 JUMP JUMPDEST JUMPDEST PUSH1 0x40 MLOAD SWAP1 DUP1 DUP3 MSTORE DUP1 PUSH1 0x1F ADD PUSH1 0x1F NOT AND PUSH1 0x20 ADD DUP3 ADD PUSH1 0x40 MSTORE DUP1 ISZERO PUSH2 0x176B JUMPI DUP2 PUSH1 0x20 ADD PUSH1 0x1 DUP3 MUL DUP1 CALLDATASIZE DUP4 CALLDATACOPY DUP1 DUP3 ADD SWAP2 POP POP SWAP1 POP JUMPDEST POP SWAP1 POP DUP2 DUP2 MSTORE DUP4 PUSH1 0x20 DUP3 ADD MSTORE DUP1 SWAP3 POP POP POP SWAP2 SWAP1 POP JUMP JUMPDEST PUSH0 DUP1 PUSH1 0xFF DUP4 PUSH0 SHR AND SWAP1 POP PUSH1 0x1F DUP2 GT ISZERO PUSH2 0x17C6 JUMPI PUSH1 0x40 MLOAD PUSH32 0xB3512B0C00000000000000000000000000000000000000000000000000000000 DUP2 MSTORE PUSH1 0x4 ADD PUSH1 0x40 MLOAD DUP1 SWAP2 SUB SWAP1 REVERT JUMPDEST DUP1 SWAP2 POP POP SWAP2 SWAP1 POP JUMP JUMPDEST PUSH0 DUP2 MLOAD SWAP1 POP SWAP2 SWAP1 POP JUMP JUMPDEST PUSH0 DUP3 DUP3 MSTORE PUSH1 0x20 DUP3 ADD SWAP1 POP SWAP3 SWAP2 POP POP JUMP JUMPDEST DUP3 DUP2 DUP4 MCOPY PUSH0 DUP4 DUP4 ADD MSTORE POP POP POP JUMP JUMPDEST PUSH0 PUSH1 0x1F NOT PUSH1 0x1F DUP4 ADD AND SWAP1 POP SWAP2 SWAP1 POP JUMP JUMPDEST PUSH0 PUSH2 0x1811 DUP3 PUSH2 0x17CF JUMP JUMPDEST PUSH2 0x181B DUP2 DUP6 PUSH2 0x17D9 JUMP JUMPDEST SWAP4 POP PUSH2 0x182B DUP2 DUP6 PUSH1 0x20 DUP7 ADD PUSH2 0x17E9 JUMP JUMPDEST PUSH2 0x1834 DUP2 PUSH2 0x17F7 JUMP JUMPDEST DUP5 ADD SWAP2 POP POP SWAP3 SWAP2 POP POP JUMP JUMPDEST PUSH0 PUSH1 0x20 DUP3 ADD SWAP1 POP DUP2 DUP2 SUB PUSH0 DUP4 ADD MSTORE PUSH2 0x1857 DUP2 DUP5 PUSH2 0x1807 JUMP JUMPDEST SWAP1 POP SWAP3 SWAP2 POP POP JUMP JUMPDEST PUSH0 DUP1 REVERT JUMPDEST PUSH0 PUSH20 0xFFFFFFFFFFFFFFFFFFFFFFFFFFFFFFFFFFFFFFFF DUP3 AND SWAP1 POP SWAP2 SWAP1 POP JUMP JUMPDEST PUSH0 PUSH2 0x188C DUP3 PUSH2 0x1863 JUMP JUMPDEST SWAP1 POP SWAP2 SWAP1 POP JUMP JUMPDEST PUSH2 0x189C DUP2 PUSH2 0x1882 JUMP JUMPDEST DUP2 EQ PUSH2 0x18A6 JUMPI PUSH0 DUP1 REVERT JUMPDEST POP JUMP JUMPDEST PUSH0 DUP2 CALLDATALOAD SWAP1 POP PUSH2 0x18B7 DUP2 PUSH2 0x1893 JUMP JUMPDEST SWAP3 SWAP2 POP POP JUMP JUMPDEST PUSH0 DUP2 SWAP1 POP SWAP2 SWAP1 POP JUMP JUMPDEST PUSH2 0x18CF DUP2 PUSH2 0x18BD JUMP JUMPDEST DUP2 EQ PUSH2 0x18D9 JUMPI PUSH0 DUP1 REVERT JUMPDEST POP JUMP JUMPDEST PUSH0 DUP2 CALLDATALOAD SWAP1 POP PUSH2 0x18EA DUP2 PUSH2 0x18C6 JUMP JUMPDEST SWAP3 SWAP2 POP POP JUMP JUMPDEST PUSH0 DUP1 PUSH1 0x40 DUP4 DUP6 SUB SLT ISZERO PUSH2 0x1906 JUMPI PUSH2 0x1905 PUSH2 0x185F JUMP JUMPDEST JUMPDEST PUSH0 PUSH2 0x1913 DUP6 DUP3 DUP7 ADD PUSH2 0x18A9 JUMP JUMPDEST SWAP3 POP POP PUSH1 0x20 PUSH2 0x1924 DUP6 DUP3 DUP7 ADD PUSH2 0x18DC JUMP JUMPDEST SWAP2 POP POP SWAP3 POP SWAP3 SWAP1 POP JUMP JUMPDEST PUSH0 DUP2 ISZERO ISZERO SWAP1 POP SWAP2 SWAP1 POP JUMP JUMPDEST PUSH2 0x1942 DUP2 PUSH2 0x192E JUMP JUMPDEST DUP3 MSTORE POP POP JUMP JUMPDEST PUSH0 PUSH1 0x20 DUP3 ADD SWAP1 POP PUSH2 0x195B PUSH0 DUP4 ADD DUP5 PUSH2 0x1939 JUMP JUMPDEST SWAP3 SWAP2 POP POP JUMP JUMPDEST PUSH2 0x196A DUP2 PUSH2 0x18BD JUMP JUMPDEST DUP3 MSTORE POP POP JUMP JUMPDEST PUSH0 PUSH1 0x20 DUP3 ADD SWAP1 POP PUSH2 0x1983 PUSH0 DUP4 ADD DUP5 PUSH2 0x1961 JUMP JUMPDEST SWAP3 SWAP2 POP POP JUMP JUMPDEST PUSH0 DUP1 PUSH0 PUSH1 0x60 DUP5 DUP7 SUB SLT ISZERO PUSH2 0x19A0 JUMPI PUSH2 0x199F PUSH2 0x185F JUMP JUMPDEST JUMPDEST PUSH0 PUSH2 0x19AD DUP7 DUP3 DUP8 ADD PUSH2 0x18A9 JUMP JUMPDEST SWAP4 POP POP PUSH1 0x20 PUSH2 0x19BE DUP7 DUP3 DUP8 ADD PUSH2 0x18A9 JUMP JUMPDEST SWAP3 POP POP PUSH1 0x40 PUSH2 0x19CF DUP7 DUP3 DUP8 ADD PUSH2 0x18DC JUMP JUMPDEST SWAP2 POP POP SWAP3 POP SWAP3 POP SWAP3 JUMP JUMPDEST PUSH0 PUSH1 0xFF DUP3 AND SWAP1 POP SWAP2 SWAP1 POP JUMP JUMPDEST PUSH2 0x19EE DUP2 PUSH2 0x19D9 JUMP JUMPDEST DUP3 MSTORE POP POP JUMP JUMPDEST PUSH0 PUSH1 0x20 DUP3 ADD SWAP1 POP PUSH2 0x1A07 PUSH0 DUP4 ADD DUP5 PUSH2 0x19E5 JUMP JUMPDEST SWAP3 SWAP2 POP POP JUMP JUMPDEST PUSH0 DUP2 SWAP1 POP SWAP2 SWAP1 POP JUMP JUMPDEST PUSH2 0x1A1F DUP2 PUSH2 0x1A0D JUMP JUMPDEST DUP3 MSTORE POP POP JUMP JUMPDEST PUSH0 PUSH1 0x20 DUP3 ADD SWAP1 POP PUSH2 0x1A38 PUSH0 DUP4 ADD DUP5 PUSH2 0x1A16 JUMP JUMPDEST SWAP3 SWAP2 POP POP JUMP JUMPDEST PUSH0 PUSH1 0x20 DUP3 DUP5 SUB SLT ISZERO PUSH2 0x1A53 JUMPI PUSH2 0x1A52 PUSH2 0x185F JUMP JUMPDEST JUMPDEST PUSH0 PUSH2 0x1A60 DUP5 DUP3 DUP6 ADD PUSH2 0x18DC JUMP JUMPDEST SWAP2 POP POP SWAP3 SWAP2 POP POP JUMP JUMPDEST PUSH0 PUSH1 0x20 DUP3 DUP5 SUB SLT ISZERO PUSH2 0x1A7E JUMPI PUSH2 0x1A7D PUSH2 0x185F JUMP JUMPDEST JUMPDEST PUSH0 PUSH2 0x1A8B DUP5 DUP3 DUP6 ADD PUSH2 0x18A9 JUMP JUMPDEST SWAP2 POP POP SWAP3 SWAP2 POP POP JUMP JUMPDEST PUSH0 PUSH32 0xFF00000000000000000000000000000000000000000000000000000000000000 DUP3 AND SWAP1 POP SWAP2 SWAP1 POP JUMP JUMPDEST PUSH2 0x1AC8 DUP2 PUSH2 0x1A94 JUMP JUMPDEST DUP3 MSTORE POP POP JUMP JUMPDEST PUSH2 0x1AD7 DUP2 PUSH2 0x1882 JUMP JUMPDEST DUP3 MSTORE POP POP JUMP JUMPDEST PUSH0 DUP2 MLOAD SWAP1 POP SWAP2 SWAP1 POP JUMP JUMPDEST PUSH0 DUP3 DUP3 MSTORE PUSH1 0x20 DUP3 ADD SWAP1 POP SWAP3 SWAP2 POP POP JUMP JUMPDEST PUSH0 DUP2 SWAP1 POP PUSH1 0x20 DUP3 ADD SWAP1 POP SWAP2 SWAP1 POP JUMP JUMPDEST PUSH2 0x1B0F DUP2 PUSH2 0x18BD JUMP JUMPDEST DUP3 MSTORE POP POP JUMP JUMPDEST PUSH0 PUSH2 0x1B20 DUP4 DUP4 PUSH2 0x1B06 JUMP JUMPDEST PUSH1 0x20 DUP4 ADD SWAP1 POP SWAP3 SWAP2 POP POP JUMP JUMPDEST PUSH0 PUSH1 0x20 DUP3 ADD SWAP1 POP SWAP2 SWAP1 POP JUMP JUMPDEST PUSH0 PUSH2 0x1B42 DUP3 PUSH2 0x1ADD JUMP JUMPDEST PUSH2 0x1B4C DUP2 DUP6 PUSH2 0x1AE7 JUMP JUMPDEST SWAP4 POP PUSH2 0x1B57 DUP4 PUSH2 0x1AF7 JUMP JUMPDEST DUP1 PUSH0 JUMPDEST DUP4 DUP2 LT ISZERO PUSH2 0x1B87 JUMPI DUP2 MLOAD PUSH2 0x1B6E DUP9 DUP3 PUSH2 0x1B15 JUMP JUMPDEST SWAP8 POP PUSH2 0x1B79 DUP4 PUSH2 0x1B2C JUMP JUMPDEST SWAP3 POP POP PUSH1 0x1 DUP2 ADD SWAP1 POP PUSH2 0x1B5A JUMP JUMPDEST POP DUP6 SWAP4 POP POP POP POP SWAP3 SWAP2 POP POP JUMP JUMPDEST PUSH0 PUSH1 0xE0 DUP3 ADD SWAP1 POP PUSH2 0x1BA7 PUSH0 DUP4 ADD DUP11 PUSH2 0x1ABF JUMP JUMPDEST DUP2 DUP2 SUB PUSH1 0x20 DUP4 ADD MSTORE PUSH2 0x1BB9 DUP2 DUP10 PUSH2 0x1807 JUMP JUMPDEST SWAP1 POP DUP2 DUP2 SUB PUSH1 0x40 DUP4 ADD MSTORE PUSH2 0x1BCD DUP2 DUP9 PUSH2 0x1807 JUMP JUMPDEST SWAP1 POP PUSH2 0x1BDC PUSH1 0x60 DUP4 ADD DUP8 PUSH2 0x1961 JUMP JUMPDEST PUSH2 0x1BE9 PUSH1 0x80 DUP4 ADD DUP7 PUSH2 0x1ACE JUMP JUMPDEST PUSH2 0x1BF6 PUSH1 0xA0 DUP4 ADD DUP6 PUSH2 0x1A16 JUMP JUMPDEST DUP2 DUP2 SUB PUSH1 0xC0 DUP4 ADD MSTORE PUSH2 0x1C08 DUP2 DUP5 PUSH2 0x1B38 JUMP JUMPDEST SWAP1 POP SWAP9 SWAP8 POP POP POP POP POP POP POP POP JUMP JUMPDEST PUSH0 PUSH1 0x20 DUP3 ADD SWAP1 POP PUSH2 0x1C29 PUSH0 DUP4 ADD DUP5 PUSH2 0x1ACE JUMP JUMPDEST SWAP3 SWAP2 POP POP JUMP JUMPDEST PUSH2 0x1C38 DUP2 PUSH2 0x19D9 JUMP JUMPDEST DUP2 EQ PUSH2 0x1C42 JUMPI PUSH0 DUP1 REVERT JUMPDEST POP JUMP JUMPDEST PUSH0 DUP2 CALLDATALOAD SWAP1 POP PUSH2 0x1C53 DUP2 PUSH2 0x1C2F JUMP JUMPDEST SWAP3 SWAP2 POP POP JUMP JUMPDEST PUSH2 0x1C62 DUP2 PUSH2 0x1A0D JUMP JUMPDEST DUP2 EQ PUSH2 0x1C6C JUMPI PUSH0 DUP1 REVERT JUMPDEST POP JUMP JUMPDEST PUSH0 DUP2 CALLDATALOAD SWAP1 POP PUSH2 0x1C7D DUP2 PUSH2 0x1C59 JUMP JUMPDEST SWAP3 SWAP2 POP POP JUMP JUMPDEST PUSH0 DUP1 PUSH0 DUP1 PUSH0 DUP1 PUSH0 PUSH1 0xE0 DUP9 DUP11 SUB SLT ISZERO PUSH2 0x1C9E JUMPI PUSH2 0x1C9D PUSH2 0x185F JUMP JUMPDEST JUMPDEST PUSH0 PUSH2 0x1CAB DUP11 DUP3 DUP12 ADD PUSH2 0x18A9 JUMP JUMPDEST SWAP8 POP POP PUSH1 0x20 PUSH2 0x1CBC DUP11 DUP3 DUP12 ADD PUSH2 0x18A9 JUMP JUMPDEST SWAP7 POP POP PUSH1 0x40 PUSH2 0x1CCD DUP11 DUP3 DUP12 ADD PUSH2 0x18DC JUMP JUMPDEST SWAP6 POP POP PUSH1 0x60 PUSH2 0x1CDE DUP11 DUP3 DUP12 ADD PUSH2 0x18DC JUMP JUMPDEST SWAP5 POP POP PUSH1 0x80 PUSH2 0x1CEF DUP11 DUP3 DUP12 ADD PUSH2 0x1C45 JUMP JUMPDEST SWAP4 POP POP PUSH1 0xA0 PUSH2 0x1D00 DUP11 DUP3 DUP12 ADD PUSH2 0x1C6F JUMP JUMPDEST SWAP3 POP POP PUSH1 0xC0 PUSH2 0x1D11 DUP11 DUP3 DUP12 ADD PUSH2 0x1C6F JUMP JUMPDEST SWAP2 POP POP SWAP3 SWAP6 SWAP9 SWAP2 SWAP5 SWAP8 POP SWAP3 SWAP6 POP JUMP JUMPDEST PUSH0 DUP1 PUSH1 0x40 DUP4 DUP6 SUB SLT ISZERO PUSH2 0x1D36 JUMPI PUSH2 0x1D35 PUSH2 0x185F JUMP JUMPDEST JUMPDEST PUSH0 PUSH2 0x1D43 DUP6 DUP3 DUP7 ADD PUSH2 0x18A9 JUMP JUMPDEST SWAP3 POP POP PUSH1 0x20 PUSH2 0x1D54 DUP6 DUP3 DUP7 ADD PUSH2 0x18A9 JUMP JUMPDEST SWAP2 POP POP SWAP3 POP SWAP3 SWAP1 POP JUMP JUMPDEST PUSH32 0x4E487B7100000000000000000000000000000000000000000000000000000000 PUSH0 MSTORE PUSH1 0x22 PUSH1 0x4 MSTORE PUSH1 0x24 PUSH0 REVERT JUMPDEST PUSH0 PUSH1 0x2 DUP3 DIV SWAP1 POP PUSH1 0x1 DUP3 AND DUP1 PUSH2 0x1DA2 JUMPI PUSH1 0x7F DUP3 AND SWAP2 POP JUMPDEST PUSH1 0x20 DUP3 LT DUP2 SUB PUSH2 0x1DB5 JUMPI PUSH2 0x1DB4 PUSH2 0x1D5E JUMP JUMPDEST JUMPDEST POP SWAP2 SWAP1 POP JUMP JUMPDEST PUSH32 0x4E487B7100000000000000000000000000000000000000000000000000000000 PUSH0 MSTORE PUSH1 0x11 PUSH1 0x4 MSTORE PUSH1 0x24 PUSH0 REVERT JUMPDEST PUSH0 PUSH2 0x1DF2 DUP3 PUSH2 0x18BD JUMP JUMPDEST SWAP2 POP PUSH2 0x1DFD DUP4 PUSH2 0x18BD JUMP JUMPDEST SWAP3 POP DUP3 DUP3 ADD SWAP1 POP DUP1 DUP3 GT ISZERO PUSH2 0x1E15 JUMPI PUSH2 0x1E14 PUSH2 0x1DBB JUMP JUMPDEST JUMPDEST SWAP3 SWAP2 POP POP JUMP JUMPDEST PUSH32 0x746F74616C20737570706C792031303025206D696E7465640000000000000000 PUSH0 DUP3 ADD MSTORE POP JUMP JUMPDEST PUSH0 PUSH2 0x1E4F PUSH1 0x18 DUP4 PUSH2 0x17D9 JUMP JUMPDEST SWAP2 POP PUSH2 0x1E5A DUP3 PUSH2 0x1E1B JUMP JUMPDEST PUSH1 0x20 DUP3 ADD SWAP1 POP SWAP2 SWAP1 POP JUMP JUMPDEST PUSH0 PUSH1 0x20 DUP3 ADD SWAP1 POP DUP2 DUP2 SUB PUSH0 DUP4 ADD MSTORE PUSH2 0x1E7C DUP2 PUSH2 0x1E43 JUMP JUMPDEST SWAP1 POP SWAP2 SWAP1 POP JUMP JUMPDEST PUSH32 0x4E487B7100000000000000000000000000000000000000000000000000000000 PUSH0 MSTORE PUSH1 0x41 PUSH1 0x4 MSTORE PUSH1 0x24 PUSH0 REVERT JUMPDEST PUSH0 PUSH1 0xC0 DUP3 ADD SWAP1 POP PUSH2 0x1EC3 PUSH0 DUP4 ADD DUP10 PUSH2 0x1A16 JUMP JUMPDEST PUSH2 0x1ED0 PUSH1 0x20 DUP4 ADD DUP9 PUSH2 0x1ACE JUMP JUMPDEST PUSH2 0x1EDD PUSH1 0x40 DUP4 ADD DUP8 PUSH2 0x1ACE JUMP JUMPDEST PUSH2 0x1EEA PUSH1 0x60 DUP4 ADD DUP7 PUSH2 0x1961 JUMP JUMPDEST PUSH2 0x1EF7 PUSH1 0x80 DUP4 ADD DUP6 PUSH2 0x1961 JUMP JUMPDEST PUSH2 0x1F04 PUSH1 0xA0 DUP4 ADD DUP5 PUSH2 0x1961 JUMP JUMPDEST SWAP8 SWAP7 POP POP POP POP POP POP POP JUMP JUMPDEST PUSH0 PUSH1 0x40 DUP3 ADD SWAP1 POP PUSH2 0x1F22 PUSH0 DUP4 ADD DUP6 PUSH2 0x1ACE JUMP JUMPDEST PUSH2 0x1F2F PUSH1 0x20 DUP4 ADD DUP5 PUSH2 0x1ACE JUMP JUMPDEST SWAP4 SWAP3 POP POP POP JUMP JUMPDEST PUSH0 PUSH1 0x60 DUP3 ADD SWAP1 POP PUSH2 0x1F49 PUSH0 DUP4 ADD DUP7 PUSH2 0x1ACE JUMP JUMPDEST PUSH2 0x1F56 PUSH1 0x20 DUP4 ADD DUP6 PUSH2 0x1961 JUMP JUMPDEST PUSH2 0x1F63 PUSH1 0x40 DUP4 ADD DUP5 PUSH2 0x1961 JUMP JUMPDEST SWAP5 SWAP4 POP POP POP POP JUMP JUMPDEST PUSH0 PUSH1 0xA0 DUP3 ADD SWAP1 POP PUSH2 0x1F7E PUSH0 DUP4 ADD DUP9 PUSH2 0x1A16 JUMP JUMPDEST PUSH2 0x1F8B PUSH1 0x20 DUP4 ADD DUP8 PUSH2 0x1A16 JUMP JUMPDEST PUSH2 0x1F98 PUSH1 0x40 DUP4 ADD DUP7 PUSH2 0x1A16 JUMP JUMPDEST PUSH2 0x1FA5 PUSH1 0x60 DUP4 ADD DUP6 PUSH2 0x1961 JUMP JUMPDEST PUSH2 0x1FB2 PUSH1 0x80 DUP4 ADD DUP5 PUSH2 0x1ACE JUMP JUMPDEST SWAP7 SWAP6 POP POP POP POP POP POP JUMP JUMPDEST PUSH0 PUSH1 0x80 DUP3 ADD SWAP1 POP PUSH2 0x1FCF PUSH0 DUP4 ADD DUP8 PUSH2 0x1A16 JUMP JUMPDEST PUSH2 0x1FDC PUSH1 0x20 DUP4 ADD DUP7 PUSH2 0x19E5 JUMP JUMPDEST PUSH2 0x1FE9 PUSH1 0x40 DUP4 ADD DUP6 PUSH2 0x1A16 JUMP JUMPDEST PUSH2 0x1FF6 PUSH1 0x60 DUP4 ADD DUP5 PUSH2 0x1A16 JUMP JUMPDEST SWAP6 SWAP5 POP POP POP POP POP JUMP JUMPDEST PUSH32 0x4E487B7100000000000000000000000000000000000000000000000000000000 PUSH0 MSTORE PUSH1 0x21 PUSH1 0x4 MSTORE PUSH1 0x24 PUSH0 REVERT INVALID LOG2 PUSH5 0x6970667358 0x22 SLT KECCAK256 0xED PUSH28 0xA2FBECE994CEC33B82BD3BCFA4D6228010E2ECDE8829BCD73D43009 PUSH30 0xBE64736F6C634300081A0033000000000000000000000000000000000000 "
		},
		"gasEstimates": {
			"creation": {
				"codeDepositCost": "1658000",
				"executionCost": "infinite",
				"totalCost": "infinite"
			},
			"external": {
				"DOMAIN_SEPARATOR()": "infinite",
				"allowance(address,address)": "infinite",
				"approve(address,uint256)": "infinite",
				"balanceOf(address)": "2940",
				"burn(uint256)": "infinite",
				"decimals()": "361",
				"eip712Domain()": "infinite",
				"maxRutra()": "2470",
				"mint(address,uint256)": "infinite",
				"name()": "infinite",
				"nonces(address)": "2938",
				"owner()": "2626",
				"permit(address,address,uint256,uint256,uint8,bytes32,bytes32)": "infinite",
				"renounceOwnership()": "infinite",
				"symbol()": "infinite",
				"totalSupply()": "2500",
				"transfer(address,uint256)": "infinite",
				"transferFrom(address,address,uint256)": "infinite",
				"transferOwnership(address)": "infinite"
			}
		},
		"methodIdentifiers": {
			"DOMAIN_SEPARATOR()": "3644e515",
			"allowance(address,address)": "dd62ed3e",
			"approve(address,uint256)": "095ea7b3",
			"balanceOf(address)": "70a08231",
			"burn(uint256)": "42966c68",
			"decimals()": "313ce567",
			"eip712Domain()": "84b0196e",
			"maxRutra()": "7e1921f5",
			"mint(address,uint256)": "40c10f19",
			"name()": "06fdde03",
			"nonces(address)": "7ecebe00",
			"owner()": "8da5cb5b",
			"permit(address,address,uint256,uint256,uint8,bytes32,bytes32)": "d505accf",
			"renounceOwnership()": "715018a6",
			"symbol()": "95d89b41",
			"totalSupply()": "18160ddd",
			"transfer(address,uint256)": "a9059cbb",
			"transferFrom(address,address,uint256)": "23b872dd",
			"transferOwnership(address)": "f2fde38b"
		}
	},
	"abi": [
		{
			"inputs": [],
			"stateMutability": "nonpayable",
			"type": "constructor"
		},
		{
			"inputs": [],
			"name": "ECDSAInvalidSignature",
			"type": "error"
		},
		{
			"inputs": [
				{
					"internalType": "uint256",
					"name": "length",
					"type": "uint256"
				}
			],
			"name": "ECDSAInvalidSignatureLength",
			"type": "error"
		},
		{
			"inputs": [
				{
					"internalType": "bytes32",
					"name": "s",
					"type": "bytes32"
				}
			],
			"name": "ECDSAInvalidSignatureS",
			"type": "error"
		},
		{
			"inputs": [
				{
					"internalType": "address",
					"name": "spender",
					"type": "address"
				},
				{
					"internalType": "uint256",
					"name": "allowance",
					"type": "uint256"
				},
				{
					"internalType": "uint256",
					"name": "needed",
					"type": "uint256"
				}
			],
			"name": "ERC20InsufficientAllowance",
			"type": "error"
		},
		{
			"inputs": [
				{
					"internalType": "address",
					"name": "sender",
					"type": "address"
				},
				{
					"internalType": "uint256",
					"name": "balance",
					"type": "uint256"
				},
				{
					"internalType": "uint256",
					"name": "needed",
					"type": "uint256"
				}
			],
			"name": "ERC20InsufficientBalance",
			"type": "error"
		},
		{
			"inputs": [
				{
					"internalType": "address",
					"name": "approver",
					"type": "address"
				}
			],
			"name": "ERC20InvalidApprover",
			"type": "error"
		},
		{
			"inputs": [
				{
					"internalType": "address",
					"name": "receiver",
					"type": "address"
				}
			],
			"name": "ERC20InvalidReceiver",
			"type": "error"
		},
		{
			"inputs": [
				{
					"internalType": "address",
					"name": "sender",
					"type": "address"
				}
			],
			"name": "ERC20InvalidSender",
			"type": "error"
		},
		{
			"inputs": [
				{
					"internalType": "address",
					"name": "spender",
					"type": "address"
				}
			],
			"name": "ERC20InvalidSpender",
			"type": "error"
		},
		{
			"inputs": [
				{
					"internalType": "uint256",
					"name": "deadline",
					"type": "uint256"
				}
			],
			"name": "ERC2612ExpiredSignature",
			"type": "error"
		},
		{
			"inputs": [
				{
					"internalType": "address",
					"name": "signer",
					"type": "address"
				},
				{
					"internalType": "address",
					"name": "owner",
					"type": "address"
				}
			],
			"name": "ERC2612InvalidSigner",
			"type": "error"
		},
		{
			"inputs": [
				{
					"internalType": "address",
					"name": "account",
					"type": "address"
				},
				{
					"internalType": "uint256",
					"name": "currentNonce",
					"type": "uint256"
				}
			],
			"name": "InvalidAccountNonce",
			"type": "error"
		},
		{
			"inputs": [],
			"name": "InvalidShortString",
			"type": "error"
		},
		{
			"inputs": [
				{
					"internalType": "address",
					"name": "owner",
					"type": "address"
				}
			],
			"name": "OwnableInvalidOwner",
			"type": "error"
		},
		{
			"inputs": [
				{
					"internalType": "address",
					"name": "account",
					"type": "address"
				}
			],
			"name": "OwnableUnauthorizedAccount",
			"type": "error"
		},
		{
			"inputs": [
				{
					"internalType": "string",
					"name": "str",
					"type": "string"
				}
			],
			"name": "StringTooLong",
			"type": "error"
		},
		{
			"anonymous": false,
			"inputs": [
				{
					"indexed": true,
					"internalType": "address",
					"name": "owner",
					"type": "address"
				},
				{
					"indexed": true,
					"internalType": "address",
					"name": "spender",
					"type": "address"
				},
				{
					"indexed": false,
					"internalType": "uint256",
					"name": "value",
					"type": "uint256"
				}
			],
			"name": "Approval",
			"type": "event"
		},
		{
			"anonymous": false,
			"inputs": [],
			"name": "EIP712DomainChanged",
			"type": "event"
		},
		{
			"anonymous": false,
			"inputs": [
				{
					"indexed": true,
					"internalType": "address",
					"name": "previousOwner",
					"type": "address"
				},
				{
					"indexed": true,
					"internalType": "address",
					"name": "newOwner",
					"type": "address"
				}
			],
			"name": "OwnershipTransferred",
			"type": "event"
		},
		{
			"anonymous": false,
			"inputs": [
				{
					"indexed": true,
					"internalType": "address",
					"name": "from",
					"type": "address"
				},
				{
					"indexed": true,
					"internalType": "address",
					"name": "to",
					"type": "address"
				},
				{
					"indexed": false,
					"internalType": "uint256",
					"name": "value",
					"type": "uint256"
				}
			],
			"name": "Transfer",
			"type": "event"
		},
		{
			"inputs": [],
			"name": "DOMAIN_SEPARATOR",
			"outputs": [
				{
					"internalType": "bytes32",
					"name": "",
					"type": "bytes32"
				}
			],
			"stateMutability": "view",
			"type": "function"
		},
		{
			"inputs": [
				{
					"internalType": "address",
					"name": "owner",
					"type": "address"
				},
				{
					"internalType": "address",
					"name": "spender",
					"type": "address"
				}
			],
			"name": "allowance",
			"outputs": [
				{
					"internalType": "uint256",
					"name": "",
					"type": "uint256"
				}
			],
			"stateMutability": "view",
			"type": "function"
		},
		{
			"inputs": [
				{
					"internalType": "address",
					"name": "spender",
					"type": "address"
				},
				{
					"internalType": "uint256",
					"name": "value",
					"type": "uint256"
				}
			],
			"name": "approve",
			"outputs": [
				{
					"internalType": "bool",
					"name": "",
					"type": "bool"
				}
			],
			"stateMutability": "nonpayable",
			"type": "function"
		},
		{
			"inputs": [
				{
					"internalType": "address",
					"name": "account",
					"type": "address"
				}
			],
			"name": "balanceOf",
			"outputs": [
				{
					"internalType": "uint256",
					"name": "",
					"type": "uint256"
				}
			],
			"stateMutability": "view",
			"type": "function"
		},
		{
			"inputs": [
				{
					"internalType": "uint256",
					"name": "_amount",
					"type": "uint256"
				}
			],
			"name": "burn",
			"outputs": [],
			"stateMutability": "nonpayable",
			"type": "function"
		},
		{
			"inputs": [],
			"name": "decimals",
			"outputs": [
				{
					"internalType": "uint8",
					"name": "",
					"type": "uint8"
				}
			],
			"stateMutability": "view",
			"type": "function"
		},
		{
			"inputs": [],
			"name": "eip712Domain",
			"outputs": [
				{
					"internalType": "bytes1",
					"name": "fields",
					"type": "bytes1"
				},
				{
					"internalType": "string",
					"name": "name",
					"type": "string"
				},
				{
					"internalType": "string",
					"name": "version",
					"type": "string"
				},
				{
					"internalType": "uint256",
					"name": "chainId",
					"type": "uint256"
				},
				{
					"internalType": "address",
					"name": "verifyingContract",
					"type": "address"
				},
				{
					"internalType": "bytes32",
					"name": "salt",
					"type": "bytes32"
				},
				{
					"internalType": "uint256[]",
					"name": "extensions",
					"type": "uint256[]"
				}
			],
			"stateMutability": "view",
			"type": "function"
		},
		{
			"inputs": [],
			"name": "maxRutra",
			"outputs": [
				{
					"internalType": "uint256",
					"name": "",
					"type": "uint256"
				}
			],
			"stateMutability": "view",
			"type": "function"
		},
		{
			"inputs": [
				{
					"internalType": "address",
					"name": "_to",
					"type": "address"
				},
				{
					"internalType": "uint256",
					"name": "_amount",
					"type": "uint256"
				}
			],
			"name": "mint",
			"outputs": [],
			"stateMutability": "nonpayable",
			"type": "function"
		},
		{
			"inputs": [],
			"name": "name",
			"outputs": [
				{
					"internalType": "string",
					"name": "",
					"type": "string"
				}
			],
			"stateMutability": "view",
			"type": "function"
		},
		{
			"inputs": [
				{
					"internalType": "address",
					"name": "owner",
					"type": "address"
				}
			],
			"name": "nonces",
			"outputs": [
				{
					"internalType": "uint256",
					"name": "",
					"type": "uint256"
				}
			],
			"stateMutability": "view",
			"type": "function"
		},
		{
			"inputs": [],
			"name": "owner",
			"outputs": [
				{
					"internalType": "address",
					"name": "",
					"type": "address"
				}
			],
			"stateMutability": "view",
			"type": "function"
		},
		{
			"inputs": [
				{
					"internalType": "address",
					"name": "owner",
					"type": "address"
				},
				{
					"internalType": "address",
					"name": "spender",
					"type": "address"
				},
				{
					"internalType": "uint256",
					"name": "value",
					"type": "uint256"
				},
				{
					"internalType": "uint256",
					"name": "deadline",
					"type": "uint256"
				},
				{
					"internalType": "uint8",
					"name": "v",
					"type": "uint8"
				},
				{
					"internalType": "bytes32",
					"name": "r",
					"type": "bytes32"
				},
				{
					"internalType": "bytes32",
					"name": "s",
					"type": "bytes32"
				}
			],
			"name": "permit",
			"outputs": [],
			"stateMutability": "nonpayable",
			"type": "function"
		},
		{
			"inputs": [],
			"name": "renounceOwnership",
			"outputs": [],
			"stateMutability": "nonpayable",
			"type": "function"
		},
		{
			"inputs": [],
			"name": "symbol",
			"outputs": [
				{
					"internalType": "string",
					"name": "",
					"type": "string"
				}
			],
			"stateMutability": "view",
			"type": "function"
		},
		{
			"inputs": [],
			"name": "totalSupply",
			"outputs": [
				{
					"internalType": "uint256",
					"name": "",
					"type": "uint256"
				}
			],
			"stateMutability": "view",
			"type": "function"
		},
		{
			"inputs": [
				{
					"internalType": "address",
					"name": "to",
					"type": "address"
				},
				{
					"internalType": "uint256",
					"name": "value",
					"type": "uint256"
				}
			],
			"name": "transfer",
			"outputs": [
				{
					"internalType": "bool",
					"name": "",
					"type": "bool"
				}
			],
			"stateMutability": "nonpayable",
			"type": "function"
		},
		{
			"inputs": [
				{
					"internalType": "address",
					"name": "from",
					"type": "address"
				},
				{
					"internalType": "address",
					"name": "to",
					"type": "address"
				},
				{
					"internalType": "uint256",
					"name": "value",
					"type": "uint256"
				}
			],
			"name": "transferFrom",
			"outputs": [
				{
					"internalType": "bool",
					"name": "",
					"type": "bool"
				}
			],
			"stateMutability": "nonpayable",
			"type": "function"
		},
		{
			"inputs": [
				{
					"internalType": "address",
					"name": "newOwner",
					"type": "address"
				}
			],
			"name": "transferOwnership",
			"outputs": [],
			"stateMutability": "nonpayable",
			"type": "function"
		}
	]
}